{
  "_format": "hh-sol-artifact-1",
  "contractName": "_0xBitcoinToken",
  "sourceName": "contracts/0xBitcoinExtended.sol",
  "abi": [
    {
      "constant": true,
      "inputs": [],
      "name": "name",
      "outputs": [
        {
          "name": "",
          "type": "string"
        }
      ],
      "payable": false,
      "stateMutability": "view",
      "type": "function"
    },
    {
      "constant": false,
      "inputs": [
        {
          "name": "spender",
          "type": "address"
        },
        {
          "name": "tokens",
          "type": "uint256"
        }
      ],
      "name": "approve",
      "outputs": [
        {
          "name": "success",
          "type": "bool"
        }
      ],
      "payable": false,
      "stateMutability": "nonpayable",
      "type": "function"
    },
    {
      "constant": true,
      "inputs": [],
      "name": "lastRewardEthBlockNumber",
      "outputs": [
        {
          "name": "",
          "type": "uint256"
        }
      ],
      "payable": false,
      "stateMutability": "view",
      "type": "function"
    },
    {
      "constant": true,
      "inputs": [],
      "name": "getMiningDifficulty",
      "outputs": [
        {
          "name": "",
          "type": "uint256"
        }
      ],
      "payable": false,
      "stateMutability": "view",
      "type": "function"
    },
    {
      "constant": false,
      "inputs": [
        {
          "name": "nonce",
          "type": "uint256"
        },
        {
          "name": "challenge_digest",
          "type": "bytes32"
        }
      ],
      "name": "mint",
      "outputs": [
        {
          "name": "success",
          "type": "bool"
        }
      ],
      "payable": false,
      "stateMutability": "nonpayable",
      "type": "function"
    },
    {
      "constant": true,
      "inputs": [],
      "name": "totalSupply",
      "outputs": [
        {
          "name": "",
          "type": "uint256"
        }
      ],
      "payable": false,
      "stateMutability": "view",
      "type": "function"
    },
    {
      "constant": false,
      "inputs": [
        {
          "name": "from",
          "type": "address"
        },
        {
          "name": "to",
          "type": "address"
        },
        {
          "name": "tokens",
          "type": "uint256"
        }
      ],
      "name": "transferFrom",
      "outputs": [
        {
          "name": "success",
          "type": "bool"
        }
      ],
      "payable": false,
      "stateMutability": "nonpayable",
      "type": "function"
    },
    {
      "constant": true,
      "inputs": [],
      "name": "rewardEra",
      "outputs": [
        {
          "name": "",
          "type": "uint256"
        }
      ],
      "payable": false,
      "stateMutability": "view",
      "type": "function"
    },
    {
      "constant": true,
      "inputs": [],
      "name": "decimals",
      "outputs": [
        {
          "name": "",
          "type": "uint8"
        }
      ],
      "payable": false,
      "stateMutability": "view",
      "type": "function"
    },
    {
      "constant": true,
      "inputs": [],
      "name": "getMiningTarget",
      "outputs": [
        {
          "name": "",
          "type": "uint256"
        }
      ],
      "payable": false,
      "stateMutability": "view",
      "type": "function"
    },
    {
      "constant": true,
      "inputs": [],
      "name": "_totalSupply",
      "outputs": [
        {
          "name": "",
          "type": "uint256"
        }
      ],
      "payable": false,
      "stateMutability": "view",
      "type": "function"
    },
    {
      "constant": true,
      "inputs": [],
      "name": "getMiningReward",
      "outputs": [
        {
          "name": "",
          "type": "uint256"
        }
      ],
      "payable": false,
      "stateMutability": "view",
      "type": "function"
    },
    {
      "constant": true,
      "inputs": [],
      "name": "getChallengeNumber",
      "outputs": [
        {
          "name": "",
          "type": "bytes32"
        }
      ],
      "payable": false,
      "stateMutability": "view",
      "type": "function"
    },
    {
      "constant": true,
      "inputs": [],
      "name": "maxSupplyForEra",
      "outputs": [
        {
          "name": "",
          "type": "uint256"
        }
      ],
      "payable": false,
      "stateMutability": "view",
      "type": "function"
    },
    {
      "constant": false,
      "inputs": [],
      "name": "mintWithoutPoW",
      "outputs": [
        {
          "name": "success",
          "type": "bool"
        }
      ],
      "payable": false,
      "stateMutability": "nonpayable",
      "type": "function"
    },
    {
      "constant": false,
      "inputs": [
        {
          "name": "amt",
          "type": "uint256"
        }
      ],
      "name": "setTokensMinted",
      "outputs": [],
      "payable": false,
      "stateMutability": "nonpayable",
      "type": "function"
    },
    {
      "constant": true,
      "inputs": [],
      "name": "tokensMinted",
      "outputs": [
        {
          "name": "",
          "type": "uint256"
        }
      ],
      "payable": false,
      "stateMutability": "view",
      "type": "function"
    },
    {
      "constant": true,
      "inputs": [],
      "name": "lastRewardTo",
      "outputs": [
        {
          "name": "",
          "type": "address"
        }
      ],
      "payable": false,
      "stateMutability": "view",
      "type": "function"
    },
    {
      "constant": true,
      "inputs": [
        {
          "name": "tokenOwner",
          "type": "address"
        }
      ],
      "name": "balanceOf",
      "outputs": [
        {
          "name": "balance",
          "type": "uint256"
        }
      ],
      "payable": false,
      "stateMutability": "view",
      "type": "function"
    },
    {
      "constant": false,
      "inputs": [],
      "name": "acceptOwnership",
      "outputs": [],
      "payable": false,
      "stateMutability": "nonpayable",
      "type": "function"
    },
    {
      "constant": true,
      "inputs": [
        {
          "name": "nonce",
          "type": "uint256"
        },
        {
          "name": "challenge_digest",
          "type": "bytes32"
        },
        {
          "name": "challenge_number",
          "type": "bytes32"
        },
        {
          "name": "testTarget",
          "type": "uint256"
        }
      ],
      "name": "checkMintSolution",
      "outputs": [
        {
          "name": "success",
          "type": "bool"
        }
      ],
      "payable": false,
      "stateMutability": "view",
      "type": "function"
    },
    {
      "constant": true,
      "inputs": [],
      "name": "epochCount",
      "outputs": [
        {
          "name": "",
          "type": "uint256"
        }
      ],
      "payable": false,
      "stateMutability": "view",
      "type": "function"
    },
    {
      "constant": true,
      "inputs": [],
      "name": "_MAXIMUM_TARGET",
      "outputs": [
        {
          "name": "",
          "type": "uint256"
        }
      ],
      "payable": false,
      "stateMutability": "view",
      "type": "function"
    },
    {
      "constant": true,
      "inputs": [],
      "name": "miningTarget",
      "outputs": [
        {
          "name": "",
          "type": "uint256"
        }
      ],
      "payable": false,
      "stateMutability": "view",
      "type": "function"
    },
    {
      "constant": true,
      "inputs": [],
      "name": "challengeNumber",
      "outputs": [
        {
          "name": "",
          "type": "bytes32"
        }
      ],
      "payable": false,
      "stateMutability": "view",
      "type": "function"
    },
    {
      "constant": true,
      "inputs": [],
      "name": "owner",
      "outputs": [
        {
          "name": "",
          "type": "address"
        }
      ],
      "payable": false,
      "stateMutability": "view",
      "type": "function"
    },
    {
      "constant": true,
      "inputs": [],
      "name": "symbol",
      "outputs": [
        {
          "name": "",
          "type": "string"
        }
      ],
      "payable": false,
      "stateMutability": "view",
      "type": "function"
    },
    {
      "constant": true,
      "inputs": [
        {
          "name": "nonce",
          "type": "uint256"
        },
        {
          "name": "challenge_digest",
          "type": "bytes32"
        },
        {
          "name": "challenge_number",
          "type": "bytes32"
        }
      ],
      "name": "getMintDigest",
      "outputs": [
        {
          "name": "digesttest",
          "type": "bytes32"
        }
      ],
      "payable": false,
      "stateMutability": "view",
      "type": "function"
    },
    {
      "constant": false,
      "inputs": [
        {
          "name": "to",
          "type": "address"
        },
        {
          "name": "tokens",
          "type": "uint256"
        }
      ],
      "name": "transfer",
      "outputs": [
        {
          "name": "success",
          "type": "bool"
        }
      ],
      "payable": false,
      "stateMutability": "nonpayable",
      "type": "function"
    },
    {
      "constant": true,
      "inputs": [],
      "name": "_BLOCKS_PER_READJUSTMENT",
      "outputs": [
        {
          "name": "",
          "type": "uint256"
        }
      ],
      "payable": false,
      "stateMutability": "view",
      "type": "function"
    },
    {
      "constant": true,
      "inputs": [],
      "name": "lastRewardAmount",
      "outputs": [
        {
          "name": "",
          "type": "uint256"
        }
      ],
      "payable": false,
      "stateMutability": "view",
      "type": "function"
    },
    {
      "constant": false,
      "inputs": [
        {
          "name": "spender",
          "type": "address"
        },
        {
          "name": "tokens",
          "type": "uint256"
        },
        {
          "name": "data",
          "type": "bytes"
        }
      ],
      "name": "approveAndCall",
      "outputs": [
        {
          "name": "success",
          "type": "bool"
        }
      ],
      "payable": false,
      "stateMutability": "nonpayable",
      "type": "function"
    },
    {
      "constant": true,
      "inputs": [],
      "name": "latestDifficultyPeriodStarted",
      "outputs": [
        {
          "name": "",
          "type": "uint256"
        }
      ],
      "payable": false,
      "stateMutability": "view",
      "type": "function"
    },
    {
      "constant": true,
      "inputs": [],
      "name": "newOwner",
      "outputs": [
        {
          "name": "",
          "type": "address"
        }
      ],
      "payable": false,
      "stateMutability": "view",
      "type": "function"
    },
    {
      "constant": false,
      "inputs": [
        {
          "name": "tokenAddress",
          "type": "address"
        },
        {
          "name": "tokens",
          "type": "uint256"
        }
      ],
      "name": "transferAnyERC20Token",
      "outputs": [
        {
          "name": "success",
          "type": "bool"
        }
      ],
      "payable": false,
      "stateMutability": "nonpayable",
      "type": "function"
    },
    {
      "constant": true,
      "inputs": [],
      "name": "_MINIMUM_TARGET",
      "outputs": [
        {
          "name": "",
          "type": "uint256"
        }
      ],
      "payable": false,
      "stateMutability": "view",
      "type": "function"
    },
    {
      "constant": true,
      "inputs": [
        {
          "name": "tokenOwner",
          "type": "address"
        },
        {
          "name": "spender",
          "type": "address"
        }
      ],
      "name": "allowance",
      "outputs": [
        {
          "name": "remaining",
          "type": "uint256"
        }
      ],
      "payable": false,
      "stateMutability": "view",
      "type": "function"
    },
    {
      "constant": false,
      "inputs": [
        {
          "name": "_newOwner",
          "type": "address"
        }
      ],
      "name": "transferOwnership",
      "outputs": [],
      "payable": false,
      "stateMutability": "nonpayable",
      "type": "function"
    },
    {
      "inputs": [],
      "payable": false,
      "stateMutability": "nonpayable",
      "type": "constructor"
    },
    {
      "payable": true,
      "stateMutability": "payable",
      "type": "fallback"
    },
    {
      "anonymous": false,
      "inputs": [
        {
          "indexed": true,
          "name": "from",
          "type": "address"
        },
        {
          "indexed": false,
          "name": "reward_amount",
          "type": "uint256"
        },
        {
          "indexed": false,
          "name": "epochCount",
          "type": "uint256"
        },
        {
          "indexed": false,
          "name": "newChallengeNumber",
          "type": "bytes32"
        }
      ],
      "name": "Mint",
      "type": "event"
    },
    {
      "anonymous": false,
      "inputs": [
        {
          "indexed": true,
          "name": "_from",
          "type": "address"
        },
        {
          "indexed": true,
          "name": "_to",
          "type": "address"
        }
      ],
      "name": "OwnershipTransferred",
      "type": "event"
    },
    {
      "anonymous": false,
      "inputs": [
        {
          "indexed": true,
          "name": "from",
          "type": "address"
        },
        {
          "indexed": true,
          "name": "to",
          "type": "address"
        },
        {
          "indexed": false,
          "name": "tokens",
          "type": "uint256"
        }
      ],
      "name": "Transfer",
      "type": "event"
    },
    {
      "anonymous": false,
      "inputs": [
        {
          "indexed": true,
          "name": "tokenOwner",
          "type": "address"
        },
        {
          "indexed": true,
          "name": "spender",
          "type": "address"
        },
        {
          "indexed": false,
          "name": "tokens",
          "type": "uint256"
        }
      ],
      "name": "Approval",
      "type": "event"
    }
  ],
  "bytecode": "0x6060604052610400600855620100006009557d040000000000000000000000000000000000000000000000000000000000600a556000601260006101000a81548160ff02191690831515021790555034156200005a57600080fd5b336000806101000a81548173ffffffffffffffffffffffffffffffffffffffff021916908373ffffffffffffffffffffffffffffffffffffffff1602179055506000809054906101000a900473ffffffffffffffffffffffffffffffffffffffff1673ffffffffffffffffffffffffffffffffffffffff163373ffffffffffffffffffffffffffffffffffffffff16141515620000f657600080fd5b6040805190810160405280600581526020017f30784254430000000000000000000000000000000000000000000000000000008152506002908051906020019062000143929190620006f9565b506040805190810160405280600f81526020017f3078426974636f696e20546f6b656e00000000000000000000000000000000008152506003908051906020019062000191929190620006f9565b506008600460006101000a81548160ff021916908360ff160217905550600460009054906101000a900460ff1660ff16600a0a6301406f4002600581905550601260009054906101000a900460ff1615620001eb57600080fd5b6001601260006101000a81548160ff02191690831515021790555060006014819055506000600d819055506200023c6002600554620002766401000000000262001f05179091906401000000009004565b600e81905550600a54600b8190555043600681905550620002706200029c6401000000000262001f45176401000000009004565b620007a8565b600080821115156200028757600080fd5b81838115156200029357fe5b04905092915050565b600e54620002e1620002c1620003b164010000000002620012f6176401000000009004565b601454620003f86401000000000262001f29179091906401000000009004565b118015620002f157506027600d54105b1562000304576001600d5401600d819055505b620003316001600d540160020a600554620002766401000000000262001f05179091906401000000009004565b60055403600e81905550620003616001600754620003f86401000000000262001f29179091906401000000009004565b60078190555060006008546007548115156200037957fe5b061415620003a0576200039f620004156401000000000262002016176401000000009004565b5b6001430340600c8160001916905550565b6000620003f3600d5460020a600460009054906101000a900460ff1660ff16600a0a603202620002766401000000000262001f05179091906401000000009004565b905090565b600081830190508281101515156200040f57600080fd5b92915050565b6000806000806000806000600654430396506008549550603c860294508487101562000546576200048187620004646064886200068a64010000000002620021a7179091906401000000009004565b620002766401000000000262001f05179091906401000000009004565b9350620004cb6103e8620004ae606487620006be6401000000000262001ffa179091906401000000009004565b620006db64010000000002620021d8179091906401000000009004565b92506200053a6200051a84620004fd6107d0600b54620002766401000000000262001f05179091906401000000009004565b6200068a64010000000002620021a7179091906401000000009004565b600b54620006be6401000000000262001ffa179091906401000000009004565b600b819055506200064c565b6200058c856200056f60648a6200068a64010000000002620021a7179091906401000000009004565b620002766401000000000262001f05179091906401000000009004565b9150620005d66103e8620005b9606485620006be6401000000000262001ffa179091906401000000009004565b620006db64010000000002620021d8179091906401000000009004565b9050620006456200062582620006086107d0600b54620002766401000000000262001f05179091906401000000009004565b6200068a64010000000002620021a7179091906401000000009004565b600b54620003f86401000000000262001f29179091906401000000009004565b600b819055505b43600681905550600954600b5410156200066a57600954600b819055505b600a54600b5411156200068157600a54600b819055505b50505050505050565b600081830290506000831480620006ac5750818382811515620006a957fe5b04145b1515620006b857600080fd5b92915050565b6000828211151515620006d057600080fd5b818303905092915050565b600081831115620006ef57819050620006f3565b8290505b92915050565b828054600181600116156101000203166002900490600052602060002090601f016020900481019282601f106200073c57805160ff19168380011785556200076d565b828001600101855582156200076d579182015b828111156200076c5782518255916020019190600101906200074f565b5b5090506200077c919062000780565b5090565b620007a591905b80821115620007a157600081600090555060010162000787565b5090565b90565b61222080620007b86000396000f3006060604052600436106101d8576000357c0100000000000000000000000000000000000000000000000000000000900463ffffffff16806306fdde03146101dd578063095ea7b31461026b578063163aa00d146102c557806317da485f146102ee5780631801fbe51461031757806318160ddd1461035f57806323b872dd146103885780632d38bf7a14610401578063313ce5671461042a57806332e99708146104595780633eaaf86b14610482578063490203a7146104ab5780634ef37628146104d45780634fa972e1146105055780635515a1ea1461052e5780635ce7e0301461055b5780636de9f32b1461057e5780636fd396d6146105a757806370a08231146105fc57806379ba50971461064957806381269a561461065e578063829965cc146106bc57806387a2a9d6146106e55780638a769d351461070e5780638ae0368b146107375780638da5cb5b1461076857806395d89b41146107bd57806397566aa01461084b578063a9059cbb146108a4578063b5ade81b146108fe578063bafedcaa14610927578063cae9ca5114610950578063cb9ae707146109ed578063d4ee1d9014610a16578063dc39d06d14610a6b578063dc6e9cf914610ac5578063dd62ed3e14610aee578063f2fde38b14610b5a575b600080fd5b34156101e857600080fd5b6101f0610b93565b6040518080602001828103825283818151815260200191508051906020019080838360005b83811015610230578082015181840152602081019050610215565b50505050905090810190601f16801561025d5780820380516001836020036101000a031916815260200191505b509250505060405180910390f35b341561027657600080fd5b6102ab600480803573ffffffffffffffffffffffffffffffffffffffff16906020019091908035906020019091905050610c31565b604051808215151515815260200191505060405180910390f35b34156102d057600080fd5b6102d8610d23565b6040518082815260200191505060405180910390f35b34156102f957600080fd5b610301610d29565b6040518082815260200191505060405180910390f35b341561032257600080fd5b610345600480803590602001909190803560001916906020019091905050610d47565b604051808215151515815260200191505060405180910390f35b341561036a57600080fd5b610372610fd7565b6040518082815260200191505060405180910390f35b341561039357600080fd5b6103e7600480803573ffffffffffffffffffffffffffffffffffffffff1690602001909190803573ffffffffffffffffffffffffffffffffffffffff16906020019091908035906020019091905050611022565b604051808215151515815260200191505060405180910390f35b341561040c57600080fd5b6104146112cd565b6040518082815260200191505060405180910390f35b341561043557600080fd5b61043d6112d3565b604051808260ff1660ff16815260200191505060405180910390f35b341561046457600080fd5b61046c6112e6565b6040518082815260200191505060405180910390f35b341561048d57600080fd5b6104956112f0565b6040518082815260200191505060405180910390f35b34156104b657600080fd5b6104be6112f6565b6040518082815260200191505060405180910390f35b34156104df57600080fd5b6104e761132d565b60405180826000191660001916815260200191505060405180910390f35b341561051057600080fd5b610518611337565b6040518082815260200191505060405180910390f35b341561053957600080fd5b61054161133d565b604051808215151515815260200191505060405180910390f35b341561056657600080fd5b61057c6004808035906020019091905050611469565b005b341561058957600080fd5b610591611473565b6040518082815260200191505060405180910390f35b34156105b257600080fd5b6105ba611479565b604051808273ffffffffffffffffffffffffffffffffffffffff1673ffffffffffffffffffffffffffffffffffffffff16815260200191505060405180910390f35b341561060757600080fd5b610633600480803573ffffffffffffffffffffffffffffffffffffffff1690602001909190505061149f565b6040518082815260200191505060405180910390f35b341561065457600080fd5b61065c6114e8565b005b341561066957600080fd5b6106a260048080359060200190919080356000191690602001909190803560001916906020019091908035906020019091905050611687565b604051808215151515815260200191505060405180910390f35b34156106c757600080fd5b6106cf61171c565b6040518082815260200191505060405180910390f35b34156106f057600080fd5b6106f8611722565b6040518082815260200191505060405180910390f35b341561071957600080fd5b610721611728565b6040518082815260200191505060405180910390f35b341561074257600080fd5b61074a61172e565b60405180826000191660001916815260200191505060405180910390f35b341561077357600080fd5b61077b611734565b604051808273ffffffffffffffffffffffffffffffffffffffff1673ffffffffffffffffffffffffffffffffffffffff16815260200191505060405180910390f35b34156107c857600080fd5b6107d0611759565b6040518080602001828103825283818151815260200191508051906020019080838360005b838110156108105780820151818401526020810190506107f5565b50505050905090810190601f16801561083d5780820380516001836020036101000a031916815260200191505b509250505060405180910390f35b341561085657600080fd5b610886600480803590602001909190803560001916906020019091908035600019169060200190919050506117f7565b60405180826000191660001916815260200191505060405180910390f35b34156108af57600080fd5b6108e4600480803573ffffffffffffffffffffffffffffffffffffffff16906020019091908035906020019091905050611870565b604051808215151515815260200191505060405180910390f35b341561090957600080fd5b610911611a0b565b6040518082815260200191505060405180910390f35b341561093257600080fd5b61093a611a11565b6040518082815260200191505060405180910390f35b341561095b57600080fd5b6109d3600480803573ffffffffffffffffffffffffffffffffffffffff1690602001909190803590602001909190803590602001908201803590602001908080601f01602080910402602001604051908101604052809392919081815260200183838082843782019150505050505091905050611a17565b604051808215151515815260200191505060405180910390f35b34156109f857600080fd5b610a00611c61565b6040518082815260200191505060405180910390f35b3415610a2157600080fd5b610a29611c67565b604051808273ffffffffffffffffffffffffffffffffffffffff1673ffffffffffffffffffffffffffffffffffffffff16815260200191505060405180910390f35b3415610a7657600080fd5b610aab600480803573ffffffffffffffffffffffffffffffffffffffff16906020019091908035906020019091905050611c8d565b604051808215151515815260200191505060405180910390f35b3415610ad057600080fd5b610ad8611dd9565b6040518082815260200191505060405180910390f35b3415610af957600080fd5b610b44600480803573ffffffffffffffffffffffffffffffffffffffff1690602001909190803573ffffffffffffffffffffffffffffffffffffffff16906020019091905050611ddf565b6040518082815260200191505060405180910390f35b3415610b6557600080fd5b610b91600480803573ffffffffffffffffffffffffffffffffffffffff16906020019091905050611e66565b005b60038054600181600116156101000203166002900480601f016020809104026020016040519081016040528092919081815260200182805460018160011615610100020316600290048015610c295780601f10610bfe57610100808354040283529160200191610c29565b820191906000526020600020905b815481529060010190602001808311610c0c57829003601f168201915b505050505081565b600081601660003373ffffffffffffffffffffffffffffffffffffffff1673ffffffffffffffffffffffffffffffffffffffff16815260200190815260200160002060008573ffffffffffffffffffffffffffffffffffffffff1673ffffffffffffffffffffffffffffffffffffffff168152602001908152602001600020819055508273ffffffffffffffffffffffffffffffffffffffff163373ffffffffffffffffffffffffffffffffffffffff167f8c5be1e5ebec7d5bd14f71427d1e84f3dd0314c0f7b2291e5b200ac8c7c3b925846040518082815260200191505060405180910390a36001905092915050565b60115481565b6000610d42600b54600a54611f0590919063ffffffff16565b905090565b600080600080600c5433876040518084600019166000191681526020018373ffffffffffffffffffffffffffffffffffffffff1673ffffffffffffffffffffffffffffffffffffffff166c0100000000000000000000000002815260140182815260200193505050506040518091039020925084600019168360001916141515610dd057600080fd5b600b5483600190041115610de357600080fd5b60136000600c54600019166000191681526020019081526020016000205491508260136000600c5460001916600019168152602001908152602001600020816000191690555060006001028260001916141515610e3f57600080fd5b610e476112f6565b9050610e9b81601560003373ffffffffffffffffffffffffffffffffffffffff1673ffffffffffffffffffffffffffffffffffffffff16815260200190815260200160002054611f2990919063ffffffff16565b601560003373ffffffffffffffffffffffffffffffffffffffff1673ffffffffffffffffffffffffffffffffffffffff16815260200190815260200160002081905550610ef381601454611f2990919063ffffffff16565b601481905550600e5460145411151515610f0957fe5b33600f60006101000a81548173ffffffffffffffffffffffffffffffffffffffff021916908373ffffffffffffffffffffffffffffffffffffffff1602179055508060108190555043601181905550610f60611f45565b3373ffffffffffffffffffffffffffffffffffffffff167fcf6fbb9dcea7d07263ab4f5c3a92f53af33dffc421d9d121e1c74b307e68189d82600754600c54604051808481526020018381526020018260001916600019168152602001935050505060405180910390a26001935050505092915050565b6000601560008073ffffffffffffffffffffffffffffffffffffffff1673ffffffffffffffffffffffffffffffffffffffff1681526020019081526020016000205460055403905090565b600061107682601560008773ffffffffffffffffffffffffffffffffffffffff1673ffffffffffffffffffffffffffffffffffffffff16815260200190815260200160002054611ffa90919063ffffffff16565b601560008673ffffffffffffffffffffffffffffffffffffffff1673ffffffffffffffffffffffffffffffffffffffff1681526020019081526020016000208190555061114882601660008773ffffffffffffffffffffffffffffffffffffffff1673ffffffffffffffffffffffffffffffffffffffff16815260200190815260200160002060003373ffffffffffffffffffffffffffffffffffffffff1673ffffffffffffffffffffffffffffffffffffffff16815260200190815260200160002054611ffa90919063ffffffff16565b601660008673ffffffffffffffffffffffffffffffffffffffff1673ffffffffffffffffffffffffffffffffffffffff16815260200190815260200160002060003373ffffffffffffffffffffffffffffffffffffffff1673ffffffffffffffffffffffffffffffffffffffff1681526020019081526020016000208190555061121a82601560008673ffffffffffffffffffffffffffffffffffffffff1673ffffffffffffffffffffffffffffffffffffffff16815260200190815260200160002054611f2990919063ffffffff16565b601560008573ffffffffffffffffffffffffffffffffffffffff1673ffffffffffffffffffffffffffffffffffffffff168152602001908152602001600020819055508273ffffffffffffffffffffffffffffffffffffffff168473ffffffffffffffffffffffffffffffffffffffff167fddf252ad1be2c89b69c2b068fc378daa952ba7f163c4a11628f55a4df523b3ef846040518082815260200191505060405180910390a3600190509392505050565b600d5481565b600460009054906101000a900460ff1681565b6000600b54905090565b60055481565b6000611328600d5460020a600460009054906101000a900460ff1660ff16600a0a603202611f0590919063ffffffff16565b905090565b6000600c54905090565b600e5481565b6000806113486112f6565b905061139c81601560003373ffffffffffffffffffffffffffffffffffffffff1673ffffffffffffffffffffffffffffffffffffffff16815260200190815260200160002054611f2990919063ffffffff16565b601560003373ffffffffffffffffffffffffffffffffffffffff1673ffffffffffffffffffffffffffffffffffffffff168152602001908152602001600020819055506113f481601454611f2990919063ffffffff16565b601481905550600e546014541115151561140a57fe5b33600f60006101000a81548173ffffffffffffffffffffffffffffffffffffffff021916908373ffffffffffffffffffffffffffffffffffffffff1602179055508060108190555043601181905550611461611f45565b600191505090565b8060148190555050565b60145481565b600f60009054906101000a900473ffffffffffffffffffffffffffffffffffffffff1681565b6000601560008373ffffffffffffffffffffffffffffffffffffffff1673ffffffffffffffffffffffffffffffffffffffff168152602001908152602001600020549050919050565b600160009054906101000a900473ffffffffffffffffffffffffffffffffffffffff1673ffffffffffffffffffffffffffffffffffffffff163373ffffffffffffffffffffffffffffffffffffffff1614151561154457600080fd5b600160009054906101000a900473ffffffffffffffffffffffffffffffffffffffff1673ffffffffffffffffffffffffffffffffffffffff166000809054906101000a900473ffffffffffffffffffffffffffffffffffffffff1673ffffffffffffffffffffffffffffffffffffffff167f8be0079c531659141344cd1fd0a4f28419497f9722a3daafe3b4186f6b6457e060405160405180910390a3600160009054906101000a900473ffffffffffffffffffffffffffffffffffffffff166000806101000a81548173ffffffffffffffffffffffffffffffffffffffff021916908373ffffffffffffffffffffffffffffffffffffffff1602179055506000600160006101000a81548173ffffffffffffffffffffffffffffffffffffffff021916908373ffffffffffffffffffffffffffffffffffffffff160217905550565b6000808333876040518084600019166000191681526020018373ffffffffffffffffffffffffffffffffffffffff1673ffffffffffffffffffffffffffffffffffffffff166c01000000000000000000000000028152601401828152602001935050505060405180910390209050828160019004111561170657600080fd5b8460001916816000191614915050949350505050565b60075481565b600a5481565b600b5481565b600c5481565b6000809054906101000a900473ffffffffffffffffffffffffffffffffffffffff1681565b60028054600181600116156101000203166002900480601f0160208091040260200160405190810160405280929190818152602001828054600181600116156101000203166002900480156117ef5780601f106117c4576101008083540402835291602001916117ef565b820191906000526020600020905b8154815290600101906020018083116117d257829003601f168201915b505050505081565b6000808233866040518084600019166000191681526020018373ffffffffffffffffffffffffffffffffffffffff1673ffffffffffffffffffffffffffffffffffffffff166c01000000000000000000000000028152601401828152602001935050505060405180910390209050809150509392505050565b60006118c482601560003373ffffffffffffffffffffffffffffffffffffffff1673ffffffffffffffffffffffffffffffffffffffff16815260200190815260200160002054611ffa90919063ffffffff16565b601560003373ffffffffffffffffffffffffffffffffffffffff1673ffffffffffffffffffffffffffffffffffffffff1681526020019081526020016000208190555061195982601560008673ffffffffffffffffffffffffffffffffffffffff1673ffffffffffffffffffffffffffffffffffffffff16815260200190815260200160002054611f2990919063ffffffff16565b601560008573ffffffffffffffffffffffffffffffffffffffff1673ffffffffffffffffffffffffffffffffffffffff168152602001908152602001600020819055508273ffffffffffffffffffffffffffffffffffffffff163373ffffffffffffffffffffffffffffffffffffffff167fddf252ad1be2c89b69c2b068fc378daa952ba7f163c4a11628f55a4df523b3ef846040518082815260200191505060405180910390a36001905092915050565b60085481565b60105481565b600082601660003373ffffffffffffffffffffffffffffffffffffffff1673ffffffffffffffffffffffffffffffffffffffff16815260200190815260200160002060008673ffffffffffffffffffffffffffffffffffffffff1673ffffffffffffffffffffffffffffffffffffffff168152602001908152602001600020819055508373ffffffffffffffffffffffffffffffffffffffff163373ffffffffffffffffffffffffffffffffffffffff167f8c5be1e5ebec7d5bd14f71427d1e84f3dd0314c0f7b2291e5b200ac8c7c3b925856040518082815260200191505060405180910390a38373ffffffffffffffffffffffffffffffffffffffff16638f4ffcb1338530866040518563ffffffff167c0100000000000000000000000000000000000000000000000000000000028152600401808573ffffffffffffffffffffffffffffffffffffffff1673ffffffffffffffffffffffffffffffffffffffff1681526020018481526020018373ffffffffffffffffffffffffffffffffffffffff1673ffffffffffffffffffffffffffffffffffffffff16815260200180602001828103825283818151815260200191508051906020019080838360005b83811015611bf4578082015181840152602081019050611bd9565b50505050905090810190601f168015611c215780820380516001836020036101000a031916815260200191505b5095505050505050600060405180830381600087803b1515611c4257600080fd5b6102c65a03f11515611c5357600080fd5b505050600190509392505050565b60065481565b600160009054906101000a900473ffffffffffffffffffffffffffffffffffffffff1681565b60008060009054906101000a900473ffffffffffffffffffffffffffffffffffffffff1673ffffffffffffffffffffffffffffffffffffffff163373ffffffffffffffffffffffffffffffffffffffff16141515611cea57600080fd5b8273ffffffffffffffffffffffffffffffffffffffff1663a9059cbb6000809054906101000a900473ffffffffffffffffffffffffffffffffffffffff16846000604051602001526040518363ffffffff167c0100000000000000000000000000000000000000000000000000000000028152600401808373ffffffffffffffffffffffffffffffffffffffff1673ffffffffffffffffffffffffffffffffffffffff16815260200182815260200192505050602060405180830381600087803b1515611db657600080fd5b6102c65a03f11515611dc757600080fd5b50505060405180519050905092915050565b60095481565b6000601660008473ffffffffffffffffffffffffffffffffffffffff1673ffffffffffffffffffffffffffffffffffffffff16815260200190815260200160002060008373ffffffffffffffffffffffffffffffffffffffff1673ffffffffffffffffffffffffffffffffffffffff16815260200190815260200160002054905092915050565b6000809054906101000a900473ffffffffffffffffffffffffffffffffffffffff1673ffffffffffffffffffffffffffffffffffffffff163373ffffffffffffffffffffffffffffffffffffffff16141515611ec157600080fd5b80600160006101000a81548173ffffffffffffffffffffffffffffffffffffffff021916908373ffffffffffffffffffffffffffffffffffffffff16021790555050565b60008082111515611f1557600080fd5b8183811515611f2057fe5b04905092915050565b60008183019050828110151515611f3f57600080fd5b92915050565b600e54611f64611f536112f6565b601454611f2990919063ffffffff16565b118015611f7357506027600d54105b15611f85576001600d5401600d819055505b611fa26001600d540160020a600554611f0590919063ffffffff16565b60055403600e81905550611fc26001600754611f2990919063ffffffff16565b6007819055506000600854600754811515611fd957fe5b061415611fe957611fe8612016565b5b6001430340600c8160001916905550565b600082821115151561200b57600080fd5b818303905092915050565b6000806000806000806000600654430396506008549550603c86029450848710156120d557612061876120536064886121a790919063ffffffff16565b611f0590919063ffffffff16565b935061208b6103e861207d606487611ffa90919063ffffffff16565b6121d890919063ffffffff16565b92506120ca6120b9846120ab6107d0600b54611f0590919063ffffffff16565b6121a790919063ffffffff16565b600b54611ffa90919063ffffffff16565b600b8190555061216b565b6120fb856120ed60648a6121a790919063ffffffff16565b611f0590919063ffffffff16565b91506121256103e8612117606485611ffa90919063ffffffff16565b6121d890919063ffffffff16565b9050612164612153826121456107d0600b54611f0590919063ffffffff16565b6121a790919063ffffffff16565b600b54611f2990919063ffffffff16565b600b819055505b43600681905550600954600b54101561218857600954600b819055505b600a54600b54111561219e57600a54600b819055505b50505050505050565b6000818302905060008314806121c757508183828115156121c457fe5b04145b15156121d257600080fd5b92915050565b6000818311156121ea578190506121ee565b8290505b929150505600a165627a7a72305820378a2814ff16d98526eee2390febba1110f7e47bbf0e39cb4231866e968ceb490029",
  "linkReferences": {},
  "deployedLinkReferences": {}
}