{
  "_format": "hh-sol-artifact-1",
  "contractName": "_0xBitcoinToken",
  "sourceName": "contracts/0xBitcoinExtended.sol",
  "abi": [
    {
      "constant": true,
      "inputs": [],
      "name": "name",
      "outputs": [
        {
          "name": "",
          "type": "string"
        }
      ],
      "payable": false,
      "stateMutability": "view",
      "type": "function"
    },
    {
      "constant": false,
      "inputs": [
        {
          "name": "spender",
          "type": "address"
        },
        {
          "name": "tokens",
          "type": "uint256"
        }
      ],
      "name": "approve",
      "outputs": [
        {
          "name": "success",
          "type": "bool"
        }
      ],
      "payable": false,
      "stateMutability": "nonpayable",
      "type": "function"
    },
    {
      "constant": true,
      "inputs": [],
      "name": "lastRewardEthBlockNumber",
      "outputs": [
        {
          "name": "",
          "type": "uint256"
        }
      ],
      "payable": false,
      "stateMutability": "view",
      "type": "function"
    },
    {
      "constant": true,
      "inputs": [],
      "name": "getMiningDifficulty",
      "outputs": [
        {
          "name": "",
          "type": "uint256"
        }
      ],
      "payable": false,
      "stateMutability": "view",
      "type": "function"
    },
    {
      "constant": false,
      "inputs": [
        {
          "name": "nonce",
          "type": "uint256"
        },
        {
          "name": "challenge_digest",
          "type": "bytes32"
        }
      ],
      "name": "mint",
      "outputs": [
        {
          "name": "success",
          "type": "bool"
        }
      ],
      "payable": false,
      "stateMutability": "nonpayable",
      "type": "function"
    },
    {
      "constant": true,
      "inputs": [],
      "name": "totalSupply",
      "outputs": [
        {
          "name": "",
          "type": "uint256"
        }
      ],
      "payable": false,
      "stateMutability": "view",
      "type": "function"
    },
    {
      "constant": false,
      "inputs": [
        {
          "name": "from",
          "type": "address"
        },
        {
          "name": "to",
          "type": "address"
        },
        {
          "name": "tokens",
          "type": "uint256"
        }
      ],
      "name": "transferFrom",
      "outputs": [
        {
          "name": "success",
          "type": "bool"
        }
      ],
      "payable": false,
      "stateMutability": "nonpayable",
      "type": "function"
    },
    {
      "constant": true,
      "inputs": [],
      "name": "rewardEra",
      "outputs": [
        {
          "name": "",
          "type": "uint256"
        }
      ],
      "payable": false,
      "stateMutability": "view",
      "type": "function"
    },
    {
      "constant": true,
      "inputs": [],
      "name": "decimals",
      "outputs": [
        {
          "name": "",
          "type": "uint8"
        }
      ],
      "payable": false,
      "stateMutability": "view",
      "type": "function"
    },
    {
      "constant": true,
      "inputs": [],
      "name": "getMiningTarget",
      "outputs": [
        {
          "name": "",
          "type": "uint256"
        }
      ],
      "payable": false,
      "stateMutability": "view",
      "type": "function"
    },
    {
      "constant": true,
      "inputs": [],
      "name": "_totalSupply",
      "outputs": [
        {
          "name": "",
          "type": "uint256"
        }
      ],
      "payable": false,
      "stateMutability": "view",
      "type": "function"
    },
    {
      "constant": true,
      "inputs": [],
      "name": "getMiningReward",
      "outputs": [
        {
          "name": "",
          "type": "uint256"
        }
      ],
      "payable": false,
      "stateMutability": "view",
      "type": "function"
    },
    {
      "constant": true,
      "inputs": [],
      "name": "getChallengeNumber",
      "outputs": [
        {
          "name": "",
          "type": "bytes32"
        }
      ],
      "payable": false,
      "stateMutability": "view",
      "type": "function"
    },
    {
      "constant": true,
      "inputs": [],
      "name": "maxSupplyForEra",
      "outputs": [
        {
          "name": "",
          "type": "uint256"
        }
      ],
      "payable": false,
      "stateMutability": "view",
      "type": "function"
    },
    {
      "constant": false,
      "inputs": [],
      "name": "mintWithoutPoW",
      "outputs": [
        {
          "name": "success",
          "type": "bool"
        }
      ],
      "payable": false,
      "stateMutability": "nonpayable",
      "type": "function"
    },
    {
      "constant": false,
      "inputs": [
        {
          "name": "amt",
          "type": "uint256"
        }
      ],
      "name": "setTokensMinted",
      "outputs": [],
      "payable": false,
      "stateMutability": "nonpayable",
      "type": "function"
    },
    {
      "constant": true,
      "inputs": [],
      "name": "tokensMinted",
      "outputs": [
        {
          "name": "",
          "type": "uint256"
        }
      ],
      "payable": false,
      "stateMutability": "view",
      "type": "function"
    },
    {
      "constant": true,
      "inputs": [],
      "name": "lastRewardTo",
      "outputs": [
        {
          "name": "",
          "type": "address"
        }
      ],
      "payable": false,
      "stateMutability": "view",
      "type": "function"
    },
    {
      "constant": true,
      "inputs": [
        {
          "name": "tokenOwner",
          "type": "address"
        }
      ],
      "name": "balanceOf",
      "outputs": [
        {
          "name": "balance",
          "type": "uint256"
        }
      ],
      "payable": false,
      "stateMutability": "view",
      "type": "function"
    },
    {
      "constant": false,
      "inputs": [],
      "name": "acceptOwnership",
      "outputs": [],
      "payable": false,
      "stateMutability": "nonpayable",
      "type": "function"
    },
    {
      "constant": true,
      "inputs": [
        {
          "name": "nonce",
          "type": "uint256"
        },
        {
          "name": "challenge_digest",
          "type": "bytes32"
        },
        {
          "name": "challenge_number",
          "type": "bytes32"
        },
        {
          "name": "testTarget",
          "type": "uint256"
        }
      ],
      "name": "checkMintSolution",
      "outputs": [
        {
          "name": "success",
          "type": "bool"
        }
      ],
      "payable": false,
      "stateMutability": "view",
      "type": "function"
    },
    {
      "constant": true,
      "inputs": [],
      "name": "epochCount",
      "outputs": [
        {
          "name": "",
          "type": "uint256"
        }
      ],
      "payable": false,
      "stateMutability": "view",
      "type": "function"
    },
    {
      "constant": true,
      "inputs": [],
      "name": "_MAXIMUM_TARGET",
      "outputs": [
        {
          "name": "",
          "type": "uint256"
        }
      ],
      "payable": false,
      "stateMutability": "view",
      "type": "function"
    },
    {
      "constant": true,
      "inputs": [],
      "name": "miningTarget",
      "outputs": [
        {
          "name": "",
          "type": "uint256"
        }
      ],
      "payable": false,
      "stateMutability": "view",
      "type": "function"
    },
    {
      "constant": true,
      "inputs": [],
      "name": "challengeNumber",
      "outputs": [
        {
          "name": "",
          "type": "bytes32"
        }
      ],
      "payable": false,
      "stateMutability": "view",
      "type": "function"
    },
    {
      "constant": true,
      "inputs": [],
      "name": "owner",
      "outputs": [
        {
          "name": "",
          "type": "address"
        }
      ],
      "payable": false,
      "stateMutability": "view",
      "type": "function"
    },
    {
      "constant": true,
      "inputs": [],
      "name": "symbol",
      "outputs": [
        {
          "name": "",
          "type": "string"
        }
      ],
      "payable": false,
      "stateMutability": "view",
      "type": "function"
    },
    {
      "constant": true,
      "inputs": [
        {
          "name": "nonce",
          "type": "uint256"
        },
        {
          "name": "challenge_digest",
          "type": "bytes32"
        },
        {
          "name": "challenge_number",
          "type": "bytes32"
        }
      ],
      "name": "getMintDigest",
      "outputs": [
        {
          "name": "digesttest",
          "type": "bytes32"
        }
      ],
      "payable": false,
      "stateMutability": "view",
      "type": "function"
    },
    {
      "constant": false,
      "inputs": [
        {
          "name": "to",
          "type": "address"
        },
        {
          "name": "tokens",
          "type": "uint256"
        }
      ],
      "name": "transfer",
      "outputs": [
        {
          "name": "success",
          "type": "bool"
        }
      ],
      "payable": false,
      "stateMutability": "nonpayable",
      "type": "function"
    },
    {
      "constant": true,
      "inputs": [],
      "name": "_BLOCKS_PER_READJUSTMENT",
      "outputs": [
        {
          "name": "",
          "type": "uint256"
        }
      ],
      "payable": false,
      "stateMutability": "view",
      "type": "function"
    },
    {
      "constant": true,
      "inputs": [],
      "name": "lastRewardAmount",
      "outputs": [
        {
          "name": "",
          "type": "uint256"
        }
      ],
      "payable": false,
      "stateMutability": "view",
      "type": "function"
    },
    {
      "constant": false,
      "inputs": [
        {
          "name": "spender",
          "type": "address"
        },
        {
          "name": "tokens",
          "type": "uint256"
        },
        {
          "name": "data",
          "type": "bytes"
        }
      ],
      "name": "approveAndCall",
      "outputs": [
        {
          "name": "success",
          "type": "bool"
        }
      ],
      "payable": false,
      "stateMutability": "nonpayable",
      "type": "function"
    },
    {
      "constant": true,
      "inputs": [],
      "name": "latestDifficultyPeriodStarted",
      "outputs": [
        {
          "name": "",
          "type": "uint256"
        }
      ],
      "payable": false,
      "stateMutability": "view",
      "type": "function"
    },
    {
      "constant": true,
      "inputs": [],
      "name": "newOwner",
      "outputs": [
        {
          "name": "",
          "type": "address"
        }
      ],
      "payable": false,
      "stateMutability": "view",
      "type": "function"
    },
    {
      "constant": false,
      "inputs": [
        {
          "name": "tokenAddress",
          "type": "address"
        },
        {
          "name": "tokens",
          "type": "uint256"
        }
      ],
      "name": "transferAnyERC20Token",
      "outputs": [
        {
          "name": "success",
          "type": "bool"
        }
      ],
      "payable": false,
      "stateMutability": "nonpayable",
      "type": "function"
    },
    {
      "constant": true,
      "inputs": [],
      "name": "_MINIMUM_TARGET",
      "outputs": [
        {
          "name": "",
          "type": "uint256"
        }
      ],
      "payable": false,
      "stateMutability": "view",
      "type": "function"
    },
    {
      "constant": true,
      "inputs": [
        {
          "name": "tokenOwner",
          "type": "address"
        },
        {
          "name": "spender",
          "type": "address"
        }
      ],
      "name": "allowance",
      "outputs": [
        {
          "name": "remaining",
          "type": "uint256"
        }
      ],
      "payable": false,
      "stateMutability": "view",
      "type": "function"
    },
    {
      "constant": false,
      "inputs": [
        {
          "name": "_newOwner",
          "type": "address"
        }
      ],
      "name": "transferOwnership",
      "outputs": [],
      "payable": false,
      "stateMutability": "nonpayable",
      "type": "function"
    },
    {
      "inputs": [],
      "payable": false,
      "stateMutability": "nonpayable",
      "type": "constructor"
    },
    {
      "payable": true,
      "stateMutability": "payable",
      "type": "fallback"
    },
    {
      "anonymous": false,
      "inputs": [
        {
          "indexed": true,
          "name": "from",
          "type": "address"
        },
        {
          "indexed": false,
          "name": "reward_amount",
          "type": "uint256"
        },
        {
          "indexed": false,
          "name": "epochCount",
          "type": "uint256"
        },
        {
          "indexed": false,
          "name": "newChallengeNumber",
          "type": "bytes32"
        }
      ],
      "name": "Mint",
      "type": "event"
    },
    {
      "anonymous": false,
      "inputs": [
        {
          "indexed": true,
          "name": "_from",
          "type": "address"
        },
        {
          "indexed": true,
          "name": "_to",
          "type": "address"
        }
      ],
      "name": "OwnershipTransferred",
      "type": "event"
    },
    {
      "anonymous": false,
      "inputs": [
        {
          "indexed": true,
          "name": "from",
          "type": "address"
        },
        {
          "indexed": true,
          "name": "to",
          "type": "address"
        },
        {
          "indexed": false,
          "name": "tokens",
          "type": "uint256"
        }
      ],
      "name": "Transfer",
      "type": "event"
    },
    {
      "anonymous": false,
      "inputs": [
        {
          "indexed": true,
          "name": "tokenOwner",
          "type": "address"
        },
        {
          "indexed": true,
          "name": "spender",
          "type": "address"
        },
        {
          "indexed": false,
          "name": "tokens",
          "type": "uint256"
        }
      ],
      "name": "Approval",
      "type": "event"
    }
  ],
  "bytecode": "0x6060604052610400600855620100006009557d040000000000000000000000000000000000000000000000000000000000600a556012805460ff1916905534156200004957600080fd5b60008054600160a060020a03338116600160a060020a031990921682179283905591909116146200007957600080fd5b60408051908101604052600581527f307842544300000000000000000000000000000000000000000000000000000060208201526002908051620000c2929160200190620004fd565b5060408051908101604052600f81527f3078426974636f696e20546f6b656e0000000000000000000000000000000000602082015260039080516200010c929160200190620004fd565b506004805460ff1916600817908190556301406f4060ff918216600a0a0260055560125416156200013c57600080fd5b6012805460ff1916600117905560006014819055600d5560055462000171906002640100000000620010976200019c82021704565b600e55600a54600b554360065562000196640100000000620010c8620001bf82021704565b6200059f565b6000808211620001ab57600080fd5b8183811515620001b757fe5b049392505050565b600e54620001f6620001de64010000000062000a5f6200029e82021704565b60145490640100000000620010b8620002d382021704565b1180156200020657506027600d54105b156200021657600d805460010190555b600d546005546200023b9160010160020a640100000000620010976200019c82021704565b60055403600e5560075462000260906001640100000000620010b8620002d382021704565b6007819055600854908115156200027357fe5b0615156200029357620002936401000000006200117a620002ea82021704565b600019430140600c55565b600d54600454600091620002cd9160ff16600a0a6032029060020a6401000000006200019c8102620010971704565b90505b90565b81810182811015620002e457600080fd5b92915050565b600654600854439190910390603c8102600080808084871015620003de576200033d8762000328876064640100000000620012b4620004a582021704565b90640100000000620010976200019c82021704565b9350620003766103e86200036186606464010000000062001165620004cd82021704565b90640100000000620012d9620004e382021704565b9250620003d5620003bd84620003a86107d0600b546200019c6401000000000262001097179091906401000000009004565b90640100000000620012b4620004a582021704565b600b549064010000000062001165620004cd82021704565b600b5562000470565b620003fe8562000328896064640100000000620012b4620004a582021704565b9150620004226103e86200036184606464010000000062001165620004cd82021704565b90506200046c6200045482620003a86107d0600b546200019c6401000000000262001097179091906401000000009004565b600b5490640100000000620010b8620002d382021704565b600b555b43600655600954600b5410156200048857600954600b555b600a54600b5411156200049c57600a54600b555b50505050505050565b818102821580620004c15750818382811515620004be57fe5b04145b1515620002e457600080fd5b600082821115620004dd57600080fd5b50900390565b600081831115620004f6575080620002e4565b5090919050565b828054600181600116156101000203166002900490600052602060002090601f016020900481019282601f106200054057805160ff191683800117855562000570565b8280016001018555821562000570579182015b828111156200057057825182559160200191906001019062000553565b506200057e92915062000582565b5090565b620002d091905b808211156200057e576000815560010162000589565b61131d80620005af6000396000f3006060604052600436106101be5763ffffffff60e060020a60003504166306fdde0381146101c3578063095ea7b31461024d578063163aa00d1461028357806317da485f146102a85780631801fbe5146102bb57806318160ddd146102d457806323b872dd146102e75780632d38bf7a1461030f578063313ce5671461032257806332e997081461034b5780633eaaf86b1461035e578063490203a7146103715780634ef37628146103845780634fa972e1146103975780635515a1ea146103aa5780635ce7e030146103bd5780636de9f32b146103d55780636fd396d6146103e857806370a082311461041757806379ba50971461043657806381269a5614610449578063829965cc1461046857806387a2a9d61461047b5780638a769d351461048e5780638ae0368b146104a15780638da5cb5b146104b457806395d89b41146104c757806397566aa0146104da578063a9059cbb146104f6578063b5ade81b14610518578063bafedcaa1461052b578063cae9ca511461053e578063cb9ae707146105a3578063d4ee1d90146105b6578063dc39d06d146105c9578063dc6e9cf9146105eb578063dd62ed3e146105fe578063f2fde38b14610623575b600080fd5b34156101ce57600080fd5b6101d6610642565b60405160208082528190810183818151815260200191508051906020019080838360005b838110156102125780820151838201526020016101fa565b50505050905090810190601f16801561023f5780820380516001836020036101000a031916815260200191505b509250505060405180910390f35b341561025857600080fd5b61026f600160a060020a03600435166024356106e0565b604051901515815260200160405180910390f35b341561028e57600080fd5b61029661074d565b60405190815260200160405180910390f35b34156102b357600080fd5b610296610753565b34156102c657600080fd5b61026f600435602435610771565b34156102df57600080fd5b6102966108ff565b34156102f257600080fd5b61026f600160a060020a0360043581169060243516604435610931565b341561031a57600080fd5b610296610a44565b341561032d57600080fd5b610335610a4a565b60405160ff909116815260200160405180910390f35b341561035657600080fd5b610296610a53565b341561036957600080fd5b610296610a59565b341561037c57600080fd5b610296610a5f565b341561038f57600080fd5b610296610a7e565b34156103a257600080fd5b610296610a84565b34156103b557600080fd5b61026f610a8a565b34156103c857600080fd5b6103d3600435610b3f565b005b34156103e057600080fd5b610296610b44565b34156103f357600080fd5b6103fb610b4a565b604051600160a060020a03909116815260200160405180910390f35b341561042257600080fd5b610296600160a060020a0360043516610b59565b341561044157600080fd5b6103d3610b74565b341561045457600080fd5b61026f600435602435604435606435610c02565b341561047357600080fd5b610296610c5a565b341561048657600080fd5b610296610c60565b341561049957600080fd5b610296610c66565b34156104ac57600080fd5b610296610c6c565b34156104bf57600080fd5b6103fb610c72565b34156104d257600080fd5b6101d6610c81565b34156104e557600080fd5b610296600435602435604435610cec565b341561050157600080fd5b61026f600160a060020a0360043516602435610d32565b341561052357600080fd5b610296610df1565b341561053657600080fd5b610296610df7565b341561054957600080fd5b61026f60048035600160a060020a03169060248035919060649060443590810190830135806020601f82018190048102016040519081016040528181529291906020840183838082843750949650610dfd95505050505050565b34156105ae57600080fd5b610296610f64565b34156105c157600080fd5b6103fb610f6a565b34156105d457600080fd5b61026f600160a060020a0360043516602435610f79565b34156105f657600080fd5b61029661101c565b341561060957600080fd5b610296600160a060020a0360043581169060243516611022565b341561062e57600080fd5b6103d3600160a060020a036004351661104d565b60038054600181600116156101000203166002900480601f0160208091040260200160405190810160405280929190818152602001828054600181600116156101000203166002900480156106d85780601f106106ad576101008083540402835291602001916106d8565b820191906000526020600020905b8154815290600101906020018083116106bb57829003601f168201915b505050505081565b600160a060020a03338116600081815260166020908152604080832094871680845294909152808220859055909291907f8c5be1e5ebec7d5bd14f71427d1e84f3dd0314c0f7b2291e5b200ac8c7c3b9259085905190815260200160405180910390a35060015b92915050565b60115481565b600061076c600b54600a5461109790919063ffffffff16565b905090565b600080600080600c543387604051928352600160a060020a03919091166c01000000000000000000000000026020830152603482015260540160405190819003902092508483146107c157600080fd5b600b548311156107d057600080fd5b600c546000908152601360205260409020805490849055915081156107f457600080fd5b6107fc610a5f565b600160a060020a033316600090815260156020526040902054909150610828908263ffffffff6110b816565b600160a060020a033316600090815260156020526040902055601454610854908263ffffffff6110b816565b6014819055600e5490111561086557fe5b600f805473ffffffffffffffffffffffffffffffffffffffff191633600160a060020a031617905560108190554360115561089e6110c8565b33600160a060020a03167fcf6fbb9dcea7d07263ab4f5c3a92f53af33dffc421d9d121e1c74b307e68189d82600754600c5460405192835260208301919091526040808301919091526060909101905180910390a250600195945050505050565b6000805260156020527fa31547ce6245cdb9ecea19cf8c7eb9f5974025bb4075011409251ae855b30aed546005540390565b600160a060020a03831660009081526015602052604081205461095a908363ffffffff61116516565b600160a060020a038086166000908152601560209081526040808320949094556016815283822033909316825291909152205461099d908363ffffffff61116516565b600160a060020a03808616600090815260166020908152604080832033851684528252808320949094559186168152601590915220546109e3908363ffffffff6110b816565b600160a060020a03808516600081815260156020526040908190209390935591908616907fddf252ad1be2c89b69c2b068fc378daa952ba7f163c4a11628f55a4df523b3ef9085905190815260200160405180910390a35060019392505050565b600d5481565b60045460ff1681565b600b5490565b60055481565b600d5460045460009161076c9160ff16600a0a6032029060020a611097565b600c5490565b600e5481565b600080610a95610a5f565b600160a060020a033316600090815260156020526040902054909150610ac1908263ffffffff6110b816565b600160a060020a033316600090815260156020526040902055601454610aed908263ffffffff6110b816565b6014819055600e54901115610afe57fe5b600f805473ffffffffffffffffffffffffffffffffffffffff191633600160a060020a0316179055601081905543601155610b376110c8565b600191505090565b601455565b60145481565b600f54600160a060020a031681565b600160a060020a031660009081526015602052604090205490565b60015433600160a060020a03908116911614610b8f57600080fd5b600154600054600160a060020a0391821691167f8be0079c531659141344cd1fd0a4f28419497f9722a3daafe3b4186f6b6457e060405160405180910390a3600180546000805473ffffffffffffffffffffffffffffffffffffffff19908116600160a060020a03841617909155169055565b600080833387604051928352600160a060020a03919091166c010000000000000000000000000260208301526034820152605401604051908190039020905082811115610c4e57600080fd5b93909314949350505050565b60075481565b600a5481565b600b5481565b600c5481565b600054600160a060020a031681565b60028054600181600116156101000203166002900480601f0160208091040260200160405190810160405280929190818152602001828054600181600116156101000203166002900480156106d85780601f106106ad576101008083540402835291602001916106d8565b600080823386604051928352600160a060020a03919091166c01000000000000000000000000026020830152603482015260540160405190819003902095945050505050565b600160a060020a033316600090815260156020526040812054610d5b908363ffffffff61116516565b600160a060020a033381166000908152601560205260408082209390935590851681522054610d90908363ffffffff6110b816565b600160a060020a0380851660008181526015602052604090819020939093559133909116907fddf252ad1be2c89b69c2b068fc378daa952ba7f163c4a11628f55a4df523b3ef9085905190815260200160405180910390a350600192915050565b60085481565b60105481565b600160a060020a03338116600081815260166020908152604080832094881680845294909152808220869055909291907f8c5be1e5ebec7d5bd14f71427d1e84f3dd0314c0f7b2291e5b200ac8c7c3b9259086905190815260200160405180910390a383600160a060020a0316638f4ffcb1338530866040518563ffffffff1660e060020a0281526004018085600160a060020a0316600160a060020a0316815260200184815260200183600160a060020a0316600160a060020a0316815260200180602001828103825283818151815260200191508051906020019080838360005b83811015610ef8578082015183820152602001610ee0565b50505050905090810190601f168015610f255780820380516001836020036101000a031916815260200191505b5095505050505050600060405180830381600087803b1515610f4657600080fd5b6102c65a03f11515610f5757600080fd5b5060019695505050505050565b60065481565b600154600160a060020a031681565b6000805433600160a060020a03908116911614610f9557600080fd5b60008054600160a060020a038086169263a9059cbb929091169085906040516020015260405160e060020a63ffffffff8516028152600160a060020a0390921660048301526024820152604401602060405180830381600087803b1515610ffb57600080fd5b6102c65a03f1151561100c57600080fd5b5050506040518051949350505050565b60095481565b600160a060020a03918216600090815260166020908152604080832093909416825291909152205490565b60005433600160a060020a0390811691161461106857600080fd5b6001805473ffffffffffffffffffffffffffffffffffffffff1916600160a060020a0392909216919091179055565b60008082116110a557600080fd5b81838115156110b057fe5b049392505050565b8181018281101561074757600080fd5b600e546110e56110d6610a5f565b6014549063ffffffff6110b816565b1180156110f457506027600d54105b1561110357600d805460010190555b600d5460055461111e9160010160020a63ffffffff61109716565b60055403600e5560075461113990600163ffffffff6110b816565b60078190556008549081151561114b57fe5b06151561115a5761115a61117a565b600019430140600c55565b60008282111561117457600080fd5b50900390565b600654600854439190910390603c8102600080808084871015611220576111b8876111ac87606463ffffffff6112b416565b9063ffffffff61109716565b93506111dd6103e86111d186606463ffffffff61116516565b9063ffffffff6112d916565b9250611218611209846111fd6107d0600b5461109790919063ffffffff16565b9063ffffffff6112b416565b600b549063ffffffff61116516565b600b55611281565b611235856111ac89606463ffffffff6112b416565b915061124e6103e86111d184606463ffffffff61116516565b905061127d61126e826111fd6107d0600b5461109790919063ffffffff16565b600b549063ffffffff6110b816565b600b555b43600655600954600b54101561129857600954600b555b600a54600b5411156112ab57600a54600b555b50505050505050565b8181028215806112ce57508183828115156112cb57fe5b04145b151561074757600080fd5b6000818311156112ea575080610747565b50909190505600a165627a7a723058204247932f7ab7398807c2fc5704ae0d6e7750286377828b0773ef160b2e8f32180029",
  "linkReferences": {},
  "deployedLinkReferences": {}
}