{
  "contracts/0xBitcoinExtended.sol": {
    "_0xBitcoinToken": {
      "abi": [
        {
          "constant": true,
          "inputs": [],
          "name": "name",
          "outputs": [
            {
              "name": "",
              "type": "string"
            }
          ],
          "payable": false,
          "stateMutability": "view",
          "type": "function"
        },
        {
          "constant": false,
          "inputs": [
            {
              "name": "spender",
              "type": "address"
            },
            {
              "name": "tokens",
              "type": "uint256"
            }
          ],
          "name": "approve",
          "outputs": [
            {
              "name": "success",
              "type": "bool"
            }
          ],
          "payable": false,
          "stateMutability": "nonpayable",
          "type": "function"
        },
        {
          "constant": true,
          "inputs": [],
          "name": "lastRewardEthBlockNumber",
          "outputs": [
            {
              "name": "",
              "type": "uint256"
            }
          ],
          "payable": false,
          "stateMutability": "view",
          "type": "function"
        },
        {
          "constant": true,
          "inputs": [],
          "name": "getMiningDifficulty",
          "outputs": [
            {
              "name": "",
              "type": "uint256"
            }
          ],
          "payable": false,
          "stateMutability": "view",
          "type": "function"
        },
        {
          "constant": false,
          "inputs": [
            {
              "name": "nonce",
              "type": "uint256"
            },
            {
              "name": "challenge_digest",
              "type": "bytes32"
            }
          ],
          "name": "mint",
          "outputs": [
            {
              "name": "success",
              "type": "bool"
            }
          ],
          "payable": false,
          "stateMutability": "nonpayable",
          "type": "function"
        },
        {
          "constant": true,
          "inputs": [],
          "name": "totalSupply",
          "outputs": [
            {
              "name": "",
              "type": "uint256"
            }
          ],
          "payable": false,
          "stateMutability": "view",
          "type": "function"
        },
        {
          "constant": false,
          "inputs": [
            {
              "name": "from",
              "type": "address"
            },
            {
              "name": "to",
              "type": "address"
            },
            {
              "name": "tokens",
              "type": "uint256"
            }
          ],
          "name": "transferFrom",
          "outputs": [
            {
              "name": "success",
              "type": "bool"
            }
          ],
          "payable": false,
          "stateMutability": "nonpayable",
          "type": "function"
        },
        {
          "constant": true,
          "inputs": [],
          "name": "rewardEra",
          "outputs": [
            {
              "name": "",
              "type": "uint256"
            }
          ],
          "payable": false,
          "stateMutability": "view",
          "type": "function"
        },
        {
          "constant": true,
          "inputs": [],
          "name": "decimals",
          "outputs": [
            {
              "name": "",
              "type": "uint8"
            }
          ],
          "payable": false,
          "stateMutability": "view",
          "type": "function"
        },
        {
          "constant": true,
          "inputs": [],
          "name": "getMiningTarget",
          "outputs": [
            {
              "name": "",
              "type": "uint256"
            }
          ],
          "payable": false,
          "stateMutability": "view",
          "type": "function"
        },
        {
          "constant": true,
          "inputs": [],
          "name": "_totalSupply",
          "outputs": [
            {
              "name": "",
              "type": "uint256"
            }
          ],
          "payable": false,
          "stateMutability": "view",
          "type": "function"
        },
        {
          "constant": true,
          "inputs": [],
          "name": "getMiningReward",
          "outputs": [
            {
              "name": "",
              "type": "uint256"
            }
          ],
          "payable": false,
          "stateMutability": "view",
          "type": "function"
        },
        {
          "constant": true,
          "inputs": [],
          "name": "getChallengeNumber",
          "outputs": [
            {
              "name": "",
              "type": "bytes32"
            }
          ],
          "payable": false,
          "stateMutability": "view",
          "type": "function"
        },
        {
          "constant": true,
          "inputs": [],
          "name": "maxSupplyForEra",
          "outputs": [
            {
              "name": "",
              "type": "uint256"
            }
          ],
          "payable": false,
          "stateMutability": "view",
          "type": "function"
        },
        {
          "constant": false,
          "inputs": [],
          "name": "mintWithoutPoW",
          "outputs": [
            {
              "name": "success",
              "type": "bool"
            }
          ],
          "payable": false,
          "stateMutability": "nonpayable",
          "type": "function"
        },
        {
          "constant": false,
          "inputs": [
            {
              "name": "amt",
              "type": "uint256"
            }
          ],
          "name": "setTokensMinted",
          "outputs": [],
          "payable": false,
          "stateMutability": "nonpayable",
          "type": "function"
        },
        {
          "constant": true,
          "inputs": [],
          "name": "tokensMinted",
          "outputs": [
            {
              "name": "",
              "type": "uint256"
            }
          ],
          "payable": false,
          "stateMutability": "view",
          "type": "function"
        },
        {
          "constant": true,
          "inputs": [],
          "name": "lastRewardTo",
          "outputs": [
            {
              "name": "",
              "type": "address"
            }
          ],
          "payable": false,
          "stateMutability": "view",
          "type": "function"
        },
        {
          "constant": true,
          "inputs": [
            {
              "name": "tokenOwner",
              "type": "address"
            }
          ],
          "name": "balanceOf",
          "outputs": [
            {
              "name": "balance",
              "type": "uint256"
            }
          ],
          "payable": false,
          "stateMutability": "view",
          "type": "function"
        },
        {
          "constant": false,
          "inputs": [],
          "name": "acceptOwnership",
          "outputs": [],
          "payable": false,
          "stateMutability": "nonpayable",
          "type": "function"
        },
        {
          "constant": true,
          "inputs": [
            {
              "name": "nonce",
              "type": "uint256"
            },
            {
              "name": "challenge_digest",
              "type": "bytes32"
            },
            {
              "name": "challenge_number",
              "type": "bytes32"
            },
            {
              "name": "testTarget",
              "type": "uint256"
            }
          ],
          "name": "checkMintSolution",
          "outputs": [
            {
              "name": "success",
              "type": "bool"
            }
          ],
          "payable": false,
          "stateMutability": "view",
          "type": "function"
        },
        {
          "constant": true,
          "inputs": [],
          "name": "epochCount",
          "outputs": [
            {
              "name": "",
              "type": "uint256"
            }
          ],
          "payable": false,
          "stateMutability": "view",
          "type": "function"
        },
        {
          "constant": true,
          "inputs": [],
          "name": "_MAXIMUM_TARGET",
          "outputs": [
            {
              "name": "",
              "type": "uint256"
            }
          ],
          "payable": false,
          "stateMutability": "view",
          "type": "function"
        },
        {
          "constant": true,
          "inputs": [],
          "name": "miningTarget",
          "outputs": [
            {
              "name": "",
              "type": "uint256"
            }
          ],
          "payable": false,
          "stateMutability": "view",
          "type": "function"
        },
        {
          "constant": true,
          "inputs": [],
          "name": "challengeNumber",
          "outputs": [
            {
              "name": "",
              "type": "bytes32"
            }
          ],
          "payable": false,
          "stateMutability": "view",
          "type": "function"
        },
        {
          "constant": true,
          "inputs": [],
          "name": "owner",
          "outputs": [
            {
              "name": "",
              "type": "address"
            }
          ],
          "payable": false,
          "stateMutability": "view",
          "type": "function"
        },
        {
          "constant": true,
          "inputs": [],
          "name": "symbol",
          "outputs": [
            {
              "name": "",
              "type": "string"
            }
          ],
          "payable": false,
          "stateMutability": "view",
          "type": "function"
        },
        {
          "constant": true,
          "inputs": [
            {
              "name": "nonce",
              "type": "uint256"
            },
            {
              "name": "challenge_digest",
              "type": "bytes32"
            },
            {
              "name": "challenge_number",
              "type": "bytes32"
            }
          ],
          "name": "getMintDigest",
          "outputs": [
            {
              "name": "digesttest",
              "type": "bytes32"
            }
          ],
          "payable": false,
          "stateMutability": "view",
          "type": "function"
        },
        {
          "constant": false,
          "inputs": [
            {
              "name": "to",
              "type": "address"
            },
            {
              "name": "tokens",
              "type": "uint256"
            }
          ],
          "name": "transfer",
          "outputs": [
            {
              "name": "success",
              "type": "bool"
            }
          ],
          "payable": false,
          "stateMutability": "nonpayable",
          "type": "function"
        },
        {
          "constant": true,
          "inputs": [],
          "name": "_BLOCKS_PER_READJUSTMENT",
          "outputs": [
            {
              "name": "",
              "type": "uint256"
            }
          ],
          "payable": false,
          "stateMutability": "view",
          "type": "function"
        },
        {
          "constant": true,
          "inputs": [],
          "name": "lastRewardAmount",
          "outputs": [
            {
              "name": "",
              "type": "uint256"
            }
          ],
          "payable": false,
          "stateMutability": "view",
          "type": "function"
        },
        {
          "constant": false,
          "inputs": [
            {
              "name": "spender",
              "type": "address"
            },
            {
              "name": "tokens",
              "type": "uint256"
            },
            {
              "name": "data",
              "type": "bytes"
            }
          ],
          "name": "approveAndCall",
          "outputs": [
            {
              "name": "success",
              "type": "bool"
            }
          ],
          "payable": false,
          "stateMutability": "nonpayable",
          "type": "function"
        },
        {
          "constant": true,
          "inputs": [],
          "name": "latestDifficultyPeriodStarted",
          "outputs": [
            {
              "name": "",
              "type": "uint256"
            }
          ],
          "payable": false,
          "stateMutability": "view",
          "type": "function"
        },
        {
          "constant": true,
          "inputs": [],
          "name": "newOwner",
          "outputs": [
            {
              "name": "",
              "type": "address"
            }
          ],
          "payable": false,
          "stateMutability": "view",
          "type": "function"
        },
        {
          "constant": false,
          "inputs": [
            {
              "name": "tokenAddress",
              "type": "address"
            },
            {
              "name": "tokens",
              "type": "uint256"
            }
          ],
          "name": "transferAnyERC20Token",
          "outputs": [
            {
              "name": "success",
              "type": "bool"
            }
          ],
          "payable": false,
          "stateMutability": "nonpayable",
          "type": "function"
        },
        {
          "constant": true,
          "inputs": [],
          "name": "_MINIMUM_TARGET",
          "outputs": [
            {
              "name": "",
              "type": "uint256"
            }
          ],
          "payable": false,
          "stateMutability": "view",
          "type": "function"
        },
        {
          "constant": true,
          "inputs": [
            {
              "name": "tokenOwner",
              "type": "address"
            },
            {
              "name": "spender",
              "type": "address"
            }
          ],
          "name": "allowance",
          "outputs": [
            {
              "name": "remaining",
              "type": "uint256"
            }
          ],
          "payable": false,
          "stateMutability": "view",
          "type": "function"
        },
        {
          "constant": false,
          "inputs": [
            {
              "name": "_newOwner",
              "type": "address"
            }
          ],
          "name": "transferOwnership",
          "outputs": [],
          "payable": false,
          "stateMutability": "nonpayable",
          "type": "function"
        },
        {
          "inputs": [],
          "payable": false,
          "stateMutability": "nonpayable",
          "type": "constructor"
        },
        {
          "payable": true,
          "stateMutability": "payable",
          "type": "fallback"
        },
        {
          "anonymous": false,
          "inputs": [
            {
              "indexed": true,
              "name": "from",
              "type": "address"
            },
            {
              "indexed": false,
              "name": "reward_amount",
              "type": "uint256"
            },
            {
              "indexed": false,
              "name": "epochCount",
              "type": "uint256"
            },
            {
              "indexed": false,
              "name": "newChallengeNumber",
              "type": "bytes32"
            }
          ],
          "name": "Mint",
          "type": "event"
        },
        {
          "anonymous": false,
          "inputs": [
            {
              "indexed": true,
              "name": "_from",
              "type": "address"
            },
            {
              "indexed": true,
              "name": "_to",
              "type": "address"
            }
          ],
          "name": "OwnershipTransferred",
          "type": "event"
        },
        {
          "anonymous": false,
          "inputs": [
            {
              "indexed": true,
              "name": "from",
              "type": "address"
            },
            {
              "indexed": true,
              "name": "to",
              "type": "address"
            },
            {
              "indexed": false,
              "name": "tokens",
              "type": "uint256"
            }
          ],
          "name": "Transfer",
          "type": "event"
        },
        {
          "anonymous": false,
          "inputs": [
            {
              "indexed": true,
              "name": "tokenOwner",
              "type": "address"
            },
            {
              "indexed": true,
              "name": "spender",
              "type": "address"
            },
            {
              "indexed": false,
              "name": "tokens",
              "type": "uint256"
            }
          ],
          "name": "Approval",
          "type": "event"
        }
      ],
      "devdoc": {
        "methods": {}
      },
      "evm": {
        "assembly": "    /* \"contracts/0xBitcoinExtended.sol\":3801:18453  contract _0xBitcoinToken is ERC20Interface, Owned {... */\n  mstore(0x40, 0x60)\n    /* \"contracts/0xBitcoinExtended.sol\":4182:4186  1024 */\n  0x400\n    /* \"contracts/0xBitcoinExtended.sol\":4143:4186  uint public _BLOCKS_PER_READJUSTMENT = 1024 */\n  0x8\n  sstore\n    /* \"contracts/0xBitcoinExtended.sol\":4247:4252  2**16 */\n  0x10000\n    /* \"contracts/0xBitcoinExtended.sol\":4216:4252  uint public  _MINIMUM_TARGET = 2**16 */\n  0x9\n  sstore\n    /* \"contracts/0xBitcoinExtended.sol\":4424:4430  2**234 */\n  0x40000000000000000000000000000000000000000000000000000000000\n    /* \"contracts/0xBitcoinExtended.sol\":4393:4430  uint public  _MAXIMUM_TARGET = 2**234 */\n  0xa\n  sstore\n    /* \"contracts/0xBitcoinExtended.sol\":4731:4750  bool locked = false */\n  0x12\n  dup1\n  sload\n  not(0xff)\n  and\n  swap1\n  sstore\n    /* \"contracts/0xBitcoinExtended.sol\":5230:5865  function _0xBitcoinToken() public onlyOwner{... */\n  jumpi(tag_1, iszero(callvalue))\n  0x0\n  dup1\n  revert\ntag_1:\n    /* \"contracts/0xBitcoinExtended.sol\":3119:3124  owner */\n  0x0\n    /* \"contracts/0xBitcoinExtended.sol\":3119:3137  owner = msg.sender */\n  dup1\n  sload\n  sub(exp(0x2, 0xa0), 0x1)\n    /* \"contracts/0xBitcoinExtended.sol\":3127:3137  msg.sender */\n  caller\n    /* \"contracts/0xBitcoinExtended.sol\":3119:3137  owner = msg.sender */\n  dup2\n  and\n  not(sub(exp(0x2, 0xa0), 0x1))\n  swap1\n  swap3\n  and\n  dup3\n  or\n  swap3\n  dup4\n  swap1\n  sstore\n    /* \"contracts/0xBitcoinExtended.sol\":3204:3209  owner */\n  swap2\n  swap1\n  swap2\n  and\n    /* \"contracts/0xBitcoinExtended.sol\":3190:3209  msg.sender == owner */\n  eq\n    /* \"contracts/0xBitcoinExtended.sol\":3182:3210  require(msg.sender == owner) */\n  tag_6\n  jumpi\n  0x0\n  dup1\n  revert\ntag_6:\n    /* \"contracts/0xBitcoinExtended.sol\":5286:5302  symbol = \"0xBTC\" */\n  0x40\n  dup1\n  mload\n  swap1\n  dup2\n  add\n  0x40\n  mstore\n  0x5\n  dup2\n  mstore\n  0x3078425443000000000000000000000000000000000000000000000000000000\n  0x20\n  dup3\n  add\n  mstore\n    /* \"contracts/0xBitcoinExtended.sol\":5286:5292  symbol */\n  0x2\n  swap1\n    /* \"contracts/0xBitcoinExtended.sol\":5286:5302  symbol = \"0xBTC\" */\n  dup1\n  mload\n  tag_8\n  swap3\n  swap2\n  0x20\n  add\n  swap1\n  jump\t// in(tag_9)\ntag_8:\n  pop\n    /* \"contracts/0xBitcoinExtended.sol\":5313:5337  name = \"0xBitcoin Token\" */\n  0x40\n  dup1\n  mload\n  swap1\n  dup2\n  add\n  0x40\n  mstore\n  0xf\n  dup2\n  mstore\n  0x3078426974636f696e20546f6b656e0000000000000000000000000000000000\n  0x20\n  dup3\n  add\n  mstore\n    /* \"contracts/0xBitcoinExtended.sol\":5313:5317  name */\n  0x3\n  swap1\n    /* \"contracts/0xBitcoinExtended.sol\":5313:5337  name = \"0xBitcoin Token\" */\n  dup1\n  mload\n  tag_10\n  swap3\n  swap2\n  0x20\n  add\n  swap1\n  jump\t// in(tag_9)\ntag_10:\n  pop\n    /* \"contracts/0xBitcoinExtended.sol\":5348:5356  decimals */\n  0x4\n    /* \"contracts/0xBitcoinExtended.sol\":5348:5360  decimals = 8 */\n  dup1\n  sload\n  not(0xff)\n  and\n    /* \"contracts/0xBitcoinExtended.sol\":5359:5360  8 */\n  0x8\n    /* \"contracts/0xBitcoinExtended.sol\":5348:5360  decimals = 8 */\n  or\n  swap1\n  dup2\n  swap1\n  sstore\n    /* \"contracts/0xBitcoinExtended.sol\":5386:5394  21000000 */\n  0x1406f40\n    /* \"contracts/0xBitcoinExtended.sol\":5348:5360  decimals = 8 */\n  0xff\n    /* \"contracts/0xBitcoinExtended.sol\":5406:5414  decimals */\n  swap2\n  dup3\n  and\n    /* \"contracts/0xBitcoinExtended.sol\":5397:5399  10 */\n  0xa\n    /* \"contracts/0xBitcoinExtended.sol\":5397:5415  10**uint(decimals) */\n  exp\n    /* \"contracts/0xBitcoinExtended.sol\":5386:5415  21000000 * 10**uint(decimals) */\n  mul\n    /* \"contracts/0xBitcoinExtended.sol\":5371:5383  _totalSupply */\n  0x5\n    /* \"contracts/0xBitcoinExtended.sol\":5371:5415  _totalSupply = 21000000 * 10**uint(decimals) */\n  sstore\n    /* \"contracts/0xBitcoinExtended.sol\":5429:5435  locked */\n  sload(0x12)\n  and\n    /* \"contracts/0xBitcoinExtended.sol\":5426:5445  if(locked) revert() */\n  iszero\n  tag_11\n  jumpi\n    /* \"contracts/0xBitcoinExtended.sol\":5437:5445  revert() */\n  0x0\n  dup1\n  revert\n    /* \"contracts/0xBitcoinExtended.sol\":5426:5445  if(locked) revert() */\ntag_11:\n    /* \"contracts/0xBitcoinExtended.sol\":5455:5461  locked */\n  0x12\n    /* \"contracts/0xBitcoinExtended.sol\":5455:5468  locked = true */\n  dup1\n  sload\n  not(0xff)\n  and\n    /* \"contracts/0xBitcoinExtended.sol\":5464:5468  true */\n  0x1\n    /* \"contracts/0xBitcoinExtended.sol\":5455:5468  locked = true */\n  or\n  swap1\n  sstore\n    /* \"contracts/0xBitcoinExtended.sol\":5455:5461  locked */\n  0x0\n    /* \"contracts/0xBitcoinExtended.sol\":5479:5491  tokensMinted */\n  0x14\n    /* \"contracts/0xBitcoinExtended.sol\":5479:5495  tokensMinted = 0 */\n  dup2\n  swap1\n  sstore\n    /* \"contracts/0xBitcoinExtended.sol\":5506:5515  rewardEra */\n  0xd\n    /* \"contracts/0xBitcoinExtended.sol\":5506:5519  rewardEra = 0 */\n  sstore\n  0x5\n    /* \"contracts/0xBitcoinExtended.sol\":5547:5559  _totalSupply */\n  sload\n    /* \"contracts/0xBitcoinExtended.sol\":5547:5566  _totalSupply.div(2) */\n  tag_12\n  swap1\n    /* \"contracts/0xBitcoinExtended.sol\":5564:5565  2 */\n  0x2\n    /* \"contracts/0xBitcoinExtended.sol\":5547:5563  _totalSupply.div */\n  0x100000000\n  tag_0_170\n  tag_13\n  dup3\n  mul\n  or\n    /* \"contracts/0xBitcoinExtended.sol\":5547:5566  _totalSupply.div(2) */\n  div\n  jump\t// in\ntag_12:\n    /* \"contracts/0xBitcoinExtended.sol\":5529:5544  maxSupplyForEra */\n  0xe\n    /* \"contracts/0xBitcoinExtended.sol\":5529:5566  maxSupplyForEra = _totalSupply.div(2) */\n  sstore\n    /* \"contracts/0xBitcoinExtended.sol\":5592:5607  _MAXIMUM_TARGET */\n  sload(0xa)\n    /* \"contracts/0xBitcoinExtended.sol\":5577:5589  miningTarget */\n  0xb\n    /* \"contracts/0xBitcoinExtended.sol\":5577:5607  miningTarget = _MAXIMUM_TARGET */\n  sstore\n    /* \"contracts/0xBitcoinExtended.sol\":5650:5662  block.number */\n  number\n    /* \"contracts/0xBitcoinExtended.sol\":5618:5647  latestDifficultyPeriodStarted */\n  0x6\n    /* \"contracts/0xBitcoinExtended.sol\":5618:5662  latestDifficultyPeriodStarted = block.number */\n  sstore\n    /* \"contracts/0xBitcoinExtended.sol\":5673:5695  _startNewMiningEpoch() */\n  tag_14\n    /* \"contracts/0xBitcoinExtended.sol\":5673:5693  _startNewMiningEpoch */\n  0x100000000\n  tag_0_181\n  tag_15\n  dup3\n  mul\n  or\n    /* \"contracts/0xBitcoinExtended.sol\":5673:5695  _startNewMiningEpoch() */\n  div\n  jump\t// in\ntag_14:\n    /* \"contracts/0xBitcoinExtended.sol\":3801:18453  contract _0xBitcoinToken is ERC20Interface, Owned {... */\n  jump(tag_16)\n    /* \"contracts/0xBitcoinExtended.sol\":1028:1141  function div(uint a, uint b) internal pure returns (uint c) {... */\ntag_13:\n    /* \"contracts/0xBitcoinExtended.sol\":1080:1086  uint c */\n  0x0\n    /* \"contracts/0xBitcoinExtended.sol\":1107:1112  b > 0 */\n  dup1\n  dup3\n  gt\n    /* \"contracts/0xBitcoinExtended.sol\":1099:1113  require(b > 0) */\n  tag_18\n  jumpi\n  0x0\n  dup1\n  revert\ntag_18:\n    /* \"contracts/0xBitcoinExtended.sol\":1132:1133  b */\n  dup2\n    /* \"contracts/0xBitcoinExtended.sol\":1128:1129  a */\n  dup4\n    /* \"contracts/0xBitcoinExtended.sol\":1128:1133  a / b */\n  dup2\n  iszero\n  iszero\n  tag_19\n  jumpi\n  invalid\ntag_19:\n  div\n  swap4\n    /* \"contracts/0xBitcoinExtended.sol\":1028:1141  function div(uint a, uint b) internal pure returns (uint c) {... */\n  swap3\n  pop\n  pop\n  pop\n  jump\t// out\n    /* \"contracts/0xBitcoinExtended.sol\":7382:8533  function _startNewMiningEpoch() internal {... */\ntag_15:\n    /* \"contracts/0xBitcoinExtended.sol\":7749:7764  maxSupplyForEra */\n  sload(0xe)\n    /* \"contracts/0xBitcoinExtended.sol\":7711:7746  tokensMinted.add(getMiningReward()) */\n  tag_21\n    /* \"contracts/0xBitcoinExtended.sol\":7728:7745  getMiningReward() */\n  tag_22\n    /* \"contracts/0xBitcoinExtended.sol\":7728:7743  getMiningReward */\n  0x100000000\n  tag_0_81\n  tag_23\n  dup3\n  mul\n  or\n    /* \"contracts/0xBitcoinExtended.sol\":7728:7745  getMiningReward() */\n  div\n  jump\t// in\ntag_22:\n    /* \"contracts/0xBitcoinExtended.sol\":7711:7723  tokensMinted */\n  sload(0x14)\n  swap1\n    /* \"contracts/0xBitcoinExtended.sol\":7711:7727  tokensMinted.add */\n  0x100000000\n  tag_0_177\n  tag_24\n  dup3\n  mul\n  or\n    /* \"contracts/0xBitcoinExtended.sol\":7711:7746  tokensMinted.add(getMiningReward()) */\n  div\n  jump\t// in\ntag_21:\n    /* \"contracts/0xBitcoinExtended.sol\":7711:7764  tokensMinted.add(getMiningReward()) > maxSupplyForEra */\n  gt\n    /* \"contracts/0xBitcoinExtended.sol\":7711:7782  tokensMinted.add(getMiningReward()) > maxSupplyForEra && rewardEra < 39 */\n  dup1\n  iszero\n  tag_25\n  jumpi\n  pop\n    /* \"contracts/0xBitcoinExtended.sol\":7780:7782  39 */\n  0x27\n    /* \"contracts/0xBitcoinExtended.sol\":7768:7777  rewardEra */\n  sload(0xd)\n    /* \"contracts/0xBitcoinExtended.sol\":7768:7782  rewardEra < 39 */\n  lt\n    /* \"contracts/0xBitcoinExtended.sol\":7711:7782  tokensMinted.add(getMiningReward()) > maxSupplyForEra && rewardEra < 39 */\ntag_25:\n    /* \"contracts/0xBitcoinExtended.sol\":7707:7834  if( tokensMinted.add(getMiningReward()) > maxSupplyForEra && rewardEra < 39)... */\n  iszero\n  tag_26\n  jumpi\n    /* \"contracts/0xBitcoinExtended.sol\":7812:7821  rewardEra */\n  0xd\n  dup1\n  sload\n    /* \"contracts/0xBitcoinExtended.sol\":7824:7825  1 */\n  0x1\n    /* \"contracts/0xBitcoinExtended.sol\":7812:7825  rewardEra + 1 */\n  add\n    /* \"contracts/0xBitcoinExtended.sol\":7800:7825  rewardEra = rewardEra + 1 */\n  swap1\n  sstore\n    /* \"contracts/0xBitcoinExtended.sol\":7707:7834  if( tokensMinted.add(getMiningReward()) > maxSupplyForEra && rewardEra < 39)... */\ntag_26:\n    /* \"contracts/0xBitcoinExtended.sol\":8032:8041  rewardEra */\n  sload(0xd)\n    /* \"contracts/0xBitcoinExtended.sol\":8010:8022  _totalSupply */\n  sload(0x5)\n    /* \"contracts/0xBitcoinExtended.sol\":8010:8047  _totalSupply.div( 2**(rewardEra + 1)) */\n  tag_27\n  swap2\n    /* \"contracts/0xBitcoinExtended.sol\":8044:8045  1 */\n  0x1\n    /* \"contracts/0xBitcoinExtended.sol\":8032:8045  rewardEra + 1 */\n  add\n    /* \"contracts/0xBitcoinExtended.sol\":8028:8029  2 */\n  0x2\n    /* \"contracts/0xBitcoinExtended.sol\":8028:8046  2**(rewardEra + 1) */\n  exp\n    /* \"contracts/0xBitcoinExtended.sol\":8010:8026  _totalSupply.div */\n  0x100000000\n  tag_0_170\n  tag_13\n  dup3\n  mul\n  or\n    /* \"contracts/0xBitcoinExtended.sol\":8010:8047  _totalSupply.div( 2**(rewardEra + 1)) */\n  div\n  jump\t// in\ntag_27:\n    /* \"contracts/0xBitcoinExtended.sol\":7995:8007  _totalSupply */\n  sload(0x5)\n    /* \"contracts/0xBitcoinExtended.sol\":7995:8047  _totalSupply - _totalSupply.div( 2**(rewardEra + 1)) */\n  sub\n    /* \"contracts/0xBitcoinExtended.sol\":7977:7992  maxSupplyForEra */\n  0xe\n    /* \"contracts/0xBitcoinExtended.sol\":7977:8047  maxSupplyForEra = _totalSupply - _totalSupply.div( 2**(rewardEra + 1)) */\n  sstore\n    /* \"contracts/0xBitcoinExtended.sol\":8069:8079  epochCount */\n  sload(0x7)\n    /* \"contracts/0xBitcoinExtended.sol\":8069:8086  epochCount.add(1) */\n  tag_28\n  swap1\n    /* \"contracts/0xBitcoinExtended.sol\":8084:8085  1 */\n  0x1\n    /* \"contracts/0xBitcoinExtended.sol\":8069:8083  epochCount.add */\n  0x100000000\n  tag_0_177\n  tag_24\n  dup3\n  mul\n  or\n    /* \"contracts/0xBitcoinExtended.sol\":8069:8086  epochCount.add(1) */\n  div\n  jump\t// in\ntag_28:\n    /* \"contracts/0xBitcoinExtended.sol\":8056:8066  epochCount */\n  0x7\n    /* \"contracts/0xBitcoinExtended.sol\":8056:8086  epochCount = epochCount.add(1) */\n  dup2\n  swap1\n  sstore\n    /* \"contracts/0xBitcoinExtended.sol\":8185:8209  _BLOCKS_PER_READJUSTMENT */\n  sload(0x8)\n  swap1\n    /* \"contracts/0xBitcoinExtended.sol\":8172:8209  epochCount % _BLOCKS_PER_READJUSTMENT */\n  dup2\n  iszero\n  iszero\n  tag_29\n  jumpi\n  invalid\ntag_29:\n  mod\n    /* \"contracts/0xBitcoinExtended.sol\":8172:8214  epochCount % _BLOCKS_PER_READJUSTMENT == 0 */\n  iszero\n    /* \"contracts/0xBitcoinExtended.sol\":8169:8262  if(epochCount % _BLOCKS_PER_READJUSTMENT == 0)... */\n  iszero\n  tag_31\n  jumpi\n    /* \"contracts/0xBitcoinExtended.sol\":8232:8253  _reAdjustDifficulty() */\n  tag_31\n    /* \"contracts/0xBitcoinExtended.sol\":8232:8251  _reAdjustDifficulty */\n  0x100000000\n  tag_0_242\n  tag_32\n  dup3\n  mul\n  or\n    /* \"contracts/0xBitcoinExtended.sol\":8232:8253  _reAdjustDifficulty() */\n  div\n  jump\t// in\ntag_31:\n  not(0x0)\n    /* \"contracts/0xBitcoinExtended.sol\":8503:8515  block.number */\n  number\n    /* \"contracts/0xBitcoinExtended.sol\":8503:8519  block.number - 1 */\n  add\n    /* \"contracts/0xBitcoinExtended.sol\":8487:8520  block.blockhash(block.number - 1) */\n  blockhash\n    /* \"contracts/0xBitcoinExtended.sol\":8469:8484  challengeNumber */\n  0xc\n    /* \"contracts/0xBitcoinExtended.sol\":8469:8520  challengeNumber = block.blockhash(block.number - 1) */\n  sstore\n    /* \"contracts/0xBitcoinExtended.sol\":7382:8533  function _startNewMiningEpoch() internal {... */\n  jump\t// out\n    /* \"contracts/0xBitcoinExtended.sol\":11201:11458  function getMiningReward() public constant returns (uint) {... */\ntag_23:\n    /* \"contracts/0xBitcoinExtended.sol\":11438:11447  rewardEra */\n  sload(0xd)\n    /* \"contracts/0xBitcoinExtended.sol\":11418:11426  decimals */\n  sload(0x4)\n    /* \"contracts/0xBitcoinExtended.sol\":11253:11257  uint */\n  0x0\n  swap2\n    /* \"contracts/0xBitcoinExtended.sol\":11403:11449  (50 * 10**uint(decimals) ).div( 2**rewardEra ) */\n  tag_34\n  swap2\n    /* \"contracts/0xBitcoinExtended.sol\":11418:11426  decimals */\n  0xff\n  and\n    /* \"contracts/0xBitcoinExtended.sol\":11409:11411  10 */\n  0xa\n    /* \"contracts/0xBitcoinExtended.sol\":11409:11427  10**uint(decimals) */\n  exp\n    /* \"contracts/0xBitcoinExtended.sol\":11404:11406  50 */\n  0x32\n    /* \"contracts/0xBitcoinExtended.sol\":11404:11427  50 * 10**uint(decimals) */\n  mul\n  swap1\n    /* \"contracts/0xBitcoinExtended.sol\":11435:11436  2 */\n  0x2\n    /* \"contracts/0xBitcoinExtended.sol\":11435:11447  2**rewardEra */\n  exp\n    /* \"contracts/0xBitcoinExtended.sol\":11403:11433  (50 * 10**uint(decimals) ).div */\n  0x100000000\n  tag_13\n  dup2\n  mul\n  tag_0_170\n  or\n    /* \"contracts/0xBitcoinExtended.sol\":11403:11449  (50 * 10**uint(decimals) ).div( 2**rewardEra ) */\n  div\n  jump\t// in\ntag_34:\n    /* \"contracts/0xBitcoinExtended.sol\":11396:11449  return (50 * 10**uint(decimals) ).div( 2**rewardEra ) */\n  swap1\n  pop\n    /* \"contracts/0xBitcoinExtended.sol\":11201:11458  function getMiningReward() public constant returns (uint) {... */\ntag_33:\n  swap1\n  jump\t// out\n    /* \"contracts/0xBitcoinExtended.sol\":654:768  function add(uint a, uint b) internal pure returns (uint c) {... */\ntag_24:\n    /* \"contracts/0xBitcoinExtended.sol\":729:734  a + b */\n  dup2\n  dup2\n  add\n    /* \"contracts/0xBitcoinExtended.sol\":753:759  c >= a */\n  dup3\n  dup2\n  lt\n  iszero\n    /* \"contracts/0xBitcoinExtended.sol\":745:760  require(c >= a) */\n  tag_36\n  jumpi\n  0x0\n  dup1\n  revert\ntag_36:\n    /* \"contracts/0xBitcoinExtended.sol\":654:768  function add(uint a, uint b) internal pure returns (uint c) {... */\n  swap3\n  swap2\n  pop\n  pop\n  jump\t// out\n    /* \"contracts/0xBitcoinExtended.sol\":8757:10586  function _reAdjustDifficulty() internal {... */\ntag_32:\n    /* \"contracts/0xBitcoinExtended.sol\":8866:8895  latestDifficultyPeriodStarted */\n  sload(0x6)\n    /* \"contracts/0xBitcoinExtended.sol\":9085:9109  _BLOCKS_PER_READJUSTMENT */\n  sload(0x8)\n    /* \"contracts/0xBitcoinExtended.sol\":8851:8863  block.number */\n  number\n    /* \"contracts/0xBitcoinExtended.sol\":8851:8895  block.number - latestDifficultyPeriodStarted */\n  swap2\n  swap1\n  swap2\n  sub\n  swap1\n    /* \"contracts/0xBitcoinExtended.sol\":9176:9178  60 */\n  0x3c\n    /* \"contracts/0xBitcoinExtended.sol\":9162:9178  epochsMined * 60 */\n  dup2\n  mul\n    /* \"contracts/0xBitcoinExtended.sol\":8809:8848  uint ethBlocksSinceLastDifficultyPeriod */\n  0x0\n  dup1\n  dup1\n  dup1\n    /* \"contracts/0xBitcoinExtended.sol\":9304:9369  ethBlocksSinceLastDifficultyPeriod < targetEthBlocksPerDiffPeriod */\n  dup5\n  dup8\n  lt\n    /* \"contracts/0xBitcoinExtended.sol\":9300:10282  if( ethBlocksSinceLastDifficultyPeriod < targetEthBlocksPerDiffPeriod )... */\n  iszero\n  tag_38\n  jumpi\n    /* \"contracts/0xBitcoinExtended.sol\":9416:9497  (targetEthBlocksPerDiffPeriod.mul(100)).div( ethBlocksSinceLastDifficultyPeriod ) */\n  tag_39\n    /* \"contracts/0xBitcoinExtended.sol\":9461:9495  ethBlocksSinceLastDifficultyPeriod */\n  dup8\n    /* \"contracts/0xBitcoinExtended.sol\":9417:9454  targetEthBlocksPerDiffPeriod.mul(100) */\n  tag_40\n    /* \"contracts/0xBitcoinExtended.sol\":9417:9445  targetEthBlocksPerDiffPeriod */\n  dup8\n    /* \"contracts/0xBitcoinExtended.sol\":9450:9453  100 */\n  0x64\n    /* \"contracts/0xBitcoinExtended.sol\":9417:9449  targetEthBlocksPerDiffPeriod.mul */\n  0x100000000\n  tag_0_249\n  tag_41\n  dup3\n  mul\n  or\n    /* \"contracts/0xBitcoinExtended.sol\":9417:9454  targetEthBlocksPerDiffPeriod.mul(100) */\n  div\n  jump\t// in\ntag_40:\n    /* \"contracts/0xBitcoinExtended.sol\":9416:9459  (targetEthBlocksPerDiffPeriod.mul(100)).div */\n  swap1\n  0x100000000\n  tag_0_170\n  tag_13\n  dup3\n  mul\n  or\n    /* \"contracts/0xBitcoinExtended.sol\":9416:9497  (targetEthBlocksPerDiffPeriod.mul(100)).div( ethBlocksSinceLastDifficultyPeriod ) */\n  div\n  jump\t// in\ntag_39:\n    /* \"contracts/0xBitcoinExtended.sol\":9392:9497  uint excess_block_pct = (targetEthBlocksPerDiffPeriod.mul(100)).div( ethBlocksSinceLastDifficultyPeriod ) */\n  swap4\n  pop\n    /* \"contracts/0xBitcoinExtended.sol\":9540:9585  excess_block_pct.sub(100).limitLessThan(1000) */\n  tag_42\n    /* \"contracts/0xBitcoinExtended.sol\":9580:9584  1000 */\n  0x3e8\n    /* \"contracts/0xBitcoinExtended.sol\":9540:9565  excess_block_pct.sub(100) */\n  tag_43\n    /* \"contracts/0xBitcoinExtended.sol\":9392:9497  uint excess_block_pct = (targetEthBlocksPerDiffPeriod.mul(100)).div( ethBlocksSinceLastDifficultyPeriod ) */\n  dup7\n    /* \"contracts/0xBitcoinExtended.sol\":9561:9564  100 */\n  0x64\n    /* \"contracts/0xBitcoinExtended.sol\":9540:9560  excess_block_pct.sub */\n  0x100000000\n  tag_0_185\n  tag_44\n  dup3\n  mul\n  or\n    /* \"contracts/0xBitcoinExtended.sol\":9540:9565  excess_block_pct.sub(100) */\n  div\n  jump\t// in\ntag_43:\n    /* \"contracts/0xBitcoinExtended.sol\":9540:9579  excess_block_pct.sub(100).limitLessThan */\n  swap1\n  0x100000000\n  tag_0_252\n  tag_45\n  dup3\n  mul\n  or\n    /* \"contracts/0xBitcoinExtended.sol\":9540:9585  excess_block_pct.sub(100).limitLessThan(1000) */\n  div\n  jump\t// in\ntag_42:\n    /* \"contracts/0xBitcoinExtended.sol\":9510:9585  uint excess_block_pct_extra = excess_block_pct.sub(100).limitLessThan(1000) */\n  swap3\n  pop\n    /* \"contracts/0xBitcoinExtended.sol\":9788:9856  miningTarget.sub(miningTarget.div(2000).mul(excess_block_pct_extra)) */\n  tag_46\n    /* \"contracts/0xBitcoinExtended.sol\":9805:9855  miningTarget.div(2000).mul(excess_block_pct_extra) */\n  tag_47\n    /* \"contracts/0xBitcoinExtended.sol\":9832:9854  excess_block_pct_extra */\n  dup5\n    /* \"contracts/0xBitcoinExtended.sol\":9805:9827  miningTarget.div(2000) */\n  tag_48\n    /* \"contracts/0xBitcoinExtended.sol\":9822:9826  2000 */\n  0x7d0\n    /* \"contracts/0xBitcoinExtended.sol\":9805:9817  miningTarget */\n  sload(0xb)\n    /* \"contracts/0xBitcoinExtended.sol\":9805:9821  miningTarget.div */\n  or(tag_0_170, mul(0x100000000, tag_13))\n  swap1\n    /* \"contracts/0xBitcoinExtended.sol\":9805:9827  miningTarget.div(2000) */\n  swap2\n  swap1\n  0x100000000\n  swap1\n  div\n  jump\t// in\ntag_48:\n    /* \"contracts/0xBitcoinExtended.sol\":9805:9831  miningTarget.div(2000).mul */\n  swap1\n  0x100000000\n  tag_0_249\n  tag_41\n  dup3\n  mul\n  or\n    /* \"contracts/0xBitcoinExtended.sol\":9805:9855  miningTarget.div(2000).mul(excess_block_pct_extra) */\n  div\n  jump\t// in\ntag_47:\n    /* \"contracts/0xBitcoinExtended.sol\":9788:9800  miningTarget */\n  sload(0xb)\n  swap1\n    /* \"contracts/0xBitcoinExtended.sol\":9788:9804  miningTarget.sub */\n  0x100000000\n  tag_0_185\n  tag_44\n  dup3\n  mul\n  or\n    /* \"contracts/0xBitcoinExtended.sol\":9788:9856  miningTarget.sub(miningTarget.div(2000).mul(excess_block_pct_extra)) */\n  div\n  jump\t// in\ntag_46:\n    /* \"contracts/0xBitcoinExtended.sol\":9773:9785  miningTarget */\n  0xb\n    /* \"contracts/0xBitcoinExtended.sol\":9773:9856  miningTarget = miningTarget.sub(miningTarget.div(2000).mul(excess_block_pct_extra)) */\n  sstore\n    /* \"contracts/0xBitcoinExtended.sol\":9300:10282  if( ethBlocksSinceLastDifficultyPeriod < targetEthBlocksPerDiffPeriod )... */\n  jump(tag_49)\ntag_38:\n    /* \"contracts/0xBitcoinExtended.sol\":9927:10008  (ethBlocksSinceLastDifficultyPeriod.mul(100)).div( targetEthBlocksPerDiffPeriod ) */\n  tag_50\n    /* \"contracts/0xBitcoinExtended.sol\":9978:10006  targetEthBlocksPerDiffPeriod */\n  dup6\n    /* \"contracts/0xBitcoinExtended.sol\":9928:9971  ethBlocksSinceLastDifficultyPeriod.mul(100) */\n  tag_40\n    /* \"contracts/0xBitcoinExtended.sol\":9928:9962  ethBlocksSinceLastDifficultyPeriod */\n  dup10\n    /* \"contracts/0xBitcoinExtended.sol\":9967:9970  100 */\n  0x64\n    /* \"contracts/0xBitcoinExtended.sol\":9928:9966  ethBlocksSinceLastDifficultyPeriod.mul */\n  0x100000000\n  tag_0_249\n  tag_41\n  dup3\n  mul\n  or\n    /* \"contracts/0xBitcoinExtended.sol\":9928:9971  ethBlocksSinceLastDifficultyPeriod.mul(100) */\n  div\n  jump\t// in\n    /* \"contracts/0xBitcoinExtended.sol\":9927:10008  (ethBlocksSinceLastDifficultyPeriod.mul(100)).div( targetEthBlocksPerDiffPeriod ) */\ntag_50:\n    /* \"contracts/0xBitcoinExtended.sol\":9901:10008  uint shortage_block_pct = (ethBlocksSinceLastDifficultyPeriod.mul(100)).div( targetEthBlocksPerDiffPeriod ) */\n  swap2\n  pop\n    /* \"contracts/0xBitcoinExtended.sol\":10053:10100  shortage_block_pct.sub(100).limitLessThan(1000) */\n  tag_52\n    /* \"contracts/0xBitcoinExtended.sol\":10095:10099  1000 */\n  0x3e8\n    /* \"contracts/0xBitcoinExtended.sol\":10053:10080  shortage_block_pct.sub(100) */\n  tag_43\n    /* \"contracts/0xBitcoinExtended.sol\":9901:10008  uint shortage_block_pct = (ethBlocksSinceLastDifficultyPeriod.mul(100)).div( targetEthBlocksPerDiffPeriod ) */\n  dup5\n    /* \"contracts/0xBitcoinExtended.sol\":10076:10079  100 */\n  0x64\n    /* \"contracts/0xBitcoinExtended.sol\":10053:10075  shortage_block_pct.sub */\n  0x100000000\n  tag_0_185\n  tag_44\n  dup3\n  mul\n  or\n    /* \"contracts/0xBitcoinExtended.sol\":10053:10080  shortage_block_pct.sub(100) */\n  div\n  jump\t// in\n    /* \"contracts/0xBitcoinExtended.sol\":10053:10100  shortage_block_pct.sub(100).limitLessThan(1000) */\ntag_52:\n    /* \"contracts/0xBitcoinExtended.sol\":10021:10100  uint shortage_block_pct_extra = shortage_block_pct.sub(100).limitLessThan(1000) */\n  swap1\n  pop\n    /* \"contracts/0xBitcoinExtended.sol\":10183:10253  miningTarget.add(miningTarget.div(2000).mul(shortage_block_pct_extra)) */\n  tag_54\n    /* \"contracts/0xBitcoinExtended.sol\":10200:10252  miningTarget.div(2000).mul(shortage_block_pct_extra) */\n  tag_55\n    /* \"contracts/0xBitcoinExtended.sol\":10227:10251  shortage_block_pct_extra */\n  dup3\n    /* \"contracts/0xBitcoinExtended.sol\":10200:10222  miningTarget.div(2000) */\n  tag_48\n    /* \"contracts/0xBitcoinExtended.sol\":10217:10221  2000 */\n  0x7d0\n    /* \"contracts/0xBitcoinExtended.sol\":10200:10212  miningTarget */\n  sload(0xb)\n    /* \"contracts/0xBitcoinExtended.sol\":10200:10216  miningTarget.div */\n  or(tag_0_170, mul(0x100000000, tag_13))\n  swap1\n    /* \"contracts/0xBitcoinExtended.sol\":10200:10222  miningTarget.div(2000) */\n  swap2\n  swap1\n  0x100000000\n  swap1\n  div\n  jump\t// in\n    /* \"contracts/0xBitcoinExtended.sol\":10200:10252  miningTarget.div(2000).mul(shortage_block_pct_extra) */\ntag_55:\n    /* \"contracts/0xBitcoinExtended.sol\":10183:10195  miningTarget */\n  sload(0xb)\n  swap1\n    /* \"contracts/0xBitcoinExtended.sol\":10183:10199  miningTarget.add */\n  0x100000000\n  tag_0_177\n  tag_24\n  dup3\n  mul\n  or\n    /* \"contracts/0xBitcoinExtended.sol\":10183:10253  miningTarget.add(miningTarget.div(2000).mul(shortage_block_pct_extra)) */\n  div\n  jump\t// in\ntag_54:\n    /* \"contracts/0xBitcoinExtended.sol\":10168:10180  miningTarget */\n  0xb\n    /* \"contracts/0xBitcoinExtended.sol\":10168:10253  miningTarget = miningTarget.add(miningTarget.div(2000).mul(shortage_block_pct_extra)) */\n  sstore\n    /* \"contracts/0xBitcoinExtended.sol\":9300:10282  if( ethBlocksSinceLastDifficultyPeriod < targetEthBlocksPerDiffPeriod )... */\ntag_49:\n    /* \"contracts/0xBitcoinExtended.sol\":10326:10338  block.number */\n  number\n    /* \"contracts/0xBitcoinExtended.sol\":10294:10323  latestDifficultyPeriodStarted */\n  0x6\n    /* \"contracts/0xBitcoinExtended.sol\":10294:10338  latestDifficultyPeriodStarted = block.number */\n  sstore\n    /* \"contracts/0xBitcoinExtended.sol\":10367:10382  _MINIMUM_TARGET */\n  sload(0x9)\n    /* \"contracts/0xBitcoinExtended.sol\":10352:10364  miningTarget */\n  sload(0xb)\n    /* \"contracts/0xBitcoinExtended.sol\":10352:10382  miningTarget < _MINIMUM_TARGET */\n  lt\n    /* \"contracts/0xBitcoinExtended.sol\":10349:10462  if(miningTarget < _MINIMUM_TARGET) //very difficult... */\n  iszero\n  tag_57\n  jumpi\n    /* \"contracts/0xBitcoinExtended.sol\":10436:10451  _MINIMUM_TARGET */\n  sload(0x9)\n    /* \"contracts/0xBitcoinExtended.sol\":10421:10433  miningTarget */\n  0xb\n    /* \"contracts/0xBitcoinExtended.sol\":10421:10451  miningTarget = _MINIMUM_TARGET */\n  sstore\n    /* \"contracts/0xBitcoinExtended.sol\":10349:10462  if(miningTarget < _MINIMUM_TARGET) //very difficult... */\ntag_57:\n    /* \"contracts/0xBitcoinExtended.sol\":10490:10505  _MAXIMUM_TARGET */\n  sload(0xa)\n    /* \"contracts/0xBitcoinExtended.sol\":10475:10487  miningTarget */\n  sload(0xb)\n    /* \"contracts/0xBitcoinExtended.sol\":10475:10505  miningTarget > _MAXIMUM_TARGET */\n  gt\n    /* \"contracts/0xBitcoinExtended.sol\":10472:10580  if(miningTarget > _MAXIMUM_TARGET) //very easy... */\n  iszero\n  tag_58\n  jumpi\n    /* \"contracts/0xBitcoinExtended.sol\":10554:10569  _MAXIMUM_TARGET */\n  sload(0xa)\n    /* \"contracts/0xBitcoinExtended.sol\":10539:10551  miningTarget */\n  0xb\n    /* \"contracts/0xBitcoinExtended.sol\":10539:10569  miningTarget = _MAXIMUM_TARGET */\n  sstore\n    /* \"contracts/0xBitcoinExtended.sol\":10472:10580  if(miningTarget > _MAXIMUM_TARGET) //very easy... */\ntag_58:\n    /* \"contracts/0xBitcoinExtended.sol\":8757:10586  function _reAdjustDifficulty() internal {... */\n  pop\n  pop\n  pop\n  pop\n  pop\n  pop\n  pop\n  jump\t// out\n    /* \"contracts/0xBitcoinExtended.sol\":894:1022  function mul(uint a, uint b) internal pure returns (uint c) {... */\ntag_41:\n    /* \"contracts/0xBitcoinExtended.sol\":969:974  a * b */\n  dup2\n  dup2\n  mul\n    /* \"contracts/0xBitcoinExtended.sol\":993:999  a == 0 */\n  dup3\n  iszero\n  dup1\n    /* \"contracts/0xBitcoinExtended.sol\":993:1013  a == 0 || c / a == b */\n  tag_60\n  jumpi\n  pop\n    /* \"contracts/0xBitcoinExtended.sol\":1012:1013  b */\n  dup2\n    /* \"contracts/0xBitcoinExtended.sol\":1007:1008  a */\n  dup4\n    /* \"contracts/0xBitcoinExtended.sol\":1003:1004  c */\n  dup3\n    /* \"contracts/0xBitcoinExtended.sol\":1003:1008  c / a */\n  dup2\n  iszero\n  iszero\n  tag_61\n  jumpi\n  invalid\ntag_61:\n  div\n    /* \"contracts/0xBitcoinExtended.sol\":1003:1013  c / a == b */\n  eq\n    /* \"contracts/0xBitcoinExtended.sol\":993:1013  a == 0 || c / a == b */\ntag_60:\n    /* \"contracts/0xBitcoinExtended.sol\":985:1014  require(a == 0 || c / a == b) */\n  iszero\n  iszero\n  tag_36\n  jumpi\n  0x0\n  dup1\n  revert\n    /* \"contracts/0xBitcoinExtended.sol\":774:888  function sub(uint a, uint b) internal pure returns (uint c) {... */\ntag_44:\n    /* \"contracts/0xBitcoinExtended.sol\":826:832  uint c */\n  0x0\n    /* \"contracts/0xBitcoinExtended.sol\":853:859  b <= a */\n  dup3\n  dup3\n  gt\n  iszero\n    /* \"contracts/0xBitcoinExtended.sol\":845:860  require(b <= a) */\n  tag_64\n  jumpi\n  0x0\n  dup1\n  revert\ntag_64:\n  pop\n    /* \"contracts/0xBitcoinExtended.sol\":875:880  a - b */\n  swap1\n  sub\n  swap1\n    /* \"contracts/0xBitcoinExtended.sol\":774:888  function sub(uint a, uint b) internal pure returns (uint c) {... */\n  jump\t// out\n    /* \"contracts/0xBitcoinExtended.sol\":1229:1355  function limitLessThan(uint a, uint b) internal pure returns (uint c) {... */\ntag_45:\n    /* \"contracts/0xBitcoinExtended.sol\":1291:1297  uint c */\n  0x0\n    /* \"contracts/0xBitcoinExtended.sol\":1317:1318  b */\n  dup2\n    /* \"contracts/0xBitcoinExtended.sol\":1313:1314  a */\n  dup4\n    /* \"contracts/0xBitcoinExtended.sol\":1313:1318  a > b */\n  gt\n    /* \"contracts/0xBitcoinExtended.sol\":1310:1328  if(a > b) return b */\n  iszero\n  tag_66\n  jumpi\n  pop\n    /* \"contracts/0xBitcoinExtended.sol\":1327:1328  b */\n  dup1\n    /* \"contracts/0xBitcoinExtended.sol\":1320:1328  return b */\n  jump(tag_36)\n    /* \"contracts/0xBitcoinExtended.sol\":1310:1328  if(a > b) return b */\ntag_66:\n  pop\n    /* \"contracts/0xBitcoinExtended.sol\":1346:1347  a */\n  swap1\n  swap2\n    /* \"contracts/0xBitcoinExtended.sol\":1229:1355  function limitLessThan(uint a, uint b) internal pure returns (uint c) {... */\n  swap1\n  pop\n  jump\t// out\n    /* \"contracts/0xBitcoinExtended.sol\":3801:18453  contract _0xBitcoinToken is ERC20Interface, Owned {... */\ntag_9:\n  dup3\n  dup1\n  sload\n  0x1\n  dup2\n  0x1\n  and\n  iszero\n  0x100\n  mul\n  sub\n  and\n  0x2\n  swap1\n  div\n  swap1\n  0x0\n  mstore\n  keccak256(0x0, 0x20)\n  swap1\n  0x1f\n  add\n  0x20\n  swap1\n  div\n  dup2\n  add\n  swap3\n  dup3\n  0x1f\n  lt\n  tag_68\n  jumpi\n  dup1\n  mload\n  not(0xff)\n  and\n  dup4\n  dup1\n  add\n  or\n  dup6\n  sstore\n  jump(tag_70)\ntag_68:\n  dup3\n  dup1\n  add\n  0x1\n  add\n  dup6\n  sstore\n  dup3\n  iszero\n  tag_70\n  jumpi\n  swap2\n  dup3\n  add\ntag_69:\n  dup3\n  dup2\n  gt\n  iszero\n  tag_70\n  jumpi\n  dup3\n  mload\n  dup3\n  sstore\n  swap2\n  0x20\n  add\n  swap2\n  swap1\n  0x1\n  add\n  swap1\n  jump(tag_69)\ntag_70:\n  pop\n  tag_71\n  swap3\n  swap2\n  pop\n  jump\t// in(tag_72)\ntag_71:\n  pop\n  swap1\n  jump\t// out\ntag_72:\n  tag_33\n  swap2\n  swap1\ntag_74:\n  dup1\n  dup3\n  gt\n  iszero\n  tag_71\n  jumpi\n  0x0\n  dup2\n  sstore\n  0x1\n  add\n  jump(tag_74)\ntag_16:\n  dataSize(sub_0)\n  dup1\n  dataOffset(sub_0)\n  0x0\n  codecopy\n  0x0\n  return\nstop\n\nsub_0: assembly {\n        /* \"contracts/0xBitcoinExtended.sol\":3801:18453  contract _0xBitcoinToken is ERC20Interface, Owned {... */\n      mstore(0x40, 0x60)\n      jumpi(tag_1, lt(calldatasize, 0x4))\n      and(div(calldataload(0x0), exp(0x2, 0xe0)), 0xffffffff)\n      0x6fdde03\n      dup2\n      eq\n      tag_2\n      jumpi\n      dup1\n      0x95ea7b3\n      eq\n      tag_3\n      jumpi\n      dup1\n      0x163aa00d\n      eq\n      tag_4\n      jumpi\n      dup1\n      0x17da485f\n      eq\n      tag_5\n      jumpi\n      dup1\n      0x1801fbe5\n      eq\n      tag_6\n      jumpi\n      dup1\n      0x18160ddd\n      eq\n      tag_7\n      jumpi\n      dup1\n      0x23b872dd\n      eq\n      tag_8\n      jumpi\n      dup1\n      0x2d38bf7a\n      eq\n      tag_9\n      jumpi\n      dup1\n      0x313ce567\n      eq\n      tag_10\n      jumpi\n      dup1\n      0x32e99708\n      eq\n      tag_11\n      jumpi\n      dup1\n      0x3eaaf86b\n      eq\n      tag_12\n      jumpi\n      dup1\n      0x490203a7\n      eq\n      tag_13\n      jumpi\n      dup1\n      0x4ef37628\n      eq\n      tag_14\n      jumpi\n      dup1\n      0x4fa972e1\n      eq\n      tag_15\n      jumpi\n      dup1\n      0x5515a1ea\n      eq\n      tag_16\n      jumpi\n      dup1\n      0x5ce7e030\n      eq\n      tag_17\n      jumpi\n      dup1\n      0x6de9f32b\n      eq\n      tag_18\n      jumpi\n      dup1\n      0x6fd396d6\n      eq\n      tag_19\n      jumpi\n      dup1\n      0x70a08231\n      eq\n      tag_20\n      jumpi\n      dup1\n      0x79ba5097\n      eq\n      tag_21\n      jumpi\n      dup1\n      0x81269a56\n      eq\n      tag_22\n      jumpi\n      dup1\n      0x829965cc\n      eq\n      tag_23\n      jumpi\n      dup1\n      0x87a2a9d6\n      eq\n      tag_24\n      jumpi\n      dup1\n      0x8a769d35\n      eq\n      tag_25\n      jumpi\n      dup1\n      0x8ae0368b\n      eq\n      tag_26\n      jumpi\n      dup1\n      0x8da5cb5b\n      eq\n      tag_27\n      jumpi\n      dup1\n      0x95d89b41\n      eq\n      tag_28\n      jumpi\n      dup1\n      0x97566aa0\n      eq\n      tag_29\n      jumpi\n      dup1\n      0xa9059cbb\n      eq\n      tag_30\n      jumpi\n      dup1\n      0xb5ade81b\n      eq\n      tag_31\n      jumpi\n      dup1\n      0xbafedcaa\n      eq\n      tag_32\n      jumpi\n      dup1\n      0xcae9ca51\n      eq\n      tag_33\n      jumpi\n      dup1\n      0xcb9ae707\n      eq\n      tag_34\n      jumpi\n      dup1\n      0xd4ee1d90\n      eq\n      tag_35\n      jumpi\n      dup1\n      0xdc39d06d\n      eq\n      tag_36\n      jumpi\n      dup1\n      0xdc6e9cf9\n      eq\n      tag_37\n      jumpi\n      dup1\n      0xdd62ed3e\n      eq\n      tag_38\n      jumpi\n      dup1\n      0xf2fde38b\n      eq\n      tag_39\n      jumpi\n    tag_1:\n        /* \"contracts/0xBitcoinExtended.sol\":16324:16332  revert() */\n      0x0\n      dup1\n      revert\n        /* \"contracts/0xBitcoinExtended.sol\":3949:3968  string public  name */\n    tag_2:\n      jumpi(tag_42, iszero(callvalue))\n      0x0\n      dup1\n      revert\n    tag_42:\n      tag_43\n      jump(tag_44)\n    tag_43:\n      mload(0x40)\n      0x20\n      dup1\n      dup3\n      mstore\n      dup2\n      swap1\n      dup2\n      add\n      dup4\n      dup2\n      dup2\n      mload\n      dup2\n      mstore\n      0x20\n      add\n      swap2\n      pop\n      dup1\n      mload\n      swap1\n      0x20\n      add\n      swap1\n      dup1\n      dup4\n      dup4\n        /* \"--CODEGEN--\":23:24   */\n      0x0\n        /* \"--CODEGEN--\":8:108   */\n    tag_45:\n        /* \"--CODEGEN--\":33:36   */\n      dup4\n        /* \"--CODEGEN--\":30:31   */\n      dup2\n        /* \"--CODEGEN--\":27:29   */\n      lt\n        /* \"--CODEGEN--\":8:108   */\n      iszero\n      tag_46\n      jumpi\n        /* \"--CODEGEN--\":99:100   */\n      dup1\n        /* \"--CODEGEN--\":94:97   */\n      dup3\n        /* \"--CODEGEN--\":90:93   */\n      add\n        /* \"--CODEGEN--\":84:89   */\n      mload\n        /* \"--CODEGEN--\":71:74   */\n      dup4\n      dup3\n      add\n        /* \"--CODEGEN--\":64:70   */\n      mstore\n        /* \"--CODEGEN--\":52:54   */\n      0x20\n        /* \"--CODEGEN--\":45:48   */\n      add\n        /* \"--CODEGEN--\":8:108   */\n      jump(tag_45)\n    tag_46:\n        /* \"--CODEGEN--\":12:26   */\n      pop\n        /* \"--CODEGEN--\":3:112   */\n      pop\n      pop\n      pop\n      swap1\n      pop\n      swap1\n      dup2\n      add\n      swap1\n      0x1f\n      and\n      dup1\n      iszero\n      tag_48\n      jumpi\n      dup1\n      dup3\n      sub\n      dup1\n      mload\n      0x1\n      dup4\n      0x20\n      sub\n      0x100\n      exp\n      sub\n      not\n      and\n      dup2\n      mstore\n      0x20\n      add\n      swap2\n      pop\n    tag_48:\n      pop\n      swap3\n      pop\n      pop\n      pop\n      mload(0x40)\n      dup1\n      swap2\n      sub\n      swap1\n      return\n        /* \"contracts/0xBitcoinExtended.sol\":13894:14097  function approve(address spender, uint tokens) public returns (bool success) {... */\n    tag_3:\n      jumpi(tag_49, iszero(callvalue))\n      0x0\n      dup1\n      revert\n    tag_49:\n      tag_50\n      and(calldataload(0x4), sub(exp(0x2, 0xa0), 0x1))\n      calldataload(0x24)\n      jump(tag_51)\n    tag_50:\n      mload(0x40)\n      swap1\n      iszero\n      iszero\n      dup2\n      mstore\n      0x20\n      add\n      mload(0x40)\n      dup1\n      swap2\n      sub\n      swap1\n      return\n        /* \"contracts/0xBitcoinExtended.sol\":4688:4724  uint public lastRewardEthBlockNumber */\n    tag_4:\n      jumpi(tag_52, iszero(callvalue))\n      0x0\n      dup1\n      revert\n    tag_52:\n      tag_53\n      jump(tag_54)\n    tag_53:\n      mload(0x40)\n      swap1\n      dup2\n      mstore\n      0x20\n      add\n      mload(0x40)\n      dup1\n      swap2\n      sub\n      swap1\n      return\n        /* \"contracts/0xBitcoinExtended.sol\":10870:10989  function getMiningDifficulty() public constant returns (uint) {... */\n    tag_5:\n      jumpi(tag_55, iszero(callvalue))\n      0x0\n      dup1\n      revert\n    tag_55:\n      tag_53\n      jump(tag_57)\n        /* \"contracts/0xBitcoinExtended.sol\":5878:7343  function mint(uint256 nonce, bytes32 challenge_digest) public returns (bool success) {... */\n    tag_6:\n      jumpi(tag_58, iszero(callvalue))\n      0x0\n      dup1\n      revert\n    tag_58:\n      tag_50\n      calldataload(0x4)\n      calldataload(0x24)\n      jump(tag_60)\n        /* \"contracts/0xBitcoinExtended.sol\":12304:12420  function totalSupply() public constant returns (uint) {... */\n    tag_7:\n      jumpi(tag_61, iszero(callvalue))\n      0x0\n      dup1\n      revert\n    tag_61:\n      tag_53\n      jump(tag_63)\n        /* \"contracts/0xBitcoinExtended.sol\":14638:14976  function transferFrom(address from, address to, uint tokens) public returns (bool success) {... */\n    tag_8:\n      jumpi(tag_64, iszero(callvalue))\n      0x0\n      dup1\n      revert\n    tag_64:\n      tag_50\n      sub(exp(0x2, 0xa0), 0x1)\n      calldataload(0x4)\n      dup2\n      and\n      swap1\n      calldataload(0x24)\n      and\n      calldataload(0x44)\n      jump(tag_66)\n        /* \"contracts/0xBitcoinExtended.sol\":4559:4580  uint public rewardEra */\n    tag_9:\n      jumpi(tag_67, iszero(callvalue))\n      0x0\n      dup1\n      revert\n    tag_67:\n      tag_53\n      jump(tag_69)\n        /* \"contracts/0xBitcoinExtended.sol\":3975:3996  uint8 public decimals */\n    tag_10:\n      jumpi(tag_70, iszero(callvalue))\n      0x0\n      dup1\n      revert\n    tag_70:\n      tag_71\n      jump(tag_72)\n    tag_71:\n      mload(0x40)\n      0xff\n      swap1\n      swap2\n      and\n      dup2\n      mstore\n      0x20\n      add\n      mload(0x40)\n      dup1\n      swap2\n      sub\n      swap1\n      return\n        /* \"contracts/0xBitcoinExtended.sol\":10995:11087  function getMiningTarget() public constant returns (uint) {... */\n    tag_11:\n      jumpi(tag_73, iszero(callvalue))\n      0x0\n      dup1\n      revert\n    tag_73:\n      tag_53\n      jump(tag_75)\n        /* \"contracts/0xBitcoinExtended.sol\":4003:4027  uint public _totalSupply */\n    tag_12:\n      jumpi(tag_76, iszero(callvalue))\n      0x0\n      dup1\n      revert\n    tag_76:\n      tag_53\n      jump(tag_78)\n        /* \"contracts/0xBitcoinExtended.sol\":11201:11458  function getMiningReward() public constant returns (uint) {... */\n    tag_13:\n      jumpi(tag_79, iszero(callvalue))\n      0x0\n      dup1\n      revert\n    tag_79:\n      tag_53\n      jump(tag_81)\n        /* \"contracts/0xBitcoinExtended.sol\":10678:10781  function getChallengeNumber() public constant returns (bytes32) {... */\n    tag_14:\n      jumpi(tag_82, iszero(callvalue))\n      0x0\n      dup1\n      revert\n    tag_82:\n      tag_53\n      jump(tag_84)\n        /* \"contracts/0xBitcoinExtended.sol\":4586:4613  uint public maxSupplyForEra */\n    tag_15:\n      jumpi(tag_85, iszero(callvalue))\n      0x0\n      dup1\n      revert\n    tag_85:\n      tag_53\n      jump(tag_87)\n        /* \"contracts/0xBitcoinExtended.sol\":17074:18449  function mintWithoutPoW( ) public returns (bool success) {... */\n    tag_16:\n      jumpi(tag_88, iszero(callvalue))\n      0x0\n      dup1\n      revert\n    tag_88:\n      tag_50\n      jump(tag_90)\n        /* \"contracts/0xBitcoinExtended.sol\":16988:17067  function setTokensMinted(uint amt) public   {... */\n    tag_17:\n      jumpi(tag_91, iszero(callvalue))\n      0x0\n      dup1\n      revert\n    tag_91:\n      tag_92\n      calldataload(0x4)\n      jump(tag_93)\n    tag_92:\n      stop\n        /* \"contracts/0xBitcoinExtended.sol\":4812:4836  uint public tokensMinted */\n    tag_18:\n      jumpi(tag_94, iszero(callvalue))\n      0x0\n      dup1\n      revert\n    tag_94:\n      tag_53\n      jump(tag_96)\n        /* \"contracts/0xBitcoinExtended.sol\":4621:4648  address public lastRewardTo */\n    tag_19:\n      jumpi(tag_97, iszero(callvalue))\n      0x0\n      dup1\n      revert\n    tag_97:\n      tag_98\n      jump(tag_99)\n    tag_98:\n      mload(0x40)\n      sub(exp(0x2, 0xa0), 0x1)\n      swap1\n      swap2\n      and\n      dup2\n      mstore\n      0x20\n      add\n      mload(0x40)\n      dup1\n      swap2\n      sub\n      swap1\n      return\n        /* \"contracts/0xBitcoinExtended.sol\":12645:12769  function balanceOf(address tokenOwner) public constant returns (uint balance) {... */\n    tag_20:\n      jumpi(tag_100, iszero(callvalue))\n      0x0\n      dup1\n      revert\n    tag_100:\n      tag_53\n      and(calldataload(0x4), sub(exp(0x2, 0xa0), 0x1))\n      jump(tag_102)\n        /* \"contracts/0xBitcoinExtended.sol\":3345:3536  function acceptOwnership() public {... */\n    tag_21:\n      jumpi(tag_103, iszero(callvalue))\n      0x0\n      dup1\n      revert\n    tag_103:\n      tag_92\n      jump(tag_105)\n        /* \"contracts/0xBitcoinExtended.sol\":11779:12113  function checkMintSolution(uint256 nonce, bytes32 challenge_digest, bytes32 challenge_number, uint testTarget) public view returns (bool success) {... */\n    tag_22:\n      jumpi(tag_106, iszero(callvalue))\n      0x0\n      dup1\n      revert\n    tag_106:\n      tag_50\n      calldataload(0x4)\n      calldataload(0x24)\n      calldataload(0x44)\n      calldataload(0x64)\n      jump(tag_108)\n        /* \"contracts/0xBitcoinExtended.sol\":4087:4109  uint public epochCount */\n    tag_23:\n      jumpi(tag_109, iszero(callvalue))\n      0x0\n      dup1\n      revert\n    tag_109:\n      tag_53\n      jump(tag_111)\n        /* \"contracts/0xBitcoinExtended.sol\":4393:4430  uint public  _MAXIMUM_TARGET = 2**234 */\n    tag_24:\n      jumpi(tag_112, iszero(callvalue))\n      0x0\n      dup1\n      revert\n    tag_112:\n      tag_53\n      jump(tag_114)\n        /* \"contracts/0xBitcoinExtended.sol\":4438:4462  uint public miningTarget */\n    tag_25:\n      jumpi(tag_115, iszero(callvalue))\n      0x0\n      dup1\n      revert\n    tag_115:\n      tag_53\n      jump(tag_117)\n        /* \"contracts/0xBitcoinExtended.sol\":4469:4499  bytes32 public challengeNumber */\n    tag_26:\n      jumpi(tag_118, iszero(callvalue))\n      0x0\n      dup1\n      revert\n    tag_118:\n      tag_53\n      jump(tag_120)\n        /* \"contracts/0xBitcoinExtended.sol\":2948:2968  address public owner */\n    tag_27:\n      jumpi(tag_121, iszero(callvalue))\n      0x0\n      dup1\n      revert\n    tag_121:\n      tag_98\n      jump(tag_123)\n        /* \"contracts/0xBitcoinExtended.sol\":3922:3942  string public symbol */\n    tag_28:\n      jumpi(tag_124, iszero(callvalue))\n      0x0\n      dup1\n      revert\n    tag_124:\n      tag_43\n      jump(tag_126)\n        /* \"contracts/0xBitcoinExtended.sol\":11497:11734  function getMintDigest(uint256 nonce, bytes32 challenge_digest, bytes32 challenge_number) public view returns (bytes32 digesttest) {... */\n    tag_29:\n      jumpi(tag_131, iszero(callvalue))\n      0x0\n      dup1\n      revert\n    tag_131:\n      tag_53\n      calldataload(0x4)\n      calldataload(0x24)\n      calldataload(0x44)\n      jump(tag_133)\n        /* \"contracts/0xBitcoinExtended.sol\":13118:13380  function transfer(address to, uint tokens) public returns (bool success) {... */\n    tag_30:\n      jumpi(tag_134, iszero(callvalue))\n      0x0\n      dup1\n      revert\n    tag_134:\n      tag_50\n      and(calldataload(0x4), sub(exp(0x2, 0xa0), 0x1))\n      calldataload(0x24)\n      jump(tag_136)\n        /* \"contracts/0xBitcoinExtended.sol\":4143:4186  uint public _BLOCKS_PER_READJUSTMENT = 1024 */\n    tag_31:\n      jumpi(tag_137, iszero(callvalue))\n      0x0\n      dup1\n      revert\n    tag_137:\n      tag_53\n      jump(tag_139)\n        /* \"contracts/0xBitcoinExtended.sol\":4654:4682  uint public lastRewardAmount */\n    tag_32:\n      jumpi(tag_140, iszero(callvalue))\n      0x0\n      dup1\n      revert\n    tag_140:\n      tag_53\n      jump(tag_142)\n        /* \"contracts/0xBitcoinExtended.sol\":15779:16091  function approveAndCall(address spender, uint tokens, bytes data) public returns (bool success) {... */\n    tag_33:\n      jumpi(tag_143, iszero(callvalue))\n      0x0\n      dup1\n      revert\n    tag_143:\n      tag_50\n      0x4\n      dup1\n      calldataload\n      sub(exp(0x2, 0xa0), 0x1)\n      and\n      swap1\n      0x24\n      dup1\n      calldataload\n      swap2\n      swap1\n      0x64\n      swap1\n      calldataload(0x44)\n      swap1\n      dup2\n      add\n      swap1\n      dup4\n      add\n      calldataload\n      dup1\n      0x20\n      0x1f\n      dup3\n      add\n      dup2\n      swap1\n      div\n      dup2\n      mul\n      add\n      mload(0x40)\n      swap1\n      dup2\n      add\n      0x40\n      mstore\n      dup2\n      dup2\n      mstore\n      swap3\n      swap2\n      swap1\n      0x20\n      dup5\n      add\n      dup4\n      dup4\n      dup1\n      dup3\n      dup5\n      calldatacopy\n      pop\n      swap5\n      swap7\n      pop\n      tag_145\n      swap6\n      pop\n      pop\n      pop\n      pop\n      pop\n      pop\n      jump\n        /* \"contracts/0xBitcoinExtended.sol\":4037:4078  uint public latestDifficultyPeriodStarted */\n    tag_34:\n      jumpi(tag_146, iszero(callvalue))\n      0x0\n      dup1\n      revert\n    tag_146:\n      tag_53\n      jump(tag_148)\n        /* \"contracts/0xBitcoinExtended.sol\":2975:2998  address public newOwner */\n    tag_35:\n      jumpi(tag_149, iszero(callvalue))\n      0x0\n      dup1\n      revert\n    tag_149:\n      tag_98\n      jump(tag_151)\n        /* \"contracts/0xBitcoinExtended.sol\":16576:16760  function transferAnyERC20Token(address tokenAddress, uint tokens) public onlyOwner returns (bool success) {... */\n    tag_36:\n      jumpi(tag_152, iszero(callvalue))\n      0x0\n      dup1\n      revert\n    tag_152:\n      tag_50\n      and(calldataload(0x4), sub(exp(0x2, 0xa0), 0x1))\n      calldataload(0x24)\n      jump(tag_154)\n        /* \"contracts/0xBitcoinExtended.sol\":4216:4252  uint public  _MINIMUM_TARGET = 2**16 */\n    tag_37:\n      jumpi(tag_155, iszero(callvalue))\n      0x0\n      dup1\n      revert\n    tag_155:\n      tag_53\n      jump(tag_157)\n        /* \"contracts/0xBitcoinExtended.sol\":15262:15413  function allowance(address tokenOwner, address spender) public constant returns (uint remaining) {... */\n    tag_38:\n      jumpi(tag_158, iszero(callvalue))\n      0x0\n      dup1\n      revert\n    tag_158:\n      tag_53\n      sub(exp(0x2, 0xa0), 0x1)\n      calldataload(0x4)\n      dup2\n      and\n      swap1\n      calldataload(0x24)\n      and\n      jump(tag_160)\n        /* \"contracts/0xBitcoinExtended.sol\":3237:3339  function transferOwnership(address _newOwner) public onlyOwner {... */\n    tag_39:\n      jumpi(tag_161, iszero(callvalue))\n      0x0\n      dup1\n      revert\n    tag_161:\n      tag_92\n      and(calldataload(0x4), sub(exp(0x2, 0xa0), 0x1))\n      jump(tag_163)\n        /* \"contracts/0xBitcoinExtended.sol\":3949:3968  string public  name */\n    tag_44:\n      0x3\n      dup1\n      sload\n      0x1\n      dup2\n      0x1\n      and\n      iszero\n      0x100\n      mul\n      sub\n      and\n      0x2\n      swap1\n      div\n      dup1\n      0x1f\n      add\n      0x20\n      dup1\n      swap2\n      div\n      mul\n      0x20\n      add\n      mload(0x40)\n      swap1\n      dup2\n      add\n      0x40\n      mstore\n      dup1\n      swap3\n      swap2\n      swap1\n      dup2\n      dup2\n      mstore\n      0x20\n      add\n      dup3\n      dup1\n      sload\n      0x1\n      dup2\n      0x1\n      and\n      iszero\n      0x100\n      mul\n      sub\n      and\n      0x2\n      swap1\n      div\n      dup1\n      iszero\n      tag_164\n      jumpi\n      dup1\n      0x1f\n      lt\n      tag_165\n      jumpi\n      0x100\n      dup1\n      dup4\n      sload\n      div\n      mul\n      dup4\n      mstore\n      swap2\n      0x20\n      add\n      swap2\n      jump(tag_164)\n    tag_165:\n      dup3\n      add\n      swap2\n      swap1\n      0x0\n      mstore\n      keccak256(0x0, 0x20)\n      swap1\n    tag_166:\n      dup2\n      sload\n      dup2\n      mstore\n      swap1\n      0x1\n      add\n      swap1\n      0x20\n      add\n      dup1\n      dup4\n      gt\n      tag_166\n      jumpi\n      dup3\n      swap1\n      sub\n      0x1f\n      and\n      dup3\n      add\n      swap2\n    tag_164:\n      pop\n      pop\n      pop\n      pop\n      pop\n      dup2\n      jump\t// out\n        /* \"contracts/0xBitcoinExtended.sol\":13894:14097  function approve(address spender, uint tokens) public returns (bool success) {... */\n    tag_51:\n      sub(exp(0x2, 0xa0), 0x1)\n        /* \"contracts/0xBitcoinExtended.sol\":13990:14000  msg.sender */\n      caller\n        /* \"contracts/0xBitcoinExtended.sol\":13982:14001  allowed[msg.sender] */\n      dup2\n      and\n        /* \"contracts/0xBitcoinExtended.sol\":13957:13969  bool success */\n      0x0\n        /* \"contracts/0xBitcoinExtended.sol\":13982:14001  allowed[msg.sender] */\n      dup2\n      dup2\n      mstore\n        /* \"contracts/0xBitcoinExtended.sol\":13982:13989  allowed */\n      0x16\n        /* \"contracts/0xBitcoinExtended.sol\":13982:14001  allowed[msg.sender] */\n      0x20\n      swap1\n      dup2\n      mstore\n      0x40\n      dup1\n      dup4\n      keccak256\n        /* \"contracts/0xBitcoinExtended.sol\":13982:14010  allowed[msg.sender][spender] */\n      swap5\n      dup8\n      and\n      dup1\n      dup5\n      mstore\n      swap5\n      swap1\n      swap2\n      mstore\n      dup1\n      dup3\n      keccak256\n        /* \"contracts/0xBitcoinExtended.sol\":13982:14019  allowed[msg.sender][spender] = tokens */\n      dup6\n      swap1\n      sstore\n        /* \"contracts/0xBitcoinExtended.sol\":13957:13969  bool success */\n      swap1\n      swap3\n        /* \"contracts/0xBitcoinExtended.sol\":13982:14010  allowed[msg.sender][spender] */\n      swap2\n        /* \"contracts/0xBitcoinExtended.sol\":13982:14001  allowed[msg.sender] */\n      swap1\n        /* \"contracts/0xBitcoinExtended.sol\":14030:14067  Approval(msg.sender, spender, tokens) */\n      0x8c5be1e5ebec7d5bd14f71427d1e84f3dd0314c0f7b2291e5b200ac8c7c3b925\n      swap1\n        /* \"contracts/0xBitcoinExtended.sol\":14013:14019  tokens */\n      dup6\n      swap1\n        /* \"contracts/0xBitcoinExtended.sol\":14030:14067  Approval(msg.sender, spender, tokens) */\n      mload\n      swap1\n      dup2\n      mstore\n      0x20\n      add\n      mload(0x40)\n      dup1\n      swap2\n      sub\n      swap1\n      log3\n      pop\n        /* \"contracts/0xBitcoinExtended.sol\":14085:14089  true */\n      0x1\n        /* \"contracts/0xBitcoinExtended.sol\":13894:14097  function approve(address spender, uint tokens) public returns (bool success) {... */\n    tag_167:\n      swap3\n      swap2\n      pop\n      pop\n      jump\t// out\n        /* \"contracts/0xBitcoinExtended.sol\":4688:4724  uint public lastRewardEthBlockNumber */\n    tag_54:\n      sload(0x11)\n      dup2\n      jump\t// out\n        /* \"contracts/0xBitcoinExtended.sol\":10870:10989  function getMiningDifficulty() public constant returns (uint) {... */\n    tag_57:\n        /* \"contracts/0xBitcoinExtended.sol\":10926:10930  uint */\n      0x0\n        /* \"contracts/0xBitcoinExtended.sol\":10949:10982  _MAXIMUM_TARGET.div(miningTarget) */\n      tag_169\n        /* \"contracts/0xBitcoinExtended.sol\":10969:10981  miningTarget */\n      sload(0xb)\n        /* \"contracts/0xBitcoinExtended.sol\":10949:10964  _MAXIMUM_TARGET */\n      sload(0xa)\n        /* \"contracts/0xBitcoinExtended.sol\":10949:10968  _MAXIMUM_TARGET.div */\n      tag_170\n      swap1\n        /* \"contracts/0xBitcoinExtended.sol\":10949:10982  _MAXIMUM_TARGET.div(miningTarget) */\n      swap2\n      swap1\n      0xffffffff\n      and\n      jump\t// in\n    tag_169:\n        /* \"contracts/0xBitcoinExtended.sol\":10942:10982  return _MAXIMUM_TARGET.div(miningTarget) */\n      swap1\n      pop\n        /* \"contracts/0xBitcoinExtended.sol\":10870:10989  function getMiningDifficulty() public constant returns (uint) {... */\n      swap1\n      jump\t// out\n        /* \"contracts/0xBitcoinExtended.sol\":5878:7343  function mint(uint256 nonce, bytes32 challenge_digest) public returns (bool success) {... */\n    tag_60:\n        /* \"contracts/0xBitcoinExtended.sol\":5949:5961  bool success */\n      0x0\n        /* \"contracts/0xBitcoinExtended.sol\":6134:6148  bytes32 digest */\n      dup1\n        /* \"contracts/0xBitcoinExtended.sol\":6499:6515  bytes32 solution */\n      0x0\n        /* \"contracts/0xBitcoinExtended.sol\":6722:6740  uint reward_amount */\n      dup1\n        /* \"contracts/0xBitcoinExtended.sol\":6162:6177  challengeNumber */\n      sload(0xc)\n        /* \"contracts/0xBitcoinExtended.sol\":6179:6189  msg.sender */\n      caller\n        /* \"contracts/0xBitcoinExtended.sol\":6191:6196  nonce */\n      dup8\n        /* \"contracts/0xBitcoinExtended.sol\":6152:6198  keccak256(challengeNumber, msg.sender, nonce ) */\n      mload(0x40)\n      swap3\n      dup4\n      mstore\n      sub(exp(0x2, 0xa0), 0x1)\n      swap2\n      swap1\n      swap2\n      and\n      0x1000000000000000000000000\n      mul\n      0x20\n      dup4\n      add\n      mstore\n      0x34\n      dup3\n      add\n      mstore\n      0x54\n      add\n      mload(0x40)\n      swap1\n      dup2\n      swap1\n      sub\n      swap1\n      keccak256\n      swap3\n      pop\n        /* \"contracts/0xBitcoinExtended.sol\":6276:6302  digest != challenge_digest */\n      dup5\n      dup4\n      eq\n        /* \"contracts/0xBitcoinExtended.sol\":6272:6312  if (digest != challenge_digest) revert() */\n      tag_172\n      jumpi\n        /* \"contracts/0xBitcoinExtended.sol\":6304:6312  revert() */\n      0x0\n      dup1\n      revert\n        /* \"contracts/0xBitcoinExtended.sol\":6272:6312  if (digest != challenge_digest) revert() */\n    tag_172:\n        /* \"contracts/0xBitcoinExtended.sol\":6405:6417  miningTarget */\n      sload(0xb)\n        /* \"contracts/0xBitcoinExtended.sol\":6387:6417  uint256(digest) > miningTarget */\n      dup4\n      gt\n        /* \"contracts/0xBitcoinExtended.sol\":6384:6427  if(uint256(digest) > miningTarget) revert() */\n      iszero\n      tag_173\n      jumpi\n        /* \"contracts/0xBitcoinExtended.sol\":6419:6427  revert() */\n      0x0\n      dup1\n      revert\n        /* \"contracts/0xBitcoinExtended.sol\":6384:6427  if(uint256(digest) > miningTarget) revert() */\n    tag_173:\n        /* \"contracts/0xBitcoinExtended.sol\":6539:6554  challengeNumber */\n      sload(0xc)\n        /* \"contracts/0xBitcoinExtended.sol\":6518:6555  solutionForChallenge[challengeNumber] */\n      0x0\n      swap1\n      dup2\n      mstore\n        /* \"contracts/0xBitcoinExtended.sol\":6518:6538  solutionForChallenge */\n      0x13\n        /* \"contracts/0xBitcoinExtended.sol\":6518:6555  solutionForChallenge[challengeNumber] */\n      0x20\n      mstore\n      0x40\n      swap1\n      keccak256\n      dup1\n      sload\n        /* \"contracts/0xBitcoinExtended.sol\":6570:6616  solutionForChallenge[challengeNumber] = digest */\n      swap1\n      dup5\n      swap1\n      sstore\n        /* \"contracts/0xBitcoinExtended.sol\":6518:6555  solutionForChallenge[challengeNumber] */\n      swap2\n      pop\n        /* \"contracts/0xBitcoinExtended.sol\":6634:6649  solution != 0x0 */\n      dup2\n      iszero\n        /* \"contracts/0xBitcoinExtended.sol\":6631:6659  if(solution != 0x0) revert() */\n      tag_174\n      jumpi\n        /* \"contracts/0xBitcoinExtended.sol\":6651:6659  revert() */\n      0x0\n      dup1\n      revert\n        /* \"contracts/0xBitcoinExtended.sol\":6631:6659  if(solution != 0x0) revert() */\n    tag_174:\n        /* \"contracts/0xBitcoinExtended.sol\":6743:6760  getMiningReward() */\n      tag_175\n        /* \"contracts/0xBitcoinExtended.sol\":6743:6758  getMiningReward */\n      tag_81\n        /* \"contracts/0xBitcoinExtended.sol\":6743:6760  getMiningReward() */\n      jump\t// in\n    tag_175:\n      sub(exp(0x2, 0xa0), 0x1)\n        /* \"contracts/0xBitcoinExtended.sol\":6807:6817  msg.sender */\n      caller\n        /* \"contracts/0xBitcoinExtended.sol\":6798:6818  balances[msg.sender] */\n      and\n      0x0\n      swap1\n      dup2\n      mstore\n        /* \"contracts/0xBitcoinExtended.sol\":6798:6806  balances */\n      0x15\n        /* \"contracts/0xBitcoinExtended.sol\":6798:6818  balances[msg.sender] */\n      0x20\n      mstore\n      0x40\n      swap1\n      keccak256\n      sload\n        /* \"contracts/0xBitcoinExtended.sol\":6722:6760  uint reward_amount = getMiningReward() */\n      swap1\n      swap2\n      pop\n        /* \"contracts/0xBitcoinExtended.sol\":6798:6837  balances[msg.sender].add(reward_amount) */\n      tag_176\n      swap1\n        /* \"contracts/0xBitcoinExtended.sol\":6722:6760  uint reward_amount = getMiningReward() */\n      dup3\n        /* \"contracts/0xBitcoinExtended.sol\":6798:6837  balances[msg.sender].add(reward_amount) */\n      0xffffffff\n        /* \"contracts/0xBitcoinExtended.sol\":6798:6822  balances[msg.sender].add */\n      tag_177\n        /* \"contracts/0xBitcoinExtended.sol\":6798:6837  balances[msg.sender].add(reward_amount) */\n      and\n      jump\t// in\n    tag_176:\n      sub(exp(0x2, 0xa0), 0x1)\n        /* \"contracts/0xBitcoinExtended.sol\":6784:6794  msg.sender */\n      caller\n        /* \"contracts/0xBitcoinExtended.sol\":6775:6795  balances[msg.sender] */\n      and\n      0x0\n      swap1\n      dup2\n      mstore\n        /* \"contracts/0xBitcoinExtended.sol\":6775:6783  balances */\n      0x15\n        /* \"contracts/0xBitcoinExtended.sol\":6775:6795  balances[msg.sender] */\n      0x20\n      mstore\n      0x40\n      swap1\n      keccak256\n        /* \"contracts/0xBitcoinExtended.sol\":6775:6837  balances[msg.sender] = balances[msg.sender].add(reward_amount) */\n      sstore\n        /* \"contracts/0xBitcoinExtended.sol\":6867:6879  tokensMinted */\n      sload(0x14)\n        /* \"contracts/0xBitcoinExtended.sol\":6867:6898  tokensMinted.add(reward_amount) */\n      tag_178\n      swap1\n        /* \"contracts/0xBitcoinExtended.sol\":6884:6897  reward_amount */\n      dup3\n        /* \"contracts/0xBitcoinExtended.sol\":6867:6898  tokensMinted.add(reward_amount) */\n      0xffffffff\n        /* \"contracts/0xBitcoinExtended.sol\":6867:6883  tokensMinted.add */\n      tag_177\n        /* \"contracts/0xBitcoinExtended.sol\":6867:6898  tokensMinted.add(reward_amount) */\n      and\n      jump\t// in\n    tag_178:\n        /* \"contracts/0xBitcoinExtended.sol\":6852:6864  tokensMinted */\n      0x14\n        /* \"contracts/0xBitcoinExtended.sol\":6852:6898  tokensMinted = tokensMinted.add(reward_amount) */\n      dup2\n      swap1\n      sstore\n        /* \"contracts/0xBitcoinExtended.sol\":6990:7005  maxSupplyForEra */\n      sload(0xe)\n        /* \"contracts/0xBitcoinExtended.sol\":6974:7005  tokensMinted <= maxSupplyForEra */\n      swap1\n      gt\n      iszero\n        /* \"contracts/0xBitcoinExtended.sol\":6967:7006  assert(tokensMinted <= maxSupplyForEra) */\n      tag_179\n      jumpi\n      invalid\n    tag_179:\n        /* \"contracts/0xBitcoinExtended.sol\":7065:7077  lastRewardTo */\n      0xf\n        /* \"contracts/0xBitcoinExtended.sol\":7065:7090  lastRewardTo = msg.sender */\n      dup1\n      sload\n      not(0xffffffffffffffffffffffffffffffffffffffff)\n      and\n        /* \"contracts/0xBitcoinExtended.sol\":7080:7090  msg.sender */\n      caller\n      sub(exp(0x2, 0xa0), 0x1)\n        /* \"contracts/0xBitcoinExtended.sol\":7065:7090  lastRewardTo = msg.sender */\n      and\n      or\n      swap1\n      sstore\n        /* \"contracts/0xBitcoinExtended.sol\":7104:7120  lastRewardAmount */\n      0x10\n        /* \"contracts/0xBitcoinExtended.sol\":7104:7136  lastRewardAmount = reward_amount */\n      dup2\n      swap1\n      sstore\n        /* \"contracts/0xBitcoinExtended.sol\":7177:7189  block.number */\n      number\n        /* \"contracts/0xBitcoinExtended.sol\":7150:7174  lastRewardEthBlockNumber */\n      0x11\n        /* \"contracts/0xBitcoinExtended.sol\":7150:7189  lastRewardEthBlockNumber = block.number */\n      sstore\n        /* \"contracts/0xBitcoinExtended.sol\":7206:7228  _startNewMiningEpoch() */\n      tag_180\n        /* \"contracts/0xBitcoinExtended.sol\":7206:7226  _startNewMiningEpoch */\n      tag_181\n        /* \"contracts/0xBitcoinExtended.sol\":7206:7228  _startNewMiningEpoch() */\n      jump\t// in\n    tag_180:\n        /* \"contracts/0xBitcoinExtended.sol\":7250:7260  msg.sender */\n      caller\n      sub(exp(0x2, 0xa0), 0x1)\n        /* \"contracts/0xBitcoinExtended.sol\":7245:7306  Mint(msg.sender, reward_amount, epochCount, challengeNumber ) */\n      and\n      0xcf6fbb9dcea7d07263ab4f5c3a92f53af33dffc421d9d121e1c74b307e68189d\n        /* \"contracts/0xBitcoinExtended.sol\":7262:7275  reward_amount */\n      dup3\n        /* \"contracts/0xBitcoinExtended.sol\":7277:7287  epochCount */\n      sload(0x7)\n        /* \"contracts/0xBitcoinExtended.sol\":7289:7304  challengeNumber */\n      sload(0xc)\n        /* \"contracts/0xBitcoinExtended.sol\":7245:7306  Mint(msg.sender, reward_amount, epochCount, challengeNumber ) */\n      mload(0x40)\n      swap3\n      dup4\n      mstore\n      0x20\n      dup4\n      add\n      swap2\n      swap1\n      swap2\n      mstore\n      0x40\n      dup1\n      dup4\n      add\n      swap2\n      swap1\n      swap2\n      mstore\n      0x60\n      swap1\n      swap2\n      add\n      swap1\n      mload\n      dup1\n      swap2\n      sub\n      swap1\n      log2\n      pop\n        /* \"contracts/0xBitcoinExtended.sol\":7327:7331  true */\n      0x1\n      swap6\n        /* \"contracts/0xBitcoinExtended.sol\":5878:7343  function mint(uint256 nonce, bytes32 challenge_digest) public returns (bool success) {... */\n      swap5\n      pop\n      pop\n      pop\n      pop\n      pop\n      jump\t// out\n        /* \"contracts/0xBitcoinExtended.sol\":12304:12420  function totalSupply() public constant returns (uint) {... */\n    tag_63:\n        /* \"contracts/0xBitcoinExtended.sol\":12352:12356  uint */\n      0x0\n        /* \"contracts/0xBitcoinExtended.sol\":12392:12412  balances[address(0)] */\n      dup1\n      mstore\n        /* \"contracts/0xBitcoinExtended.sol\":12392:12400  balances */\n      0x15\n        /* \"contracts/0xBitcoinExtended.sol\":12392:12412  balances[address(0)] */\n      0x20\n      mstore\n      sload(0xa31547ce6245cdb9ecea19cf8c7eb9f5974025bb4075011409251ae855b30aed)\n        /* \"contracts/0xBitcoinExtended.sol\":12376:12388  _totalSupply */\n      sload(0x5)\n        /* \"contracts/0xBitcoinExtended.sol\":12376:12412  _totalSupply  - balances[address(0)] */\n      sub\n        /* \"contracts/0xBitcoinExtended.sol\":12304:12420  function totalSupply() public constant returns (uint) {... */\n      swap1\n      jump\t// out\n        /* \"contracts/0xBitcoinExtended.sol\":14638:14976  function transferFrom(address from, address to, uint tokens) public returns (bool success) {... */\n    tag_66:\n      sub(exp(0x2, 0xa0), 0x1)\n        /* \"contracts/0xBitcoinExtended.sol\":14757:14771  balances[from] */\n      dup4\n      and\n        /* \"contracts/0xBitcoinExtended.sol\":14715:14727  bool success */\n      0x0\n        /* \"contracts/0xBitcoinExtended.sol\":14757:14771  balances[from] */\n      swap1\n      dup2\n      mstore\n        /* \"contracts/0xBitcoinExtended.sol\":14757:14765  balances */\n      0x15\n        /* \"contracts/0xBitcoinExtended.sol\":14757:14771  balances[from] */\n      0x20\n      mstore\n      0x40\n      dup2\n      keccak256\n      sload\n        /* \"contracts/0xBitcoinExtended.sol\":14757:14783  balances[from].sub(tokens) */\n      tag_184\n      swap1\n        /* \"contracts/0xBitcoinExtended.sol\":14776:14782  tokens */\n      dup4\n        /* \"contracts/0xBitcoinExtended.sol\":14757:14783  balances[from].sub(tokens) */\n      0xffffffff\n        /* \"contracts/0xBitcoinExtended.sol\":14757:14775  balances[from].sub */\n      tag_185\n        /* \"contracts/0xBitcoinExtended.sol\":14757:14783  balances[from].sub(tokens) */\n      and\n      jump\t// in\n    tag_184:\n      sub(exp(0x2, 0xa0), 0x1)\n        /* \"contracts/0xBitcoinExtended.sol\":14740:14754  balances[from] */\n      dup1\n      dup7\n      and\n      0x0\n      swap1\n      dup2\n      mstore\n        /* \"contracts/0xBitcoinExtended.sol\":14740:14748  balances */\n      0x15\n        /* \"contracts/0xBitcoinExtended.sol\":14740:14754  balances[from] */\n      0x20\n      swap1\n      dup2\n      mstore\n      0x40\n      dup1\n      dup4\n      keccak256\n        /* \"contracts/0xBitcoinExtended.sol\":14740:14783  balances[from] = balances[from].sub(tokens) */\n      swap5\n      swap1\n      swap5\n      sstore\n        /* \"contracts/0xBitcoinExtended.sol\":14822:14829  allowed */\n      0x16\n        /* \"contracts/0xBitcoinExtended.sol\":14822:14835  allowed[from] */\n      dup2\n      mstore\n      dup4\n      dup3\n      keccak256\n        /* \"contracts/0xBitcoinExtended.sol\":14836:14846  msg.sender */\n      caller\n        /* \"contracts/0xBitcoinExtended.sol\":14822:14847  allowed[from][msg.sender] */\n      swap1\n      swap4\n      and\n      dup3\n      mstore\n      swap2\n      swap1\n      swap2\n      mstore\n      keccak256\n      sload\n        /* \"contracts/0xBitcoinExtended.sol\":14822:14859  allowed[from][msg.sender].sub(tokens) */\n      tag_186\n      swap1\n        /* \"contracts/0xBitcoinExtended.sol\":14852:14858  tokens */\n      dup4\n        /* \"contracts/0xBitcoinExtended.sol\":14822:14859  allowed[from][msg.sender].sub(tokens) */\n      0xffffffff\n        /* \"contracts/0xBitcoinExtended.sol\":14822:14851  allowed[from][msg.sender].sub */\n      tag_185\n        /* \"contracts/0xBitcoinExtended.sol\":14822:14859  allowed[from][msg.sender].sub(tokens) */\n      and\n      jump\t// in\n    tag_186:\n      sub(exp(0x2, 0xa0), 0x1)\n        /* \"contracts/0xBitcoinExtended.sol\":14794:14807  allowed[from] */\n      dup1\n      dup7\n      and\n      0x0\n      swap1\n      dup2\n      mstore\n        /* \"contracts/0xBitcoinExtended.sol\":14794:14801  allowed */\n      0x16\n        /* \"contracts/0xBitcoinExtended.sol\":14794:14807  allowed[from] */\n      0x20\n      swap1\n      dup2\n      mstore\n      0x40\n      dup1\n      dup4\n      keccak256\n        /* \"contracts/0xBitcoinExtended.sol\":14808:14818  msg.sender */\n      caller\n        /* \"contracts/0xBitcoinExtended.sol\":14794:14819  allowed[from][msg.sender] */\n      dup6\n      and\n      dup5\n      mstore\n      dup3\n      mstore\n      dup1\n      dup4\n      keccak256\n        /* \"contracts/0xBitcoinExtended.sol\":14794:14859  allowed[from][msg.sender] = allowed[from][msg.sender].sub(tokens) */\n      swap5\n      swap1\n      swap5\n      sstore\n        /* \"contracts/0xBitcoinExtended.sol\":14885:14897  balances[to] */\n      swap2\n      dup7\n      and\n      dup2\n      mstore\n        /* \"contracts/0xBitcoinExtended.sol\":14885:14893  balances */\n      0x15\n        /* \"contracts/0xBitcoinExtended.sol\":14885:14897  balances[to] */\n      swap1\n      swap2\n      mstore\n      keccak256\n      sload\n        /* \"contracts/0xBitcoinExtended.sol\":14885:14909  balances[to].add(tokens) */\n      tag_187\n      swap1\n        /* \"contracts/0xBitcoinExtended.sol\":14902:14908  tokens */\n      dup4\n        /* \"contracts/0xBitcoinExtended.sol\":14885:14909  balances[to].add(tokens) */\n      0xffffffff\n        /* \"contracts/0xBitcoinExtended.sol\":14885:14901  balances[to].add */\n      tag_177\n        /* \"contracts/0xBitcoinExtended.sol\":14885:14909  balances[to].add(tokens) */\n      and\n      jump\t// in\n    tag_187:\n      sub(exp(0x2, 0xa0), 0x1)\n        /* \"contracts/0xBitcoinExtended.sol\":14870:14882  balances[to] */\n      dup1\n      dup6\n      and\n      0x0\n      dup2\n      dup2\n      mstore\n        /* \"contracts/0xBitcoinExtended.sol\":14870:14878  balances */\n      0x15\n        /* \"contracts/0xBitcoinExtended.sol\":14870:14882  balances[to] */\n      0x20\n      mstore\n      0x40\n      swap1\n      dup2\n      swap1\n      keccak256\n        /* \"contracts/0xBitcoinExtended.sol\":14870:14909  balances[to] = balances[to].add(tokens) */\n      swap4\n      swap1\n      swap4\n      sstore\n        /* \"contracts/0xBitcoinExtended.sol\":14870:14882  balances[to] */\n      swap2\n        /* \"contracts/0xBitcoinExtended.sol\":14920:14946  Transfer(from, to, tokens) */\n      swap1\n      dup7\n      and\n      swap1\n      0xddf252ad1be2c89b69c2b068fc378daa952ba7f163c4a11628f55a4df523b3ef\n      swap1\n        /* \"contracts/0xBitcoinExtended.sol\":14939:14945  tokens */\n      dup6\n      swap1\n        /* \"contracts/0xBitcoinExtended.sol\":14920:14946  Transfer(from, to, tokens) */\n      mload\n      swap1\n      dup2\n      mstore\n      0x20\n      add\n      mload(0x40)\n      dup1\n      swap2\n      sub\n      swap1\n      log3\n      pop\n        /* \"contracts/0xBitcoinExtended.sol\":14964:14968  true */\n      0x1\n        /* \"contracts/0xBitcoinExtended.sol\":14638:14976  function transferFrom(address from, address to, uint tokens) public returns (bool success) {... */\n      swap4\n      swap3\n      pop\n      pop\n      pop\n      jump\t// out\n        /* \"contracts/0xBitcoinExtended.sol\":4559:4580  uint public rewardEra */\n    tag_69:\n      sload(0xd)\n      dup2\n      jump\t// out\n        /* \"contracts/0xBitcoinExtended.sol\":3975:3996  uint8 public decimals */\n    tag_72:\n      and(0xff, sload(0x4))\n      dup2\n      jump\t// out\n        /* \"contracts/0xBitcoinExtended.sol\":10995:11087  function getMiningTarget() public constant returns (uint) {... */\n    tag_75:\n        /* \"contracts/0xBitcoinExtended.sol\":11069:11081  miningTarget */\n      sload(0xb)\n        /* \"contracts/0xBitcoinExtended.sol\":10995:11087  function getMiningTarget() public constant returns (uint) {... */\n      swap1\n      jump\t// out\n        /* \"contracts/0xBitcoinExtended.sol\":4003:4027  uint public _totalSupply */\n    tag_78:\n      sload(0x5)\n      dup2\n      jump\t// out\n        /* \"contracts/0xBitcoinExtended.sol\":11201:11458  function getMiningReward() public constant returns (uint) {... */\n    tag_81:\n        /* \"contracts/0xBitcoinExtended.sol\":11438:11447  rewardEra */\n      sload(0xd)\n        /* \"contracts/0xBitcoinExtended.sol\":11418:11426  decimals */\n      sload(0x4)\n        /* \"contracts/0xBitcoinExtended.sol\":11253:11257  uint */\n      0x0\n      swap2\n        /* \"contracts/0xBitcoinExtended.sol\":11403:11449  (50 * 10**uint(decimals) ).div( 2**rewardEra ) */\n      tag_169\n      swap2\n        /* \"contracts/0xBitcoinExtended.sol\":11418:11426  decimals */\n      0xff\n      and\n        /* \"contracts/0xBitcoinExtended.sol\":11409:11411  10 */\n      0xa\n        /* \"contracts/0xBitcoinExtended.sol\":11409:11427  10**uint(decimals) */\n      exp\n        /* \"contracts/0xBitcoinExtended.sol\":11404:11406  50 */\n      0x32\n        /* \"contracts/0xBitcoinExtended.sol\":11404:11427  50 * 10**uint(decimals) */\n      mul\n      swap1\n        /* \"contracts/0xBitcoinExtended.sol\":11435:11436  2 */\n      0x2\n        /* \"contracts/0xBitcoinExtended.sol\":11435:11447  2**rewardEra */\n      exp\n        /* \"contracts/0xBitcoinExtended.sol\":11403:11433  (50 * 10**uint(decimals) ).div */\n      tag_170\n        /* \"contracts/0xBitcoinExtended.sol\":11403:11449  (50 * 10**uint(decimals) ).div( 2**rewardEra ) */\n      jump\t// in\n        /* \"contracts/0xBitcoinExtended.sol\":10678:10781  function getChallengeNumber() public constant returns (bytes32) {... */\n    tag_84:\n        /* \"contracts/0xBitcoinExtended.sol\":10759:10774  challengeNumber */\n      sload(0xc)\n        /* \"contracts/0xBitcoinExtended.sol\":10678:10781  function getChallengeNumber() public constant returns (bytes32) {... */\n      swap1\n      jump\t// out\n        /* \"contracts/0xBitcoinExtended.sol\":4586:4613  uint public maxSupplyForEra */\n    tag_87:\n      sload(0xe)\n      dup2\n      jump\t// out\n        /* \"contracts/0xBitcoinExtended.sol\":17074:18449  function mintWithoutPoW( ) public returns (bool success) {... */\n    tag_90:\n        /* \"contracts/0xBitcoinExtended.sol\":17117:17129  bool success */\n      0x0\n        /* \"contracts/0xBitcoinExtended.sol\":17867:17885  uint reward_amount */\n      dup1\n        /* \"contracts/0xBitcoinExtended.sol\":17888:17905  getMiningReward() */\n      tag_193\n        /* \"contracts/0xBitcoinExtended.sol\":17888:17903  getMiningReward */\n      tag_81\n        /* \"contracts/0xBitcoinExtended.sol\":17888:17905  getMiningReward() */\n      jump\t// in\n    tag_193:\n      sub(exp(0x2, 0xa0), 0x1)\n        /* \"contracts/0xBitcoinExtended.sol\":17948:17958  msg.sender */\n      caller\n        /* \"contracts/0xBitcoinExtended.sol\":17939:17959  balances[msg.sender] */\n      and\n      0x0\n      swap1\n      dup2\n      mstore\n        /* \"contracts/0xBitcoinExtended.sol\":17939:17947  balances */\n      0x15\n        /* \"contracts/0xBitcoinExtended.sol\":17939:17959  balances[msg.sender] */\n      0x20\n      mstore\n      0x40\n      swap1\n      keccak256\n      sload\n        /* \"contracts/0xBitcoinExtended.sol\":17867:17905  uint reward_amount = getMiningReward() */\n      swap1\n      swap2\n      pop\n        /* \"contracts/0xBitcoinExtended.sol\":17939:17978  balances[msg.sender].add(reward_amount) */\n      tag_194\n      swap1\n        /* \"contracts/0xBitcoinExtended.sol\":17867:17905  uint reward_amount = getMiningReward() */\n      dup3\n        /* \"contracts/0xBitcoinExtended.sol\":17939:17978  balances[msg.sender].add(reward_amount) */\n      0xffffffff\n        /* \"contracts/0xBitcoinExtended.sol\":17939:17963  balances[msg.sender].add */\n      tag_177\n        /* \"contracts/0xBitcoinExtended.sol\":17939:17978  balances[msg.sender].add(reward_amount) */\n      and\n      jump\t// in\n    tag_194:\n      sub(exp(0x2, 0xa0), 0x1)\n        /* \"contracts/0xBitcoinExtended.sol\":17925:17935  msg.sender */\n      caller\n        /* \"contracts/0xBitcoinExtended.sol\":17916:17936  balances[msg.sender] */\n      and\n      0x0\n      swap1\n      dup2\n      mstore\n        /* \"contracts/0xBitcoinExtended.sol\":17916:17924  balances */\n      0x15\n        /* \"contracts/0xBitcoinExtended.sol\":17916:17936  balances[msg.sender] */\n      0x20\n      mstore\n      0x40\n      swap1\n      keccak256\n        /* \"contracts/0xBitcoinExtended.sol\":17916:17978  balances[msg.sender] = balances[msg.sender].add(reward_amount) */\n      sstore\n        /* \"contracts/0xBitcoinExtended.sol\":18004:18016  tokensMinted */\n      sload(0x14)\n        /* \"contracts/0xBitcoinExtended.sol\":18004:18035  tokensMinted.add(reward_amount) */\n      tag_195\n      swap1\n        /* \"contracts/0xBitcoinExtended.sol\":18021:18034  reward_amount */\n      dup3\n        /* \"contracts/0xBitcoinExtended.sol\":18004:18035  tokensMinted.add(reward_amount) */\n      0xffffffff\n        /* \"contracts/0xBitcoinExtended.sol\":18004:18020  tokensMinted.add */\n      tag_177\n        /* \"contracts/0xBitcoinExtended.sol\":18004:18035  tokensMinted.add(reward_amount) */\n      and\n      jump\t// in\n    tag_195:\n        /* \"contracts/0xBitcoinExtended.sol\":17989:18001  tokensMinted */\n      0x14\n        /* \"contracts/0xBitcoinExtended.sol\":17989:18035  tokensMinted = tokensMinted.add(reward_amount) */\n      dup2\n      swap1\n      sstore\n        /* \"contracts/0xBitcoinExtended.sol\":18119:18134  maxSupplyForEra */\n      sload(0xe)\n        /* \"contracts/0xBitcoinExtended.sol\":18103:18134  tokensMinted <= maxSupplyForEra */\n      swap1\n      gt\n      iszero\n        /* \"contracts/0xBitcoinExtended.sol\":18096:18135  assert(tokensMinted <= maxSupplyForEra) */\n      tag_196\n      jumpi\n      invalid\n    tag_196:\n        /* \"contracts/0xBitcoinExtended.sol\":18186:18198  lastRewardTo */\n      0xf\n        /* \"contracts/0xBitcoinExtended.sol\":18186:18211  lastRewardTo = msg.sender */\n      dup1\n      sload\n      not(0xffffffffffffffffffffffffffffffffffffffff)\n      and\n        /* \"contracts/0xBitcoinExtended.sol\":18201:18211  msg.sender */\n      caller\n      sub(exp(0x2, 0xa0), 0x1)\n        /* \"contracts/0xBitcoinExtended.sol\":18186:18211  lastRewardTo = msg.sender */\n      and\n      or\n      swap1\n      sstore\n        /* \"contracts/0xBitcoinExtended.sol\":18221:18237  lastRewardAmount */\n      0x10\n        /* \"contracts/0xBitcoinExtended.sol\":18221:18253  lastRewardAmount = reward_amount */\n      dup2\n      swap1\n      sstore\n        /* \"contracts/0xBitcoinExtended.sol\":18290:18302  block.number */\n      number\n        /* \"contracts/0xBitcoinExtended.sol\":18263:18287  lastRewardEthBlockNumber */\n      0x11\n        /* \"contracts/0xBitcoinExtended.sol\":18263:18302  lastRewardEthBlockNumber = block.number */\n      sstore\n        /* \"contracts/0xBitcoinExtended.sol\":18318:18340  _startNewMiningEpoch() */\n      tag_197\n        /* \"contracts/0xBitcoinExtended.sol\":18318:18338  _startNewMiningEpoch */\n      tag_181\n        /* \"contracts/0xBitcoinExtended.sol\":18318:18340  _startNewMiningEpoch() */\n      jump\t// in\n    tag_197:\n        /* \"contracts/0xBitcoinExtended.sol\":18437:18441  true */\n      0x1\n        /* \"contracts/0xBitcoinExtended.sol\":18430:18441  return true */\n      swap2\n      pop\n        /* \"contracts/0xBitcoinExtended.sol\":17074:18449  function mintWithoutPoW( ) public returns (bool success) {... */\n      pop\n      swap1\n      jump\t// out\n        /* \"contracts/0xBitcoinExtended.sol\":16988:17067  function setTokensMinted(uint amt) public   {... */\n    tag_93:\n        /* \"contracts/0xBitcoinExtended.sol\":17042:17054  tokensMinted */\n      0x14\n        /* \"contracts/0xBitcoinExtended.sol\":17042:17060  tokensMinted = amt */\n      sstore\n        /* \"contracts/0xBitcoinExtended.sol\":16988:17067  function setTokensMinted(uint amt) public   {... */\n      jump\t// out\n        /* \"contracts/0xBitcoinExtended.sol\":4812:4836  uint public tokensMinted */\n    tag_96:\n      sload(0x14)\n      dup2\n      jump\t// out\n        /* \"contracts/0xBitcoinExtended.sol\":4621:4648  address public lastRewardTo */\n    tag_99:\n      and(sub(exp(0x2, 0xa0), 0x1), sload(0xf))\n      dup2\n      jump\t// out\n        /* \"contracts/0xBitcoinExtended.sol\":12645:12769  function balanceOf(address tokenOwner) public constant returns (uint balance) {... */\n    tag_102:\n      sub(exp(0x2, 0xa0), 0x1)\n        /* \"contracts/0xBitcoinExtended.sol\":12741:12761  balances[tokenOwner] */\n      and\n        /* \"contracts/0xBitcoinExtended.sol\":12709:12721  uint balance */\n      0x0\n        /* \"contracts/0xBitcoinExtended.sol\":12741:12761  balances[tokenOwner] */\n      swap1\n      dup2\n      mstore\n        /* \"contracts/0xBitcoinExtended.sol\":12741:12749  balances */\n      0x15\n        /* \"contracts/0xBitcoinExtended.sol\":12741:12761  balances[tokenOwner] */\n      0x20\n      mstore\n      0x40\n      swap1\n      keccak256\n      sload\n      swap1\n        /* \"contracts/0xBitcoinExtended.sol\":12645:12769  function balanceOf(address tokenOwner) public constant returns (uint balance) {... */\n      jump\t// out\n        /* \"contracts/0xBitcoinExtended.sol\":3345:3536  function acceptOwnership() public {... */\n    tag_105:\n        /* \"contracts/0xBitcoinExtended.sol\":3412:3420  newOwner */\n      sload(0x1)\n        /* \"contracts/0xBitcoinExtended.sol\":3398:3408  msg.sender */\n      caller\n      sub(exp(0x2, 0xa0), 0x1)\n        /* \"contracts/0xBitcoinExtended.sol\":3398:3420  msg.sender == newOwner */\n      swap1\n      dup2\n      and\n        /* \"contracts/0xBitcoinExtended.sol\":3412:3420  newOwner */\n      swap2\n      and\n        /* \"contracts/0xBitcoinExtended.sol\":3398:3420  msg.sender == newOwner */\n      eq\n        /* \"contracts/0xBitcoinExtended.sol\":3390:3421  require(msg.sender == newOwner) */\n      tag_201\n      jumpi\n      0x0\n      dup1\n      revert\n    tag_201:\n        /* \"contracts/0xBitcoinExtended.sol\":3460:3468  newOwner */\n      sload(0x1)\n      0x0\n        /* \"contracts/0xBitcoinExtended.sol\":3453:3458  owner */\n      sload\n      sub(exp(0x2, 0xa0), 0x1)\n        /* \"contracts/0xBitcoinExtended.sol\":3460:3468  newOwner */\n      swap2\n      dup3\n      and\n      swap2\n        /* \"contracts/0xBitcoinExtended.sol\":3453:3458  owner */\n      and\n        /* \"contracts/0xBitcoinExtended.sol\":3432:3469  OwnershipTransferred(owner, newOwner) */\n      0x8be0079c531659141344cd1fd0a4f28419497f9722a3daafe3b4186f6b6457e0\n      mload(0x40)\n      mload(0x40)\n      dup1\n      swap2\n      sub\n      swap1\n      log3\n        /* \"contracts/0xBitcoinExtended.sol\":3488:3496  newOwner */\n      0x1\n      dup1\n      sload\n      0x0\n        /* \"contracts/0xBitcoinExtended.sol\":3480:3496  owner = newOwner */\n      dup1\n      sload\n      not(0xffffffffffffffffffffffffffffffffffffffff)\n      swap1\n      dup2\n      and\n      sub(exp(0x2, 0xa0), 0x1)\n        /* \"contracts/0xBitcoinExtended.sol\":3488:3496  newOwner */\n      dup5\n      and\n        /* \"contracts/0xBitcoinExtended.sol\":3480:3496  owner = newOwner */\n      or\n      swap1\n      swap2\n      sstore\n        /* \"contracts/0xBitcoinExtended.sol\":3507:3528  newOwner = address(0) */\n      and\n      swap1\n      sstore\n        /* \"contracts/0xBitcoinExtended.sol\":3345:3536  function acceptOwnership() public {... */\n      jump\t// out\n        /* \"contracts/0xBitcoinExtended.sol\":11779:12113  function checkMintSolution(uint256 nonce, bytes32 challenge_digest, bytes32 challenge_number, uint testTarget) public view returns (bool success) {... */\n    tag_108:\n        /* \"contracts/0xBitcoinExtended.sol\":11911:11923  bool success */\n      0x0\n        /* \"contracts/0xBitcoinExtended.sol\":11938:11952  bytes32 digest */\n      dup1\n        /* \"contracts/0xBitcoinExtended.sol\":11965:11981  challenge_number */\n      dup4\n        /* \"contracts/0xBitcoinExtended.sol\":11982:11992  msg.sender */\n      caller\n        /* \"contracts/0xBitcoinExtended.sol\":11993:11998  nonce */\n      dup8\n        /* \"contracts/0xBitcoinExtended.sol\":11955:11999  keccak256(challenge_number,msg.sender,nonce) */\n      mload(0x40)\n      swap3\n      dup4\n      mstore\n      sub(exp(0x2, 0xa0), 0x1)\n      swap2\n      swap1\n      swap2\n      and\n      0x1000000000000000000000000\n      mul\n      0x20\n      dup4\n      add\n      mstore\n      0x34\n      dup3\n      add\n      mstore\n      0x54\n      add\n      mload(0x40)\n      swap1\n      dup2\n      swap1\n      sub\n      swap1\n      keccak256\n      swap1\n      pop\n        /* \"contracts/0xBitcoinExtended.sol\":12015:12043  uint256(digest) > testTarget */\n      dup3\n      dup2\n      gt\n        /* \"contracts/0xBitcoinExtended.sol\":12012:12053  if(uint256(digest) > testTarget) revert() */\n      iszero\n      tag_203\n      jumpi\n        /* \"contracts/0xBitcoinExtended.sol\":12045:12053  revert() */\n      0x0\n      dup1\n      revert\n        /* \"contracts/0xBitcoinExtended.sol\":12012:12053  if(uint256(digest) > testTarget) revert() */\n    tag_203:\n        /* \"contracts/0xBitcoinExtended.sol\":12074:12100  digest == challenge_digest */\n      swap4\n      swap1\n      swap4\n      eq\n      swap5\n        /* \"contracts/0xBitcoinExtended.sol\":11779:12113  function checkMintSolution(uint256 nonce, bytes32 challenge_digest, bytes32 challenge_number, uint testTarget) public view returns (bool success) {... */\n      swap4\n      pop\n      pop\n      pop\n      pop\n      jump\t// out\n        /* \"contracts/0xBitcoinExtended.sol\":4087:4109  uint public epochCount */\n    tag_111:\n      sload(0x7)\n      dup2\n      jump\t// out\n        /* \"contracts/0xBitcoinExtended.sol\":4393:4430  uint public  _MAXIMUM_TARGET = 2**234 */\n    tag_114:\n      sload(0xa)\n      dup2\n      jump\t// out\n        /* \"contracts/0xBitcoinExtended.sol\":4438:4462  uint public miningTarget */\n    tag_117:\n      sload(0xb)\n      dup2\n      jump\t// out\n        /* \"contracts/0xBitcoinExtended.sol\":4469:4499  bytes32 public challengeNumber */\n    tag_120:\n      sload(0xc)\n      dup2\n      jump\t// out\n        /* \"contracts/0xBitcoinExtended.sol\":2948:2968  address public owner */\n    tag_123:\n      and(sub(exp(0x2, 0xa0), 0x1), sload(0x0))\n      dup2\n      jump\t// out\n        /* \"contracts/0xBitcoinExtended.sol\":3922:3942  string public symbol */\n    tag_126:\n      0x2\n      dup1\n      sload\n      0x1\n      dup2\n      0x1\n      and\n      iszero\n      0x100\n      mul\n      sub\n      and\n      0x2\n      swap1\n      div\n      dup1\n      0x1f\n      add\n      0x20\n      dup1\n      swap2\n      div\n      mul\n      0x20\n      add\n      mload(0x40)\n      swap1\n      dup2\n      add\n      0x40\n      mstore\n      dup1\n      swap3\n      swap2\n      swap1\n      dup2\n      dup2\n      mstore\n      0x20\n      add\n      dup3\n      dup1\n      sload\n      0x1\n      dup2\n      0x1\n      and\n      iszero\n      0x100\n      mul\n      sub\n      and\n      0x2\n      swap1\n      div\n      dup1\n      iszero\n      tag_164\n      jumpi\n      dup1\n      0x1f\n      lt\n      tag_165\n      jumpi\n      0x100\n      dup1\n      dup4\n      sload\n      div\n      mul\n      dup4\n      mstore\n      swap2\n      0x20\n      add\n      swap2\n      jump(tag_164)\n        /* \"contracts/0xBitcoinExtended.sol\":11497:11734  function getMintDigest(uint256 nonce, bytes32 challenge_digest, bytes32 challenge_number) public view returns (bytes32 digesttest) {... */\n    tag_133:\n        /* \"contracts/0xBitcoinExtended.sol\":11608:11626  bytes32 digesttest */\n      0x0\n        /* \"contracts/0xBitcoinExtended.sol\":11639:11653  bytes32 digest */\n      dup1\n        /* \"contracts/0xBitcoinExtended.sol\":11666:11682  challenge_number */\n      dup3\n        /* \"contracts/0xBitcoinExtended.sol\":11683:11693  msg.sender */\n      caller\n        /* \"contracts/0xBitcoinExtended.sol\":11694:11699  nonce */\n      dup7\n        /* \"contracts/0xBitcoinExtended.sol\":11656:11700  keccak256(challenge_number,msg.sender,nonce) */\n      mload(0x40)\n      swap3\n      dup4\n      mstore\n      sub(exp(0x2, 0xa0), 0x1)\n      swap2\n      swap1\n      swap2\n      and\n      0x1000000000000000000000000\n      mul\n      0x20\n      dup4\n      add\n      mstore\n      0x34\n      dup3\n      add\n      mstore\n      0x54\n      add\n      mload(0x40)\n      swap1\n      dup2\n      swap1\n      sub\n      swap1\n      keccak256\n      swap6\n        /* \"contracts/0xBitcoinExtended.sol\":11497:11734  function getMintDigest(uint256 nonce, bytes32 challenge_digest, bytes32 challenge_number) public view returns (bytes32 digesttest) {... */\n      swap5\n      pop\n      pop\n      pop\n      pop\n      pop\n      jump\t// out\n        /* \"contracts/0xBitcoinExtended.sol\":13118:13380  function transfer(address to, uint tokens) public returns (bool success) {... */\n    tag_136:\n      sub(exp(0x2, 0xa0), 0x1)\n        /* \"contracts/0xBitcoinExtended.sol\":13234:13244  msg.sender */\n      caller\n        /* \"contracts/0xBitcoinExtended.sol\":13225:13245  balances[msg.sender] */\n      and\n        /* \"contracts/0xBitcoinExtended.sol\":13177:13189  bool success */\n      0x0\n        /* \"contracts/0xBitcoinExtended.sol\":13225:13245  balances[msg.sender] */\n      swap1\n      dup2\n      mstore\n        /* \"contracts/0xBitcoinExtended.sol\":13225:13233  balances */\n      0x15\n        /* \"contracts/0xBitcoinExtended.sol\":13225:13245  balances[msg.sender] */\n      0x20\n      mstore\n      0x40\n      dup2\n      keccak256\n      sload\n        /* \"contracts/0xBitcoinExtended.sol\":13225:13257  balances[msg.sender].sub(tokens) */\n      tag_209\n      swap1\n        /* \"contracts/0xBitcoinExtended.sol\":13250:13256  tokens */\n      dup4\n        /* \"contracts/0xBitcoinExtended.sol\":13225:13257  balances[msg.sender].sub(tokens) */\n      0xffffffff\n        /* \"contracts/0xBitcoinExtended.sol\":13225:13249  balances[msg.sender].sub */\n      tag_185\n        /* \"contracts/0xBitcoinExtended.sol\":13225:13257  balances[msg.sender].sub(tokens) */\n      and\n      jump\t// in\n    tag_209:\n      sub(exp(0x2, 0xa0), 0x1)\n        /* \"contracts/0xBitcoinExtended.sol\":13211:13221  msg.sender */\n      caller\n        /* \"contracts/0xBitcoinExtended.sol\":13202:13222  balances[msg.sender] */\n      dup2\n      and\n      0x0\n      swap1\n      dup2\n      mstore\n        /* \"contracts/0xBitcoinExtended.sol\":13202:13210  balances */\n      0x15\n        /* \"contracts/0xBitcoinExtended.sol\":13202:13222  balances[msg.sender] */\n      0x20\n      mstore\n      0x40\n      dup1\n      dup3\n      keccak256\n        /* \"contracts/0xBitcoinExtended.sol\":13202:13257  balances[msg.sender] = balances[msg.sender].sub(tokens) */\n      swap4\n      swap1\n      swap4\n      sstore\n        /* \"contracts/0xBitcoinExtended.sol\":13283:13295  balances[to] */\n      swap1\n      dup6\n      and\n      dup2\n      mstore\n      keccak256\n      sload\n        /* \"contracts/0xBitcoinExtended.sol\":13283:13307  balances[to].add(tokens) */\n      tag_210\n      swap1\n        /* \"contracts/0xBitcoinExtended.sol\":13300:13306  tokens */\n      dup4\n        /* \"contracts/0xBitcoinExtended.sol\":13283:13307  balances[to].add(tokens) */\n      0xffffffff\n        /* \"contracts/0xBitcoinExtended.sol\":13283:13299  balances[to].add */\n      tag_177\n        /* \"contracts/0xBitcoinExtended.sol\":13283:13307  balances[to].add(tokens) */\n      and\n      jump\t// in\n    tag_210:\n      sub(exp(0x2, 0xa0), 0x1)\n        /* \"contracts/0xBitcoinExtended.sol\":13268:13280  balances[to] */\n      dup1\n      dup6\n      and\n      0x0\n      dup2\n      dup2\n      mstore\n        /* \"contracts/0xBitcoinExtended.sol\":13268:13276  balances */\n      0x15\n        /* \"contracts/0xBitcoinExtended.sol\":13268:13280  balances[to] */\n      0x20\n      mstore\n      0x40\n      swap1\n      dup2\n      swap1\n      keccak256\n        /* \"contracts/0xBitcoinExtended.sol\":13268:13307  balances[to] = balances[to].add(tokens) */\n      swap4\n      swap1\n      swap4\n      sstore\n        /* \"contracts/0xBitcoinExtended.sol\":13268:13280  balances[to] */\n      swap2\n        /* \"contracts/0xBitcoinExtended.sol\":13327:13337  msg.sender */\n      caller\n        /* \"contracts/0xBitcoinExtended.sol\":13318:13350  Transfer(msg.sender, to, tokens) */\n      swap1\n      swap2\n      and\n      swap1\n      0xddf252ad1be2c89b69c2b068fc378daa952ba7f163c4a11628f55a4df523b3ef\n      swap1\n        /* \"contracts/0xBitcoinExtended.sol\":13343:13349  tokens */\n      dup6\n      swap1\n        /* \"contracts/0xBitcoinExtended.sol\":13318:13350  Transfer(msg.sender, to, tokens) */\n      mload\n      swap1\n      dup2\n      mstore\n      0x20\n      add\n      mload(0x40)\n      dup1\n      swap2\n      sub\n      swap1\n      log3\n      pop\n        /* \"contracts/0xBitcoinExtended.sol\":13368:13372  true */\n      0x1\n        /* \"contracts/0xBitcoinExtended.sol\":13118:13380  function transfer(address to, uint tokens) public returns (bool success) {... */\n      swap3\n      swap2\n      pop\n      pop\n      jump\t// out\n        /* \"contracts/0xBitcoinExtended.sol\":4143:4186  uint public _BLOCKS_PER_READJUSTMENT = 1024 */\n    tag_139:\n      sload(0x8)\n      dup2\n      jump\t// out\n        /* \"contracts/0xBitcoinExtended.sol\":4654:4682  uint public lastRewardAmount */\n    tag_142:\n      sload(0x10)\n      dup2\n      jump\t// out\n        /* \"contracts/0xBitcoinExtended.sol\":15779:16091  function approveAndCall(address spender, uint tokens, bytes data) public returns (bool success) {... */\n    tag_145:\n      sub(exp(0x2, 0xa0), 0x1)\n        /* \"contracts/0xBitcoinExtended.sol\":15894:15904  msg.sender */\n      caller\n        /* \"contracts/0xBitcoinExtended.sol\":15886:15905  allowed[msg.sender] */\n      dup2\n      and\n        /* \"contracts/0xBitcoinExtended.sol\":15861:15873  bool success */\n      0x0\n        /* \"contracts/0xBitcoinExtended.sol\":15886:15905  allowed[msg.sender] */\n      dup2\n      dup2\n      mstore\n        /* \"contracts/0xBitcoinExtended.sol\":15886:15893  allowed */\n      0x16\n        /* \"contracts/0xBitcoinExtended.sol\":15886:15905  allowed[msg.sender] */\n      0x20\n      swap1\n      dup2\n      mstore\n      0x40\n      dup1\n      dup4\n      keccak256\n        /* \"contracts/0xBitcoinExtended.sol\":15886:15914  allowed[msg.sender][spender] */\n      swap5\n      dup9\n      and\n      dup1\n      dup5\n      mstore\n      swap5\n      swap1\n      swap2\n      mstore\n      dup1\n      dup3\n      keccak256\n        /* \"contracts/0xBitcoinExtended.sol\":15886:15923  allowed[msg.sender][spender] = tokens */\n      dup7\n      swap1\n      sstore\n        /* \"contracts/0xBitcoinExtended.sol\":15861:15873  bool success */\n      swap1\n      swap3\n        /* \"contracts/0xBitcoinExtended.sol\":15886:15914  allowed[msg.sender][spender] */\n      swap2\n        /* \"contracts/0xBitcoinExtended.sol\":15886:15905  allowed[msg.sender] */\n      swap1\n        /* \"contracts/0xBitcoinExtended.sol\":15934:15971  Approval(msg.sender, spender, tokens) */\n      0x8c5be1e5ebec7d5bd14f71427d1e84f3dd0314c0f7b2291e5b200ac8c7c3b925\n      swap1\n        /* \"contracts/0xBitcoinExtended.sol\":15917:15923  tokens */\n      dup7\n      swap1\n        /* \"contracts/0xBitcoinExtended.sol\":15934:15971  Approval(msg.sender, spender, tokens) */\n      mload\n      swap1\n      dup2\n      mstore\n      0x20\n      add\n      mload(0x40)\n      dup1\n      swap2\n      sub\n      swap1\n      log3\n        /* \"contracts/0xBitcoinExtended.sol\":16005:16012  spender */\n      dup4\n      sub(exp(0x2, 0xa0), 0x1)\n        /* \"contracts/0xBitcoinExtended.sol\":15982:16029  ApproveAndCallFallBack(spender).receiveApproval */\n      and\n      0x8f4ffcb1\n        /* \"contracts/0xBitcoinExtended.sol\":16030:16040  msg.sender */\n      caller\n        /* \"contracts/0xBitcoinExtended.sol\":16042:16048  tokens */\n      dup6\n        /* \"contracts/0xBitcoinExtended.sol\":16050:16054  this */\n      address\n        /* \"contracts/0xBitcoinExtended.sol\":16056:16060  data */\n      dup7\n        /* \"contracts/0xBitcoinExtended.sol\":15982:16061  ApproveAndCallFallBack(spender).receiveApproval(msg.sender, tokens, this, data) */\n      mload(0x40)\n      dup6\n      0xffffffff\n      and\n      exp(0x2, 0xe0)\n      mul\n      dup2\n      mstore\n      0x4\n      add\n      dup1\n      dup6\n      sub(exp(0x2, 0xa0), 0x1)\n      and\n      sub(exp(0x2, 0xa0), 0x1)\n      and\n      dup2\n      mstore\n      0x20\n      add\n      dup5\n      dup2\n      mstore\n      0x20\n      add\n      dup4\n      sub(exp(0x2, 0xa0), 0x1)\n      and\n      sub(exp(0x2, 0xa0), 0x1)\n      and\n      dup2\n      mstore\n      0x20\n      add\n      dup1\n      0x20\n      add\n      dup3\n      dup2\n      sub\n      dup3\n      mstore\n      dup4\n      dup2\n      dup2\n      mload\n      dup2\n      mstore\n      0x20\n      add\n      swap2\n      pop\n      dup1\n      mload\n      swap1\n      0x20\n      add\n      swap1\n      dup1\n      dup4\n      dup4\n        /* \"--CODEGEN--\":23:24   */\n      0x0\n        /* \"--CODEGEN--\":8:108   */\n    tag_212:\n        /* \"--CODEGEN--\":33:36   */\n      dup4\n        /* \"--CODEGEN--\":30:31   */\n      dup2\n        /* \"--CODEGEN--\":27:29   */\n      lt\n        /* \"--CODEGEN--\":8:108   */\n      iszero\n      tag_213\n      jumpi\n        /* \"--CODEGEN--\":99:100   */\n      dup1\n        /* \"--CODEGEN--\":94:97   */\n      dup3\n        /* \"--CODEGEN--\":90:93   */\n      add\n        /* \"--CODEGEN--\":84:89   */\n      mload\n        /* \"--CODEGEN--\":71:74   */\n      dup4\n      dup3\n      add\n        /* \"--CODEGEN--\":64:70   */\n      mstore\n        /* \"--CODEGEN--\":52:54   */\n      0x20\n        /* \"--CODEGEN--\":45:48   */\n      add\n        /* \"--CODEGEN--\":8:108   */\n      jump(tag_212)\n    tag_213:\n        /* \"--CODEGEN--\":12:26   */\n      pop\n        /* \"--CODEGEN--\":3:112   */\n      pop\n      pop\n      pop\n      swap1\n      pop\n      swap1\n      dup2\n      add\n      swap1\n      0x1f\n      and\n      dup1\n      iszero\n      tag_215\n      jumpi\n      dup1\n      dup3\n      sub\n      dup1\n      mload\n      0x1\n      dup4\n      0x20\n      sub\n      0x100\n      exp\n      sub\n      not\n      and\n      dup2\n      mstore\n      0x20\n      add\n      swap2\n      pop\n    tag_215:\n      pop\n      swap6\n      pop\n      pop\n      pop\n      pop\n      pop\n      pop\n      0x0\n      mload(0x40)\n      dup1\n      dup4\n      sub\n      dup2\n      0x0\n      dup8\n      dup1\n      extcodesize\n      iszero\n      iszero\n      tag_216\n      jumpi\n      0x0\n      dup1\n      revert\n    tag_216:\n      sub(gas, 0x2c6)\n      call\n      iszero\n      iszero\n      tag_217\n      jumpi\n      0x0\n      dup1\n      revert\n    tag_217:\n      pop\n        /* \"contracts/0xBitcoinExtended.sol\":16079:16083  true */\n      0x1\n      swap7\n        /* \"contracts/0xBitcoinExtended.sol\":15779:16091  function approveAndCall(address spender, uint tokens, bytes data) public returns (bool success) {... */\n      swap6\n      pop\n      pop\n      pop\n      pop\n      pop\n      pop\n      jump\t// out\n        /* \"contracts/0xBitcoinExtended.sol\":4037:4078  uint public latestDifficultyPeriodStarted */\n    tag_148:\n      sload(0x6)\n      dup2\n      jump\t// out\n        /* \"contracts/0xBitcoinExtended.sol\":2975:2998  address public newOwner */\n    tag_151:\n      and(sub(exp(0x2, 0xa0), 0x1), sload(0x1))\n      dup2\n      jump\t// out\n        /* \"contracts/0xBitcoinExtended.sol\":16576:16760  function transferAnyERC20Token(address tokenAddress, uint tokens) public onlyOwner returns (bool success) {... */\n    tag_154:\n        /* \"contracts/0xBitcoinExtended.sol\":16668:16680  bool success */\n      0x0\n        /* \"contracts/0xBitcoinExtended.sol\":3204:3209  owner */\n      dup1\n      sload\n        /* \"contracts/0xBitcoinExtended.sol\":3190:3200  msg.sender */\n      caller\n      sub(exp(0x2, 0xa0), 0x1)\n        /* \"contracts/0xBitcoinExtended.sol\":3190:3209  msg.sender == owner */\n      swap1\n      dup2\n      and\n        /* \"contracts/0xBitcoinExtended.sol\":3204:3209  owner */\n      swap2\n      and\n        /* \"contracts/0xBitcoinExtended.sol\":3190:3209  msg.sender == owner */\n      eq\n        /* \"contracts/0xBitcoinExtended.sol\":3182:3210  require(msg.sender == owner) */\n      tag_219\n      jumpi\n      0x0\n      dup1\n      revert\n    tag_219:\n        /* \"contracts/0xBitcoinExtended.sol\":16738:16743  owner */\n      0x0\n      dup1\n      sload\n      sub(exp(0x2, 0xa0), 0x1)\n        /* \"contracts/0xBitcoinExtended.sol\":16700:16737  ERC20Interface(tokenAddress).transfer */\n      dup1\n      dup7\n      and\n      swap3\n      0xa9059cbb\n      swap3\n        /* \"contracts/0xBitcoinExtended.sol\":16738:16743  owner */\n      swap1\n      swap2\n      and\n      swap1\n        /* \"contracts/0xBitcoinExtended.sol\":16745:16751  tokens */\n      dup6\n      swap1\n        /* \"contracts/0xBitcoinExtended.sol\":16700:16752  ERC20Interface(tokenAddress).transfer(owner, tokens) */\n      add(0x20, mload(0x40))\n      mstore\n      mload(0x40)\n      exp(0x2, 0xe0)\n      0xffffffff\n      dup6\n      and\n      mul\n      dup2\n      mstore\n      sub(exp(0x2, 0xa0), 0x1)\n      swap1\n      swap3\n      and\n      0x4\n      dup4\n      add\n      mstore\n      0x24\n      dup3\n      add\n      mstore\n      0x44\n      add\n      0x20\n      mload(0x40)\n      dup1\n      dup4\n      sub\n      dup2\n      0x0\n      dup8\n      dup1\n      extcodesize\n      iszero\n      iszero\n      tag_221\n      jumpi\n      0x0\n      dup1\n      revert\n    tag_221:\n      sub(gas, 0x2c6)\n      call\n      iszero\n      iszero\n      tag_222\n      jumpi\n      0x0\n      dup1\n      revert\n    tag_222:\n      pop\n      pop\n      pop\n      mload(0x40)\n      dup1\n      mload\n      swap5\n        /* \"contracts/0xBitcoinExtended.sol\":16576:16760  function transferAnyERC20Token(address tokenAddress, uint tokens) public onlyOwner returns (bool success) {... */\n      swap4\n      pop\n      pop\n      pop\n      pop\n      jump\t// out\n        /* \"contracts/0xBitcoinExtended.sol\":4216:4252  uint public  _MINIMUM_TARGET = 2**16 */\n    tag_157:\n      sload(0x9)\n      dup2\n      jump\t// out\n        /* \"contracts/0xBitcoinExtended.sol\":15262:15413  function allowance(address tokenOwner, address spender) public constant returns (uint remaining) {... */\n    tag_160:\n      sub(exp(0x2, 0xa0), 0x1)\n        /* \"contracts/0xBitcoinExtended.sol\":15377:15396  allowed[tokenOwner] */\n      swap2\n      dup3\n      and\n        /* \"contracts/0xBitcoinExtended.sol\":15343:15357  uint remaining */\n      0x0\n        /* \"contracts/0xBitcoinExtended.sol\":15377:15396  allowed[tokenOwner] */\n      swap1\n      dup2\n      mstore\n        /* \"contracts/0xBitcoinExtended.sol\":15377:15384  allowed */\n      0x16\n        /* \"contracts/0xBitcoinExtended.sol\":15377:15396  allowed[tokenOwner] */\n      0x20\n      swap1\n      dup2\n      mstore\n      0x40\n      dup1\n      dup4\n      keccak256\n        /* \"contracts/0xBitcoinExtended.sol\":15377:15405  allowed[tokenOwner][spender] */\n      swap4\n      swap1\n      swap5\n      and\n      dup3\n      mstore\n      swap2\n      swap1\n      swap2\n      mstore\n      keccak256\n      sload\n      swap1\n        /* \"contracts/0xBitcoinExtended.sol\":15262:15413  function allowance(address tokenOwner, address spender) public constant returns (uint remaining) {... */\n      jump\t// out\n        /* \"contracts/0xBitcoinExtended.sol\":3237:3339  function transferOwnership(address _newOwner) public onlyOwner {... */\n    tag_163:\n        /* \"contracts/0xBitcoinExtended.sol\":3204:3209  owner */\n      sload(0x0)\n        /* \"contracts/0xBitcoinExtended.sol\":3190:3200  msg.sender */\n      caller\n      sub(exp(0x2, 0xa0), 0x1)\n        /* \"contracts/0xBitcoinExtended.sol\":3190:3209  msg.sender == owner */\n      swap1\n      dup2\n      and\n        /* \"contracts/0xBitcoinExtended.sol\":3204:3209  owner */\n      swap2\n      and\n        /* \"contracts/0xBitcoinExtended.sol\":3190:3209  msg.sender == owner */\n      eq\n        /* \"contracts/0xBitcoinExtended.sol\":3182:3210  require(msg.sender == owner) */\n      tag_225\n      jumpi\n      0x0\n      dup1\n      revert\n    tag_225:\n        /* \"contracts/0xBitcoinExtended.sol\":3311:3319  newOwner */\n      0x1\n        /* \"contracts/0xBitcoinExtended.sol\":3311:3331  newOwner = _newOwner */\n      dup1\n      sload\n      not(0xffffffffffffffffffffffffffffffffffffffff)\n      and\n      sub(exp(0x2, 0xa0), 0x1)\n      swap3\n      swap1\n      swap3\n      and\n      swap2\n      swap1\n      swap2\n      or\n      swap1\n      sstore\n        /* \"contracts/0xBitcoinExtended.sol\":3237:3339  function transferOwnership(address _newOwner) public onlyOwner {... */\n      jump\t// out\n        /* \"contracts/0xBitcoinExtended.sol\":1028:1141  function div(uint a, uint b) internal pure returns (uint c) {... */\n    tag_170:\n        /* \"contracts/0xBitcoinExtended.sol\":1080:1086  uint c */\n      0x0\n        /* \"contracts/0xBitcoinExtended.sol\":1107:1112  b > 0 */\n      dup1\n      dup3\n      gt\n        /* \"contracts/0xBitcoinExtended.sol\":1099:1113  require(b > 0) */\n      tag_228\n      jumpi\n      0x0\n      dup1\n      revert\n    tag_228:\n        /* \"contracts/0xBitcoinExtended.sol\":1132:1133  b */\n      dup2\n        /* \"contracts/0xBitcoinExtended.sol\":1128:1129  a */\n      dup4\n        /* \"contracts/0xBitcoinExtended.sol\":1128:1133  a / b */\n      dup2\n      iszero\n      iszero\n      tag_229\n      jumpi\n      invalid\n    tag_229:\n      div\n      swap4\n        /* \"contracts/0xBitcoinExtended.sol\":1028:1141  function div(uint a, uint b) internal pure returns (uint c) {... */\n      swap3\n      pop\n      pop\n      pop\n      jump\t// out\n        /* \"contracts/0xBitcoinExtended.sol\":654:768  function add(uint a, uint b) internal pure returns (uint c) {... */\n    tag_177:\n        /* \"contracts/0xBitcoinExtended.sol\":729:734  a + b */\n      dup2\n      dup2\n      add\n        /* \"contracts/0xBitcoinExtended.sol\":753:759  c >= a */\n      dup3\n      dup2\n      lt\n      iszero\n        /* \"contracts/0xBitcoinExtended.sol\":745:760  require(c >= a) */\n      tag_167\n      jumpi\n      0x0\n      dup1\n      revert\n        /* \"contracts/0xBitcoinExtended.sol\":7382:8533  function _startNewMiningEpoch() internal {... */\n    tag_181:\n        /* \"contracts/0xBitcoinExtended.sol\":7749:7764  maxSupplyForEra */\n      sload(0xe)\n        /* \"contracts/0xBitcoinExtended.sol\":7711:7746  tokensMinted.add(getMiningReward()) */\n      tag_233\n        /* \"contracts/0xBitcoinExtended.sol\":7728:7745  getMiningReward() */\n      tag_234\n        /* \"contracts/0xBitcoinExtended.sol\":7728:7743  getMiningReward */\n      tag_81\n        /* \"contracts/0xBitcoinExtended.sol\":7728:7745  getMiningReward() */\n      jump\t// in\n    tag_234:\n        /* \"contracts/0xBitcoinExtended.sol\":7711:7723  tokensMinted */\n      sload(0x14)\n      swap1\n        /* \"contracts/0xBitcoinExtended.sol\":7711:7746  tokensMinted.add(getMiningReward()) */\n      0xffffffff\n        /* \"contracts/0xBitcoinExtended.sol\":7711:7727  tokensMinted.add */\n      tag_177\n        /* \"contracts/0xBitcoinExtended.sol\":7711:7746  tokensMinted.add(getMiningReward()) */\n      and\n      jump\t// in\n    tag_233:\n        /* \"contracts/0xBitcoinExtended.sol\":7711:7764  tokensMinted.add(getMiningReward()) > maxSupplyForEra */\n      gt\n        /* \"contracts/0xBitcoinExtended.sol\":7711:7782  tokensMinted.add(getMiningReward()) > maxSupplyForEra && rewardEra < 39 */\n      dup1\n      iszero\n      tag_235\n      jumpi\n      pop\n        /* \"contracts/0xBitcoinExtended.sol\":7780:7782  39 */\n      0x27\n        /* \"contracts/0xBitcoinExtended.sol\":7768:7777  rewardEra */\n      sload(0xd)\n        /* \"contracts/0xBitcoinExtended.sol\":7768:7782  rewardEra < 39 */\n      lt\n        /* \"contracts/0xBitcoinExtended.sol\":7711:7782  tokensMinted.add(getMiningReward()) > maxSupplyForEra && rewardEra < 39 */\n    tag_235:\n        /* \"contracts/0xBitcoinExtended.sol\":7707:7834  if( tokensMinted.add(getMiningReward()) > maxSupplyForEra && rewardEra < 39)... */\n      iszero\n      tag_236\n      jumpi\n        /* \"contracts/0xBitcoinExtended.sol\":7812:7821  rewardEra */\n      0xd\n      dup1\n      sload\n        /* \"contracts/0xBitcoinExtended.sol\":7824:7825  1 */\n      0x1\n        /* \"contracts/0xBitcoinExtended.sol\":7812:7825  rewardEra + 1 */\n      add\n        /* \"contracts/0xBitcoinExtended.sol\":7800:7825  rewardEra = rewardEra + 1 */\n      swap1\n      sstore\n        /* \"contracts/0xBitcoinExtended.sol\":7707:7834  if( tokensMinted.add(getMiningReward()) > maxSupplyForEra && rewardEra < 39)... */\n    tag_236:\n        /* \"contracts/0xBitcoinExtended.sol\":8032:8041  rewardEra */\n      sload(0xd)\n        /* \"contracts/0xBitcoinExtended.sol\":8010:8022  _totalSupply */\n      sload(0x5)\n        /* \"contracts/0xBitcoinExtended.sol\":8010:8047  _totalSupply.div( 2**(rewardEra + 1)) */\n      tag_237\n      swap2\n        /* \"contracts/0xBitcoinExtended.sol\":8044:8045  1 */\n      0x1\n        /* \"contracts/0xBitcoinExtended.sol\":8032:8045  rewardEra + 1 */\n      add\n        /* \"contracts/0xBitcoinExtended.sol\":8028:8029  2 */\n      0x2\n        /* \"contracts/0xBitcoinExtended.sol\":8028:8046  2**(rewardEra + 1) */\n      exp\n        /* \"contracts/0xBitcoinExtended.sol\":8010:8047  _totalSupply.div( 2**(rewardEra + 1)) */\n      0xffffffff\n        /* \"contracts/0xBitcoinExtended.sol\":8010:8026  _totalSupply.div */\n      tag_170\n        /* \"contracts/0xBitcoinExtended.sol\":8010:8047  _totalSupply.div( 2**(rewardEra + 1)) */\n      and\n      jump\t// in\n    tag_237:\n        /* \"contracts/0xBitcoinExtended.sol\":7995:8007  _totalSupply */\n      sload(0x5)\n        /* \"contracts/0xBitcoinExtended.sol\":7995:8047  _totalSupply - _totalSupply.div( 2**(rewardEra + 1)) */\n      sub\n        /* \"contracts/0xBitcoinExtended.sol\":7977:7992  maxSupplyForEra */\n      0xe\n        /* \"contracts/0xBitcoinExtended.sol\":7977:8047  maxSupplyForEra = _totalSupply - _totalSupply.div( 2**(rewardEra + 1)) */\n      sstore\n        /* \"contracts/0xBitcoinExtended.sol\":8069:8079  epochCount */\n      sload(0x7)\n        /* \"contracts/0xBitcoinExtended.sol\":8069:8086  epochCount.add(1) */\n      tag_238\n      swap1\n        /* \"contracts/0xBitcoinExtended.sol\":8084:8085  1 */\n      0x1\n        /* \"contracts/0xBitcoinExtended.sol\":8069:8086  epochCount.add(1) */\n      0xffffffff\n        /* \"contracts/0xBitcoinExtended.sol\":8069:8083  epochCount.add */\n      tag_177\n        /* \"contracts/0xBitcoinExtended.sol\":8069:8086  epochCount.add(1) */\n      and\n      jump\t// in\n    tag_238:\n        /* \"contracts/0xBitcoinExtended.sol\":8056:8066  epochCount */\n      0x7\n        /* \"contracts/0xBitcoinExtended.sol\":8056:8086  epochCount = epochCount.add(1) */\n      dup2\n      swap1\n      sstore\n        /* \"contracts/0xBitcoinExtended.sol\":8185:8209  _BLOCKS_PER_READJUSTMENT */\n      sload(0x8)\n      swap1\n        /* \"contracts/0xBitcoinExtended.sol\":8172:8209  epochCount % _BLOCKS_PER_READJUSTMENT */\n      dup2\n      iszero\n      iszero\n      tag_239\n      jumpi\n      invalid\n    tag_239:\n      mod\n        /* \"contracts/0xBitcoinExtended.sol\":8172:8214  epochCount % _BLOCKS_PER_READJUSTMENT == 0 */\n      iszero\n        /* \"contracts/0xBitcoinExtended.sol\":8169:8262  if(epochCount % _BLOCKS_PER_READJUSTMENT == 0)... */\n      iszero\n      tag_241\n      jumpi\n        /* \"contracts/0xBitcoinExtended.sol\":8232:8253  _reAdjustDifficulty() */\n      tag_241\n        /* \"contracts/0xBitcoinExtended.sol\":8232:8251  _reAdjustDifficulty */\n      tag_242\n        /* \"contracts/0xBitcoinExtended.sol\":8232:8253  _reAdjustDifficulty() */\n      jump\t// in\n    tag_241:\n      not(0x0)\n        /* \"contracts/0xBitcoinExtended.sol\":8503:8515  block.number */\n      number\n        /* \"contracts/0xBitcoinExtended.sol\":8503:8519  block.number - 1 */\n      add\n        /* \"contracts/0xBitcoinExtended.sol\":8487:8520  block.blockhash(block.number - 1) */\n      blockhash\n        /* \"contracts/0xBitcoinExtended.sol\":8469:8484  challengeNumber */\n      0xc\n        /* \"contracts/0xBitcoinExtended.sol\":8469:8520  challengeNumber = block.blockhash(block.number - 1) */\n      sstore\n        /* \"contracts/0xBitcoinExtended.sol\":7382:8533  function _startNewMiningEpoch() internal {... */\n      jump\t// out\n        /* \"contracts/0xBitcoinExtended.sol\":774:888  function sub(uint a, uint b) internal pure returns (uint c) {... */\n    tag_185:\n        /* \"contracts/0xBitcoinExtended.sol\":826:832  uint c */\n      0x0\n        /* \"contracts/0xBitcoinExtended.sol\":853:859  b <= a */\n      dup3\n      dup3\n      gt\n      iszero\n        /* \"contracts/0xBitcoinExtended.sol\":845:860  require(b <= a) */\n      tag_244\n      jumpi\n      0x0\n      dup1\n      revert\n    tag_244:\n      pop\n        /* \"contracts/0xBitcoinExtended.sol\":875:880  a - b */\n      swap1\n      sub\n      swap1\n        /* \"contracts/0xBitcoinExtended.sol\":774:888  function sub(uint a, uint b) internal pure returns (uint c) {... */\n      jump\t// out\n        /* \"contracts/0xBitcoinExtended.sol\":8757:10586  function _reAdjustDifficulty() internal {... */\n    tag_242:\n        /* \"contracts/0xBitcoinExtended.sol\":8866:8895  latestDifficultyPeriodStarted */\n      sload(0x6)\n        /* \"contracts/0xBitcoinExtended.sol\":9085:9109  _BLOCKS_PER_READJUSTMENT */\n      sload(0x8)\n        /* \"contracts/0xBitcoinExtended.sol\":8851:8863  block.number */\n      number\n        /* \"contracts/0xBitcoinExtended.sol\":8851:8895  block.number - latestDifficultyPeriodStarted */\n      swap2\n      swap1\n      swap2\n      sub\n      swap1\n        /* \"contracts/0xBitcoinExtended.sol\":9176:9178  60 */\n      0x3c\n        /* \"contracts/0xBitcoinExtended.sol\":9162:9178  epochsMined * 60 */\n      dup2\n      mul\n        /* \"contracts/0xBitcoinExtended.sol\":8809:8848  uint ethBlocksSinceLastDifficultyPeriod */\n      0x0\n      dup1\n      dup1\n      dup1\n        /* \"contracts/0xBitcoinExtended.sol\":9304:9369  ethBlocksSinceLastDifficultyPeriod < targetEthBlocksPerDiffPeriod */\n      dup5\n      dup8\n      lt\n        /* \"contracts/0xBitcoinExtended.sol\":9300:10282  if( ethBlocksSinceLastDifficultyPeriod < targetEthBlocksPerDiffPeriod )... */\n      iszero\n      tag_246\n      jumpi\n        /* \"contracts/0xBitcoinExtended.sol\":9416:9497  (targetEthBlocksPerDiffPeriod.mul(100)).div( ethBlocksSinceLastDifficultyPeriod ) */\n      tag_247\n        /* \"contracts/0xBitcoinExtended.sol\":9461:9495  ethBlocksSinceLastDifficultyPeriod */\n      dup8\n        /* \"contracts/0xBitcoinExtended.sol\":9417:9454  targetEthBlocksPerDiffPeriod.mul(100) */\n      tag_248\n        /* \"contracts/0xBitcoinExtended.sol\":9417:9445  targetEthBlocksPerDiffPeriod */\n      dup8\n        /* \"contracts/0xBitcoinExtended.sol\":9450:9453  100 */\n      0x64\n        /* \"contracts/0xBitcoinExtended.sol\":9417:9454  targetEthBlocksPerDiffPeriod.mul(100) */\n      0xffffffff\n        /* \"contracts/0xBitcoinExtended.sol\":9417:9449  targetEthBlocksPerDiffPeriod.mul */\n      tag_249\n        /* \"contracts/0xBitcoinExtended.sol\":9417:9454  targetEthBlocksPerDiffPeriod.mul(100) */\n      and\n      jump\t// in\n    tag_248:\n        /* \"contracts/0xBitcoinExtended.sol\":9416:9459  (targetEthBlocksPerDiffPeriod.mul(100)).div */\n      swap1\n        /* \"contracts/0xBitcoinExtended.sol\":9416:9497  (targetEthBlocksPerDiffPeriod.mul(100)).div( ethBlocksSinceLastDifficultyPeriod ) */\n      0xffffffff\n        /* \"contracts/0xBitcoinExtended.sol\":9416:9459  (targetEthBlocksPerDiffPeriod.mul(100)).div */\n      tag_170\n        /* \"contracts/0xBitcoinExtended.sol\":9416:9497  (targetEthBlocksPerDiffPeriod.mul(100)).div( ethBlocksSinceLastDifficultyPeriod ) */\n      and\n      jump\t// in\n    tag_247:\n        /* \"contracts/0xBitcoinExtended.sol\":9392:9497  uint excess_block_pct = (targetEthBlocksPerDiffPeriod.mul(100)).div( ethBlocksSinceLastDifficultyPeriod ) */\n      swap4\n      pop\n        /* \"contracts/0xBitcoinExtended.sol\":9540:9585  excess_block_pct.sub(100).limitLessThan(1000) */\n      tag_250\n        /* \"contracts/0xBitcoinExtended.sol\":9580:9584  1000 */\n      0x3e8\n        /* \"contracts/0xBitcoinExtended.sol\":9540:9565  excess_block_pct.sub(100) */\n      tag_251\n        /* \"contracts/0xBitcoinExtended.sol\":9392:9497  uint excess_block_pct = (targetEthBlocksPerDiffPeriod.mul(100)).div( ethBlocksSinceLastDifficultyPeriod ) */\n      dup7\n        /* \"contracts/0xBitcoinExtended.sol\":9561:9564  100 */\n      0x64\n        /* \"contracts/0xBitcoinExtended.sol\":9540:9565  excess_block_pct.sub(100) */\n      0xffffffff\n        /* \"contracts/0xBitcoinExtended.sol\":9540:9560  excess_block_pct.sub */\n      tag_185\n        /* \"contracts/0xBitcoinExtended.sol\":9540:9565  excess_block_pct.sub(100) */\n      and\n      jump\t// in\n    tag_251:\n        /* \"contracts/0xBitcoinExtended.sol\":9540:9579  excess_block_pct.sub(100).limitLessThan */\n      swap1\n        /* \"contracts/0xBitcoinExtended.sol\":9540:9585  excess_block_pct.sub(100).limitLessThan(1000) */\n      0xffffffff\n        /* \"contracts/0xBitcoinExtended.sol\":9540:9579  excess_block_pct.sub(100).limitLessThan */\n      tag_252\n        /* \"contracts/0xBitcoinExtended.sol\":9540:9585  excess_block_pct.sub(100).limitLessThan(1000) */\n      and\n      jump\t// in\n    tag_250:\n        /* \"contracts/0xBitcoinExtended.sol\":9510:9585  uint excess_block_pct_extra = excess_block_pct.sub(100).limitLessThan(1000) */\n      swap3\n      pop\n        /* \"contracts/0xBitcoinExtended.sol\":9788:9856  miningTarget.sub(miningTarget.div(2000).mul(excess_block_pct_extra)) */\n      tag_253\n        /* \"contracts/0xBitcoinExtended.sol\":9805:9855  miningTarget.div(2000).mul(excess_block_pct_extra) */\n      tag_254\n        /* \"contracts/0xBitcoinExtended.sol\":9832:9854  excess_block_pct_extra */\n      dup5\n        /* \"contracts/0xBitcoinExtended.sol\":9805:9827  miningTarget.div(2000) */\n      tag_255\n        /* \"contracts/0xBitcoinExtended.sol\":9822:9826  2000 */\n      0x7d0\n        /* \"contracts/0xBitcoinExtended.sol\":9805:9817  miningTarget */\n      sload(0xb)\n        /* \"contracts/0xBitcoinExtended.sol\":9805:9821  miningTarget.div */\n      tag_170\n      swap1\n        /* \"contracts/0xBitcoinExtended.sol\":9805:9827  miningTarget.div(2000) */\n      swap2\n      swap1\n      0xffffffff\n      and\n      jump\t// in\n    tag_255:\n        /* \"contracts/0xBitcoinExtended.sol\":9805:9831  miningTarget.div(2000).mul */\n      swap1\n        /* \"contracts/0xBitcoinExtended.sol\":9805:9855  miningTarget.div(2000).mul(excess_block_pct_extra) */\n      0xffffffff\n        /* \"contracts/0xBitcoinExtended.sol\":9805:9831  miningTarget.div(2000).mul */\n      tag_249\n        /* \"contracts/0xBitcoinExtended.sol\":9805:9855  miningTarget.div(2000).mul(excess_block_pct_extra) */\n      and\n      jump\t// in\n    tag_254:\n        /* \"contracts/0xBitcoinExtended.sol\":9788:9800  miningTarget */\n      sload(0xb)\n      swap1\n        /* \"contracts/0xBitcoinExtended.sol\":9788:9856  miningTarget.sub(miningTarget.div(2000).mul(excess_block_pct_extra)) */\n      0xffffffff\n        /* \"contracts/0xBitcoinExtended.sol\":9788:9804  miningTarget.sub */\n      tag_185\n        /* \"contracts/0xBitcoinExtended.sol\":9788:9856  miningTarget.sub(miningTarget.div(2000).mul(excess_block_pct_extra)) */\n      and\n      jump\t// in\n    tag_253:\n        /* \"contracts/0xBitcoinExtended.sol\":9773:9785  miningTarget */\n      0xb\n        /* \"contracts/0xBitcoinExtended.sol\":9773:9856  miningTarget = miningTarget.sub(miningTarget.div(2000).mul(excess_block_pct_extra)) */\n      sstore\n        /* \"contracts/0xBitcoinExtended.sol\":9300:10282  if( ethBlocksSinceLastDifficultyPeriod < targetEthBlocksPerDiffPeriod )... */\n      jump(tag_256)\n    tag_246:\n        /* \"contracts/0xBitcoinExtended.sol\":9927:10008  (ethBlocksSinceLastDifficultyPeriod.mul(100)).div( targetEthBlocksPerDiffPeriod ) */\n      tag_257\n        /* \"contracts/0xBitcoinExtended.sol\":9978:10006  targetEthBlocksPerDiffPeriod */\n      dup6\n        /* \"contracts/0xBitcoinExtended.sol\":9928:9971  ethBlocksSinceLastDifficultyPeriod.mul(100) */\n      tag_248\n        /* \"contracts/0xBitcoinExtended.sol\":9928:9962  ethBlocksSinceLastDifficultyPeriod */\n      dup10\n        /* \"contracts/0xBitcoinExtended.sol\":9967:9970  100 */\n      0x64\n        /* \"contracts/0xBitcoinExtended.sol\":9928:9971  ethBlocksSinceLastDifficultyPeriod.mul(100) */\n      0xffffffff\n        /* \"contracts/0xBitcoinExtended.sol\":9928:9966  ethBlocksSinceLastDifficultyPeriod.mul */\n      tag_249\n        /* \"contracts/0xBitcoinExtended.sol\":9928:9971  ethBlocksSinceLastDifficultyPeriod.mul(100) */\n      and\n      jump\t// in\n        /* \"contracts/0xBitcoinExtended.sol\":9927:10008  (ethBlocksSinceLastDifficultyPeriod.mul(100)).div( targetEthBlocksPerDiffPeriod ) */\n    tag_257:\n        /* \"contracts/0xBitcoinExtended.sol\":9901:10008  uint shortage_block_pct = (ethBlocksSinceLastDifficultyPeriod.mul(100)).div( targetEthBlocksPerDiffPeriod ) */\n      swap2\n      pop\n        /* \"contracts/0xBitcoinExtended.sol\":10053:10100  shortage_block_pct.sub(100).limitLessThan(1000) */\n      tag_259\n        /* \"contracts/0xBitcoinExtended.sol\":10095:10099  1000 */\n      0x3e8\n        /* \"contracts/0xBitcoinExtended.sol\":10053:10080  shortage_block_pct.sub(100) */\n      tag_251\n        /* \"contracts/0xBitcoinExtended.sol\":9901:10008  uint shortage_block_pct = (ethBlocksSinceLastDifficultyPeriod.mul(100)).div( targetEthBlocksPerDiffPeriod ) */\n      dup5\n        /* \"contracts/0xBitcoinExtended.sol\":10076:10079  100 */\n      0x64\n        /* \"contracts/0xBitcoinExtended.sol\":10053:10080  shortage_block_pct.sub(100) */\n      0xffffffff\n        /* \"contracts/0xBitcoinExtended.sol\":10053:10075  shortage_block_pct.sub */\n      tag_185\n        /* \"contracts/0xBitcoinExtended.sol\":10053:10080  shortage_block_pct.sub(100) */\n      and\n      jump\t// in\n        /* \"contracts/0xBitcoinExtended.sol\":10053:10100  shortage_block_pct.sub(100).limitLessThan(1000) */\n    tag_259:\n        /* \"contracts/0xBitcoinExtended.sol\":10021:10100  uint shortage_block_pct_extra = shortage_block_pct.sub(100).limitLessThan(1000) */\n      swap1\n      pop\n        /* \"contracts/0xBitcoinExtended.sol\":10183:10253  miningTarget.add(miningTarget.div(2000).mul(shortage_block_pct_extra)) */\n      tag_261\n        /* \"contracts/0xBitcoinExtended.sol\":10200:10252  miningTarget.div(2000).mul(shortage_block_pct_extra) */\n      tag_262\n        /* \"contracts/0xBitcoinExtended.sol\":10227:10251  shortage_block_pct_extra */\n      dup3\n        /* \"contracts/0xBitcoinExtended.sol\":10200:10222  miningTarget.div(2000) */\n      tag_255\n        /* \"contracts/0xBitcoinExtended.sol\":10217:10221  2000 */\n      0x7d0\n        /* \"contracts/0xBitcoinExtended.sol\":10200:10212  miningTarget */\n      sload(0xb)\n        /* \"contracts/0xBitcoinExtended.sol\":10200:10216  miningTarget.div */\n      tag_170\n      swap1\n        /* \"contracts/0xBitcoinExtended.sol\":10200:10222  miningTarget.div(2000) */\n      swap2\n      swap1\n      0xffffffff\n      and\n      jump\t// in\n        /* \"contracts/0xBitcoinExtended.sol\":10200:10252  miningTarget.div(2000).mul(shortage_block_pct_extra) */\n    tag_262:\n        /* \"contracts/0xBitcoinExtended.sol\":10183:10195  miningTarget */\n      sload(0xb)\n      swap1\n        /* \"contracts/0xBitcoinExtended.sol\":10183:10253  miningTarget.add(miningTarget.div(2000).mul(shortage_block_pct_extra)) */\n      0xffffffff\n        /* \"contracts/0xBitcoinExtended.sol\":10183:10199  miningTarget.add */\n      tag_177\n        /* \"contracts/0xBitcoinExtended.sol\":10183:10253  miningTarget.add(miningTarget.div(2000).mul(shortage_block_pct_extra)) */\n      and\n      jump\t// in\n    tag_261:\n        /* \"contracts/0xBitcoinExtended.sol\":10168:10180  miningTarget */\n      0xb\n        /* \"contracts/0xBitcoinExtended.sol\":10168:10253  miningTarget = miningTarget.add(miningTarget.div(2000).mul(shortage_block_pct_extra)) */\n      sstore\n        /* \"contracts/0xBitcoinExtended.sol\":9300:10282  if( ethBlocksSinceLastDifficultyPeriod < targetEthBlocksPerDiffPeriod )... */\n    tag_256:\n        /* \"contracts/0xBitcoinExtended.sol\":10326:10338  block.number */\n      number\n        /* \"contracts/0xBitcoinExtended.sol\":10294:10323  latestDifficultyPeriodStarted */\n      0x6\n        /* \"contracts/0xBitcoinExtended.sol\":10294:10338  latestDifficultyPeriodStarted = block.number */\n      sstore\n        /* \"contracts/0xBitcoinExtended.sol\":10367:10382  _MINIMUM_TARGET */\n      sload(0x9)\n        /* \"contracts/0xBitcoinExtended.sol\":10352:10364  miningTarget */\n      sload(0xb)\n        /* \"contracts/0xBitcoinExtended.sol\":10352:10382  miningTarget < _MINIMUM_TARGET */\n      lt\n        /* \"contracts/0xBitcoinExtended.sol\":10349:10462  if(miningTarget < _MINIMUM_TARGET) //very difficult... */\n      iszero\n      tag_264\n      jumpi\n        /* \"contracts/0xBitcoinExtended.sol\":10436:10451  _MINIMUM_TARGET */\n      sload(0x9)\n        /* \"contracts/0xBitcoinExtended.sol\":10421:10433  miningTarget */\n      0xb\n        /* \"contracts/0xBitcoinExtended.sol\":10421:10451  miningTarget = _MINIMUM_TARGET */\n      sstore\n        /* \"contracts/0xBitcoinExtended.sol\":10349:10462  if(miningTarget < _MINIMUM_TARGET) //very difficult... */\n    tag_264:\n        /* \"contracts/0xBitcoinExtended.sol\":10490:10505  _MAXIMUM_TARGET */\n      sload(0xa)\n        /* \"contracts/0xBitcoinExtended.sol\":10475:10487  miningTarget */\n      sload(0xb)\n        /* \"contracts/0xBitcoinExtended.sol\":10475:10505  miningTarget > _MAXIMUM_TARGET */\n      gt\n        /* \"contracts/0xBitcoinExtended.sol\":10472:10580  if(miningTarget > _MAXIMUM_TARGET) //very easy... */\n      iszero\n      tag_265\n      jumpi\n        /* \"contracts/0xBitcoinExtended.sol\":10554:10569  _MAXIMUM_TARGET */\n      sload(0xa)\n        /* \"contracts/0xBitcoinExtended.sol\":10539:10551  miningTarget */\n      0xb\n        /* \"contracts/0xBitcoinExtended.sol\":10539:10569  miningTarget = _MAXIMUM_TARGET */\n      sstore\n        /* \"contracts/0xBitcoinExtended.sol\":10472:10580  if(miningTarget > _MAXIMUM_TARGET) //very easy... */\n    tag_265:\n        /* \"contracts/0xBitcoinExtended.sol\":8757:10586  function _reAdjustDifficulty() internal {... */\n      pop\n      pop\n      pop\n      pop\n      pop\n      pop\n      pop\n      jump\t// out\n        /* \"contracts/0xBitcoinExtended.sol\":894:1022  function mul(uint a, uint b) internal pure returns (uint c) {... */\n    tag_249:\n        /* \"contracts/0xBitcoinExtended.sol\":969:974  a * b */\n      dup2\n      dup2\n      mul\n        /* \"contracts/0xBitcoinExtended.sol\":993:999  a == 0 */\n      dup3\n      iszero\n      dup1\n        /* \"contracts/0xBitcoinExtended.sol\":993:1013  a == 0 || c / a == b */\n      tag_267\n      jumpi\n      pop\n        /* \"contracts/0xBitcoinExtended.sol\":1012:1013  b */\n      dup2\n        /* \"contracts/0xBitcoinExtended.sol\":1007:1008  a */\n      dup4\n        /* \"contracts/0xBitcoinExtended.sol\":1003:1004  c */\n      dup3\n        /* \"contracts/0xBitcoinExtended.sol\":1003:1008  c / a */\n      dup2\n      iszero\n      iszero\n      tag_268\n      jumpi\n      invalid\n    tag_268:\n      div\n        /* \"contracts/0xBitcoinExtended.sol\":1003:1013  c / a == b */\n      eq\n        /* \"contracts/0xBitcoinExtended.sol\":993:1013  a == 0 || c / a == b */\n    tag_267:\n        /* \"contracts/0xBitcoinExtended.sol\":985:1014  require(a == 0 || c / a == b) */\n      iszero\n      iszero\n      tag_167\n      jumpi\n      0x0\n      dup1\n      revert\n        /* \"contracts/0xBitcoinExtended.sol\":1229:1355  function limitLessThan(uint a, uint b) internal pure returns (uint c) {... */\n    tag_252:\n        /* \"contracts/0xBitcoinExtended.sol\":1291:1297  uint c */\n      0x0\n        /* \"contracts/0xBitcoinExtended.sol\":1317:1318  b */\n      dup2\n        /* \"contracts/0xBitcoinExtended.sol\":1313:1314  a */\n      dup4\n        /* \"contracts/0xBitcoinExtended.sol\":1313:1318  a > b */\n      gt\n        /* \"contracts/0xBitcoinExtended.sol\":1310:1328  if(a > b) return b */\n      iszero\n      tag_271\n      jumpi\n      pop\n        /* \"contracts/0xBitcoinExtended.sol\":1327:1328  b */\n      dup1\n        /* \"contracts/0xBitcoinExtended.sol\":1320:1328  return b */\n      jump(tag_167)\n        /* \"contracts/0xBitcoinExtended.sol\":1310:1328  if(a > b) return b */\n    tag_271:\n      pop\n        /* \"contracts/0xBitcoinExtended.sol\":1346:1347  a */\n      swap1\n      swap2\n        /* \"contracts/0xBitcoinExtended.sol\":1229:1355  function limitLessThan(uint a, uint b) internal pure returns (uint c) {... */\n      swap1\n      pop\n      jump\t// out\n\n    auxdata: 0xa165627a7a723058204247932f7ab7398807c2fc5704ae0d6e7750286377828b0773ef160b2e8f32180029\n}\n",
        "bytecode": {
          "linkReferences": {},
          "object": "6060604052610400600855620100006009557d040000000000000000000000000000000000000000000000000000000000600a556012805460ff1916905534156200004957600080fd5b60008054600160a060020a03338116600160a060020a031990921682179283905591909116146200007957600080fd5b60408051908101604052600581527f307842544300000000000000000000000000000000000000000000000000000060208201526002908051620000c2929160200190620004fd565b5060408051908101604052600f81527f3078426974636f696e20546f6b656e0000000000000000000000000000000000602082015260039080516200010c929160200190620004fd565b506004805460ff1916600817908190556301406f4060ff918216600a0a0260055560125416156200013c57600080fd5b6012805460ff1916600117905560006014819055600d5560055462000171906002640100000000620010976200019c82021704565b600e55600a54600b554360065562000196640100000000620010c8620001bf82021704565b6200059f565b6000808211620001ab57600080fd5b8183811515620001b757fe5b049392505050565b600e54620001f6620001de64010000000062000a5f6200029e82021704565b60145490640100000000620010b8620002d382021704565b1180156200020657506027600d54105b156200021657600d805460010190555b600d546005546200023b9160010160020a640100000000620010976200019c82021704565b60055403600e5560075462000260906001640100000000620010b8620002d382021704565b6007819055600854908115156200027357fe5b0615156200029357620002936401000000006200117a620002ea82021704565b600019430140600c55565b600d54600454600091620002cd9160ff16600a0a6032029060020a6401000000006200019c8102620010971704565b90505b90565b81810182811015620002e457600080fd5b92915050565b600654600854439190910390603c8102600080808084871015620003de576200033d8762000328876064640100000000620012b4620004a582021704565b90640100000000620010976200019c82021704565b9350620003766103e86200036186606464010000000062001165620004cd82021704565b90640100000000620012d9620004e382021704565b9250620003d5620003bd84620003a86107d0600b546200019c6401000000000262001097179091906401000000009004565b90640100000000620012b4620004a582021704565b600b549064010000000062001165620004cd82021704565b600b5562000470565b620003fe8562000328896064640100000000620012b4620004a582021704565b9150620004226103e86200036184606464010000000062001165620004cd82021704565b90506200046c6200045482620003a86107d0600b546200019c6401000000000262001097179091906401000000009004565b600b5490640100000000620010b8620002d382021704565b600b555b43600655600954600b5410156200048857600954600b555b600a54600b5411156200049c57600a54600b555b50505050505050565b818102821580620004c15750818382811515620004be57fe5b04145b1515620002e457600080fd5b600082821115620004dd57600080fd5b50900390565b600081831115620004f6575080620002e4565b5090919050565b828054600181600116156101000203166002900490600052602060002090601f016020900481019282601f106200054057805160ff191683800117855562000570565b8280016001018555821562000570579182015b828111156200057057825182559160200191906001019062000553565b506200057e92915062000582565b5090565b620002d091905b808211156200057e576000815560010162000589565b61131d80620005af6000396000f3006060604052600436106101be5763ffffffff60e060020a60003504166306fdde0381146101c3578063095ea7b31461024d578063163aa00d1461028357806317da485f146102a85780631801fbe5146102bb57806318160ddd146102d457806323b872dd146102e75780632d38bf7a1461030f578063313ce5671461032257806332e997081461034b5780633eaaf86b1461035e578063490203a7146103715780634ef37628146103845780634fa972e1146103975780635515a1ea146103aa5780635ce7e030146103bd5780636de9f32b146103d55780636fd396d6146103e857806370a082311461041757806379ba50971461043657806381269a5614610449578063829965cc1461046857806387a2a9d61461047b5780638a769d351461048e5780638ae0368b146104a15780638da5cb5b146104b457806395d89b41146104c757806397566aa0146104da578063a9059cbb146104f6578063b5ade81b14610518578063bafedcaa1461052b578063cae9ca511461053e578063cb9ae707146105a3578063d4ee1d90146105b6578063dc39d06d146105c9578063dc6e9cf9146105eb578063dd62ed3e146105fe578063f2fde38b14610623575b600080fd5b34156101ce57600080fd5b6101d6610642565b60405160208082528190810183818151815260200191508051906020019080838360005b838110156102125780820151838201526020016101fa565b50505050905090810190601f16801561023f5780820380516001836020036101000a031916815260200191505b509250505060405180910390f35b341561025857600080fd5b61026f600160a060020a03600435166024356106e0565b604051901515815260200160405180910390f35b341561028e57600080fd5b61029661074d565b60405190815260200160405180910390f35b34156102b357600080fd5b610296610753565b34156102c657600080fd5b61026f600435602435610771565b34156102df57600080fd5b6102966108ff565b34156102f257600080fd5b61026f600160a060020a0360043581169060243516604435610931565b341561031a57600080fd5b610296610a44565b341561032d57600080fd5b610335610a4a565b60405160ff909116815260200160405180910390f35b341561035657600080fd5b610296610a53565b341561036957600080fd5b610296610a59565b341561037c57600080fd5b610296610a5f565b341561038f57600080fd5b610296610a7e565b34156103a257600080fd5b610296610a84565b34156103b557600080fd5b61026f610a8a565b34156103c857600080fd5b6103d3600435610b3f565b005b34156103e057600080fd5b610296610b44565b34156103f357600080fd5b6103fb610b4a565b604051600160a060020a03909116815260200160405180910390f35b341561042257600080fd5b610296600160a060020a0360043516610b59565b341561044157600080fd5b6103d3610b74565b341561045457600080fd5b61026f600435602435604435606435610c02565b341561047357600080fd5b610296610c5a565b341561048657600080fd5b610296610c60565b341561049957600080fd5b610296610c66565b34156104ac57600080fd5b610296610c6c565b34156104bf57600080fd5b6103fb610c72565b34156104d257600080fd5b6101d6610c81565b34156104e557600080fd5b610296600435602435604435610cec565b341561050157600080fd5b61026f600160a060020a0360043516602435610d32565b341561052357600080fd5b610296610df1565b341561053657600080fd5b610296610df7565b341561054957600080fd5b61026f60048035600160a060020a03169060248035919060649060443590810190830135806020601f82018190048102016040519081016040528181529291906020840183838082843750949650610dfd95505050505050565b34156105ae57600080fd5b610296610f64565b34156105c157600080fd5b6103fb610f6a565b34156105d457600080fd5b61026f600160a060020a0360043516602435610f79565b34156105f657600080fd5b61029661101c565b341561060957600080fd5b610296600160a060020a0360043581169060243516611022565b341561062e57600080fd5b6103d3600160a060020a036004351661104d565b60038054600181600116156101000203166002900480601f0160208091040260200160405190810160405280929190818152602001828054600181600116156101000203166002900480156106d85780601f106106ad576101008083540402835291602001916106d8565b820191906000526020600020905b8154815290600101906020018083116106bb57829003601f168201915b505050505081565b600160a060020a03338116600081815260166020908152604080832094871680845294909152808220859055909291907f8c5be1e5ebec7d5bd14f71427d1e84f3dd0314c0f7b2291e5b200ac8c7c3b9259085905190815260200160405180910390a35060015b92915050565b60115481565b600061076c600b54600a5461109790919063ffffffff16565b905090565b600080600080600c543387604051928352600160a060020a03919091166c01000000000000000000000000026020830152603482015260540160405190819003902092508483146107c157600080fd5b600b548311156107d057600080fd5b600c546000908152601360205260409020805490849055915081156107f457600080fd5b6107fc610a5f565b600160a060020a033316600090815260156020526040902054909150610828908263ffffffff6110b816565b600160a060020a033316600090815260156020526040902055601454610854908263ffffffff6110b816565b6014819055600e5490111561086557fe5b600f805473ffffffffffffffffffffffffffffffffffffffff191633600160a060020a031617905560108190554360115561089e6110c8565b33600160a060020a03167fcf6fbb9dcea7d07263ab4f5c3a92f53af33dffc421d9d121e1c74b307e68189d82600754600c5460405192835260208301919091526040808301919091526060909101905180910390a250600195945050505050565b6000805260156020527fa31547ce6245cdb9ecea19cf8c7eb9f5974025bb4075011409251ae855b30aed546005540390565b600160a060020a03831660009081526015602052604081205461095a908363ffffffff61116516565b600160a060020a038086166000908152601560209081526040808320949094556016815283822033909316825291909152205461099d908363ffffffff61116516565b600160a060020a03808616600090815260166020908152604080832033851684528252808320949094559186168152601590915220546109e3908363ffffffff6110b816565b600160a060020a03808516600081815260156020526040908190209390935591908616907fddf252ad1be2c89b69c2b068fc378daa952ba7f163c4a11628f55a4df523b3ef9085905190815260200160405180910390a35060019392505050565b600d5481565b60045460ff1681565b600b5490565b60055481565b600d5460045460009161076c9160ff16600a0a6032029060020a611097565b600c5490565b600e5481565b600080610a95610a5f565b600160a060020a033316600090815260156020526040902054909150610ac1908263ffffffff6110b816565b600160a060020a033316600090815260156020526040902055601454610aed908263ffffffff6110b816565b6014819055600e54901115610afe57fe5b600f805473ffffffffffffffffffffffffffffffffffffffff191633600160a060020a0316179055601081905543601155610b376110c8565b600191505090565b601455565b60145481565b600f54600160a060020a031681565b600160a060020a031660009081526015602052604090205490565b60015433600160a060020a03908116911614610b8f57600080fd5b600154600054600160a060020a0391821691167f8be0079c531659141344cd1fd0a4f28419497f9722a3daafe3b4186f6b6457e060405160405180910390a3600180546000805473ffffffffffffffffffffffffffffffffffffffff19908116600160a060020a03841617909155169055565b600080833387604051928352600160a060020a03919091166c010000000000000000000000000260208301526034820152605401604051908190039020905082811115610c4e57600080fd5b93909314949350505050565b60075481565b600a5481565b600b5481565b600c5481565b600054600160a060020a031681565b60028054600181600116156101000203166002900480601f0160208091040260200160405190810160405280929190818152602001828054600181600116156101000203166002900480156106d85780601f106106ad576101008083540402835291602001916106d8565b600080823386604051928352600160a060020a03919091166c01000000000000000000000000026020830152603482015260540160405190819003902095945050505050565b600160a060020a033316600090815260156020526040812054610d5b908363ffffffff61116516565b600160a060020a033381166000908152601560205260408082209390935590851681522054610d90908363ffffffff6110b816565b600160a060020a0380851660008181526015602052604090819020939093559133909116907fddf252ad1be2c89b69c2b068fc378daa952ba7f163c4a11628f55a4df523b3ef9085905190815260200160405180910390a350600192915050565b60085481565b60105481565b600160a060020a03338116600081815260166020908152604080832094881680845294909152808220869055909291907f8c5be1e5ebec7d5bd14f71427d1e84f3dd0314c0f7b2291e5b200ac8c7c3b9259086905190815260200160405180910390a383600160a060020a0316638f4ffcb1338530866040518563ffffffff1660e060020a0281526004018085600160a060020a0316600160a060020a0316815260200184815260200183600160a060020a0316600160a060020a0316815260200180602001828103825283818151815260200191508051906020019080838360005b83811015610ef8578082015183820152602001610ee0565b50505050905090810190601f168015610f255780820380516001836020036101000a031916815260200191505b5095505050505050600060405180830381600087803b1515610f4657600080fd5b6102c65a03f11515610f5757600080fd5b5060019695505050505050565b60065481565b600154600160a060020a031681565b6000805433600160a060020a03908116911614610f9557600080fd5b60008054600160a060020a038086169263a9059cbb929091169085906040516020015260405160e060020a63ffffffff8516028152600160a060020a0390921660048301526024820152604401602060405180830381600087803b1515610ffb57600080fd5b6102c65a03f1151561100c57600080fd5b5050506040518051949350505050565b60095481565b600160a060020a03918216600090815260166020908152604080832093909416825291909152205490565b60005433600160a060020a0390811691161461106857600080fd5b6001805473ffffffffffffffffffffffffffffffffffffffff1916600160a060020a0392909216919091179055565b60008082116110a557600080fd5b81838115156110b057fe5b049392505050565b8181018281101561074757600080fd5b600e546110e56110d6610a5f565b6014549063ffffffff6110b816565b1180156110f457506027600d54105b1561110357600d805460010190555b600d5460055461111e9160010160020a63ffffffff61109716565b60055403600e5560075461113990600163ffffffff6110b816565b60078190556008549081151561114b57fe5b06151561115a5761115a61117a565b600019430140600c55565b60008282111561117457600080fd5b50900390565b600654600854439190910390603c8102600080808084871015611220576111b8876111ac87606463ffffffff6112b416565b9063ffffffff61109716565b93506111dd6103e86111d186606463ffffffff61116516565b9063ffffffff6112d916565b9250611218611209846111fd6107d0600b5461109790919063ffffffff16565b9063ffffffff6112b416565b600b549063ffffffff61116516565b600b55611281565b611235856111ac89606463ffffffff6112b416565b915061124e6103e86111d184606463ffffffff61116516565b905061127d61126e826111fd6107d0600b5461109790919063ffffffff16565b600b549063ffffffff6110b816565b600b555b43600655600954600b54101561129857600954600b555b600a54600b5411156112ab57600a54600b555b50505050505050565b8181028215806112ce57508183828115156112cb57fe5b04145b151561074757600080fd5b6000818311156112ea575080610747565b50909190505600a165627a7a723058204247932f7ab7398807c2fc5704ae0d6e7750286377828b0773ef160b2e8f32180029",
          "opcodes": "PUSH1 0x60 PUSH1 0x40 MSTORE PUSH2 0x400 PUSH1 0x8 SSTORE PUSH3 0x10000 PUSH1 0x9 SSTORE PUSH30 0x40000000000000000000000000000000000000000000000000000000000 PUSH1 0xA SSTORE PUSH1 0x12 DUP1 SLOAD PUSH1 0xFF NOT AND SWAP1 SSTORE CALLVALUE ISZERO PUSH3 0x49 JUMPI PUSH1 0x0 DUP1 REVERT JUMPDEST PUSH1 0x0 DUP1 SLOAD PUSH1 0x1 PUSH1 0xA0 PUSH1 0x2 EXP SUB CALLER DUP2 AND PUSH1 0x1 PUSH1 0xA0 PUSH1 0x2 EXP SUB NOT SWAP1 SWAP3 AND DUP3 OR SWAP3 DUP4 SWAP1 SSTORE SWAP2 SWAP1 SWAP2 AND EQ PUSH3 0x79 JUMPI PUSH1 0x0 DUP1 REVERT JUMPDEST PUSH1 0x40 DUP1 MLOAD SWAP1 DUP2 ADD PUSH1 0x40 MSTORE PUSH1 0x5 DUP2 MSTORE PUSH32 0x3078425443000000000000000000000000000000000000000000000000000000 PUSH1 0x20 DUP3 ADD MSTORE PUSH1 0x2 SWAP1 DUP1 MLOAD PUSH3 0xC2 SWAP3 SWAP2 PUSH1 0x20 ADD SWAP1 PUSH3 0x4FD JUMP JUMPDEST POP PUSH1 0x40 DUP1 MLOAD SWAP1 DUP2 ADD PUSH1 0x40 MSTORE PUSH1 0xF DUP2 MSTORE PUSH32 0x3078426974636F696E20546F6B656E0000000000000000000000000000000000 PUSH1 0x20 DUP3 ADD MSTORE PUSH1 0x3 SWAP1 DUP1 MLOAD PUSH3 0x10C SWAP3 SWAP2 PUSH1 0x20 ADD SWAP1 PUSH3 0x4FD JUMP JUMPDEST POP PUSH1 0x4 DUP1 SLOAD PUSH1 0xFF NOT AND PUSH1 0x8 OR SWAP1 DUP2 SWAP1 SSTORE PUSH4 0x1406F40 PUSH1 0xFF SWAP2 DUP3 AND PUSH1 0xA EXP MUL PUSH1 0x5 SSTORE PUSH1 0x12 SLOAD AND ISZERO PUSH3 0x13C JUMPI PUSH1 0x0 DUP1 REVERT JUMPDEST PUSH1 0x12 DUP1 SLOAD PUSH1 0xFF NOT AND PUSH1 0x1 OR SWAP1 SSTORE PUSH1 0x0 PUSH1 0x14 DUP2 SWAP1 SSTORE PUSH1 0xD SSTORE PUSH1 0x5 SLOAD PUSH3 0x171 SWAP1 PUSH1 0x2 PUSH5 0x100000000 PUSH3 0x1097 PUSH3 0x19C DUP3 MUL OR DIV JUMP JUMPDEST PUSH1 0xE SSTORE PUSH1 0xA SLOAD PUSH1 0xB SSTORE NUMBER PUSH1 0x6 SSTORE PUSH3 0x196 PUSH5 0x100000000 PUSH3 0x10C8 PUSH3 0x1BF DUP3 MUL OR DIV JUMP JUMPDEST PUSH3 0x59F JUMP JUMPDEST PUSH1 0x0 DUP1 DUP3 GT PUSH3 0x1AB JUMPI PUSH1 0x0 DUP1 REVERT JUMPDEST DUP2 DUP4 DUP2 ISZERO ISZERO PUSH3 0x1B7 JUMPI INVALID JUMPDEST DIV SWAP4 SWAP3 POP POP POP JUMP JUMPDEST PUSH1 0xE SLOAD PUSH3 0x1F6 PUSH3 0x1DE PUSH5 0x100000000 PUSH3 0xA5F PUSH3 0x29E DUP3 MUL OR DIV JUMP JUMPDEST PUSH1 0x14 SLOAD SWAP1 PUSH5 0x100000000 PUSH3 0x10B8 PUSH3 0x2D3 DUP3 MUL OR DIV JUMP JUMPDEST GT DUP1 ISZERO PUSH3 0x206 JUMPI POP PUSH1 0x27 PUSH1 0xD SLOAD LT JUMPDEST ISZERO PUSH3 0x216 JUMPI PUSH1 0xD DUP1 SLOAD PUSH1 0x1 ADD SWAP1 SSTORE JUMPDEST PUSH1 0xD SLOAD PUSH1 0x5 SLOAD PUSH3 0x23B SWAP2 PUSH1 0x1 ADD PUSH1 0x2 EXP PUSH5 0x100000000 PUSH3 0x1097 PUSH3 0x19C DUP3 MUL OR DIV JUMP JUMPDEST PUSH1 0x5 SLOAD SUB PUSH1 0xE SSTORE PUSH1 0x7 SLOAD PUSH3 0x260 SWAP1 PUSH1 0x1 PUSH5 0x100000000 PUSH3 0x10B8 PUSH3 0x2D3 DUP3 MUL OR DIV JUMP JUMPDEST PUSH1 0x7 DUP2 SWAP1 SSTORE PUSH1 0x8 SLOAD SWAP1 DUP2 ISZERO ISZERO PUSH3 0x273 JUMPI INVALID JUMPDEST MOD ISZERO ISZERO PUSH3 0x293 JUMPI PUSH3 0x293 PUSH5 0x100000000 PUSH3 0x117A PUSH3 0x2EA DUP3 MUL OR DIV JUMP JUMPDEST PUSH1 0x0 NOT NUMBER ADD BLOCKHASH PUSH1 0xC SSTORE JUMP JUMPDEST PUSH1 0xD SLOAD PUSH1 0x4 SLOAD PUSH1 0x0 SWAP2 PUSH3 0x2CD SWAP2 PUSH1 0xFF AND PUSH1 0xA EXP PUSH1 0x32 MUL SWAP1 PUSH1 0x2 EXP PUSH5 0x100000000 PUSH3 0x19C DUP2 MUL PUSH3 0x1097 OR DIV JUMP JUMPDEST SWAP1 POP JUMPDEST SWAP1 JUMP JUMPDEST DUP2 DUP2 ADD DUP3 DUP2 LT ISZERO PUSH3 0x2E4 JUMPI PUSH1 0x0 DUP1 REVERT JUMPDEST SWAP3 SWAP2 POP POP JUMP JUMPDEST PUSH1 0x6 SLOAD PUSH1 0x8 SLOAD NUMBER SWAP2 SWAP1 SWAP2 SUB SWAP1 PUSH1 0x3C DUP2 MUL PUSH1 0x0 DUP1 DUP1 DUP1 DUP5 DUP8 LT ISZERO PUSH3 0x3DE JUMPI PUSH3 0x33D DUP8 PUSH3 0x328 DUP8 PUSH1 0x64 PUSH5 0x100000000 PUSH3 0x12B4 PUSH3 0x4A5 DUP3 MUL OR DIV JUMP JUMPDEST SWAP1 PUSH5 0x100000000 PUSH3 0x1097 PUSH3 0x19C DUP3 MUL OR DIV JUMP JUMPDEST SWAP4 POP PUSH3 0x376 PUSH2 0x3E8 PUSH3 0x361 DUP7 PUSH1 0x64 PUSH5 0x100000000 PUSH3 0x1165 PUSH3 0x4CD DUP3 MUL OR DIV JUMP JUMPDEST SWAP1 PUSH5 0x100000000 PUSH3 0x12D9 PUSH3 0x4E3 DUP3 MUL OR DIV JUMP JUMPDEST SWAP3 POP PUSH3 0x3D5 PUSH3 0x3BD DUP5 PUSH3 0x3A8 PUSH2 0x7D0 PUSH1 0xB SLOAD PUSH3 0x19C PUSH5 0x100000000 MUL PUSH3 0x1097 OR SWAP1 SWAP2 SWAP1 PUSH5 0x100000000 SWAP1 DIV JUMP JUMPDEST SWAP1 PUSH5 0x100000000 PUSH3 0x12B4 PUSH3 0x4A5 DUP3 MUL OR DIV JUMP JUMPDEST PUSH1 0xB SLOAD SWAP1 PUSH5 0x100000000 PUSH3 0x1165 PUSH3 0x4CD DUP3 MUL OR DIV JUMP JUMPDEST PUSH1 0xB SSTORE PUSH3 0x470 JUMP JUMPDEST PUSH3 0x3FE DUP6 PUSH3 0x328 DUP10 PUSH1 0x64 PUSH5 0x100000000 PUSH3 0x12B4 PUSH3 0x4A5 DUP3 MUL OR DIV JUMP JUMPDEST SWAP2 POP PUSH3 0x422 PUSH2 0x3E8 PUSH3 0x361 DUP5 PUSH1 0x64 PUSH5 0x100000000 PUSH3 0x1165 PUSH3 0x4CD DUP3 MUL OR DIV JUMP JUMPDEST SWAP1 POP PUSH3 0x46C PUSH3 0x454 DUP3 PUSH3 0x3A8 PUSH2 0x7D0 PUSH1 0xB SLOAD PUSH3 0x19C PUSH5 0x100000000 MUL PUSH3 0x1097 OR SWAP1 SWAP2 SWAP1 PUSH5 0x100000000 SWAP1 DIV JUMP JUMPDEST PUSH1 0xB SLOAD SWAP1 PUSH5 0x100000000 PUSH3 0x10B8 PUSH3 0x2D3 DUP3 MUL OR DIV JUMP JUMPDEST PUSH1 0xB SSTORE JUMPDEST NUMBER PUSH1 0x6 SSTORE PUSH1 0x9 SLOAD PUSH1 0xB SLOAD LT ISZERO PUSH3 0x488 JUMPI PUSH1 0x9 SLOAD PUSH1 0xB SSTORE JUMPDEST PUSH1 0xA SLOAD PUSH1 0xB SLOAD GT ISZERO PUSH3 0x49C JUMPI PUSH1 0xA SLOAD PUSH1 0xB SSTORE JUMPDEST POP POP POP POP POP POP POP JUMP JUMPDEST DUP2 DUP2 MUL DUP3 ISZERO DUP1 PUSH3 0x4C1 JUMPI POP DUP2 DUP4 DUP3 DUP2 ISZERO ISZERO PUSH3 0x4BE JUMPI INVALID JUMPDEST DIV EQ JUMPDEST ISZERO ISZERO PUSH3 0x2E4 JUMPI PUSH1 0x0 DUP1 REVERT JUMPDEST PUSH1 0x0 DUP3 DUP3 GT ISZERO PUSH3 0x4DD JUMPI PUSH1 0x0 DUP1 REVERT JUMPDEST POP SWAP1 SUB SWAP1 JUMP JUMPDEST PUSH1 0x0 DUP2 DUP4 GT ISZERO PUSH3 0x4F6 JUMPI POP DUP1 PUSH3 0x2E4 JUMP JUMPDEST POP SWAP1 SWAP2 SWAP1 POP JUMP JUMPDEST DUP3 DUP1 SLOAD PUSH1 0x1 DUP2 PUSH1 0x1 AND ISZERO PUSH2 0x100 MUL SUB AND PUSH1 0x2 SWAP1 DIV SWAP1 PUSH1 0x0 MSTORE PUSH1 0x20 PUSH1 0x0 KECCAK256 SWAP1 PUSH1 0x1F ADD PUSH1 0x20 SWAP1 DIV DUP2 ADD SWAP3 DUP3 PUSH1 0x1F LT PUSH3 0x540 JUMPI DUP1 MLOAD PUSH1 0xFF NOT AND DUP4 DUP1 ADD OR DUP6 SSTORE PUSH3 0x570 JUMP JUMPDEST DUP3 DUP1 ADD PUSH1 0x1 ADD DUP6 SSTORE DUP3 ISZERO PUSH3 0x570 JUMPI SWAP2 DUP3 ADD JUMPDEST DUP3 DUP2 GT ISZERO PUSH3 0x570 JUMPI DUP3 MLOAD DUP3 SSTORE SWAP2 PUSH1 0x20 ADD SWAP2 SWAP1 PUSH1 0x1 ADD SWAP1 PUSH3 0x553 JUMP JUMPDEST POP PUSH3 0x57E SWAP3 SWAP2 POP PUSH3 0x582 JUMP JUMPDEST POP SWAP1 JUMP JUMPDEST PUSH3 0x2D0 SWAP2 SWAP1 JUMPDEST DUP1 DUP3 GT ISZERO PUSH3 0x57E JUMPI PUSH1 0x0 DUP2 SSTORE PUSH1 0x1 ADD PUSH3 0x589 JUMP JUMPDEST PUSH2 0x131D DUP1 PUSH3 0x5AF PUSH1 0x0 CODECOPY PUSH1 0x0 RETURN STOP PUSH1 0x60 PUSH1 0x40 MSTORE PUSH1 0x4 CALLDATASIZE LT PUSH2 0x1BE JUMPI PUSH4 0xFFFFFFFF PUSH1 0xE0 PUSH1 0x2 EXP PUSH1 0x0 CALLDATALOAD DIV AND PUSH4 0x6FDDE03 DUP2 EQ PUSH2 0x1C3 JUMPI DUP1 PUSH4 0x95EA7B3 EQ PUSH2 0x24D JUMPI DUP1 PUSH4 0x163AA00D EQ PUSH2 0x283 JUMPI DUP1 PUSH4 0x17DA485F EQ PUSH2 0x2A8 JUMPI DUP1 PUSH4 0x1801FBE5 EQ PUSH2 0x2BB JUMPI DUP1 PUSH4 0x18160DDD EQ PUSH2 0x2D4 JUMPI DUP1 PUSH4 0x23B872DD EQ PUSH2 0x2E7 JUMPI DUP1 PUSH4 0x2D38BF7A EQ PUSH2 0x30F JUMPI DUP1 PUSH4 0x313CE567 EQ PUSH2 0x322 JUMPI DUP1 PUSH4 0x32E99708 EQ PUSH2 0x34B JUMPI DUP1 PUSH4 0x3EAAF86B EQ PUSH2 0x35E JUMPI DUP1 PUSH4 0x490203A7 EQ PUSH2 0x371 JUMPI DUP1 PUSH4 0x4EF37628 EQ PUSH2 0x384 JUMPI DUP1 PUSH4 0x4FA972E1 EQ PUSH2 0x397 JUMPI DUP1 PUSH4 0x5515A1EA EQ PUSH2 0x3AA JUMPI DUP1 PUSH4 0x5CE7E030 EQ PUSH2 0x3BD JUMPI DUP1 PUSH4 0x6DE9F32B EQ PUSH2 0x3D5 JUMPI DUP1 PUSH4 0x6FD396D6 EQ PUSH2 0x3E8 JUMPI DUP1 PUSH4 0x70A08231 EQ PUSH2 0x417 JUMPI DUP1 PUSH4 0x79BA5097 EQ PUSH2 0x436 JUMPI DUP1 PUSH4 0x81269A56 EQ PUSH2 0x449 JUMPI DUP1 PUSH4 0x829965CC EQ PUSH2 0x468 JUMPI DUP1 PUSH4 0x87A2A9D6 EQ PUSH2 0x47B JUMPI DUP1 PUSH4 0x8A769D35 EQ PUSH2 0x48E JUMPI DUP1 PUSH4 0x8AE0368B EQ PUSH2 0x4A1 JUMPI DUP1 PUSH4 0x8DA5CB5B EQ PUSH2 0x4B4 JUMPI DUP1 PUSH4 0x95D89B41 EQ PUSH2 0x4C7 JUMPI DUP1 PUSH4 0x97566AA0 EQ PUSH2 0x4DA JUMPI DUP1 PUSH4 0xA9059CBB EQ PUSH2 0x4F6 JUMPI DUP1 PUSH4 0xB5ADE81B EQ PUSH2 0x518 JUMPI DUP1 PUSH4 0xBAFEDCAA EQ PUSH2 0x52B JUMPI DUP1 PUSH4 0xCAE9CA51 EQ PUSH2 0x53E JUMPI DUP1 PUSH4 0xCB9AE707 EQ PUSH2 0x5A3 JUMPI DUP1 PUSH4 0xD4EE1D90 EQ PUSH2 0x5B6 JUMPI DUP1 PUSH4 0xDC39D06D EQ PUSH2 0x5C9 JUMPI DUP1 PUSH4 0xDC6E9CF9 EQ PUSH2 0x5EB JUMPI DUP1 PUSH4 0xDD62ED3E EQ PUSH2 0x5FE JUMPI DUP1 PUSH4 0xF2FDE38B EQ PUSH2 0x623 JUMPI JUMPDEST PUSH1 0x0 DUP1 REVERT JUMPDEST CALLVALUE ISZERO PUSH2 0x1CE JUMPI PUSH1 0x0 DUP1 REVERT JUMPDEST PUSH2 0x1D6 PUSH2 0x642 JUMP JUMPDEST PUSH1 0x40 MLOAD PUSH1 0x20 DUP1 DUP3 MSTORE DUP2 SWAP1 DUP2 ADD DUP4 DUP2 DUP2 MLOAD DUP2 MSTORE PUSH1 0x20 ADD SWAP2 POP DUP1 MLOAD SWAP1 PUSH1 0x20 ADD SWAP1 DUP1 DUP4 DUP4 PUSH1 0x0 JUMPDEST DUP4 DUP2 LT ISZERO PUSH2 0x212 JUMPI DUP1 DUP3 ADD MLOAD DUP4 DUP3 ADD MSTORE PUSH1 0x20 ADD PUSH2 0x1FA JUMP JUMPDEST POP POP POP POP SWAP1 POP SWAP1 DUP2 ADD SWAP1 PUSH1 0x1F AND DUP1 ISZERO PUSH2 0x23F JUMPI DUP1 DUP3 SUB DUP1 MLOAD PUSH1 0x1 DUP4 PUSH1 0x20 SUB PUSH2 0x100 EXP SUB NOT AND DUP2 MSTORE PUSH1 0x20 ADD SWAP2 POP JUMPDEST POP SWAP3 POP POP POP PUSH1 0x40 MLOAD DUP1 SWAP2 SUB SWAP1 RETURN JUMPDEST CALLVALUE ISZERO PUSH2 0x258 JUMPI PUSH1 0x0 DUP1 REVERT JUMPDEST PUSH2 0x26F PUSH1 0x1 PUSH1 0xA0 PUSH1 0x2 EXP SUB PUSH1 0x4 CALLDATALOAD AND PUSH1 0x24 CALLDATALOAD PUSH2 0x6E0 JUMP JUMPDEST PUSH1 0x40 MLOAD SWAP1 ISZERO ISZERO DUP2 MSTORE PUSH1 0x20 ADD PUSH1 0x40 MLOAD DUP1 SWAP2 SUB SWAP1 RETURN JUMPDEST CALLVALUE ISZERO PUSH2 0x28E JUMPI PUSH1 0x0 DUP1 REVERT JUMPDEST PUSH2 0x296 PUSH2 0x74D JUMP JUMPDEST PUSH1 0x40 MLOAD SWAP1 DUP2 MSTORE PUSH1 0x20 ADD PUSH1 0x40 MLOAD DUP1 SWAP2 SUB SWAP1 RETURN JUMPDEST CALLVALUE ISZERO PUSH2 0x2B3 JUMPI PUSH1 0x0 DUP1 REVERT JUMPDEST PUSH2 0x296 PUSH2 0x753 JUMP JUMPDEST CALLVALUE ISZERO PUSH2 0x2C6 JUMPI PUSH1 0x0 DUP1 REVERT JUMPDEST PUSH2 0x26F PUSH1 0x4 CALLDATALOAD PUSH1 0x24 CALLDATALOAD PUSH2 0x771 JUMP JUMPDEST CALLVALUE ISZERO PUSH2 0x2DF JUMPI PUSH1 0x0 DUP1 REVERT JUMPDEST PUSH2 0x296 PUSH2 0x8FF JUMP JUMPDEST CALLVALUE ISZERO PUSH2 0x2F2 JUMPI PUSH1 0x0 DUP1 REVERT JUMPDEST PUSH2 0x26F PUSH1 0x1 PUSH1 0xA0 PUSH1 0x2 EXP SUB PUSH1 0x4 CALLDATALOAD DUP2 AND SWAP1 PUSH1 0x24 CALLDATALOAD AND PUSH1 0x44 CALLDATALOAD PUSH2 0x931 JUMP JUMPDEST CALLVALUE ISZERO PUSH2 0x31A JUMPI PUSH1 0x0 DUP1 REVERT JUMPDEST PUSH2 0x296 PUSH2 0xA44 JUMP JUMPDEST CALLVALUE ISZERO PUSH2 0x32D JUMPI PUSH1 0x0 DUP1 REVERT JUMPDEST PUSH2 0x335 PUSH2 0xA4A JUMP JUMPDEST PUSH1 0x40 MLOAD PUSH1 0xFF SWAP1 SWAP2 AND DUP2 MSTORE PUSH1 0x20 ADD PUSH1 0x40 MLOAD DUP1 SWAP2 SUB SWAP1 RETURN JUMPDEST CALLVALUE ISZERO PUSH2 0x356 JUMPI PUSH1 0x0 DUP1 REVERT JUMPDEST PUSH2 0x296 PUSH2 0xA53 JUMP JUMPDEST CALLVALUE ISZERO PUSH2 0x369 JUMPI PUSH1 0x0 DUP1 REVERT JUMPDEST PUSH2 0x296 PUSH2 0xA59 JUMP JUMPDEST CALLVALUE ISZERO PUSH2 0x37C JUMPI PUSH1 0x0 DUP1 REVERT JUMPDEST PUSH2 0x296 PUSH2 0xA5F JUMP JUMPDEST CALLVALUE ISZERO PUSH2 0x38F JUMPI PUSH1 0x0 DUP1 REVERT JUMPDEST PUSH2 0x296 PUSH2 0xA7E JUMP JUMPDEST CALLVALUE ISZERO PUSH2 0x3A2 JUMPI PUSH1 0x0 DUP1 REVERT JUMPDEST PUSH2 0x296 PUSH2 0xA84 JUMP JUMPDEST CALLVALUE ISZERO PUSH2 0x3B5 JUMPI PUSH1 0x0 DUP1 REVERT JUMPDEST PUSH2 0x26F PUSH2 0xA8A JUMP JUMPDEST CALLVALUE ISZERO PUSH2 0x3C8 JUMPI PUSH1 0x0 DUP1 REVERT JUMPDEST PUSH2 0x3D3 PUSH1 0x4 CALLDATALOAD PUSH2 0xB3F JUMP JUMPDEST STOP JUMPDEST CALLVALUE ISZERO PUSH2 0x3E0 JUMPI PUSH1 0x0 DUP1 REVERT JUMPDEST PUSH2 0x296 PUSH2 0xB44 JUMP JUMPDEST CALLVALUE ISZERO PUSH2 0x3F3 JUMPI PUSH1 0x0 DUP1 REVERT JUMPDEST PUSH2 0x3FB PUSH2 0xB4A JUMP JUMPDEST PUSH1 0x40 MLOAD PUSH1 0x1 PUSH1 0xA0 PUSH1 0x2 EXP SUB SWAP1 SWAP2 AND DUP2 MSTORE PUSH1 0x20 ADD PUSH1 0x40 MLOAD DUP1 SWAP2 SUB SWAP1 RETURN JUMPDEST CALLVALUE ISZERO PUSH2 0x422 JUMPI PUSH1 0x0 DUP1 REVERT JUMPDEST PUSH2 0x296 PUSH1 0x1 PUSH1 0xA0 PUSH1 0x2 EXP SUB PUSH1 0x4 CALLDATALOAD AND PUSH2 0xB59 JUMP JUMPDEST CALLVALUE ISZERO PUSH2 0x441 JUMPI PUSH1 0x0 DUP1 REVERT JUMPDEST PUSH2 0x3D3 PUSH2 0xB74 JUMP JUMPDEST CALLVALUE ISZERO PUSH2 0x454 JUMPI PUSH1 0x0 DUP1 REVERT JUMPDEST PUSH2 0x26F PUSH1 0x4 CALLDATALOAD PUSH1 0x24 CALLDATALOAD PUSH1 0x44 CALLDATALOAD PUSH1 0x64 CALLDATALOAD PUSH2 0xC02 JUMP JUMPDEST CALLVALUE ISZERO PUSH2 0x473 JUMPI PUSH1 0x0 DUP1 REVERT JUMPDEST PUSH2 0x296 PUSH2 0xC5A JUMP JUMPDEST CALLVALUE ISZERO PUSH2 0x486 JUMPI PUSH1 0x0 DUP1 REVERT JUMPDEST PUSH2 0x296 PUSH2 0xC60 JUMP JUMPDEST CALLVALUE ISZERO PUSH2 0x499 JUMPI PUSH1 0x0 DUP1 REVERT JUMPDEST PUSH2 0x296 PUSH2 0xC66 JUMP JUMPDEST CALLVALUE ISZERO PUSH2 0x4AC JUMPI PUSH1 0x0 DUP1 REVERT JUMPDEST PUSH2 0x296 PUSH2 0xC6C JUMP JUMPDEST CALLVALUE ISZERO PUSH2 0x4BF JUMPI PUSH1 0x0 DUP1 REVERT JUMPDEST PUSH2 0x3FB PUSH2 0xC72 JUMP JUMPDEST CALLVALUE ISZERO PUSH2 0x4D2 JUMPI PUSH1 0x0 DUP1 REVERT JUMPDEST PUSH2 0x1D6 PUSH2 0xC81 JUMP JUMPDEST CALLVALUE ISZERO PUSH2 0x4E5 JUMPI PUSH1 0x0 DUP1 REVERT JUMPDEST PUSH2 0x296 PUSH1 0x4 CALLDATALOAD PUSH1 0x24 CALLDATALOAD PUSH1 0x44 CALLDATALOAD PUSH2 0xCEC JUMP JUMPDEST CALLVALUE ISZERO PUSH2 0x501 JUMPI PUSH1 0x0 DUP1 REVERT JUMPDEST PUSH2 0x26F PUSH1 0x1 PUSH1 0xA0 PUSH1 0x2 EXP SUB PUSH1 0x4 CALLDATALOAD AND PUSH1 0x24 CALLDATALOAD PUSH2 0xD32 JUMP JUMPDEST CALLVALUE ISZERO PUSH2 0x523 JUMPI PUSH1 0x0 DUP1 REVERT JUMPDEST PUSH2 0x296 PUSH2 0xDF1 JUMP JUMPDEST CALLVALUE ISZERO PUSH2 0x536 JUMPI PUSH1 0x0 DUP1 REVERT JUMPDEST PUSH2 0x296 PUSH2 0xDF7 JUMP JUMPDEST CALLVALUE ISZERO PUSH2 0x549 JUMPI PUSH1 0x0 DUP1 REVERT JUMPDEST PUSH2 0x26F PUSH1 0x4 DUP1 CALLDATALOAD PUSH1 0x1 PUSH1 0xA0 PUSH1 0x2 EXP SUB AND SWAP1 PUSH1 0x24 DUP1 CALLDATALOAD SWAP2 SWAP1 PUSH1 0x64 SWAP1 PUSH1 0x44 CALLDATALOAD SWAP1 DUP2 ADD SWAP1 DUP4 ADD CALLDATALOAD DUP1 PUSH1 0x20 PUSH1 0x1F DUP3 ADD DUP2 SWAP1 DIV DUP2 MUL ADD PUSH1 0x40 MLOAD SWAP1 DUP2 ADD PUSH1 0x40 MSTORE DUP2 DUP2 MSTORE SWAP3 SWAP2 SWAP1 PUSH1 0x20 DUP5 ADD DUP4 DUP4 DUP1 DUP3 DUP5 CALLDATACOPY POP SWAP5 SWAP7 POP PUSH2 0xDFD SWAP6 POP POP POP POP POP POP JUMP JUMPDEST CALLVALUE ISZERO PUSH2 0x5AE JUMPI PUSH1 0x0 DUP1 REVERT JUMPDEST PUSH2 0x296 PUSH2 0xF64 JUMP JUMPDEST CALLVALUE ISZERO PUSH2 0x5C1 JUMPI PUSH1 0x0 DUP1 REVERT JUMPDEST PUSH2 0x3FB PUSH2 0xF6A JUMP JUMPDEST CALLVALUE ISZERO PUSH2 0x5D4 JUMPI PUSH1 0x0 DUP1 REVERT JUMPDEST PUSH2 0x26F PUSH1 0x1 PUSH1 0xA0 PUSH1 0x2 EXP SUB PUSH1 0x4 CALLDATALOAD AND PUSH1 0x24 CALLDATALOAD PUSH2 0xF79 JUMP JUMPDEST CALLVALUE ISZERO PUSH2 0x5F6 JUMPI PUSH1 0x0 DUP1 REVERT JUMPDEST PUSH2 0x296 PUSH2 0x101C JUMP JUMPDEST CALLVALUE ISZERO PUSH2 0x609 JUMPI PUSH1 0x0 DUP1 REVERT JUMPDEST PUSH2 0x296 PUSH1 0x1 PUSH1 0xA0 PUSH1 0x2 EXP SUB PUSH1 0x4 CALLDATALOAD DUP2 AND SWAP1 PUSH1 0x24 CALLDATALOAD AND PUSH2 0x1022 JUMP JUMPDEST CALLVALUE ISZERO PUSH2 0x62E JUMPI PUSH1 0x0 DUP1 REVERT JUMPDEST PUSH2 0x3D3 PUSH1 0x1 PUSH1 0xA0 PUSH1 0x2 EXP SUB PUSH1 0x4 CALLDATALOAD AND PUSH2 0x104D JUMP JUMPDEST PUSH1 0x3 DUP1 SLOAD PUSH1 0x1 DUP2 PUSH1 0x1 AND ISZERO PUSH2 0x100 MUL SUB AND PUSH1 0x2 SWAP1 DIV DUP1 PUSH1 0x1F ADD PUSH1 0x20 DUP1 SWAP2 DIV MUL PUSH1 0x20 ADD PUSH1 0x40 MLOAD SWAP1 DUP2 ADD PUSH1 0x40 MSTORE DUP1 SWAP3 SWAP2 SWAP1 DUP2 DUP2 MSTORE PUSH1 0x20 ADD DUP3 DUP1 SLOAD PUSH1 0x1 DUP2 PUSH1 0x1 AND ISZERO PUSH2 0x100 MUL SUB AND PUSH1 0x2 SWAP1 DIV DUP1 ISZERO PUSH2 0x6D8 JUMPI DUP1 PUSH1 0x1F LT PUSH2 0x6AD JUMPI PUSH2 0x100 DUP1 DUP4 SLOAD DIV MUL DUP4 MSTORE SWAP2 PUSH1 0x20 ADD SWAP2 PUSH2 0x6D8 JUMP JUMPDEST DUP3 ADD SWAP2 SWAP1 PUSH1 0x0 MSTORE PUSH1 0x20 PUSH1 0x0 KECCAK256 SWAP1 JUMPDEST DUP2 SLOAD DUP2 MSTORE SWAP1 PUSH1 0x1 ADD SWAP1 PUSH1 0x20 ADD DUP1 DUP4 GT PUSH2 0x6BB JUMPI DUP3 SWAP1 SUB PUSH1 0x1F AND DUP3 ADD SWAP2 JUMPDEST POP POP POP POP POP DUP2 JUMP JUMPDEST PUSH1 0x1 PUSH1 0xA0 PUSH1 0x2 EXP SUB CALLER DUP2 AND PUSH1 0x0 DUP2 DUP2 MSTORE PUSH1 0x16 PUSH1 0x20 SWAP1 DUP2 MSTORE PUSH1 0x40 DUP1 DUP4 KECCAK256 SWAP5 DUP8 AND DUP1 DUP5 MSTORE SWAP5 SWAP1 SWAP2 MSTORE DUP1 DUP3 KECCAK256 DUP6 SWAP1 SSTORE SWAP1 SWAP3 SWAP2 SWAP1 PUSH32 0x8C5BE1E5EBEC7D5BD14F71427D1E84F3DD0314C0F7B2291E5B200AC8C7C3B925 SWAP1 DUP6 SWAP1 MLOAD SWAP1 DUP2 MSTORE PUSH1 0x20 ADD PUSH1 0x40 MLOAD DUP1 SWAP2 SUB SWAP1 LOG3 POP PUSH1 0x1 JUMPDEST SWAP3 SWAP2 POP POP JUMP JUMPDEST PUSH1 0x11 SLOAD DUP2 JUMP JUMPDEST PUSH1 0x0 PUSH2 0x76C PUSH1 0xB SLOAD PUSH1 0xA SLOAD PUSH2 0x1097 SWAP1 SWAP2 SWAP1 PUSH4 0xFFFFFFFF AND JUMP JUMPDEST SWAP1 POP SWAP1 JUMP JUMPDEST PUSH1 0x0 DUP1 PUSH1 0x0 DUP1 PUSH1 0xC SLOAD CALLER DUP8 PUSH1 0x40 MLOAD SWAP3 DUP4 MSTORE PUSH1 0x1 PUSH1 0xA0 PUSH1 0x2 EXP SUB SWAP2 SWAP1 SWAP2 AND PUSH13 0x1000000000000000000000000 MUL PUSH1 0x20 DUP4 ADD MSTORE PUSH1 0x34 DUP3 ADD MSTORE PUSH1 0x54 ADD PUSH1 0x40 MLOAD SWAP1 DUP2 SWAP1 SUB SWAP1 KECCAK256 SWAP3 POP DUP5 DUP4 EQ PUSH2 0x7C1 JUMPI PUSH1 0x0 DUP1 REVERT JUMPDEST PUSH1 0xB SLOAD DUP4 GT ISZERO PUSH2 0x7D0 JUMPI PUSH1 0x0 DUP1 REVERT JUMPDEST PUSH1 0xC SLOAD PUSH1 0x0 SWAP1 DUP2 MSTORE PUSH1 0x13 PUSH1 0x20 MSTORE PUSH1 0x40 SWAP1 KECCAK256 DUP1 SLOAD SWAP1 DUP5 SWAP1 SSTORE SWAP2 POP DUP2 ISZERO PUSH2 0x7F4 JUMPI PUSH1 0x0 DUP1 REVERT JUMPDEST PUSH2 0x7FC PUSH2 0xA5F JUMP JUMPDEST PUSH1 0x1 PUSH1 0xA0 PUSH1 0x2 EXP SUB CALLER AND PUSH1 0x0 SWAP1 DUP2 MSTORE PUSH1 0x15 PUSH1 0x20 MSTORE PUSH1 0x40 SWAP1 KECCAK256 SLOAD SWAP1 SWAP2 POP PUSH2 0x828 SWAP1 DUP3 PUSH4 0xFFFFFFFF PUSH2 0x10B8 AND JUMP JUMPDEST PUSH1 0x1 PUSH1 0xA0 PUSH1 0x2 EXP SUB CALLER AND PUSH1 0x0 SWAP1 DUP2 MSTORE PUSH1 0x15 PUSH1 0x20 MSTORE PUSH1 0x40 SWAP1 KECCAK256 SSTORE PUSH1 0x14 SLOAD PUSH2 0x854 SWAP1 DUP3 PUSH4 0xFFFFFFFF PUSH2 0x10B8 AND JUMP JUMPDEST PUSH1 0x14 DUP2 SWAP1 SSTORE PUSH1 0xE SLOAD SWAP1 GT ISZERO PUSH2 0x865 JUMPI INVALID JUMPDEST PUSH1 0xF DUP1 SLOAD PUSH20 0xFFFFFFFFFFFFFFFFFFFFFFFFFFFFFFFFFFFFFFFF NOT AND CALLER PUSH1 0x1 PUSH1 0xA0 PUSH1 0x2 EXP SUB AND OR SWAP1 SSTORE PUSH1 0x10 DUP2 SWAP1 SSTORE NUMBER PUSH1 0x11 SSTORE PUSH2 0x89E PUSH2 0x10C8 JUMP JUMPDEST CALLER PUSH1 0x1 PUSH1 0xA0 PUSH1 0x2 EXP SUB AND PUSH32 0xCF6FBB9DCEA7D07263AB4F5C3A92F53AF33DFFC421D9D121E1C74B307E68189D DUP3 PUSH1 0x7 SLOAD PUSH1 0xC SLOAD PUSH1 0x40 MLOAD SWAP3 DUP4 MSTORE PUSH1 0x20 DUP4 ADD SWAP2 SWAP1 SWAP2 MSTORE PUSH1 0x40 DUP1 DUP4 ADD SWAP2 SWAP1 SWAP2 MSTORE PUSH1 0x60 SWAP1 SWAP2 ADD SWAP1 MLOAD DUP1 SWAP2 SUB SWAP1 LOG2 POP PUSH1 0x1 SWAP6 SWAP5 POP POP POP POP POP JUMP JUMPDEST PUSH1 0x0 DUP1 MSTORE PUSH1 0x15 PUSH1 0x20 MSTORE PUSH32 0xA31547CE6245CDB9ECEA19CF8C7EB9F5974025BB4075011409251AE855B30AED SLOAD PUSH1 0x5 SLOAD SUB SWAP1 JUMP JUMPDEST PUSH1 0x1 PUSH1 0xA0 PUSH1 0x2 EXP SUB DUP4 AND PUSH1 0x0 SWAP1 DUP2 MSTORE PUSH1 0x15 PUSH1 0x20 MSTORE PUSH1 0x40 DUP2 KECCAK256 SLOAD PUSH2 0x95A SWAP1 DUP4 PUSH4 0xFFFFFFFF PUSH2 0x1165 AND JUMP JUMPDEST PUSH1 0x1 PUSH1 0xA0 PUSH1 0x2 EXP SUB DUP1 DUP7 AND PUSH1 0x0 SWAP1 DUP2 MSTORE PUSH1 0x15 PUSH1 0x20 SWAP1 DUP2 MSTORE PUSH1 0x40 DUP1 DUP4 KECCAK256 SWAP5 SWAP1 SWAP5 SSTORE PUSH1 0x16 DUP2 MSTORE DUP4 DUP3 KECCAK256 CALLER SWAP1 SWAP4 AND DUP3 MSTORE SWAP2 SWAP1 SWAP2 MSTORE KECCAK256 SLOAD PUSH2 0x99D SWAP1 DUP4 PUSH4 0xFFFFFFFF PUSH2 0x1165 AND JUMP JUMPDEST PUSH1 0x1 PUSH1 0xA0 PUSH1 0x2 EXP SUB DUP1 DUP7 AND PUSH1 0x0 SWAP1 DUP2 MSTORE PUSH1 0x16 PUSH1 0x20 SWAP1 DUP2 MSTORE PUSH1 0x40 DUP1 DUP4 KECCAK256 CALLER DUP6 AND DUP5 MSTORE DUP3 MSTORE DUP1 DUP4 KECCAK256 SWAP5 SWAP1 SWAP5 SSTORE SWAP2 DUP7 AND DUP2 MSTORE PUSH1 0x15 SWAP1 SWAP2 MSTORE KECCAK256 SLOAD PUSH2 0x9E3 SWAP1 DUP4 PUSH4 0xFFFFFFFF PUSH2 0x10B8 AND JUMP JUMPDEST PUSH1 0x1 PUSH1 0xA0 PUSH1 0x2 EXP SUB DUP1 DUP6 AND PUSH1 0x0 DUP2 DUP2 MSTORE PUSH1 0x15 PUSH1 0x20 MSTORE PUSH1 0x40 SWAP1 DUP2 SWAP1 KECCAK256 SWAP4 SWAP1 SWAP4 SSTORE SWAP2 SWAP1 DUP7 AND SWAP1 PUSH32 0xDDF252AD1BE2C89B69C2B068FC378DAA952BA7F163C4A11628F55A4DF523B3EF SWAP1 DUP6 SWAP1 MLOAD SWAP1 DUP2 MSTORE PUSH1 0x20 ADD PUSH1 0x40 MLOAD DUP1 SWAP2 SUB SWAP1 LOG3 POP PUSH1 0x1 SWAP4 SWAP3 POP POP POP JUMP JUMPDEST PUSH1 0xD SLOAD DUP2 JUMP JUMPDEST PUSH1 0x4 SLOAD PUSH1 0xFF AND DUP2 JUMP JUMPDEST PUSH1 0xB SLOAD SWAP1 JUMP JUMPDEST PUSH1 0x5 SLOAD DUP2 JUMP JUMPDEST PUSH1 0xD SLOAD PUSH1 0x4 SLOAD PUSH1 0x0 SWAP2 PUSH2 0x76C SWAP2 PUSH1 0xFF AND PUSH1 0xA EXP PUSH1 0x32 MUL SWAP1 PUSH1 0x2 EXP PUSH2 0x1097 JUMP JUMPDEST PUSH1 0xC SLOAD SWAP1 JUMP JUMPDEST PUSH1 0xE SLOAD DUP2 JUMP JUMPDEST PUSH1 0x0 DUP1 PUSH2 0xA95 PUSH2 0xA5F JUMP JUMPDEST PUSH1 0x1 PUSH1 0xA0 PUSH1 0x2 EXP SUB CALLER AND PUSH1 0x0 SWAP1 DUP2 MSTORE PUSH1 0x15 PUSH1 0x20 MSTORE PUSH1 0x40 SWAP1 KECCAK256 SLOAD SWAP1 SWAP2 POP PUSH2 0xAC1 SWAP1 DUP3 PUSH4 0xFFFFFFFF PUSH2 0x10B8 AND JUMP JUMPDEST PUSH1 0x1 PUSH1 0xA0 PUSH1 0x2 EXP SUB CALLER AND PUSH1 0x0 SWAP1 DUP2 MSTORE PUSH1 0x15 PUSH1 0x20 MSTORE PUSH1 0x40 SWAP1 KECCAK256 SSTORE PUSH1 0x14 SLOAD PUSH2 0xAED SWAP1 DUP3 PUSH4 0xFFFFFFFF PUSH2 0x10B8 AND JUMP JUMPDEST PUSH1 0x14 DUP2 SWAP1 SSTORE PUSH1 0xE SLOAD SWAP1 GT ISZERO PUSH2 0xAFE JUMPI INVALID JUMPDEST PUSH1 0xF DUP1 SLOAD PUSH20 0xFFFFFFFFFFFFFFFFFFFFFFFFFFFFFFFFFFFFFFFF NOT AND CALLER PUSH1 0x1 PUSH1 0xA0 PUSH1 0x2 EXP SUB AND OR SWAP1 SSTORE PUSH1 0x10 DUP2 SWAP1 SSTORE NUMBER PUSH1 0x11 SSTORE PUSH2 0xB37 PUSH2 0x10C8 JUMP JUMPDEST PUSH1 0x1 SWAP2 POP POP SWAP1 JUMP JUMPDEST PUSH1 0x14 SSTORE JUMP JUMPDEST PUSH1 0x14 SLOAD DUP2 JUMP JUMPDEST PUSH1 0xF SLOAD PUSH1 0x1 PUSH1 0xA0 PUSH1 0x2 EXP SUB AND DUP2 JUMP JUMPDEST PUSH1 0x1 PUSH1 0xA0 PUSH1 0x2 EXP SUB AND PUSH1 0x0 SWAP1 DUP2 MSTORE PUSH1 0x15 PUSH1 0x20 MSTORE PUSH1 0x40 SWAP1 KECCAK256 SLOAD SWAP1 JUMP JUMPDEST PUSH1 0x1 SLOAD CALLER PUSH1 0x1 PUSH1 0xA0 PUSH1 0x2 EXP SUB SWAP1 DUP2 AND SWAP2 AND EQ PUSH2 0xB8F JUMPI PUSH1 0x0 DUP1 REVERT JUMPDEST PUSH1 0x1 SLOAD PUSH1 0x0 SLOAD PUSH1 0x1 PUSH1 0xA0 PUSH1 0x2 EXP SUB SWAP2 DUP3 AND SWAP2 AND PUSH32 0x8BE0079C531659141344CD1FD0A4F28419497F9722A3DAAFE3B4186F6B6457E0 PUSH1 0x40 MLOAD PUSH1 0x40 MLOAD DUP1 SWAP2 SUB SWAP1 LOG3 PUSH1 0x1 DUP1 SLOAD PUSH1 0x0 DUP1 SLOAD PUSH20 0xFFFFFFFFFFFFFFFFFFFFFFFFFFFFFFFFFFFFFFFF NOT SWAP1 DUP2 AND PUSH1 0x1 PUSH1 0xA0 PUSH1 0x2 EXP SUB DUP5 AND OR SWAP1 SWAP2 SSTORE AND SWAP1 SSTORE JUMP JUMPDEST PUSH1 0x0 DUP1 DUP4 CALLER DUP8 PUSH1 0x40 MLOAD SWAP3 DUP4 MSTORE PUSH1 0x1 PUSH1 0xA0 PUSH1 0x2 EXP SUB SWAP2 SWAP1 SWAP2 AND PUSH13 0x1000000000000000000000000 MUL PUSH1 0x20 DUP4 ADD MSTORE PUSH1 0x34 DUP3 ADD MSTORE PUSH1 0x54 ADD PUSH1 0x40 MLOAD SWAP1 DUP2 SWAP1 SUB SWAP1 KECCAK256 SWAP1 POP DUP3 DUP2 GT ISZERO PUSH2 0xC4E JUMPI PUSH1 0x0 DUP1 REVERT JUMPDEST SWAP4 SWAP1 SWAP4 EQ SWAP5 SWAP4 POP POP POP POP JUMP JUMPDEST PUSH1 0x7 SLOAD DUP2 JUMP JUMPDEST PUSH1 0xA SLOAD DUP2 JUMP JUMPDEST PUSH1 0xB SLOAD DUP2 JUMP JUMPDEST PUSH1 0xC SLOAD DUP2 JUMP JUMPDEST PUSH1 0x0 SLOAD PUSH1 0x1 PUSH1 0xA0 PUSH1 0x2 EXP SUB AND DUP2 JUMP JUMPDEST PUSH1 0x2 DUP1 SLOAD PUSH1 0x1 DUP2 PUSH1 0x1 AND ISZERO PUSH2 0x100 MUL SUB AND PUSH1 0x2 SWAP1 DIV DUP1 PUSH1 0x1F ADD PUSH1 0x20 DUP1 SWAP2 DIV MUL PUSH1 0x20 ADD PUSH1 0x40 MLOAD SWAP1 DUP2 ADD PUSH1 0x40 MSTORE DUP1 SWAP3 SWAP2 SWAP1 DUP2 DUP2 MSTORE PUSH1 0x20 ADD DUP3 DUP1 SLOAD PUSH1 0x1 DUP2 PUSH1 0x1 AND ISZERO PUSH2 0x100 MUL SUB AND PUSH1 0x2 SWAP1 DIV DUP1 ISZERO PUSH2 0x6D8 JUMPI DUP1 PUSH1 0x1F LT PUSH2 0x6AD JUMPI PUSH2 0x100 DUP1 DUP4 SLOAD DIV MUL DUP4 MSTORE SWAP2 PUSH1 0x20 ADD SWAP2 PUSH2 0x6D8 JUMP JUMPDEST PUSH1 0x0 DUP1 DUP3 CALLER DUP7 PUSH1 0x40 MLOAD SWAP3 DUP4 MSTORE PUSH1 0x1 PUSH1 0xA0 PUSH1 0x2 EXP SUB SWAP2 SWAP1 SWAP2 AND PUSH13 0x1000000000000000000000000 MUL PUSH1 0x20 DUP4 ADD MSTORE PUSH1 0x34 DUP3 ADD MSTORE PUSH1 0x54 ADD PUSH1 0x40 MLOAD SWAP1 DUP2 SWAP1 SUB SWAP1 KECCAK256 SWAP6 SWAP5 POP POP POP POP POP JUMP JUMPDEST PUSH1 0x1 PUSH1 0xA0 PUSH1 0x2 EXP SUB CALLER AND PUSH1 0x0 SWAP1 DUP2 MSTORE PUSH1 0x15 PUSH1 0x20 MSTORE PUSH1 0x40 DUP2 KECCAK256 SLOAD PUSH2 0xD5B SWAP1 DUP4 PUSH4 0xFFFFFFFF PUSH2 0x1165 AND JUMP JUMPDEST PUSH1 0x1 PUSH1 0xA0 PUSH1 0x2 EXP SUB CALLER DUP2 AND PUSH1 0x0 SWAP1 DUP2 MSTORE PUSH1 0x15 PUSH1 0x20 MSTORE PUSH1 0x40 DUP1 DUP3 KECCAK256 SWAP4 SWAP1 SWAP4 SSTORE SWAP1 DUP6 AND DUP2 MSTORE KECCAK256 SLOAD PUSH2 0xD90 SWAP1 DUP4 PUSH4 0xFFFFFFFF PUSH2 0x10B8 AND JUMP JUMPDEST PUSH1 0x1 PUSH1 0xA0 PUSH1 0x2 EXP SUB DUP1 DUP6 AND PUSH1 0x0 DUP2 DUP2 MSTORE PUSH1 0x15 PUSH1 0x20 MSTORE PUSH1 0x40 SWAP1 DUP2 SWAP1 KECCAK256 SWAP4 SWAP1 SWAP4 SSTORE SWAP2 CALLER SWAP1 SWAP2 AND SWAP1 PUSH32 0xDDF252AD1BE2C89B69C2B068FC378DAA952BA7F163C4A11628F55A4DF523B3EF SWAP1 DUP6 SWAP1 MLOAD SWAP1 DUP2 MSTORE PUSH1 0x20 ADD PUSH1 0x40 MLOAD DUP1 SWAP2 SUB SWAP1 LOG3 POP PUSH1 0x1 SWAP3 SWAP2 POP POP JUMP JUMPDEST PUSH1 0x8 SLOAD DUP2 JUMP JUMPDEST PUSH1 0x10 SLOAD DUP2 JUMP JUMPDEST PUSH1 0x1 PUSH1 0xA0 PUSH1 0x2 EXP SUB CALLER DUP2 AND PUSH1 0x0 DUP2 DUP2 MSTORE PUSH1 0x16 PUSH1 0x20 SWAP1 DUP2 MSTORE PUSH1 0x40 DUP1 DUP4 KECCAK256 SWAP5 DUP9 AND DUP1 DUP5 MSTORE SWAP5 SWAP1 SWAP2 MSTORE DUP1 DUP3 KECCAK256 DUP7 SWAP1 SSTORE SWAP1 SWAP3 SWAP2 SWAP1 PUSH32 0x8C5BE1E5EBEC7D5BD14F71427D1E84F3DD0314C0F7B2291E5B200AC8C7C3B925 SWAP1 DUP7 SWAP1 MLOAD SWAP1 DUP2 MSTORE PUSH1 0x20 ADD PUSH1 0x40 MLOAD DUP1 SWAP2 SUB SWAP1 LOG3 DUP4 PUSH1 0x1 PUSH1 0xA0 PUSH1 0x2 EXP SUB AND PUSH4 0x8F4FFCB1 CALLER DUP6 ADDRESS DUP7 PUSH1 0x40 MLOAD DUP6 PUSH4 0xFFFFFFFF AND PUSH1 0xE0 PUSH1 0x2 EXP MUL DUP2 MSTORE PUSH1 0x4 ADD DUP1 DUP6 PUSH1 0x1 PUSH1 0xA0 PUSH1 0x2 EXP SUB AND PUSH1 0x1 PUSH1 0xA0 PUSH1 0x2 EXP SUB AND DUP2 MSTORE PUSH1 0x20 ADD DUP5 DUP2 MSTORE PUSH1 0x20 ADD DUP4 PUSH1 0x1 PUSH1 0xA0 PUSH1 0x2 EXP SUB AND PUSH1 0x1 PUSH1 0xA0 PUSH1 0x2 EXP SUB AND DUP2 MSTORE PUSH1 0x20 ADD DUP1 PUSH1 0x20 ADD DUP3 DUP2 SUB DUP3 MSTORE DUP4 DUP2 DUP2 MLOAD DUP2 MSTORE PUSH1 0x20 ADD SWAP2 POP DUP1 MLOAD SWAP1 PUSH1 0x20 ADD SWAP1 DUP1 DUP4 DUP4 PUSH1 0x0 JUMPDEST DUP4 DUP2 LT ISZERO PUSH2 0xEF8 JUMPI DUP1 DUP3 ADD MLOAD DUP4 DUP3 ADD MSTORE PUSH1 0x20 ADD PUSH2 0xEE0 JUMP JUMPDEST POP POP POP POP SWAP1 POP SWAP1 DUP2 ADD SWAP1 PUSH1 0x1F AND DUP1 ISZERO PUSH2 0xF25 JUMPI DUP1 DUP3 SUB DUP1 MLOAD PUSH1 0x1 DUP4 PUSH1 0x20 SUB PUSH2 0x100 EXP SUB NOT AND DUP2 MSTORE PUSH1 0x20 ADD SWAP2 POP JUMPDEST POP SWAP6 POP POP POP POP POP POP PUSH1 0x0 PUSH1 0x40 MLOAD DUP1 DUP4 SUB DUP2 PUSH1 0x0 DUP8 DUP1 EXTCODESIZE ISZERO ISZERO PUSH2 0xF46 JUMPI PUSH1 0x0 DUP1 REVERT JUMPDEST PUSH2 0x2C6 GAS SUB CALL ISZERO ISZERO PUSH2 0xF57 JUMPI PUSH1 0x0 DUP1 REVERT JUMPDEST POP PUSH1 0x1 SWAP7 SWAP6 POP POP POP POP POP POP JUMP JUMPDEST PUSH1 0x6 SLOAD DUP2 JUMP JUMPDEST PUSH1 0x1 SLOAD PUSH1 0x1 PUSH1 0xA0 PUSH1 0x2 EXP SUB AND DUP2 JUMP JUMPDEST PUSH1 0x0 DUP1 SLOAD CALLER PUSH1 0x1 PUSH1 0xA0 PUSH1 0x2 EXP SUB SWAP1 DUP2 AND SWAP2 AND EQ PUSH2 0xF95 JUMPI PUSH1 0x0 DUP1 REVERT JUMPDEST PUSH1 0x0 DUP1 SLOAD PUSH1 0x1 PUSH1 0xA0 PUSH1 0x2 EXP SUB DUP1 DUP7 AND SWAP3 PUSH4 0xA9059CBB SWAP3 SWAP1 SWAP2 AND SWAP1 DUP6 SWAP1 PUSH1 0x40 MLOAD PUSH1 0x20 ADD MSTORE PUSH1 0x40 MLOAD PUSH1 0xE0 PUSH1 0x2 EXP PUSH4 0xFFFFFFFF DUP6 AND MUL DUP2 MSTORE PUSH1 0x1 PUSH1 0xA0 PUSH1 0x2 EXP SUB SWAP1 SWAP3 AND PUSH1 0x4 DUP4 ADD MSTORE PUSH1 0x24 DUP3 ADD MSTORE PUSH1 0x44 ADD PUSH1 0x20 PUSH1 0x40 MLOAD DUP1 DUP4 SUB DUP2 PUSH1 0x0 DUP8 DUP1 EXTCODESIZE ISZERO ISZERO PUSH2 0xFFB JUMPI PUSH1 0x0 DUP1 REVERT JUMPDEST PUSH2 0x2C6 GAS SUB CALL ISZERO ISZERO PUSH2 0x100C JUMPI PUSH1 0x0 DUP1 REVERT JUMPDEST POP POP POP PUSH1 0x40 MLOAD DUP1 MLOAD SWAP5 SWAP4 POP POP POP POP JUMP JUMPDEST PUSH1 0x9 SLOAD DUP2 JUMP JUMPDEST PUSH1 0x1 PUSH1 0xA0 PUSH1 0x2 EXP SUB SWAP2 DUP3 AND PUSH1 0x0 SWAP1 DUP2 MSTORE PUSH1 0x16 PUSH1 0x20 SWAP1 DUP2 MSTORE PUSH1 0x40 DUP1 DUP4 KECCAK256 SWAP4 SWAP1 SWAP5 AND DUP3 MSTORE SWAP2 SWAP1 SWAP2 MSTORE KECCAK256 SLOAD SWAP1 JUMP JUMPDEST PUSH1 0x0 SLOAD CALLER PUSH1 0x1 PUSH1 0xA0 PUSH1 0x2 EXP SUB SWAP1 DUP2 AND SWAP2 AND EQ PUSH2 0x1068 JUMPI PUSH1 0x0 DUP1 REVERT JUMPDEST PUSH1 0x1 DUP1 SLOAD PUSH20 0xFFFFFFFFFFFFFFFFFFFFFFFFFFFFFFFFFFFFFFFF NOT AND PUSH1 0x1 PUSH1 0xA0 PUSH1 0x2 EXP SUB SWAP3 SWAP1 SWAP3 AND SWAP2 SWAP1 SWAP2 OR SWAP1 SSTORE JUMP JUMPDEST PUSH1 0x0 DUP1 DUP3 GT PUSH2 0x10A5 JUMPI PUSH1 0x0 DUP1 REVERT JUMPDEST DUP2 DUP4 DUP2 ISZERO ISZERO PUSH2 0x10B0 JUMPI INVALID JUMPDEST DIV SWAP4 SWAP3 POP POP POP JUMP JUMPDEST DUP2 DUP2 ADD DUP3 DUP2 LT ISZERO PUSH2 0x747 JUMPI PUSH1 0x0 DUP1 REVERT JUMPDEST PUSH1 0xE SLOAD PUSH2 0x10E5 PUSH2 0x10D6 PUSH2 0xA5F JUMP JUMPDEST PUSH1 0x14 SLOAD SWAP1 PUSH4 0xFFFFFFFF PUSH2 0x10B8 AND JUMP JUMPDEST GT DUP1 ISZERO PUSH2 0x10F4 JUMPI POP PUSH1 0x27 PUSH1 0xD SLOAD LT JUMPDEST ISZERO PUSH2 0x1103 JUMPI PUSH1 0xD DUP1 SLOAD PUSH1 0x1 ADD SWAP1 SSTORE JUMPDEST PUSH1 0xD SLOAD PUSH1 0x5 SLOAD PUSH2 0x111E SWAP2 PUSH1 0x1 ADD PUSH1 0x2 EXP PUSH4 0xFFFFFFFF PUSH2 0x1097 AND JUMP JUMPDEST PUSH1 0x5 SLOAD SUB PUSH1 0xE SSTORE PUSH1 0x7 SLOAD PUSH2 0x1139 SWAP1 PUSH1 0x1 PUSH4 0xFFFFFFFF PUSH2 0x10B8 AND JUMP JUMPDEST PUSH1 0x7 DUP2 SWAP1 SSTORE PUSH1 0x8 SLOAD SWAP1 DUP2 ISZERO ISZERO PUSH2 0x114B JUMPI INVALID JUMPDEST MOD ISZERO ISZERO PUSH2 0x115A JUMPI PUSH2 0x115A PUSH2 0x117A JUMP JUMPDEST PUSH1 0x0 NOT NUMBER ADD BLOCKHASH PUSH1 0xC SSTORE JUMP JUMPDEST PUSH1 0x0 DUP3 DUP3 GT ISZERO PUSH2 0x1174 JUMPI PUSH1 0x0 DUP1 REVERT JUMPDEST POP SWAP1 SUB SWAP1 JUMP JUMPDEST PUSH1 0x6 SLOAD PUSH1 0x8 SLOAD NUMBER SWAP2 SWAP1 SWAP2 SUB SWAP1 PUSH1 0x3C DUP2 MUL PUSH1 0x0 DUP1 DUP1 DUP1 DUP5 DUP8 LT ISZERO PUSH2 0x1220 JUMPI PUSH2 0x11B8 DUP8 PUSH2 0x11AC DUP8 PUSH1 0x64 PUSH4 0xFFFFFFFF PUSH2 0x12B4 AND JUMP JUMPDEST SWAP1 PUSH4 0xFFFFFFFF PUSH2 0x1097 AND JUMP JUMPDEST SWAP4 POP PUSH2 0x11DD PUSH2 0x3E8 PUSH2 0x11D1 DUP7 PUSH1 0x64 PUSH4 0xFFFFFFFF PUSH2 0x1165 AND JUMP JUMPDEST SWAP1 PUSH4 0xFFFFFFFF PUSH2 0x12D9 AND JUMP JUMPDEST SWAP3 POP PUSH2 0x1218 PUSH2 0x1209 DUP5 PUSH2 0x11FD PUSH2 0x7D0 PUSH1 0xB SLOAD PUSH2 0x1097 SWAP1 SWAP2 SWAP1 PUSH4 0xFFFFFFFF AND JUMP JUMPDEST SWAP1 PUSH4 0xFFFFFFFF PUSH2 0x12B4 AND JUMP JUMPDEST PUSH1 0xB SLOAD SWAP1 PUSH4 0xFFFFFFFF PUSH2 0x1165 AND JUMP JUMPDEST PUSH1 0xB SSTORE PUSH2 0x1281 JUMP JUMPDEST PUSH2 0x1235 DUP6 PUSH2 0x11AC DUP10 PUSH1 0x64 PUSH4 0xFFFFFFFF PUSH2 0x12B4 AND JUMP JUMPDEST SWAP2 POP PUSH2 0x124E PUSH2 0x3E8 PUSH2 0x11D1 DUP5 PUSH1 0x64 PUSH4 0xFFFFFFFF PUSH2 0x1165 AND JUMP JUMPDEST SWAP1 POP PUSH2 0x127D PUSH2 0x126E DUP3 PUSH2 0x11FD PUSH2 0x7D0 PUSH1 0xB SLOAD PUSH2 0x1097 SWAP1 SWAP2 SWAP1 PUSH4 0xFFFFFFFF AND JUMP JUMPDEST PUSH1 0xB SLOAD SWAP1 PUSH4 0xFFFFFFFF PUSH2 0x10B8 AND JUMP JUMPDEST PUSH1 0xB SSTORE JUMPDEST NUMBER PUSH1 0x6 SSTORE PUSH1 0x9 SLOAD PUSH1 0xB SLOAD LT ISZERO PUSH2 0x1298 JUMPI PUSH1 0x9 SLOAD PUSH1 0xB SSTORE JUMPDEST PUSH1 0xA SLOAD PUSH1 0xB SLOAD GT ISZERO PUSH2 0x12AB JUMPI PUSH1 0xA SLOAD PUSH1 0xB SSTORE JUMPDEST POP POP POP POP POP POP POP JUMP JUMPDEST DUP2 DUP2 MUL DUP3 ISZERO DUP1 PUSH2 0x12CE JUMPI POP DUP2 DUP4 DUP3 DUP2 ISZERO ISZERO PUSH2 0x12CB JUMPI INVALID JUMPDEST DIV EQ JUMPDEST ISZERO ISZERO PUSH2 0x747 JUMPI PUSH1 0x0 DUP1 REVERT JUMPDEST PUSH1 0x0 DUP2 DUP4 GT ISZERO PUSH2 0x12EA JUMPI POP DUP1 PUSH2 0x747 JUMP JUMPDEST POP SWAP1 SWAP2 SWAP1 POP JUMP STOP LOG1 PUSH6 0x627A7A723058 KECCAK256 TIMESTAMP 0x47 SWAP4 0x2f PUSH27 0xB7398807C2FC5704AE0D6E7750286377828B0773EF160B2E8F3218 STOP 0x29 "
        },
        "gasEstimates": {
          "creation": {
            "codeDepositCost": "978600",
            "executionCost": "infinite",
            "totalCost": "infinite"
          },
          "external": {
            "": "965",
            "_BLOCKS_PER_READJUSTMENT()": "1074",
            "_MAXIMUM_TARGET()": "920",
            "_MINIMUM_TARGET()": "1206",
            "_totalSupply()": "656",
            "acceptOwnership()": "43455",
            "allowance(address,address)": "1552",
            "approve(address,uint256)": "22419",
            "approveAndCall(address,uint256,bytes)": "infinite",
            "balanceOf(address)": "1054",
            "challengeNumber()": "964",
            "checkMintSolution(uint256,bytes32,bytes32,uint256)": "983",
            "decimals()": "627",
            "epochCount()": "898",
            "getChallengeNumber()": "700",
            "getMiningDifficulty()": "infinite",
            "getMiningReward()": "4234",
            "getMiningTarget()": "634",
            "getMintDigest(uint256,bytes32,bytes32)": "1084",
            "lastRewardAmount()": "1096",
            "lastRewardEthBlockNumber()": "480",
            "lastRewardTo()": "963",
            "latestDifficultyPeriodStarted()": "1140",
            "maxSupplyForEra()": "722",
            "miningTarget()": "942",
            "mint(uint256,bytes32)": "infinite",
            "mintWithoutPoW()": "infinite",
            "name()": "infinite",
            "newOwner()": "1315",
            "owner()": "1139",
            "rewardEra()": "590",
            "setTokensMinted(uint256)": "20527",
            "symbol()": "infinite",
            "tokensMinted()": "788",
            "totalSupply()": "770",
            "transfer(address,uint256)": "infinite",
            "transferAnyERC20Token(address,uint256)": "infinite",
            "transferFrom(address,address,uint256)": "infinite",
            "transferOwnership(address)": "21706"
          },
          "internal": {
            "_reAdjustDifficulty()": "infinite",
            "_startNewMiningEpoch()": "infinite"
          }
        },
        "methodIdentifiers": {
          "_BLOCKS_PER_READJUSTMENT()": "b5ade81b",
          "_MAXIMUM_TARGET()": "87a2a9d6",
          "_MINIMUM_TARGET()": "dc6e9cf9",
          "_totalSupply()": "3eaaf86b",
          "acceptOwnership()": "79ba5097",
          "allowance(address,address)": "dd62ed3e",
          "approve(address,uint256)": "095ea7b3",
          "approveAndCall(address,uint256,bytes)": "cae9ca51",
          "balanceOf(address)": "70a08231",
          "challengeNumber()": "8ae0368b",
          "checkMintSolution(uint256,bytes32,bytes32,uint256)": "81269a56",
          "decimals()": "313ce567",
          "epochCount()": "829965cc",
          "getChallengeNumber()": "4ef37628",
          "getMiningDifficulty()": "17da485f",
          "getMiningReward()": "490203a7",
          "getMiningTarget()": "32e99708",
          "getMintDigest(uint256,bytes32,bytes32)": "97566aa0",
          "lastRewardAmount()": "bafedcaa",
          "lastRewardEthBlockNumber()": "163aa00d",
          "lastRewardTo()": "6fd396d6",
          "latestDifficultyPeriodStarted()": "cb9ae707",
          "maxSupplyForEra()": "4fa972e1",
          "miningTarget()": "8a769d35",
          "mint(uint256,bytes32)": "1801fbe5",
          "mintWithoutPoW()": "5515a1ea",
          "name()": "06fdde03",
          "newOwner()": "d4ee1d90",
          "owner()": "8da5cb5b",
          "rewardEra()": "2d38bf7a",
          "setTokensMinted(uint256)": "5ce7e030",
          "symbol()": "95d89b41",
          "tokensMinted()": "6de9f32b",
          "totalSupply()": "18160ddd",
          "transfer(address,uint256)": "a9059cbb",
          "transferAnyERC20Token(address,uint256)": "dc39d06d",
          "transferFrom(address,address,uint256)": "23b872dd",
          "transferOwnership(address)": "f2fde38b"
        }
      },
      "userdoc": {
        "methods": {}
      }
    }
  }
}