{
  "contracts/0xBitcoinExtended.sol": {
    "_0xBitcoinToken": {
      "abi": [
        {
          "constant": true,
          "inputs": [],
          "name": "name",
          "outputs": [
            {
              "name": "",
              "type": "string"
            }
          ],
          "payable": false,
          "stateMutability": "view",
          "type": "function"
        },
        {
          "constant": false,
          "inputs": [
            {
              "name": "spender",
              "type": "address"
            },
            {
              "name": "tokens",
              "type": "uint256"
            }
          ],
          "name": "approve",
          "outputs": [
            {
              "name": "success",
              "type": "bool"
            }
          ],
          "payable": false,
          "stateMutability": "nonpayable",
          "type": "function"
        },
        {
          "constant": true,
          "inputs": [],
          "name": "lastRewardEthBlockNumber",
          "outputs": [
            {
              "name": "",
              "type": "uint256"
            }
          ],
          "payable": false,
          "stateMutability": "view",
          "type": "function"
        },
        {
          "constant": true,
          "inputs": [],
          "name": "getMiningDifficulty",
          "outputs": [
            {
              "name": "",
              "type": "uint256"
            }
          ],
          "payable": false,
          "stateMutability": "view",
          "type": "function"
        },
        {
          "constant": false,
          "inputs": [
            {
              "name": "nonce",
              "type": "uint256"
            },
            {
              "name": "challenge_digest",
              "type": "bytes32"
            }
          ],
          "name": "mint",
          "outputs": [
            {
              "name": "success",
              "type": "bool"
            }
          ],
          "payable": false,
          "stateMutability": "nonpayable",
          "type": "function"
        },
        {
          "constant": true,
          "inputs": [],
          "name": "totalSupply",
          "outputs": [
            {
              "name": "",
              "type": "uint256"
            }
          ],
          "payable": false,
          "stateMutability": "view",
          "type": "function"
        },
        {
          "constant": false,
          "inputs": [
            {
              "name": "from",
              "type": "address"
            },
            {
              "name": "to",
              "type": "address"
            },
            {
              "name": "tokens",
              "type": "uint256"
            }
          ],
          "name": "transferFrom",
          "outputs": [
            {
              "name": "success",
              "type": "bool"
            }
          ],
          "payable": false,
          "stateMutability": "nonpayable",
          "type": "function"
        },
        {
          "constant": true,
          "inputs": [],
          "name": "rewardEra",
          "outputs": [
            {
              "name": "",
              "type": "uint256"
            }
          ],
          "payable": false,
          "stateMutability": "view",
          "type": "function"
        },
        {
          "constant": true,
          "inputs": [],
          "name": "decimals",
          "outputs": [
            {
              "name": "",
              "type": "uint8"
            }
          ],
          "payable": false,
          "stateMutability": "view",
          "type": "function"
        },
        {
          "constant": true,
          "inputs": [],
          "name": "getMiningTarget",
          "outputs": [
            {
              "name": "",
              "type": "uint256"
            }
          ],
          "payable": false,
          "stateMutability": "view",
          "type": "function"
        },
        {
          "constant": true,
          "inputs": [],
          "name": "_totalSupply",
          "outputs": [
            {
              "name": "",
              "type": "uint256"
            }
          ],
          "payable": false,
          "stateMutability": "view",
          "type": "function"
        },
        {
          "constant": true,
          "inputs": [],
          "name": "getMiningReward",
          "outputs": [
            {
              "name": "",
              "type": "uint256"
            }
          ],
          "payable": false,
          "stateMutability": "view",
          "type": "function"
        },
        {
          "constant": true,
          "inputs": [],
          "name": "getChallengeNumber",
          "outputs": [
            {
              "name": "",
              "type": "bytes32"
            }
          ],
          "payable": false,
          "stateMutability": "view",
          "type": "function"
        },
        {
          "constant": true,
          "inputs": [],
          "name": "maxSupplyForEra",
          "outputs": [
            {
              "name": "",
              "type": "uint256"
            }
          ],
          "payable": false,
          "stateMutability": "view",
          "type": "function"
        },
        {
          "constant": false,
          "inputs": [],
          "name": "mintWithoutPoW",
          "outputs": [
            {
              "name": "success",
              "type": "bool"
            }
          ],
          "payable": false,
          "stateMutability": "nonpayable",
          "type": "function"
        },
        {
          "constant": false,
          "inputs": [
            {
              "name": "amt",
              "type": "uint256"
            }
          ],
          "name": "setTokensMinted",
          "outputs": [],
          "payable": false,
          "stateMutability": "nonpayable",
          "type": "function"
        },
        {
          "constant": true,
          "inputs": [],
          "name": "tokensMinted",
          "outputs": [
            {
              "name": "",
              "type": "uint256"
            }
          ],
          "payable": false,
          "stateMutability": "view",
          "type": "function"
        },
        {
          "constant": true,
          "inputs": [],
          "name": "lastRewardTo",
          "outputs": [
            {
              "name": "",
              "type": "address"
            }
          ],
          "payable": false,
          "stateMutability": "view",
          "type": "function"
        },
        {
          "constant": true,
          "inputs": [
            {
              "name": "tokenOwner",
              "type": "address"
            }
          ],
          "name": "balanceOf",
          "outputs": [
            {
              "name": "balance",
              "type": "uint256"
            }
          ],
          "payable": false,
          "stateMutability": "view",
          "type": "function"
        },
        {
          "constant": false,
          "inputs": [],
          "name": "acceptOwnership",
          "outputs": [],
          "payable": false,
          "stateMutability": "nonpayable",
          "type": "function"
        },
        {
          "constant": true,
          "inputs": [
            {
              "name": "nonce",
              "type": "uint256"
            },
            {
              "name": "challenge_digest",
              "type": "bytes32"
            },
            {
              "name": "challenge_number",
              "type": "bytes32"
            },
            {
              "name": "testTarget",
              "type": "uint256"
            }
          ],
          "name": "checkMintSolution",
          "outputs": [
            {
              "name": "success",
              "type": "bool"
            }
          ],
          "payable": false,
          "stateMutability": "view",
          "type": "function"
        },
        {
          "constant": true,
          "inputs": [],
          "name": "epochCount",
          "outputs": [
            {
              "name": "",
              "type": "uint256"
            }
          ],
          "payable": false,
          "stateMutability": "view",
          "type": "function"
        },
        {
          "constant": true,
          "inputs": [],
          "name": "_MAXIMUM_TARGET",
          "outputs": [
            {
              "name": "",
              "type": "uint256"
            }
          ],
          "payable": false,
          "stateMutability": "view",
          "type": "function"
        },
        {
          "constant": true,
          "inputs": [],
          "name": "miningTarget",
          "outputs": [
            {
              "name": "",
              "type": "uint256"
            }
          ],
          "payable": false,
          "stateMutability": "view",
          "type": "function"
        },
        {
          "constant": true,
          "inputs": [],
          "name": "challengeNumber",
          "outputs": [
            {
              "name": "",
              "type": "bytes32"
            }
          ],
          "payable": false,
          "stateMutability": "view",
          "type": "function"
        },
        {
          "constant": true,
          "inputs": [],
          "name": "owner",
          "outputs": [
            {
              "name": "",
              "type": "address"
            }
          ],
          "payable": false,
          "stateMutability": "view",
          "type": "function"
        },
        {
          "constant": true,
          "inputs": [],
          "name": "symbol",
          "outputs": [
            {
              "name": "",
              "type": "string"
            }
          ],
          "payable": false,
          "stateMutability": "view",
          "type": "function"
        },
        {
          "constant": true,
          "inputs": [
            {
              "name": "nonce",
              "type": "uint256"
            },
            {
              "name": "challenge_digest",
              "type": "bytes32"
            },
            {
              "name": "challenge_number",
              "type": "bytes32"
            }
          ],
          "name": "getMintDigest",
          "outputs": [
            {
              "name": "digesttest",
              "type": "bytes32"
            }
          ],
          "payable": false,
          "stateMutability": "view",
          "type": "function"
        },
        {
          "constant": false,
          "inputs": [
            {
              "name": "to",
              "type": "address"
            },
            {
              "name": "tokens",
              "type": "uint256"
            }
          ],
          "name": "transfer",
          "outputs": [
            {
              "name": "success",
              "type": "bool"
            }
          ],
          "payable": false,
          "stateMutability": "nonpayable",
          "type": "function"
        },
        {
          "constant": true,
          "inputs": [],
          "name": "_BLOCKS_PER_READJUSTMENT",
          "outputs": [
            {
              "name": "",
              "type": "uint256"
            }
          ],
          "payable": false,
          "stateMutability": "view",
          "type": "function"
        },
        {
          "constant": true,
          "inputs": [],
          "name": "lastRewardAmount",
          "outputs": [
            {
              "name": "",
              "type": "uint256"
            }
          ],
          "payable": false,
          "stateMutability": "view",
          "type": "function"
        },
        {
          "constant": false,
          "inputs": [
            {
              "name": "spender",
              "type": "address"
            },
            {
              "name": "tokens",
              "type": "uint256"
            },
            {
              "name": "data",
              "type": "bytes"
            }
          ],
          "name": "approveAndCall",
          "outputs": [
            {
              "name": "success",
              "type": "bool"
            }
          ],
          "payable": false,
          "stateMutability": "nonpayable",
          "type": "function"
        },
        {
          "constant": true,
          "inputs": [],
          "name": "latestDifficultyPeriodStarted",
          "outputs": [
            {
              "name": "",
              "type": "uint256"
            }
          ],
          "payable": false,
          "stateMutability": "view",
          "type": "function"
        },
        {
          "constant": true,
          "inputs": [],
          "name": "newOwner",
          "outputs": [
            {
              "name": "",
              "type": "address"
            }
          ],
          "payable": false,
          "stateMutability": "view",
          "type": "function"
        },
        {
          "constant": false,
          "inputs": [
            {
              "name": "tokenAddress",
              "type": "address"
            },
            {
              "name": "tokens",
              "type": "uint256"
            }
          ],
          "name": "transferAnyERC20Token",
          "outputs": [
            {
              "name": "success",
              "type": "bool"
            }
          ],
          "payable": false,
          "stateMutability": "nonpayable",
          "type": "function"
        },
        {
          "constant": true,
          "inputs": [],
          "name": "_MINIMUM_TARGET",
          "outputs": [
            {
              "name": "",
              "type": "uint256"
            }
          ],
          "payable": false,
          "stateMutability": "view",
          "type": "function"
        },
        {
          "constant": true,
          "inputs": [
            {
              "name": "tokenOwner",
              "type": "address"
            },
            {
              "name": "spender",
              "type": "address"
            }
          ],
          "name": "allowance",
          "outputs": [
            {
              "name": "remaining",
              "type": "uint256"
            }
          ],
          "payable": false,
          "stateMutability": "view",
          "type": "function"
        },
        {
          "constant": false,
          "inputs": [
            {
              "name": "_newOwner",
              "type": "address"
            }
          ],
          "name": "transferOwnership",
          "outputs": [],
          "payable": false,
          "stateMutability": "nonpayable",
          "type": "function"
        },
        {
          "inputs": [],
          "payable": false,
          "stateMutability": "nonpayable",
          "type": "constructor"
        },
        {
          "payable": true,
          "stateMutability": "payable",
          "type": "fallback"
        },
        {
          "anonymous": false,
          "inputs": [
            {
              "indexed": true,
              "name": "from",
              "type": "address"
            },
            {
              "indexed": false,
              "name": "reward_amount",
              "type": "uint256"
            },
            {
              "indexed": false,
              "name": "epochCount",
              "type": "uint256"
            },
            {
              "indexed": false,
              "name": "newChallengeNumber",
              "type": "bytes32"
            }
          ],
          "name": "Mint",
          "type": "event"
        },
        {
          "anonymous": false,
          "inputs": [
            {
              "indexed": true,
              "name": "_from",
              "type": "address"
            },
            {
              "indexed": true,
              "name": "_to",
              "type": "address"
            }
          ],
          "name": "OwnershipTransferred",
          "type": "event"
        },
        {
          "anonymous": false,
          "inputs": [
            {
              "indexed": true,
              "name": "from",
              "type": "address"
            },
            {
              "indexed": true,
              "name": "to",
              "type": "address"
            },
            {
              "indexed": false,
              "name": "tokens",
              "type": "uint256"
            }
          ],
          "name": "Transfer",
          "type": "event"
        },
        {
          "anonymous": false,
          "inputs": [
            {
              "indexed": true,
              "name": "tokenOwner",
              "type": "address"
            },
            {
              "indexed": true,
              "name": "spender",
              "type": "address"
            },
            {
              "indexed": false,
              "name": "tokens",
              "type": "uint256"
            }
          ],
          "name": "Approval",
          "type": "event"
        }
      ],
      "devdoc": {
        "methods": {}
      },
      "evm": {
        "assembly": "    /* \"contracts/0xBitcoinExtended.sol\":3801:18453  contract _0xBitcoinToken is ERC20Interface, Owned {... */\n  mstore(0x40, 0x60)\n    /* \"contracts/0xBitcoinExtended.sol\":4182:4186  1024 */\n  0x400\n    /* \"contracts/0xBitcoinExtended.sol\":4143:4186  uint public _BLOCKS_PER_READJUSTMENT = 1024 */\n  0x8\n  sstore\n    /* \"contracts/0xBitcoinExtended.sol\":4247:4252  2**16 */\n  0x10000\n    /* \"contracts/0xBitcoinExtended.sol\":4216:4252  uint public  _MINIMUM_TARGET = 2**16 */\n  0x9\n  sstore\n    /* \"contracts/0xBitcoinExtended.sol\":4424:4430  2**234 */\n  0x40000000000000000000000000000000000000000000000000000000000\n    /* \"contracts/0xBitcoinExtended.sol\":4393:4430  uint public  _MAXIMUM_TARGET = 2**234 */\n  0xa\n  sstore\n    /* \"contracts/0xBitcoinExtended.sol\":4745:4750  false */\n  0x0\n    /* \"contracts/0xBitcoinExtended.sol\":4731:4750  bool locked = false */\n  0x12\n  exp(0x100, 0x0)\n  dup2\n  sload\n  dup2\n  0xff\n  mul\n  not\n  and\n  swap1\n  dup4\n  iszero\n  iszero\n  mul\n  or\n  swap1\n  sstore\n  pop\n    /* \"contracts/0xBitcoinExtended.sol\":5230:5865  function _0xBitcoinToken() public onlyOwner{... */\n  jumpi(tag_1, iszero(callvalue))\n  0x0\n  dup1\n  revert\ntag_1:\n    /* \"contracts/0xBitcoinExtended.sol\":3127:3137  msg.sender */\n  caller\n    /* \"contracts/0xBitcoinExtended.sol\":3119:3124  owner */\n  0x0\n  dup1\n    /* \"contracts/0xBitcoinExtended.sol\":3119:3137  owner = msg.sender */\n  0x100\n  exp\n  dup2\n  sload\n  dup2\n  0xffffffffffffffffffffffffffffffffffffffff\n  mul\n  not\n  and\n  swap1\n  dup4\n  0xffffffffffffffffffffffffffffffffffffffff\n  and\n  mul\n  or\n  swap1\n  sstore\n  pop\n    /* \"contracts/0xBitcoinExtended.sol\":3204:3209  owner */\n  0x0\n  dup1\n  swap1\n  sload\n  swap1\n  0x100\n  exp\n  swap1\n  div\n  0xffffffffffffffffffffffffffffffffffffffff\n  and\n    /* \"contracts/0xBitcoinExtended.sol\":3190:3209  msg.sender == owner */\n  0xffffffffffffffffffffffffffffffffffffffff\n  and\n    /* \"contracts/0xBitcoinExtended.sol\":3190:3200  msg.sender */\n  caller\n    /* \"contracts/0xBitcoinExtended.sol\":3190:3209  msg.sender == owner */\n  0xffffffffffffffffffffffffffffffffffffffff\n  and\n  eq\n    /* \"contracts/0xBitcoinExtended.sol\":3182:3210  require(msg.sender == owner) */\n  iszero\n  iszero\n  tag_6\n  jumpi\n  0x0\n  dup1\n  revert\ntag_6:\n    /* \"contracts/0xBitcoinExtended.sol\":5286:5302  symbol = \"0xBTC\" */\n  0x40\n  dup1\n  mload\n  swap1\n  dup2\n  add\n  0x40\n  mstore\n  dup1\n  0x5\n  dup2\n  mstore\n  0x20\n  add\n  0x3078425443000000000000000000000000000000000000000000000000000000\n  dup2\n  mstore\n  pop\n    /* \"contracts/0xBitcoinExtended.sol\":5286:5292  symbol */\n  0x2\n    /* \"contracts/0xBitcoinExtended.sol\":5286:5302  symbol = \"0xBTC\" */\n  swap1\n  dup1\n  mload\n  swap1\n  0x20\n  add\n  swap1\n  tag_8\n  swap3\n  swap2\n  swap1\n  jump\t// in(tag_9)\ntag_8:\n  pop\n    /* \"contracts/0xBitcoinExtended.sol\":5313:5337  name = \"0xBitcoin Token\" */\n  0x40\n  dup1\n  mload\n  swap1\n  dup2\n  add\n  0x40\n  mstore\n  dup1\n  0xf\n  dup2\n  mstore\n  0x20\n  add\n  0x3078426974636f696e20546f6b656e0000000000000000000000000000000000\n  dup2\n  mstore\n  pop\n    /* \"contracts/0xBitcoinExtended.sol\":5313:5317  name */\n  0x3\n    /* \"contracts/0xBitcoinExtended.sol\":5313:5337  name = \"0xBitcoin Token\" */\n  swap1\n  dup1\n  mload\n  swap1\n  0x20\n  add\n  swap1\n  tag_10\n  swap3\n  swap2\n  swap1\n  jump\t// in(tag_9)\ntag_10:\n  pop\n    /* \"contracts/0xBitcoinExtended.sol\":5359:5360  8 */\n  0x8\n    /* \"contracts/0xBitcoinExtended.sol\":5348:5356  decimals */\n  0x4\n  0x0\n    /* \"contracts/0xBitcoinExtended.sol\":5348:5360  decimals = 8 */\n  0x100\n  exp\n  dup2\n  sload\n  dup2\n  0xff\n  mul\n  not\n  and\n  swap1\n  dup4\n  0xff\n  and\n  mul\n  or\n  swap1\n  sstore\n  pop\n    /* \"contracts/0xBitcoinExtended.sol\":5406:5414  decimals */\n  0x4\n  0x0\n  swap1\n  sload\n  swap1\n  0x100\n  exp\n  swap1\n  div\n  0xff\n  and\n    /* \"contracts/0xBitcoinExtended.sol\":5401:5415  uint(decimals) */\n  0xff\n  and\n    /* \"contracts/0xBitcoinExtended.sol\":5397:5399  10 */\n  0xa\n    /* \"contracts/0xBitcoinExtended.sol\":5397:5415  10**uint(decimals) */\n  exp\n    /* \"contracts/0xBitcoinExtended.sol\":5386:5394  21000000 */\n  0x1406f40\n    /* \"contracts/0xBitcoinExtended.sol\":5386:5415  21000000 * 10**uint(decimals) */\n  mul\n    /* \"contracts/0xBitcoinExtended.sol\":5371:5383  _totalSupply */\n  0x5\n    /* \"contracts/0xBitcoinExtended.sol\":5371:5415  _totalSupply = 21000000 * 10**uint(decimals) */\n  dup2\n  swap1\n  sstore\n  pop\n    /* \"contracts/0xBitcoinExtended.sol\":5429:5435  locked */\n  0x12\n  0x0\n  swap1\n  sload\n  swap1\n  0x100\n  exp\n  swap1\n  div\n  0xff\n  and\n    /* \"contracts/0xBitcoinExtended.sol\":5426:5445  if(locked) revert() */\n  iszero\n  tag_11\n  jumpi\n    /* \"contracts/0xBitcoinExtended.sol\":5437:5445  revert() */\n  0x0\n  dup1\n  revert\n    /* \"contracts/0xBitcoinExtended.sol\":5426:5445  if(locked) revert() */\ntag_11:\n    /* \"contracts/0xBitcoinExtended.sol\":5464:5468  true */\n  0x1\n    /* \"contracts/0xBitcoinExtended.sol\":5455:5461  locked */\n  0x12\n  0x0\n    /* \"contracts/0xBitcoinExtended.sol\":5455:5468  locked = true */\n  0x100\n  exp\n  dup2\n  sload\n  dup2\n  0xff\n  mul\n  not\n  and\n  swap1\n  dup4\n  iszero\n  iszero\n  mul\n  or\n  swap1\n  sstore\n  pop\n    /* \"contracts/0xBitcoinExtended.sol\":5494:5495  0 */\n  0x0\n    /* \"contracts/0xBitcoinExtended.sol\":5479:5491  tokensMinted */\n  0x14\n    /* \"contracts/0xBitcoinExtended.sol\":5479:5495  tokensMinted = 0 */\n  dup2\n  swap1\n  sstore\n  pop\n    /* \"contracts/0xBitcoinExtended.sol\":5518:5519  0 */\n  0x0\n    /* \"contracts/0xBitcoinExtended.sol\":5506:5515  rewardEra */\n  0xd\n    /* \"contracts/0xBitcoinExtended.sol\":5506:5519  rewardEra = 0 */\n  dup2\n  swap1\n  sstore\n  pop\n    /* \"contracts/0xBitcoinExtended.sol\":5547:5566  _totalSupply.div(2) */\n  tag_12\n    /* \"contracts/0xBitcoinExtended.sol\":5564:5565  2 */\n  0x2\n    /* \"contracts/0xBitcoinExtended.sol\":5547:5559  _totalSupply */\n  sload(0x5)\n    /* \"contracts/0xBitcoinExtended.sol\":5547:5563  _totalSupply.div */\n  or(tag_0_170, mul(0x100000000, tag_13))\n  swap1\n    /* \"contracts/0xBitcoinExtended.sol\":5547:5566  _totalSupply.div(2) */\n  swap2\n  swap1\n  0x100000000\n  swap1\n  div\n  jump\t// in\ntag_12:\n    /* \"contracts/0xBitcoinExtended.sol\":5529:5544  maxSupplyForEra */\n  0xe\n    /* \"contracts/0xBitcoinExtended.sol\":5529:5566  maxSupplyForEra = _totalSupply.div(2) */\n  dup2\n  swap1\n  sstore\n  pop\n    /* \"contracts/0xBitcoinExtended.sol\":5592:5607  _MAXIMUM_TARGET */\n  sload(0xa)\n    /* \"contracts/0xBitcoinExtended.sol\":5577:5589  miningTarget */\n  0xb\n    /* \"contracts/0xBitcoinExtended.sol\":5577:5607  miningTarget = _MAXIMUM_TARGET */\n  dup2\n  swap1\n  sstore\n  pop\n    /* \"contracts/0xBitcoinExtended.sol\":5650:5662  block.number */\n  number\n    /* \"contracts/0xBitcoinExtended.sol\":5618:5647  latestDifficultyPeriodStarted */\n  0x6\n    /* \"contracts/0xBitcoinExtended.sol\":5618:5662  latestDifficultyPeriodStarted = block.number */\n  dup2\n  swap1\n  sstore\n  pop\n    /* \"contracts/0xBitcoinExtended.sol\":5673:5695  _startNewMiningEpoch() */\n  tag_14\n    /* \"contracts/0xBitcoinExtended.sol\":5673:5693  _startNewMiningEpoch */\n  or(tag_0_181, mul(0x100000000, tag_15))\n    /* \"contracts/0xBitcoinExtended.sol\":5673:5695  _startNewMiningEpoch() */\n  0x100000000\n  swap1\n  div\n  jump\t// in\ntag_14:\n    /* \"contracts/0xBitcoinExtended.sol\":3801:18453  contract _0xBitcoinToken is ERC20Interface, Owned {... */\n  jump(tag_16)\n    /* \"contracts/0xBitcoinExtended.sol\":1028:1141  function div(uint a, uint b) internal pure returns (uint c) {... */\ntag_13:\n    /* \"contracts/0xBitcoinExtended.sol\":1080:1086  uint c */\n  0x0\n    /* \"contracts/0xBitcoinExtended.sol\":1111:1112  0 */\n  dup1\n    /* \"contracts/0xBitcoinExtended.sol\":1107:1108  b */\n  dup3\n    /* \"contracts/0xBitcoinExtended.sol\":1107:1112  b > 0 */\n  gt\n    /* \"contracts/0xBitcoinExtended.sol\":1099:1113  require(b > 0) */\n  iszero\n  iszero\n  tag_18\n  jumpi\n  0x0\n  dup1\n  revert\ntag_18:\n    /* \"contracts/0xBitcoinExtended.sol\":1132:1133  b */\n  dup2\n    /* \"contracts/0xBitcoinExtended.sol\":1128:1129  a */\n  dup4\n    /* \"contracts/0xBitcoinExtended.sol\":1128:1133  a / b */\n  dup2\n  iszero\n  iszero\n  tag_19\n  jumpi\n  invalid\ntag_19:\n  div\n    /* \"contracts/0xBitcoinExtended.sol\":1124:1133  c = a / b */\n  swap1\n  pop\n    /* \"contracts/0xBitcoinExtended.sol\":1028:1141  function div(uint a, uint b) internal pure returns (uint c) {... */\n  swap3\n  swap2\n  pop\n  pop\n  jump\t// out\n    /* \"contracts/0xBitcoinExtended.sol\":7382:8533  function _startNewMiningEpoch() internal {... */\ntag_15:\n    /* \"contracts/0xBitcoinExtended.sol\":7749:7764  maxSupplyForEra */\n  sload(0xe)\n    /* \"contracts/0xBitcoinExtended.sol\":7711:7746  tokensMinted.add(getMiningReward()) */\n  tag_21\n    /* \"contracts/0xBitcoinExtended.sol\":7728:7745  getMiningReward() */\n  tag_22\n    /* \"contracts/0xBitcoinExtended.sol\":7728:7743  getMiningReward */\n  or(tag_0_81, mul(0x100000000, tag_23))\n    /* \"contracts/0xBitcoinExtended.sol\":7728:7745  getMiningReward() */\n  0x100000000\n  swap1\n  div\n  jump\t// in\ntag_22:\n    /* \"contracts/0xBitcoinExtended.sol\":7711:7723  tokensMinted */\n  sload(0x14)\n    /* \"contracts/0xBitcoinExtended.sol\":7711:7727  tokensMinted.add */\n  or(tag_0_177, mul(0x100000000, tag_24))\n  swap1\n    /* \"contracts/0xBitcoinExtended.sol\":7711:7746  tokensMinted.add(getMiningReward()) */\n  swap2\n  swap1\n  0x100000000\n  swap1\n  div\n  jump\t// in\ntag_21:\n    /* \"contracts/0xBitcoinExtended.sol\":7711:7764  tokensMinted.add(getMiningReward()) > maxSupplyForEra */\n  gt\n    /* \"contracts/0xBitcoinExtended.sol\":7711:7782  tokensMinted.add(getMiningReward()) > maxSupplyForEra && rewardEra < 39 */\n  dup1\n  iszero\n  tag_25\n  jumpi\n  pop\n    /* \"contracts/0xBitcoinExtended.sol\":7780:7782  39 */\n  0x27\n    /* \"contracts/0xBitcoinExtended.sol\":7768:7777  rewardEra */\n  sload(0xd)\n    /* \"contracts/0xBitcoinExtended.sol\":7768:7782  rewardEra < 39 */\n  lt\n    /* \"contracts/0xBitcoinExtended.sol\":7711:7782  tokensMinted.add(getMiningReward()) > maxSupplyForEra && rewardEra < 39 */\ntag_25:\n    /* \"contracts/0xBitcoinExtended.sol\":7707:7834  if( tokensMinted.add(getMiningReward()) > maxSupplyForEra && rewardEra < 39)... */\n  iszero\n  tag_26\n  jumpi\n    /* \"contracts/0xBitcoinExtended.sol\":7824:7825  1 */\n  0x1\n    /* \"contracts/0xBitcoinExtended.sol\":7812:7821  rewardEra */\n  sload(0xd)\n    /* \"contracts/0xBitcoinExtended.sol\":7812:7825  rewardEra + 1 */\n  add\n    /* \"contracts/0xBitcoinExtended.sol\":7800:7809  rewardEra */\n  0xd\n    /* \"contracts/0xBitcoinExtended.sol\":7800:7825  rewardEra = rewardEra + 1 */\n  dup2\n  swap1\n  sstore\n  pop\n    /* \"contracts/0xBitcoinExtended.sol\":7707:7834  if( tokensMinted.add(getMiningReward()) > maxSupplyForEra && rewardEra < 39)... */\ntag_26:\n    /* \"contracts/0xBitcoinExtended.sol\":8010:8047  _totalSupply.div( 2**(rewardEra + 1)) */\n  tag_27\n    /* \"contracts/0xBitcoinExtended.sol\":8044:8045  1 */\n  0x1\n    /* \"contracts/0xBitcoinExtended.sol\":8032:8041  rewardEra */\n  sload(0xd)\n    /* \"contracts/0xBitcoinExtended.sol\":8032:8045  rewardEra + 1 */\n  add\n    /* \"contracts/0xBitcoinExtended.sol\":8028:8029  2 */\n  0x2\n    /* \"contracts/0xBitcoinExtended.sol\":8028:8046  2**(rewardEra + 1) */\n  exp\n    /* \"contracts/0xBitcoinExtended.sol\":8010:8022  _totalSupply */\n  sload(0x5)\n    /* \"contracts/0xBitcoinExtended.sol\":8010:8026  _totalSupply.div */\n  or(tag_0_170, mul(0x100000000, tag_13))\n  swap1\n    /* \"contracts/0xBitcoinExtended.sol\":8010:8047  _totalSupply.div( 2**(rewardEra + 1)) */\n  swap2\n  swap1\n  0x100000000\n  swap1\n  div\n  jump\t// in\ntag_27:\n    /* \"contracts/0xBitcoinExtended.sol\":7995:8007  _totalSupply */\n  sload(0x5)\n    /* \"contracts/0xBitcoinExtended.sol\":7995:8047  _totalSupply - _totalSupply.div( 2**(rewardEra + 1)) */\n  sub\n    /* \"contracts/0xBitcoinExtended.sol\":7977:7992  maxSupplyForEra */\n  0xe\n    /* \"contracts/0xBitcoinExtended.sol\":7977:8047  maxSupplyForEra = _totalSupply - _totalSupply.div( 2**(rewardEra + 1)) */\n  dup2\n  swap1\n  sstore\n  pop\n    /* \"contracts/0xBitcoinExtended.sol\":8069:8086  epochCount.add(1) */\n  tag_28\n    /* \"contracts/0xBitcoinExtended.sol\":8084:8085  1 */\n  0x1\n    /* \"contracts/0xBitcoinExtended.sol\":8069:8079  epochCount */\n  sload(0x7)\n    /* \"contracts/0xBitcoinExtended.sol\":8069:8083  epochCount.add */\n  or(tag_0_177, mul(0x100000000, tag_24))\n  swap1\n    /* \"contracts/0xBitcoinExtended.sol\":8069:8086  epochCount.add(1) */\n  swap2\n  swap1\n  0x100000000\n  swap1\n  div\n  jump\t// in\ntag_28:\n    /* \"contracts/0xBitcoinExtended.sol\":8056:8066  epochCount */\n  0x7\n    /* \"contracts/0xBitcoinExtended.sol\":8056:8086  epochCount = epochCount.add(1) */\n  dup2\n  swap1\n  sstore\n  pop\n    /* \"contracts/0xBitcoinExtended.sol\":8213:8214  0 */\n  0x0\n    /* \"contracts/0xBitcoinExtended.sol\":8185:8209  _BLOCKS_PER_READJUSTMENT */\n  sload(0x8)\n    /* \"contracts/0xBitcoinExtended.sol\":8172:8182  epochCount */\n  sload(0x7)\n    /* \"contracts/0xBitcoinExtended.sol\":8172:8209  epochCount % _BLOCKS_PER_READJUSTMENT */\n  dup2\n  iszero\n  iszero\n  tag_29\n  jumpi\n  invalid\ntag_29:\n  mod\n    /* \"contracts/0xBitcoinExtended.sol\":8172:8214  epochCount % _BLOCKS_PER_READJUSTMENT == 0 */\n  eq\n    /* \"contracts/0xBitcoinExtended.sol\":8169:8262  if(epochCount % _BLOCKS_PER_READJUSTMENT == 0)... */\n  iszero\n  tag_30\n  jumpi\n    /* \"contracts/0xBitcoinExtended.sol\":8232:8253  _reAdjustDifficulty() */\n  tag_31\n    /* \"contracts/0xBitcoinExtended.sol\":8232:8251  _reAdjustDifficulty */\n  or(tag_0_242, mul(0x100000000, tag_32))\n    /* \"contracts/0xBitcoinExtended.sol\":8232:8253  _reAdjustDifficulty() */\n  0x100000000\n  swap1\n  div\n  jump\t// in\ntag_31:\n    /* \"contracts/0xBitcoinExtended.sol\":8169:8262  if(epochCount % _BLOCKS_PER_READJUSTMENT == 0)... */\ntag_30:\n    /* \"contracts/0xBitcoinExtended.sol\":8518:8519  1 */\n  0x1\n    /* \"contracts/0xBitcoinExtended.sol\":8503:8515  block.number */\n  number\n    /* \"contracts/0xBitcoinExtended.sol\":8503:8519  block.number - 1 */\n  sub\n    /* \"contracts/0xBitcoinExtended.sol\":8487:8520  block.blockhash(block.number - 1) */\n  blockhash\n    /* \"contracts/0xBitcoinExtended.sol\":8469:8484  challengeNumber */\n  0xc\n    /* \"contracts/0xBitcoinExtended.sol\":8469:8520  challengeNumber = block.blockhash(block.number - 1) */\n  dup2\n  not(0x0)\n  and\n  swap1\n  sstore\n  pop\n    /* \"contracts/0xBitcoinExtended.sol\":7382:8533  function _startNewMiningEpoch() internal {... */\n  jump\t// out\n    /* \"contracts/0xBitcoinExtended.sol\":11201:11458  function getMiningReward() public constant returns (uint) {... */\ntag_23:\n    /* \"contracts/0xBitcoinExtended.sol\":11253:11257  uint */\n  0x0\n    /* \"contracts/0xBitcoinExtended.sol\":11403:11449  (50 * 10**uint(decimals) ).div( 2**rewardEra ) */\n  tag_34\n    /* \"contracts/0xBitcoinExtended.sol\":11438:11447  rewardEra */\n  sload(0xd)\n    /* \"contracts/0xBitcoinExtended.sol\":11435:11436  2 */\n  0x2\n    /* \"contracts/0xBitcoinExtended.sol\":11435:11447  2**rewardEra */\n  exp\n    /* \"contracts/0xBitcoinExtended.sol\":11418:11426  decimals */\n  0x4\n  0x0\n  swap1\n  sload\n  swap1\n  0x100\n  exp\n  swap1\n  div\n  0xff\n  and\n    /* \"contracts/0xBitcoinExtended.sol\":11413:11427  uint(decimals) */\n  0xff\n  and\n    /* \"contracts/0xBitcoinExtended.sol\":11409:11411  10 */\n  0xa\n    /* \"contracts/0xBitcoinExtended.sol\":11409:11427  10**uint(decimals) */\n  exp\n    /* \"contracts/0xBitcoinExtended.sol\":11404:11406  50 */\n  0x32\n    /* \"contracts/0xBitcoinExtended.sol\":11404:11427  50 * 10**uint(decimals) */\n  mul\n    /* \"contracts/0xBitcoinExtended.sol\":11403:11433  (50 * 10**uint(decimals) ).div */\n  or(tag_0_170, mul(0x100000000, tag_13))\n  swap1\n    /* \"contracts/0xBitcoinExtended.sol\":11403:11449  (50 * 10**uint(decimals) ).div( 2**rewardEra ) */\n  swap2\n  swap1\n  0x100000000\n  swap1\n  div\n  jump\t// in\ntag_34:\n    /* \"contracts/0xBitcoinExtended.sol\":11396:11449  return (50 * 10**uint(decimals) ).div( 2**rewardEra ) */\n  swap1\n  pop\n    /* \"contracts/0xBitcoinExtended.sol\":11201:11458  function getMiningReward() public constant returns (uint) {... */\n  swap1\n  jump\t// out\n    /* \"contracts/0xBitcoinExtended.sol\":654:768  function add(uint a, uint b) internal pure returns (uint c) {... */\ntag_24:\n    /* \"contracts/0xBitcoinExtended.sol\":706:712  uint c */\n  0x0\n    /* \"contracts/0xBitcoinExtended.sol\":733:734  b */\n  dup2\n    /* \"contracts/0xBitcoinExtended.sol\":729:730  a */\n  dup4\n    /* \"contracts/0xBitcoinExtended.sol\":729:734  a + b */\n  add\n    /* \"contracts/0xBitcoinExtended.sol\":725:734  c = a + b */\n  swap1\n  pop\n    /* \"contracts/0xBitcoinExtended.sol\":758:759  a */\n  dup3\n    /* \"contracts/0xBitcoinExtended.sol\":753:754  c */\n  dup2\n    /* \"contracts/0xBitcoinExtended.sol\":753:759  c >= a */\n  lt\n  iszero\n    /* \"contracts/0xBitcoinExtended.sol\":745:760  require(c >= a) */\n  iszero\n  iszero\n  tag_36\n  jumpi\n  0x0\n  dup1\n  revert\ntag_36:\n    /* \"contracts/0xBitcoinExtended.sol\":654:768  function add(uint a, uint b) internal pure returns (uint c) {... */\n  swap3\n  swap2\n  pop\n  pop\n  jump\t// out\n    /* \"contracts/0xBitcoinExtended.sol\":8757:10586  function _reAdjustDifficulty() internal {... */\ntag_32:\n    /* \"contracts/0xBitcoinExtended.sol\":8809:8848  uint ethBlocksSinceLastDifficultyPeriod */\n  0x0\n    /* \"contracts/0xBitcoinExtended.sol\":9066:9082  uint epochsMined */\n  dup1\n    /* \"contracts/0xBitcoinExtended.sol\":9126:9159  uint targetEthBlocksPerDiffPeriod */\n  0x0\n    /* \"contracts/0xBitcoinExtended.sol\":9392:9413  uint excess_block_pct */\n  dup1\n    /* \"contracts/0xBitcoinExtended.sol\":9510:9537  uint excess_block_pct_extra */\n  0x0\n    /* \"contracts/0xBitcoinExtended.sol\":9901:9924  uint shortage_block_pct */\n  dup1\n    /* \"contracts/0xBitcoinExtended.sol\":10021:10050  uint shortage_block_pct_extra */\n  0x0\n    /* \"contracts/0xBitcoinExtended.sol\":8866:8895  latestDifficultyPeriodStarted */\n  sload(0x6)\n    /* \"contracts/0xBitcoinExtended.sol\":8851:8863  block.number */\n  number\n    /* \"contracts/0xBitcoinExtended.sol\":8851:8895  block.number - latestDifficultyPeriodStarted */\n  sub\n    /* \"contracts/0xBitcoinExtended.sol\":8809:8895  uint ethBlocksSinceLastDifficultyPeriod = block.number - latestDifficultyPeriodStarted */\n  swap7\n  pop\n    /* \"contracts/0xBitcoinExtended.sol\":9085:9109  _BLOCKS_PER_READJUSTMENT */\n  sload(0x8)\n    /* \"contracts/0xBitcoinExtended.sol\":9066:9109  uint epochsMined = _BLOCKS_PER_READJUSTMENT */\n  swap6\n  pop\n    /* \"contracts/0xBitcoinExtended.sol\":9176:9178  60 */\n  0x3c\n    /* \"contracts/0xBitcoinExtended.sol\":9162:9173  epochsMined */\n  dup7\n    /* \"contracts/0xBitcoinExtended.sol\":9162:9178  epochsMined * 60 */\n  mul\n    /* \"contracts/0xBitcoinExtended.sol\":9126:9178  uint targetEthBlocksPerDiffPeriod = epochsMined * 60 */\n  swap5\n  pop\n    /* \"contracts/0xBitcoinExtended.sol\":9341:9369  targetEthBlocksPerDiffPeriod */\n  dup5\n    /* \"contracts/0xBitcoinExtended.sol\":9304:9338  ethBlocksSinceLastDifficultyPeriod */\n  dup8\n    /* \"contracts/0xBitcoinExtended.sol\":9304:9369  ethBlocksSinceLastDifficultyPeriod < targetEthBlocksPerDiffPeriod */\n  lt\n    /* \"contracts/0xBitcoinExtended.sol\":9300:10282  if( ethBlocksSinceLastDifficultyPeriod < targetEthBlocksPerDiffPeriod )... */\n  iszero\n  tag_38\n  jumpi\n    /* \"contracts/0xBitcoinExtended.sol\":9416:9497  (targetEthBlocksPerDiffPeriod.mul(100)).div( ethBlocksSinceLastDifficultyPeriod ) */\n  tag_39\n    /* \"contracts/0xBitcoinExtended.sol\":9461:9495  ethBlocksSinceLastDifficultyPeriod */\n  dup8\n    /* \"contracts/0xBitcoinExtended.sol\":9417:9454  targetEthBlocksPerDiffPeriod.mul(100) */\n  tag_40\n    /* \"contracts/0xBitcoinExtended.sol\":9450:9453  100 */\n  0x64\n    /* \"contracts/0xBitcoinExtended.sol\":9417:9445  targetEthBlocksPerDiffPeriod */\n  dup9\n    /* \"contracts/0xBitcoinExtended.sol\":9417:9449  targetEthBlocksPerDiffPeriod.mul */\n  or(tag_0_249, mul(0x100000000, tag_41))\n  swap1\n    /* \"contracts/0xBitcoinExtended.sol\":9417:9454  targetEthBlocksPerDiffPeriod.mul(100) */\n  swap2\n  swap1\n  0x100000000\n  swap1\n  div\n  jump\t// in\ntag_40:\n    /* \"contracts/0xBitcoinExtended.sol\":9416:9459  (targetEthBlocksPerDiffPeriod.mul(100)).div */\n  or(tag_0_170, mul(0x100000000, tag_13))\n  swap1\n    /* \"contracts/0xBitcoinExtended.sol\":9416:9497  (targetEthBlocksPerDiffPeriod.mul(100)).div( ethBlocksSinceLastDifficultyPeriod ) */\n  swap2\n  swap1\n  0x100000000\n  swap1\n  div\n  jump\t// in\ntag_39:\n    /* \"contracts/0xBitcoinExtended.sol\":9392:9497  uint excess_block_pct = (targetEthBlocksPerDiffPeriod.mul(100)).div( ethBlocksSinceLastDifficultyPeriod ) */\n  swap4\n  pop\n    /* \"contracts/0xBitcoinExtended.sol\":9540:9585  excess_block_pct.sub(100).limitLessThan(1000) */\n  tag_42\n    /* \"contracts/0xBitcoinExtended.sol\":9580:9584  1000 */\n  0x3e8\n    /* \"contracts/0xBitcoinExtended.sol\":9540:9565  excess_block_pct.sub(100) */\n  tag_43\n    /* \"contracts/0xBitcoinExtended.sol\":9561:9564  100 */\n  0x64\n    /* \"contracts/0xBitcoinExtended.sol\":9540:9556  excess_block_pct */\n  dup8\n    /* \"contracts/0xBitcoinExtended.sol\":9540:9560  excess_block_pct.sub */\n  or(tag_0_185, mul(0x100000000, tag_44))\n  swap1\n    /* \"contracts/0xBitcoinExtended.sol\":9540:9565  excess_block_pct.sub(100) */\n  swap2\n  swap1\n  0x100000000\n  swap1\n  div\n  jump\t// in\ntag_43:\n    /* \"contracts/0xBitcoinExtended.sol\":9540:9579  excess_block_pct.sub(100).limitLessThan */\n  or(tag_0_252, mul(0x100000000, tag_45))\n  swap1\n    /* \"contracts/0xBitcoinExtended.sol\":9540:9585  excess_block_pct.sub(100).limitLessThan(1000) */\n  swap2\n  swap1\n  0x100000000\n  swap1\n  div\n  jump\t// in\ntag_42:\n    /* \"contracts/0xBitcoinExtended.sol\":9510:9585  uint excess_block_pct_extra = excess_block_pct.sub(100).limitLessThan(1000) */\n  swap3\n  pop\n    /* \"contracts/0xBitcoinExtended.sol\":9788:9856  miningTarget.sub(miningTarget.div(2000).mul(excess_block_pct_extra)) */\n  tag_46\n    /* \"contracts/0xBitcoinExtended.sol\":9805:9855  miningTarget.div(2000).mul(excess_block_pct_extra) */\n  tag_47\n    /* \"contracts/0xBitcoinExtended.sol\":9832:9854  excess_block_pct_extra */\n  dup5\n    /* \"contracts/0xBitcoinExtended.sol\":9805:9827  miningTarget.div(2000) */\n  tag_48\n    /* \"contracts/0xBitcoinExtended.sol\":9822:9826  2000 */\n  0x7d0\n    /* \"contracts/0xBitcoinExtended.sol\":9805:9817  miningTarget */\n  sload(0xb)\n    /* \"contracts/0xBitcoinExtended.sol\":9805:9821  miningTarget.div */\n  or(tag_0_170, mul(0x100000000, tag_13))\n  swap1\n    /* \"contracts/0xBitcoinExtended.sol\":9805:9827  miningTarget.div(2000) */\n  swap2\n  swap1\n  0x100000000\n  swap1\n  div\n  jump\t// in\ntag_48:\n    /* \"contracts/0xBitcoinExtended.sol\":9805:9831  miningTarget.div(2000).mul */\n  or(tag_0_249, mul(0x100000000, tag_41))\n  swap1\n    /* \"contracts/0xBitcoinExtended.sol\":9805:9855  miningTarget.div(2000).mul(excess_block_pct_extra) */\n  swap2\n  swap1\n  0x100000000\n  swap1\n  div\n  jump\t// in\ntag_47:\n    /* \"contracts/0xBitcoinExtended.sol\":9788:9800  miningTarget */\n  sload(0xb)\n    /* \"contracts/0xBitcoinExtended.sol\":9788:9804  miningTarget.sub */\n  or(tag_0_185, mul(0x100000000, tag_44))\n  swap1\n    /* \"contracts/0xBitcoinExtended.sol\":9788:9856  miningTarget.sub(miningTarget.div(2000).mul(excess_block_pct_extra)) */\n  swap2\n  swap1\n  0x100000000\n  swap1\n  div\n  jump\t// in\ntag_46:\n    /* \"contracts/0xBitcoinExtended.sol\":9773:9785  miningTarget */\n  0xb\n    /* \"contracts/0xBitcoinExtended.sol\":9773:9856  miningTarget = miningTarget.sub(miningTarget.div(2000).mul(excess_block_pct_extra)) */\n  dup2\n  swap1\n  sstore\n  pop\n    /* \"contracts/0xBitcoinExtended.sol\":9300:10282  if( ethBlocksSinceLastDifficultyPeriod < targetEthBlocksPerDiffPeriod )... */\n  jump(tag_49)\ntag_38:\n    /* \"contracts/0xBitcoinExtended.sol\":9927:10008  (ethBlocksSinceLastDifficultyPeriod.mul(100)).div( targetEthBlocksPerDiffPeriod ) */\n  tag_50\n    /* \"contracts/0xBitcoinExtended.sol\":9978:10006  targetEthBlocksPerDiffPeriod */\n  dup6\n    /* \"contracts/0xBitcoinExtended.sol\":9928:9971  ethBlocksSinceLastDifficultyPeriod.mul(100) */\n  tag_51\n    /* \"contracts/0xBitcoinExtended.sol\":9967:9970  100 */\n  0x64\n    /* \"contracts/0xBitcoinExtended.sol\":9928:9962  ethBlocksSinceLastDifficultyPeriod */\n  dup11\n    /* \"contracts/0xBitcoinExtended.sol\":9928:9966  ethBlocksSinceLastDifficultyPeriod.mul */\n  or(tag_0_249, mul(0x100000000, tag_41))\n  swap1\n    /* \"contracts/0xBitcoinExtended.sol\":9928:9971  ethBlocksSinceLastDifficultyPeriod.mul(100) */\n  swap2\n  swap1\n  0x100000000\n  swap1\n  div\n  jump\t// in\ntag_51:\n    /* \"contracts/0xBitcoinExtended.sol\":9927:9976  (ethBlocksSinceLastDifficultyPeriod.mul(100)).div */\n  or(tag_0_170, mul(0x100000000, tag_13))\n  swap1\n    /* \"contracts/0xBitcoinExtended.sol\":9927:10008  (ethBlocksSinceLastDifficultyPeriod.mul(100)).div( targetEthBlocksPerDiffPeriod ) */\n  swap2\n  swap1\n  0x100000000\n  swap1\n  div\n  jump\t// in\ntag_50:\n    /* \"contracts/0xBitcoinExtended.sol\":9901:10008  uint shortage_block_pct = (ethBlocksSinceLastDifficultyPeriod.mul(100)).div( targetEthBlocksPerDiffPeriod ) */\n  swap2\n  pop\n    /* \"contracts/0xBitcoinExtended.sol\":10053:10100  shortage_block_pct.sub(100).limitLessThan(1000) */\n  tag_52\n    /* \"contracts/0xBitcoinExtended.sol\":10095:10099  1000 */\n  0x3e8\n    /* \"contracts/0xBitcoinExtended.sol\":10053:10080  shortage_block_pct.sub(100) */\n  tag_53\n    /* \"contracts/0xBitcoinExtended.sol\":10076:10079  100 */\n  0x64\n    /* \"contracts/0xBitcoinExtended.sol\":10053:10071  shortage_block_pct */\n  dup6\n    /* \"contracts/0xBitcoinExtended.sol\":10053:10075  shortage_block_pct.sub */\n  or(tag_0_185, mul(0x100000000, tag_44))\n  swap1\n    /* \"contracts/0xBitcoinExtended.sol\":10053:10080  shortage_block_pct.sub(100) */\n  swap2\n  swap1\n  0x100000000\n  swap1\n  div\n  jump\t// in\ntag_53:\n    /* \"contracts/0xBitcoinExtended.sol\":10053:10094  shortage_block_pct.sub(100).limitLessThan */\n  or(tag_0_252, mul(0x100000000, tag_45))\n  swap1\n    /* \"contracts/0xBitcoinExtended.sol\":10053:10100  shortage_block_pct.sub(100).limitLessThan(1000) */\n  swap2\n  swap1\n  0x100000000\n  swap1\n  div\n  jump\t// in\ntag_52:\n    /* \"contracts/0xBitcoinExtended.sol\":10021:10100  uint shortage_block_pct_extra = shortage_block_pct.sub(100).limitLessThan(1000) */\n  swap1\n  pop\n    /* \"contracts/0xBitcoinExtended.sol\":10183:10253  miningTarget.add(miningTarget.div(2000).mul(shortage_block_pct_extra)) */\n  tag_54\n    /* \"contracts/0xBitcoinExtended.sol\":10200:10252  miningTarget.div(2000).mul(shortage_block_pct_extra) */\n  tag_55\n    /* \"contracts/0xBitcoinExtended.sol\":10227:10251  shortage_block_pct_extra */\n  dup3\n    /* \"contracts/0xBitcoinExtended.sol\":10200:10222  miningTarget.div(2000) */\n  tag_56\n    /* \"contracts/0xBitcoinExtended.sol\":10217:10221  2000 */\n  0x7d0\n    /* \"contracts/0xBitcoinExtended.sol\":10200:10212  miningTarget */\n  sload(0xb)\n    /* \"contracts/0xBitcoinExtended.sol\":10200:10216  miningTarget.div */\n  or(tag_0_170, mul(0x100000000, tag_13))\n  swap1\n    /* \"contracts/0xBitcoinExtended.sol\":10200:10222  miningTarget.div(2000) */\n  swap2\n  swap1\n  0x100000000\n  swap1\n  div\n  jump\t// in\ntag_56:\n    /* \"contracts/0xBitcoinExtended.sol\":10200:10226  miningTarget.div(2000).mul */\n  or(tag_0_249, mul(0x100000000, tag_41))\n  swap1\n    /* \"contracts/0xBitcoinExtended.sol\":10200:10252  miningTarget.div(2000).mul(shortage_block_pct_extra) */\n  swap2\n  swap1\n  0x100000000\n  swap1\n  div\n  jump\t// in\ntag_55:\n    /* \"contracts/0xBitcoinExtended.sol\":10183:10195  miningTarget */\n  sload(0xb)\n    /* \"contracts/0xBitcoinExtended.sol\":10183:10199  miningTarget.add */\n  or(tag_0_177, mul(0x100000000, tag_24))\n  swap1\n    /* \"contracts/0xBitcoinExtended.sol\":10183:10253  miningTarget.add(miningTarget.div(2000).mul(shortage_block_pct_extra)) */\n  swap2\n  swap1\n  0x100000000\n  swap1\n  div\n  jump\t// in\ntag_54:\n    /* \"contracts/0xBitcoinExtended.sol\":10168:10180  miningTarget */\n  0xb\n    /* \"contracts/0xBitcoinExtended.sol\":10168:10253  miningTarget = miningTarget.add(miningTarget.div(2000).mul(shortage_block_pct_extra)) */\n  dup2\n  swap1\n  sstore\n  pop\n    /* \"contracts/0xBitcoinExtended.sol\":9300:10282  if( ethBlocksSinceLastDifficultyPeriod < targetEthBlocksPerDiffPeriod )... */\ntag_49:\n    /* \"contracts/0xBitcoinExtended.sol\":10326:10338  block.number */\n  number\n    /* \"contracts/0xBitcoinExtended.sol\":10294:10323  latestDifficultyPeriodStarted */\n  0x6\n    /* \"contracts/0xBitcoinExtended.sol\":10294:10338  latestDifficultyPeriodStarted = block.number */\n  dup2\n  swap1\n  sstore\n  pop\n    /* \"contracts/0xBitcoinExtended.sol\":10367:10382  _MINIMUM_TARGET */\n  sload(0x9)\n    /* \"contracts/0xBitcoinExtended.sol\":10352:10364  miningTarget */\n  sload(0xb)\n    /* \"contracts/0xBitcoinExtended.sol\":10352:10382  miningTarget < _MINIMUM_TARGET */\n  lt\n    /* \"contracts/0xBitcoinExtended.sol\":10349:10462  if(miningTarget < _MINIMUM_TARGET) //very difficult... */\n  iszero\n  tag_57\n  jumpi\n    /* \"contracts/0xBitcoinExtended.sol\":10436:10451  _MINIMUM_TARGET */\n  sload(0x9)\n    /* \"contracts/0xBitcoinExtended.sol\":10421:10433  miningTarget */\n  0xb\n    /* \"contracts/0xBitcoinExtended.sol\":10421:10451  miningTarget = _MINIMUM_TARGET */\n  dup2\n  swap1\n  sstore\n  pop\n    /* \"contracts/0xBitcoinExtended.sol\":10349:10462  if(miningTarget < _MINIMUM_TARGET) //very difficult... */\ntag_57:\n    /* \"contracts/0xBitcoinExtended.sol\":10490:10505  _MAXIMUM_TARGET */\n  sload(0xa)\n    /* \"contracts/0xBitcoinExtended.sol\":10475:10487  miningTarget */\n  sload(0xb)\n    /* \"contracts/0xBitcoinExtended.sol\":10475:10505  miningTarget > _MAXIMUM_TARGET */\n  gt\n    /* \"contracts/0xBitcoinExtended.sol\":10472:10580  if(miningTarget > _MAXIMUM_TARGET) //very easy... */\n  iszero\n  tag_58\n  jumpi\n    /* \"contracts/0xBitcoinExtended.sol\":10554:10569  _MAXIMUM_TARGET */\n  sload(0xa)\n    /* \"contracts/0xBitcoinExtended.sol\":10539:10551  miningTarget */\n  0xb\n    /* \"contracts/0xBitcoinExtended.sol\":10539:10569  miningTarget = _MAXIMUM_TARGET */\n  dup2\n  swap1\n  sstore\n  pop\n    /* \"contracts/0xBitcoinExtended.sol\":10472:10580  if(miningTarget > _MAXIMUM_TARGET) //very easy... */\ntag_58:\n    /* \"contracts/0xBitcoinExtended.sol\":8757:10586  function _reAdjustDifficulty() internal {... */\n  pop\n  pop\n  pop\n  pop\n  pop\n  pop\n  pop\n  jump\t// out\n    /* \"contracts/0xBitcoinExtended.sol\":894:1022  function mul(uint a, uint b) internal pure returns (uint c) {... */\ntag_41:\n    /* \"contracts/0xBitcoinExtended.sol\":946:952  uint c */\n  0x0\n    /* \"contracts/0xBitcoinExtended.sol\":973:974  b */\n  dup2\n    /* \"contracts/0xBitcoinExtended.sol\":969:970  a */\n  dup4\n    /* \"contracts/0xBitcoinExtended.sol\":969:974  a * b */\n  mul\n    /* \"contracts/0xBitcoinExtended.sol\":965:974  c = a * b */\n  swap1\n  pop\n    /* \"contracts/0xBitcoinExtended.sol\":998:999  0 */\n  0x0\n    /* \"contracts/0xBitcoinExtended.sol\":993:994  a */\n  dup4\n    /* \"contracts/0xBitcoinExtended.sol\":993:999  a == 0 */\n  eq\n    /* \"contracts/0xBitcoinExtended.sol\":993:1013  a == 0 || c / a == b */\n  dup1\n  tag_60\n  jumpi\n  pop\n    /* \"contracts/0xBitcoinExtended.sol\":1012:1013  b */\n  dup2\n    /* \"contracts/0xBitcoinExtended.sol\":1007:1008  a */\n  dup4\n    /* \"contracts/0xBitcoinExtended.sol\":1003:1004  c */\n  dup3\n    /* \"contracts/0xBitcoinExtended.sol\":1003:1008  c / a */\n  dup2\n  iszero\n  iszero\n  tag_61\n  jumpi\n  invalid\ntag_61:\n  div\n    /* \"contracts/0xBitcoinExtended.sol\":1003:1013  c / a == b */\n  eq\n    /* \"contracts/0xBitcoinExtended.sol\":993:1013  a == 0 || c / a == b */\ntag_60:\n    /* \"contracts/0xBitcoinExtended.sol\":985:1014  require(a == 0 || c / a == b) */\n  iszero\n  iszero\n  tag_62\n  jumpi\n  0x0\n  dup1\n  revert\ntag_62:\n    /* \"contracts/0xBitcoinExtended.sol\":894:1022  function mul(uint a, uint b) internal pure returns (uint c) {... */\n  swap3\n  swap2\n  pop\n  pop\n  jump\t// out\n    /* \"contracts/0xBitcoinExtended.sol\":774:888  function sub(uint a, uint b) internal pure returns (uint c) {... */\ntag_44:\n    /* \"contracts/0xBitcoinExtended.sol\":826:832  uint c */\n  0x0\n    /* \"contracts/0xBitcoinExtended.sol\":858:859  a */\n  dup3\n    /* \"contracts/0xBitcoinExtended.sol\":853:854  b */\n  dup3\n    /* \"contracts/0xBitcoinExtended.sol\":853:859  b <= a */\n  gt\n  iszero\n    /* \"contracts/0xBitcoinExtended.sol\":845:860  require(b <= a) */\n  iszero\n  iszero\n  tag_64\n  jumpi\n  0x0\n  dup1\n  revert\ntag_64:\n    /* \"contracts/0xBitcoinExtended.sol\":879:880  b */\n  dup2\n    /* \"contracts/0xBitcoinExtended.sol\":875:876  a */\n  dup4\n    /* \"contracts/0xBitcoinExtended.sol\":875:880  a - b */\n  sub\n    /* \"contracts/0xBitcoinExtended.sol\":871:880  c = a - b */\n  swap1\n  pop\n    /* \"contracts/0xBitcoinExtended.sol\":774:888  function sub(uint a, uint b) internal pure returns (uint c) {... */\n  swap3\n  swap2\n  pop\n  pop\n  jump\t// out\n    /* \"contracts/0xBitcoinExtended.sol\":1229:1355  function limitLessThan(uint a, uint b) internal pure returns (uint c) {... */\ntag_45:\n    /* \"contracts/0xBitcoinExtended.sol\":1291:1297  uint c */\n  0x0\n    /* \"contracts/0xBitcoinExtended.sol\":1317:1318  b */\n  dup2\n    /* \"contracts/0xBitcoinExtended.sol\":1313:1314  a */\n  dup4\n    /* \"contracts/0xBitcoinExtended.sol\":1313:1318  a > b */\n  gt\n    /* \"contracts/0xBitcoinExtended.sol\":1310:1328  if(a > b) return b */\n  iszero\n  tag_66\n  jumpi\n    /* \"contracts/0xBitcoinExtended.sol\":1327:1328  b */\n  dup2\n    /* \"contracts/0xBitcoinExtended.sol\":1320:1328  return b */\n  swap1\n  pop\n  jump(tag_65)\n    /* \"contracts/0xBitcoinExtended.sol\":1310:1328  if(a > b) return b */\ntag_66:\n    /* \"contracts/0xBitcoinExtended.sol\":1346:1347  a */\n  dup3\n    /* \"contracts/0xBitcoinExtended.sol\":1339:1347  return a */\n  swap1\n  pop\n    /* \"contracts/0xBitcoinExtended.sol\":1229:1355  function limitLessThan(uint a, uint b) internal pure returns (uint c) {... */\ntag_65:\n  swap3\n  swap2\n  pop\n  pop\n  jump\t// out\n    /* \"contracts/0xBitcoinExtended.sol\":3801:18453  contract _0xBitcoinToken is ERC20Interface, Owned {... */\ntag_9:\n  dup3\n  dup1\n  sload\n  0x1\n  dup2\n  0x1\n  and\n  iszero\n  0x100\n  mul\n  sub\n  and\n  0x2\n  swap1\n  div\n  swap1\n  0x0\n  mstore\n  keccak256(0x0, 0x20)\n  swap1\n  0x1f\n  add\n  0x20\n  swap1\n  div\n  dup2\n  add\n  swap3\n  dup3\n  0x1f\n  lt\n  tag_68\n  jumpi\n  dup1\n  mload\n  not(0xff)\n  and\n  dup4\n  dup1\n  add\n  or\n  dup6\n  sstore\n  jump(tag_67)\ntag_68:\n  dup3\n  dup1\n  add\n  0x1\n  add\n  dup6\n  sstore\n  dup3\n  iszero\n  tag_67\n  jumpi\n  swap2\n  dup3\n  add\ntag_69:\n  dup3\n  dup2\n  gt\n  iszero\n  tag_70\n  jumpi\n  dup3\n  mload\n  dup3\n  sstore\n  swap2\n  0x20\n  add\n  swap2\n  swap1\n  0x1\n  add\n  swap1\n  jump(tag_69)\ntag_70:\ntag_67:\n  pop\n  swap1\n  pop\n  tag_71\n  swap2\n  swap1\n  jump\t// in(tag_72)\ntag_71:\n  pop\n  swap1\n  jump\t// out\ntag_72:\n  tag_73\n  swap2\n  swap1\ntag_74:\n  dup1\n  dup3\n  gt\n  iszero\n  tag_75\n  jumpi\n  0x0\n  dup2\n  0x0\n  swap1\n  sstore\n  pop\n  0x1\n  add\n  jump(tag_74)\ntag_75:\n  pop\n  swap1\n  jump\ntag_73:\n  swap1\n  jump\t// out\ntag_16:\n  dataSize(sub_0)\n  dup1\n  dataOffset(sub_0)\n  0x0\n  codecopy\n  0x0\n  return\nstop\n\nsub_0: assembly {\n        /* \"contracts/0xBitcoinExtended.sol\":3801:18453  contract _0xBitcoinToken is ERC20Interface, Owned {... */\n      mstore(0x40, 0x60)\n      jumpi(tag_1, lt(calldatasize, 0x4))\n      calldataload(0x0)\n      0x100000000000000000000000000000000000000000000000000000000\n      swap1\n      div\n      0xffffffff\n      and\n      dup1\n      0x6fdde03\n      eq\n      tag_2\n      jumpi\n      dup1\n      0x95ea7b3\n      eq\n      tag_3\n      jumpi\n      dup1\n      0x163aa00d\n      eq\n      tag_4\n      jumpi\n      dup1\n      0x17da485f\n      eq\n      tag_5\n      jumpi\n      dup1\n      0x1801fbe5\n      eq\n      tag_6\n      jumpi\n      dup1\n      0x18160ddd\n      eq\n      tag_7\n      jumpi\n      dup1\n      0x23b872dd\n      eq\n      tag_8\n      jumpi\n      dup1\n      0x2d38bf7a\n      eq\n      tag_9\n      jumpi\n      dup1\n      0x313ce567\n      eq\n      tag_10\n      jumpi\n      dup1\n      0x32e99708\n      eq\n      tag_11\n      jumpi\n      dup1\n      0x3eaaf86b\n      eq\n      tag_12\n      jumpi\n      dup1\n      0x490203a7\n      eq\n      tag_13\n      jumpi\n      dup1\n      0x4ef37628\n      eq\n      tag_14\n      jumpi\n      dup1\n      0x4fa972e1\n      eq\n      tag_15\n      jumpi\n      dup1\n      0x5515a1ea\n      eq\n      tag_16\n      jumpi\n      dup1\n      0x5ce7e030\n      eq\n      tag_17\n      jumpi\n      dup1\n      0x6de9f32b\n      eq\n      tag_18\n      jumpi\n      dup1\n      0x6fd396d6\n      eq\n      tag_19\n      jumpi\n      dup1\n      0x70a08231\n      eq\n      tag_20\n      jumpi\n      dup1\n      0x79ba5097\n      eq\n      tag_21\n      jumpi\n      dup1\n      0x81269a56\n      eq\n      tag_22\n      jumpi\n      dup1\n      0x829965cc\n      eq\n      tag_23\n      jumpi\n      dup1\n      0x87a2a9d6\n      eq\n      tag_24\n      jumpi\n      dup1\n      0x8a769d35\n      eq\n      tag_25\n      jumpi\n      dup1\n      0x8ae0368b\n      eq\n      tag_26\n      jumpi\n      dup1\n      0x8da5cb5b\n      eq\n      tag_27\n      jumpi\n      dup1\n      0x95d89b41\n      eq\n      tag_28\n      jumpi\n      dup1\n      0x97566aa0\n      eq\n      tag_29\n      jumpi\n      dup1\n      0xa9059cbb\n      eq\n      tag_30\n      jumpi\n      dup1\n      0xb5ade81b\n      eq\n      tag_31\n      jumpi\n      dup1\n      0xbafedcaa\n      eq\n      tag_32\n      jumpi\n      dup1\n      0xcae9ca51\n      eq\n      tag_33\n      jumpi\n      dup1\n      0xcb9ae707\n      eq\n      tag_34\n      jumpi\n      dup1\n      0xd4ee1d90\n      eq\n      tag_35\n      jumpi\n      dup1\n      0xdc39d06d\n      eq\n      tag_36\n      jumpi\n      dup1\n      0xdc6e9cf9\n      eq\n      tag_37\n      jumpi\n      dup1\n      0xdd62ed3e\n      eq\n      tag_38\n      jumpi\n      dup1\n      0xf2fde38b\n      eq\n      tag_39\n      jumpi\n    tag_1:\n        /* \"contracts/0xBitcoinExtended.sol\":16324:16332  revert() */\n      0x0\n      dup1\n      revert\n        /* \"contracts/0xBitcoinExtended.sol\":3949:3968  string public  name */\n    tag_2:\n      jumpi(tag_42, iszero(callvalue))\n      0x0\n      dup1\n      revert\n    tag_42:\n      tag_43\n      jump(tag_44)\n    tag_43:\n      mload(0x40)\n      dup1\n      dup1\n      0x20\n      add\n      dup3\n      dup2\n      sub\n      dup3\n      mstore\n      dup4\n      dup2\n      dup2\n      mload\n      dup2\n      mstore\n      0x20\n      add\n      swap2\n      pop\n      dup1\n      mload\n      swap1\n      0x20\n      add\n      swap1\n      dup1\n      dup4\n      dup4\n        /* \"--CODEGEN--\":23:24   */\n      0x0\n        /* \"--CODEGEN--\":8:108   */\n    tag_45:\n        /* \"--CODEGEN--\":33:36   */\n      dup4\n        /* \"--CODEGEN--\":30:31   */\n      dup2\n        /* \"--CODEGEN--\":27:29   */\n      lt\n        /* \"--CODEGEN--\":8:108   */\n      iszero\n      tag_46\n      jumpi\n        /* \"--CODEGEN--\":99:100   */\n      dup1\n        /* \"--CODEGEN--\":94:97   */\n      dup3\n        /* \"--CODEGEN--\":90:93   */\n      add\n        /* \"--CODEGEN--\":84:89   */\n      mload\n        /* \"--CODEGEN--\":80:81   */\n      dup2\n        /* \"--CODEGEN--\":75:78   */\n      dup5\n        /* \"--CODEGEN--\":71:74   */\n      add\n        /* \"--CODEGEN--\":64:70   */\n      mstore\n        /* \"--CODEGEN--\":52:54   */\n      0x20\n        /* \"--CODEGEN--\":49:50   */\n      dup2\n        /* \"--CODEGEN--\":45:48   */\n      add\n        /* \"--CODEGEN--\":40:55   */\n      swap1\n      pop\n        /* \"--CODEGEN--\":8:108   */\n      jump(tag_45)\n    tag_46:\n        /* \"--CODEGEN--\":12:26   */\n      pop\n        /* \"--CODEGEN--\":3:112   */\n      pop\n      pop\n      pop\n      swap1\n      pop\n      swap1\n      dup2\n      add\n      swap1\n      0x1f\n      and\n      dup1\n      iszero\n      tag_48\n      jumpi\n      dup1\n      dup3\n      sub\n      dup1\n      mload\n      0x1\n      dup4\n      0x20\n      sub\n      0x100\n      exp\n      sub\n      not\n      and\n      dup2\n      mstore\n      0x20\n      add\n      swap2\n      pop\n    tag_48:\n      pop\n      swap3\n      pop\n      pop\n      pop\n      mload(0x40)\n      dup1\n      swap2\n      sub\n      swap1\n      return\n        /* \"contracts/0xBitcoinExtended.sol\":13894:14097  function approve(address spender, uint tokens) public returns (bool success) {... */\n    tag_3:\n      jumpi(tag_49, iszero(callvalue))\n      0x0\n      dup1\n      revert\n    tag_49:\n      tag_50\n      0x4\n      dup1\n      dup1\n      calldataload\n      0xffffffffffffffffffffffffffffffffffffffff\n      and\n      swap1\n      0x20\n      add\n      swap1\n      swap2\n      swap1\n      dup1\n      calldataload\n      swap1\n      0x20\n      add\n      swap1\n      swap2\n      swap1\n      pop\n      pop\n      jump(tag_51)\n    tag_50:\n      mload(0x40)\n      dup1\n      dup3\n      iszero\n      iszero\n      iszero\n      iszero\n      dup2\n      mstore\n      0x20\n      add\n      swap2\n      pop\n      pop\n      mload(0x40)\n      dup1\n      swap2\n      sub\n      swap1\n      return\n        /* \"contracts/0xBitcoinExtended.sol\":4688:4724  uint public lastRewardEthBlockNumber */\n    tag_4:\n      jumpi(tag_52, iszero(callvalue))\n      0x0\n      dup1\n      revert\n    tag_52:\n      tag_53\n      jump(tag_54)\n    tag_53:\n      mload(0x40)\n      dup1\n      dup3\n      dup2\n      mstore\n      0x20\n      add\n      swap2\n      pop\n      pop\n      mload(0x40)\n      dup1\n      swap2\n      sub\n      swap1\n      return\n        /* \"contracts/0xBitcoinExtended.sol\":10870:10989  function getMiningDifficulty() public constant returns (uint) {... */\n    tag_5:\n      jumpi(tag_55, iszero(callvalue))\n      0x0\n      dup1\n      revert\n    tag_55:\n      tag_56\n      jump(tag_57)\n    tag_56:\n      mload(0x40)\n      dup1\n      dup3\n      dup2\n      mstore\n      0x20\n      add\n      swap2\n      pop\n      pop\n      mload(0x40)\n      dup1\n      swap2\n      sub\n      swap1\n      return\n        /* \"contracts/0xBitcoinExtended.sol\":5878:7343  function mint(uint256 nonce, bytes32 challenge_digest) public returns (bool success) {... */\n    tag_6:\n      jumpi(tag_58, iszero(callvalue))\n      0x0\n      dup1\n      revert\n    tag_58:\n      tag_59\n      0x4\n      dup1\n      dup1\n      calldataload\n      swap1\n      0x20\n      add\n      swap1\n      swap2\n      swap1\n      dup1\n      calldataload\n      not(0x0)\n      and\n      swap1\n      0x20\n      add\n      swap1\n      swap2\n      swap1\n      pop\n      pop\n      jump(tag_60)\n    tag_59:\n      mload(0x40)\n      dup1\n      dup3\n      iszero\n      iszero\n      iszero\n      iszero\n      dup2\n      mstore\n      0x20\n      add\n      swap2\n      pop\n      pop\n      mload(0x40)\n      dup1\n      swap2\n      sub\n      swap1\n      return\n        /* \"contracts/0xBitcoinExtended.sol\":12304:12420  function totalSupply() public constant returns (uint) {... */\n    tag_7:\n      jumpi(tag_61, iszero(callvalue))\n      0x0\n      dup1\n      revert\n    tag_61:\n      tag_62\n      jump(tag_63)\n    tag_62:\n      mload(0x40)\n      dup1\n      dup3\n      dup2\n      mstore\n      0x20\n      add\n      swap2\n      pop\n      pop\n      mload(0x40)\n      dup1\n      swap2\n      sub\n      swap1\n      return\n        /* \"contracts/0xBitcoinExtended.sol\":14638:14976  function transferFrom(address from, address to, uint tokens) public returns (bool success) {... */\n    tag_8:\n      jumpi(tag_64, iszero(callvalue))\n      0x0\n      dup1\n      revert\n    tag_64:\n      tag_65\n      0x4\n      dup1\n      dup1\n      calldataload\n      0xffffffffffffffffffffffffffffffffffffffff\n      and\n      swap1\n      0x20\n      add\n      swap1\n      swap2\n      swap1\n      dup1\n      calldataload\n      0xffffffffffffffffffffffffffffffffffffffff\n      and\n      swap1\n      0x20\n      add\n      swap1\n      swap2\n      swap1\n      dup1\n      calldataload\n      swap1\n      0x20\n      add\n      swap1\n      swap2\n      swap1\n      pop\n      pop\n      jump(tag_66)\n    tag_65:\n      mload(0x40)\n      dup1\n      dup3\n      iszero\n      iszero\n      iszero\n      iszero\n      dup2\n      mstore\n      0x20\n      add\n      swap2\n      pop\n      pop\n      mload(0x40)\n      dup1\n      swap2\n      sub\n      swap1\n      return\n        /* \"contracts/0xBitcoinExtended.sol\":4559:4580  uint public rewardEra */\n    tag_9:\n      jumpi(tag_67, iszero(callvalue))\n      0x0\n      dup1\n      revert\n    tag_67:\n      tag_68\n      jump(tag_69)\n    tag_68:\n      mload(0x40)\n      dup1\n      dup3\n      dup2\n      mstore\n      0x20\n      add\n      swap2\n      pop\n      pop\n      mload(0x40)\n      dup1\n      swap2\n      sub\n      swap1\n      return\n        /* \"contracts/0xBitcoinExtended.sol\":3975:3996  uint8 public decimals */\n    tag_10:\n      jumpi(tag_70, iszero(callvalue))\n      0x0\n      dup1\n      revert\n    tag_70:\n      tag_71\n      jump(tag_72)\n    tag_71:\n      mload(0x40)\n      dup1\n      dup3\n      0xff\n      and\n      0xff\n      and\n      dup2\n      mstore\n      0x20\n      add\n      swap2\n      pop\n      pop\n      mload(0x40)\n      dup1\n      swap2\n      sub\n      swap1\n      return\n        /* \"contracts/0xBitcoinExtended.sol\":10995:11087  function getMiningTarget() public constant returns (uint) {... */\n    tag_11:\n      jumpi(tag_73, iszero(callvalue))\n      0x0\n      dup1\n      revert\n    tag_73:\n      tag_74\n      jump(tag_75)\n    tag_74:\n      mload(0x40)\n      dup1\n      dup3\n      dup2\n      mstore\n      0x20\n      add\n      swap2\n      pop\n      pop\n      mload(0x40)\n      dup1\n      swap2\n      sub\n      swap1\n      return\n        /* \"contracts/0xBitcoinExtended.sol\":4003:4027  uint public _totalSupply */\n    tag_12:\n      jumpi(tag_76, iszero(callvalue))\n      0x0\n      dup1\n      revert\n    tag_76:\n      tag_77\n      jump(tag_78)\n    tag_77:\n      mload(0x40)\n      dup1\n      dup3\n      dup2\n      mstore\n      0x20\n      add\n      swap2\n      pop\n      pop\n      mload(0x40)\n      dup1\n      swap2\n      sub\n      swap1\n      return\n        /* \"contracts/0xBitcoinExtended.sol\":11201:11458  function getMiningReward() public constant returns (uint) {... */\n    tag_13:\n      jumpi(tag_79, iszero(callvalue))\n      0x0\n      dup1\n      revert\n    tag_79:\n      tag_80\n      jump(tag_81)\n    tag_80:\n      mload(0x40)\n      dup1\n      dup3\n      dup2\n      mstore\n      0x20\n      add\n      swap2\n      pop\n      pop\n      mload(0x40)\n      dup1\n      swap2\n      sub\n      swap1\n      return\n        /* \"contracts/0xBitcoinExtended.sol\":10678:10781  function getChallengeNumber() public constant returns (bytes32) {... */\n    tag_14:\n      jumpi(tag_82, iszero(callvalue))\n      0x0\n      dup1\n      revert\n    tag_82:\n      tag_83\n      jump(tag_84)\n    tag_83:\n      mload(0x40)\n      dup1\n      dup3\n      not(0x0)\n      and\n      not(0x0)\n      and\n      dup2\n      mstore\n      0x20\n      add\n      swap2\n      pop\n      pop\n      mload(0x40)\n      dup1\n      swap2\n      sub\n      swap1\n      return\n        /* \"contracts/0xBitcoinExtended.sol\":4586:4613  uint public maxSupplyForEra */\n    tag_15:\n      jumpi(tag_85, iszero(callvalue))\n      0x0\n      dup1\n      revert\n    tag_85:\n      tag_86\n      jump(tag_87)\n    tag_86:\n      mload(0x40)\n      dup1\n      dup3\n      dup2\n      mstore\n      0x20\n      add\n      swap2\n      pop\n      pop\n      mload(0x40)\n      dup1\n      swap2\n      sub\n      swap1\n      return\n        /* \"contracts/0xBitcoinExtended.sol\":17074:18449  function mintWithoutPoW( ) public returns (bool success) {... */\n    tag_16:\n      jumpi(tag_88, iszero(callvalue))\n      0x0\n      dup1\n      revert\n    tag_88:\n      tag_89\n      jump(tag_90)\n    tag_89:\n      mload(0x40)\n      dup1\n      dup3\n      iszero\n      iszero\n      iszero\n      iszero\n      dup2\n      mstore\n      0x20\n      add\n      swap2\n      pop\n      pop\n      mload(0x40)\n      dup1\n      swap2\n      sub\n      swap1\n      return\n        /* \"contracts/0xBitcoinExtended.sol\":16988:17067  function setTokensMinted(uint amt) public   {... */\n    tag_17:\n      jumpi(tag_91, iszero(callvalue))\n      0x0\n      dup1\n      revert\n    tag_91:\n      tag_92\n      0x4\n      dup1\n      dup1\n      calldataload\n      swap1\n      0x20\n      add\n      swap1\n      swap2\n      swap1\n      pop\n      pop\n      jump(tag_93)\n    tag_92:\n      stop\n        /* \"contracts/0xBitcoinExtended.sol\":4812:4836  uint public tokensMinted */\n    tag_18:\n      jumpi(tag_94, iszero(callvalue))\n      0x0\n      dup1\n      revert\n    tag_94:\n      tag_95\n      jump(tag_96)\n    tag_95:\n      mload(0x40)\n      dup1\n      dup3\n      dup2\n      mstore\n      0x20\n      add\n      swap2\n      pop\n      pop\n      mload(0x40)\n      dup1\n      swap2\n      sub\n      swap1\n      return\n        /* \"contracts/0xBitcoinExtended.sol\":4621:4648  address public lastRewardTo */\n    tag_19:\n      jumpi(tag_97, iszero(callvalue))\n      0x0\n      dup1\n      revert\n    tag_97:\n      tag_98\n      jump(tag_99)\n    tag_98:\n      mload(0x40)\n      dup1\n      dup3\n      0xffffffffffffffffffffffffffffffffffffffff\n      and\n      0xffffffffffffffffffffffffffffffffffffffff\n      and\n      dup2\n      mstore\n      0x20\n      add\n      swap2\n      pop\n      pop\n      mload(0x40)\n      dup1\n      swap2\n      sub\n      swap1\n      return\n        /* \"contracts/0xBitcoinExtended.sol\":12645:12769  function balanceOf(address tokenOwner) public constant returns (uint balance) {... */\n    tag_20:\n      jumpi(tag_100, iszero(callvalue))\n      0x0\n      dup1\n      revert\n    tag_100:\n      tag_101\n      0x4\n      dup1\n      dup1\n      calldataload\n      0xffffffffffffffffffffffffffffffffffffffff\n      and\n      swap1\n      0x20\n      add\n      swap1\n      swap2\n      swap1\n      pop\n      pop\n      jump(tag_102)\n    tag_101:\n      mload(0x40)\n      dup1\n      dup3\n      dup2\n      mstore\n      0x20\n      add\n      swap2\n      pop\n      pop\n      mload(0x40)\n      dup1\n      swap2\n      sub\n      swap1\n      return\n        /* \"contracts/0xBitcoinExtended.sol\":3345:3536  function acceptOwnership() public {... */\n    tag_21:\n      jumpi(tag_103, iszero(callvalue))\n      0x0\n      dup1\n      revert\n    tag_103:\n      tag_104\n      jump(tag_105)\n    tag_104:\n      stop\n        /* \"contracts/0xBitcoinExtended.sol\":11779:12113  function checkMintSolution(uint256 nonce, bytes32 challenge_digest, bytes32 challenge_number, uint testTarget) public view returns (bool success) {... */\n    tag_22:\n      jumpi(tag_106, iszero(callvalue))\n      0x0\n      dup1\n      revert\n    tag_106:\n      tag_107\n      0x4\n      dup1\n      dup1\n      calldataload\n      swap1\n      0x20\n      add\n      swap1\n      swap2\n      swap1\n      dup1\n      calldataload\n      not(0x0)\n      and\n      swap1\n      0x20\n      add\n      swap1\n      swap2\n      swap1\n      dup1\n      calldataload\n      not(0x0)\n      and\n      swap1\n      0x20\n      add\n      swap1\n      swap2\n      swap1\n      dup1\n      calldataload\n      swap1\n      0x20\n      add\n      swap1\n      swap2\n      swap1\n      pop\n      pop\n      jump(tag_108)\n    tag_107:\n      mload(0x40)\n      dup1\n      dup3\n      iszero\n      iszero\n      iszero\n      iszero\n      dup2\n      mstore\n      0x20\n      add\n      swap2\n      pop\n      pop\n      mload(0x40)\n      dup1\n      swap2\n      sub\n      swap1\n      return\n        /* \"contracts/0xBitcoinExtended.sol\":4087:4109  uint public epochCount */\n    tag_23:\n      jumpi(tag_109, iszero(callvalue))\n      0x0\n      dup1\n      revert\n    tag_109:\n      tag_110\n      jump(tag_111)\n    tag_110:\n      mload(0x40)\n      dup1\n      dup3\n      dup2\n      mstore\n      0x20\n      add\n      swap2\n      pop\n      pop\n      mload(0x40)\n      dup1\n      swap2\n      sub\n      swap1\n      return\n        /* \"contracts/0xBitcoinExtended.sol\":4393:4430  uint public  _MAXIMUM_TARGET = 2**234 */\n    tag_24:\n      jumpi(tag_112, iszero(callvalue))\n      0x0\n      dup1\n      revert\n    tag_112:\n      tag_113\n      jump(tag_114)\n    tag_113:\n      mload(0x40)\n      dup1\n      dup3\n      dup2\n      mstore\n      0x20\n      add\n      swap2\n      pop\n      pop\n      mload(0x40)\n      dup1\n      swap2\n      sub\n      swap1\n      return\n        /* \"contracts/0xBitcoinExtended.sol\":4438:4462  uint public miningTarget */\n    tag_25:\n      jumpi(tag_115, iszero(callvalue))\n      0x0\n      dup1\n      revert\n    tag_115:\n      tag_116\n      jump(tag_117)\n    tag_116:\n      mload(0x40)\n      dup1\n      dup3\n      dup2\n      mstore\n      0x20\n      add\n      swap2\n      pop\n      pop\n      mload(0x40)\n      dup1\n      swap2\n      sub\n      swap1\n      return\n        /* \"contracts/0xBitcoinExtended.sol\":4469:4499  bytes32 public challengeNumber */\n    tag_26:\n      jumpi(tag_118, iszero(callvalue))\n      0x0\n      dup1\n      revert\n    tag_118:\n      tag_119\n      jump(tag_120)\n    tag_119:\n      mload(0x40)\n      dup1\n      dup3\n      not(0x0)\n      and\n      not(0x0)\n      and\n      dup2\n      mstore\n      0x20\n      add\n      swap2\n      pop\n      pop\n      mload(0x40)\n      dup1\n      swap2\n      sub\n      swap1\n      return\n        /* \"contracts/0xBitcoinExtended.sol\":2948:2968  address public owner */\n    tag_27:\n      jumpi(tag_121, iszero(callvalue))\n      0x0\n      dup1\n      revert\n    tag_121:\n      tag_122\n      jump(tag_123)\n    tag_122:\n      mload(0x40)\n      dup1\n      dup3\n      0xffffffffffffffffffffffffffffffffffffffff\n      and\n      0xffffffffffffffffffffffffffffffffffffffff\n      and\n      dup2\n      mstore\n      0x20\n      add\n      swap2\n      pop\n      pop\n      mload(0x40)\n      dup1\n      swap2\n      sub\n      swap1\n      return\n        /* \"contracts/0xBitcoinExtended.sol\":3922:3942  string public symbol */\n    tag_28:\n      jumpi(tag_124, iszero(callvalue))\n      0x0\n      dup1\n      revert\n    tag_124:\n      tag_125\n      jump(tag_126)\n    tag_125:\n      mload(0x40)\n      dup1\n      dup1\n      0x20\n      add\n      dup3\n      dup2\n      sub\n      dup3\n      mstore\n      dup4\n      dup2\n      dup2\n      mload\n      dup2\n      mstore\n      0x20\n      add\n      swap2\n      pop\n      dup1\n      mload\n      swap1\n      0x20\n      add\n      swap1\n      dup1\n      dup4\n      dup4\n        /* \"--CODEGEN--\":23:24   */\n      0x0\n        /* \"--CODEGEN--\":8:108   */\n    tag_127:\n        /* \"--CODEGEN--\":33:36   */\n      dup4\n        /* \"--CODEGEN--\":30:31   */\n      dup2\n        /* \"--CODEGEN--\":27:29   */\n      lt\n        /* \"--CODEGEN--\":8:108   */\n      iszero\n      tag_128\n      jumpi\n        /* \"--CODEGEN--\":99:100   */\n      dup1\n        /* \"--CODEGEN--\":94:97   */\n      dup3\n        /* \"--CODEGEN--\":90:93   */\n      add\n        /* \"--CODEGEN--\":84:89   */\n      mload\n        /* \"--CODEGEN--\":80:81   */\n      dup2\n        /* \"--CODEGEN--\":75:78   */\n      dup5\n        /* \"--CODEGEN--\":71:74   */\n      add\n        /* \"--CODEGEN--\":64:70   */\n      mstore\n        /* \"--CODEGEN--\":52:54   */\n      0x20\n        /* \"--CODEGEN--\":49:50   */\n      dup2\n        /* \"--CODEGEN--\":45:48   */\n      add\n        /* \"--CODEGEN--\":40:55   */\n      swap1\n      pop\n        /* \"--CODEGEN--\":8:108   */\n      jump(tag_127)\n    tag_128:\n        /* \"--CODEGEN--\":12:26   */\n      pop\n        /* \"--CODEGEN--\":3:112   */\n      pop\n      pop\n      pop\n      swap1\n      pop\n      swap1\n      dup2\n      add\n      swap1\n      0x1f\n      and\n      dup1\n      iszero\n      tag_130\n      jumpi\n      dup1\n      dup3\n      sub\n      dup1\n      mload\n      0x1\n      dup4\n      0x20\n      sub\n      0x100\n      exp\n      sub\n      not\n      and\n      dup2\n      mstore\n      0x20\n      add\n      swap2\n      pop\n    tag_130:\n      pop\n      swap3\n      pop\n      pop\n      pop\n      mload(0x40)\n      dup1\n      swap2\n      sub\n      swap1\n      return\n        /* \"contracts/0xBitcoinExtended.sol\":11497:11734  function getMintDigest(uint256 nonce, bytes32 challenge_digest, bytes32 challenge_number) public view returns (bytes32 digesttest) {... */\n    tag_29:\n      jumpi(tag_131, iszero(callvalue))\n      0x0\n      dup1\n      revert\n    tag_131:\n      tag_132\n      0x4\n      dup1\n      dup1\n      calldataload\n      swap1\n      0x20\n      add\n      swap1\n      swap2\n      swap1\n      dup1\n      calldataload\n      not(0x0)\n      and\n      swap1\n      0x20\n      add\n      swap1\n      swap2\n      swap1\n      dup1\n      calldataload\n      not(0x0)\n      and\n      swap1\n      0x20\n      add\n      swap1\n      swap2\n      swap1\n      pop\n      pop\n      jump(tag_133)\n    tag_132:\n      mload(0x40)\n      dup1\n      dup3\n      not(0x0)\n      and\n      not(0x0)\n      and\n      dup2\n      mstore\n      0x20\n      add\n      swap2\n      pop\n      pop\n      mload(0x40)\n      dup1\n      swap2\n      sub\n      swap1\n      return\n        /* \"contracts/0xBitcoinExtended.sol\":13118:13380  function transfer(address to, uint tokens) public returns (bool success) {... */\n    tag_30:\n      jumpi(tag_134, iszero(callvalue))\n      0x0\n      dup1\n      revert\n    tag_134:\n      tag_135\n      0x4\n      dup1\n      dup1\n      calldataload\n      0xffffffffffffffffffffffffffffffffffffffff\n      and\n      swap1\n      0x20\n      add\n      swap1\n      swap2\n      swap1\n      dup1\n      calldataload\n      swap1\n      0x20\n      add\n      swap1\n      swap2\n      swap1\n      pop\n      pop\n      jump(tag_136)\n    tag_135:\n      mload(0x40)\n      dup1\n      dup3\n      iszero\n      iszero\n      iszero\n      iszero\n      dup2\n      mstore\n      0x20\n      add\n      swap2\n      pop\n      pop\n      mload(0x40)\n      dup1\n      swap2\n      sub\n      swap1\n      return\n        /* \"contracts/0xBitcoinExtended.sol\":4143:4186  uint public _BLOCKS_PER_READJUSTMENT = 1024 */\n    tag_31:\n      jumpi(tag_137, iszero(callvalue))\n      0x0\n      dup1\n      revert\n    tag_137:\n      tag_138\n      jump(tag_139)\n    tag_138:\n      mload(0x40)\n      dup1\n      dup3\n      dup2\n      mstore\n      0x20\n      add\n      swap2\n      pop\n      pop\n      mload(0x40)\n      dup1\n      swap2\n      sub\n      swap1\n      return\n        /* \"contracts/0xBitcoinExtended.sol\":4654:4682  uint public lastRewardAmount */\n    tag_32:\n      jumpi(tag_140, iszero(callvalue))\n      0x0\n      dup1\n      revert\n    tag_140:\n      tag_141\n      jump(tag_142)\n    tag_141:\n      mload(0x40)\n      dup1\n      dup3\n      dup2\n      mstore\n      0x20\n      add\n      swap2\n      pop\n      pop\n      mload(0x40)\n      dup1\n      swap2\n      sub\n      swap1\n      return\n        /* \"contracts/0xBitcoinExtended.sol\":15779:16091  function approveAndCall(address spender, uint tokens, bytes data) public returns (bool success) {... */\n    tag_33:\n      jumpi(tag_143, iszero(callvalue))\n      0x0\n      dup1\n      revert\n    tag_143:\n      tag_144\n      0x4\n      dup1\n      dup1\n      calldataload\n      0xffffffffffffffffffffffffffffffffffffffff\n      and\n      swap1\n      0x20\n      add\n      swap1\n      swap2\n      swap1\n      dup1\n      calldataload\n      swap1\n      0x20\n      add\n      swap1\n      swap2\n      swap1\n      dup1\n      calldataload\n      swap1\n      0x20\n      add\n      swap1\n      dup3\n      add\n      dup1\n      calldataload\n      swap1\n      0x20\n      add\n      swap1\n      dup1\n      dup1\n      0x1f\n      add\n      0x20\n      dup1\n      swap2\n      div\n      mul\n      0x20\n      add\n      mload(0x40)\n      swap1\n      dup2\n      add\n      0x40\n      mstore\n      dup1\n      swap4\n      swap3\n      swap2\n      swap1\n      dup2\n      dup2\n      mstore\n      0x20\n      add\n      dup4\n      dup4\n      dup1\n      dup3\n      dup5\n      calldatacopy\n      dup3\n      add\n      swap2\n      pop\n      pop\n      pop\n      pop\n      pop\n      pop\n      swap2\n      swap1\n      pop\n      pop\n      jump(tag_145)\n    tag_144:\n      mload(0x40)\n      dup1\n      dup3\n      iszero\n      iszero\n      iszero\n      iszero\n      dup2\n      mstore\n      0x20\n      add\n      swap2\n      pop\n      pop\n      mload(0x40)\n      dup1\n      swap2\n      sub\n      swap1\n      return\n        /* \"contracts/0xBitcoinExtended.sol\":4037:4078  uint public latestDifficultyPeriodStarted */\n    tag_34:\n      jumpi(tag_146, iszero(callvalue))\n      0x0\n      dup1\n      revert\n    tag_146:\n      tag_147\n      jump(tag_148)\n    tag_147:\n      mload(0x40)\n      dup1\n      dup3\n      dup2\n      mstore\n      0x20\n      add\n      swap2\n      pop\n      pop\n      mload(0x40)\n      dup1\n      swap2\n      sub\n      swap1\n      return\n        /* \"contracts/0xBitcoinExtended.sol\":2975:2998  address public newOwner */\n    tag_35:\n      jumpi(tag_149, iszero(callvalue))\n      0x0\n      dup1\n      revert\n    tag_149:\n      tag_150\n      jump(tag_151)\n    tag_150:\n      mload(0x40)\n      dup1\n      dup3\n      0xffffffffffffffffffffffffffffffffffffffff\n      and\n      0xffffffffffffffffffffffffffffffffffffffff\n      and\n      dup2\n      mstore\n      0x20\n      add\n      swap2\n      pop\n      pop\n      mload(0x40)\n      dup1\n      swap2\n      sub\n      swap1\n      return\n        /* \"contracts/0xBitcoinExtended.sol\":16576:16760  function transferAnyERC20Token(address tokenAddress, uint tokens) public onlyOwner returns (bool success) {... */\n    tag_36:\n      jumpi(tag_152, iszero(callvalue))\n      0x0\n      dup1\n      revert\n    tag_152:\n      tag_153\n      0x4\n      dup1\n      dup1\n      calldataload\n      0xffffffffffffffffffffffffffffffffffffffff\n      and\n      swap1\n      0x20\n      add\n      swap1\n      swap2\n      swap1\n      dup1\n      calldataload\n      swap1\n      0x20\n      add\n      swap1\n      swap2\n      swap1\n      pop\n      pop\n      jump(tag_154)\n    tag_153:\n      mload(0x40)\n      dup1\n      dup3\n      iszero\n      iszero\n      iszero\n      iszero\n      dup2\n      mstore\n      0x20\n      add\n      swap2\n      pop\n      pop\n      mload(0x40)\n      dup1\n      swap2\n      sub\n      swap1\n      return\n        /* \"contracts/0xBitcoinExtended.sol\":4216:4252  uint public  _MINIMUM_TARGET = 2**16 */\n    tag_37:\n      jumpi(tag_155, iszero(callvalue))\n      0x0\n      dup1\n      revert\n    tag_155:\n      tag_156\n      jump(tag_157)\n    tag_156:\n      mload(0x40)\n      dup1\n      dup3\n      dup2\n      mstore\n      0x20\n      add\n      swap2\n      pop\n      pop\n      mload(0x40)\n      dup1\n      swap2\n      sub\n      swap1\n      return\n        /* \"contracts/0xBitcoinExtended.sol\":15262:15413  function allowance(address tokenOwner, address spender) public constant returns (uint remaining) {... */\n    tag_38:\n      jumpi(tag_158, iszero(callvalue))\n      0x0\n      dup1\n      revert\n    tag_158:\n      tag_159\n      0x4\n      dup1\n      dup1\n      calldataload\n      0xffffffffffffffffffffffffffffffffffffffff\n      and\n      swap1\n      0x20\n      add\n      swap1\n      swap2\n      swap1\n      dup1\n      calldataload\n      0xffffffffffffffffffffffffffffffffffffffff\n      and\n      swap1\n      0x20\n      add\n      swap1\n      swap2\n      swap1\n      pop\n      pop\n      jump(tag_160)\n    tag_159:\n      mload(0x40)\n      dup1\n      dup3\n      dup2\n      mstore\n      0x20\n      add\n      swap2\n      pop\n      pop\n      mload(0x40)\n      dup1\n      swap2\n      sub\n      swap1\n      return\n        /* \"contracts/0xBitcoinExtended.sol\":3237:3339  function transferOwnership(address _newOwner) public onlyOwner {... */\n    tag_39:\n      jumpi(tag_161, iszero(callvalue))\n      0x0\n      dup1\n      revert\n    tag_161:\n      tag_162\n      0x4\n      dup1\n      dup1\n      calldataload\n      0xffffffffffffffffffffffffffffffffffffffff\n      and\n      swap1\n      0x20\n      add\n      swap1\n      swap2\n      swap1\n      pop\n      pop\n      jump(tag_163)\n    tag_162:\n      stop\n        /* \"contracts/0xBitcoinExtended.sol\":3949:3968  string public  name */\n    tag_44:\n      0x3\n      dup1\n      sload\n      0x1\n      dup2\n      0x1\n      and\n      iszero\n      0x100\n      mul\n      sub\n      and\n      0x2\n      swap1\n      div\n      dup1\n      0x1f\n      add\n      0x20\n      dup1\n      swap2\n      div\n      mul\n      0x20\n      add\n      mload(0x40)\n      swap1\n      dup2\n      add\n      0x40\n      mstore\n      dup1\n      swap3\n      swap2\n      swap1\n      dup2\n      dup2\n      mstore\n      0x20\n      add\n      dup3\n      dup1\n      sload\n      0x1\n      dup2\n      0x1\n      and\n      iszero\n      0x100\n      mul\n      sub\n      and\n      0x2\n      swap1\n      div\n      dup1\n      iszero\n      tag_164\n      jumpi\n      dup1\n      0x1f\n      lt\n      tag_165\n      jumpi\n      0x100\n      dup1\n      dup4\n      sload\n      div\n      mul\n      dup4\n      mstore\n      swap2\n      0x20\n      add\n      swap2\n      jump(tag_164)\n    tag_165:\n      dup3\n      add\n      swap2\n      swap1\n      0x0\n      mstore\n      keccak256(0x0, 0x20)\n      swap1\n    tag_166:\n      dup2\n      sload\n      dup2\n      mstore\n      swap1\n      0x1\n      add\n      swap1\n      0x20\n      add\n      dup1\n      dup4\n      gt\n      tag_166\n      jumpi\n      dup3\n      swap1\n      sub\n      0x1f\n      and\n      dup3\n      add\n      swap2\n    tag_164:\n      pop\n      pop\n      pop\n      pop\n      pop\n      dup2\n      jump\t// out\n        /* \"contracts/0xBitcoinExtended.sol\":13894:14097  function approve(address spender, uint tokens) public returns (bool success) {... */\n    tag_51:\n        /* \"contracts/0xBitcoinExtended.sol\":13957:13969  bool success */\n      0x0\n        /* \"contracts/0xBitcoinExtended.sol\":14013:14019  tokens */\n      dup2\n        /* \"contracts/0xBitcoinExtended.sol\":13982:13989  allowed */\n      0x16\n        /* \"contracts/0xBitcoinExtended.sol\":13982:14001  allowed[msg.sender] */\n      0x0\n        /* \"contracts/0xBitcoinExtended.sol\":13990:14000  msg.sender */\n      caller\n        /* \"contracts/0xBitcoinExtended.sol\":13982:14001  allowed[msg.sender] */\n      0xffffffffffffffffffffffffffffffffffffffff\n      and\n      0xffffffffffffffffffffffffffffffffffffffff\n      and\n      dup2\n      mstore\n      0x20\n      add\n      swap1\n      dup2\n      mstore\n      0x20\n      add\n      0x0\n      keccak256\n        /* \"contracts/0xBitcoinExtended.sol\":13982:14010  allowed[msg.sender][spender] */\n      0x0\n        /* \"contracts/0xBitcoinExtended.sol\":14002:14009  spender */\n      dup6\n        /* \"contracts/0xBitcoinExtended.sol\":13982:14010  allowed[msg.sender][spender] */\n      0xffffffffffffffffffffffffffffffffffffffff\n      and\n      0xffffffffffffffffffffffffffffffffffffffff\n      and\n      dup2\n      mstore\n      0x20\n      add\n      swap1\n      dup2\n      mstore\n      0x20\n      add\n      0x0\n      keccak256\n        /* \"contracts/0xBitcoinExtended.sol\":13982:14019  allowed[msg.sender][spender] = tokens */\n      dup2\n      swap1\n      sstore\n      pop\n        /* \"contracts/0xBitcoinExtended.sol\":14051:14058  spender */\n      dup3\n        /* \"contracts/0xBitcoinExtended.sol\":14030:14067  Approval(msg.sender, spender, tokens) */\n      0xffffffffffffffffffffffffffffffffffffffff\n      and\n        /* \"contracts/0xBitcoinExtended.sol\":14039:14049  msg.sender */\n      caller\n        /* \"contracts/0xBitcoinExtended.sol\":14030:14067  Approval(msg.sender, spender, tokens) */\n      0xffffffffffffffffffffffffffffffffffffffff\n      and\n      0x8c5be1e5ebec7d5bd14f71427d1e84f3dd0314c0f7b2291e5b200ac8c7c3b925\n        /* \"contracts/0xBitcoinExtended.sol\":14060:14066  tokens */\n      dup5\n        /* \"contracts/0xBitcoinExtended.sol\":14030:14067  Approval(msg.sender, spender, tokens) */\n      mload(0x40)\n      dup1\n      dup3\n      dup2\n      mstore\n      0x20\n      add\n      swap2\n      pop\n      pop\n      mload(0x40)\n      dup1\n      swap2\n      sub\n      swap1\n      log3\n        /* \"contracts/0xBitcoinExtended.sol\":14085:14089  true */\n      0x1\n        /* \"contracts/0xBitcoinExtended.sol\":14078:14089  return true */\n      swap1\n      pop\n        /* \"contracts/0xBitcoinExtended.sol\":13894:14097  function approve(address spender, uint tokens) public returns (bool success) {... */\n      swap3\n      swap2\n      pop\n      pop\n      jump\t// out\n        /* \"contracts/0xBitcoinExtended.sol\":4688:4724  uint public lastRewardEthBlockNumber */\n    tag_54:\n      sload(0x11)\n      dup2\n      jump\t// out\n        /* \"contracts/0xBitcoinExtended.sol\":10870:10989  function getMiningDifficulty() public constant returns (uint) {... */\n    tag_57:\n        /* \"contracts/0xBitcoinExtended.sol\":10926:10930  uint */\n      0x0\n        /* \"contracts/0xBitcoinExtended.sol\":10949:10982  _MAXIMUM_TARGET.div(miningTarget) */\n      tag_169\n        /* \"contracts/0xBitcoinExtended.sol\":10969:10981  miningTarget */\n      sload(0xb)\n        /* \"contracts/0xBitcoinExtended.sol\":10949:10964  _MAXIMUM_TARGET */\n      sload(0xa)\n        /* \"contracts/0xBitcoinExtended.sol\":10949:10968  _MAXIMUM_TARGET.div */\n      tag_170\n      swap1\n        /* \"contracts/0xBitcoinExtended.sol\":10949:10982  _MAXIMUM_TARGET.div(miningTarget) */\n      swap2\n      swap1\n      0xffffffff\n      and\n      jump\t// in\n    tag_169:\n        /* \"contracts/0xBitcoinExtended.sol\":10942:10982  return _MAXIMUM_TARGET.div(miningTarget) */\n      swap1\n      pop\n        /* \"contracts/0xBitcoinExtended.sol\":10870:10989  function getMiningDifficulty() public constant returns (uint) {... */\n      swap1\n      jump\t// out\n        /* \"contracts/0xBitcoinExtended.sol\":5878:7343  function mint(uint256 nonce, bytes32 challenge_digest) public returns (bool success) {... */\n    tag_60:\n        /* \"contracts/0xBitcoinExtended.sol\":5949:5961  bool success */\n      0x0\n        /* \"contracts/0xBitcoinExtended.sol\":6134:6148  bytes32 digest */\n      dup1\n        /* \"contracts/0xBitcoinExtended.sol\":6499:6515  bytes32 solution */\n      0x0\n        /* \"contracts/0xBitcoinExtended.sol\":6722:6740  uint reward_amount */\n      dup1\n        /* \"contracts/0xBitcoinExtended.sol\":6162:6177  challengeNumber */\n      sload(0xc)\n        /* \"contracts/0xBitcoinExtended.sol\":6179:6189  msg.sender */\n      caller\n        /* \"contracts/0xBitcoinExtended.sol\":6191:6196  nonce */\n      dup8\n        /* \"contracts/0xBitcoinExtended.sol\":6152:6198  keccak256(challengeNumber, msg.sender, nonce ) */\n      mload(0x40)\n      dup1\n      dup5\n      not(0x0)\n      and\n      not(0x0)\n      and\n      dup2\n      mstore\n      0x20\n      add\n      dup4\n      0xffffffffffffffffffffffffffffffffffffffff\n      and\n      0xffffffffffffffffffffffffffffffffffffffff\n      and\n      0x1000000000000000000000000\n      mul\n      dup2\n      mstore\n      0x14\n      add\n      dup3\n      dup2\n      mstore\n      0x20\n      add\n      swap4\n      pop\n      pop\n      pop\n      pop\n      mload(0x40)\n      dup1\n      swap2\n      sub\n      swap1\n      keccak256\n        /* \"contracts/0xBitcoinExtended.sol\":6134:6198  bytes32 digest =  keccak256(challengeNumber, msg.sender, nonce ) */\n      swap3\n      pop\n        /* \"contracts/0xBitcoinExtended.sol\":6286:6302  challenge_digest */\n      dup5\n        /* \"contracts/0xBitcoinExtended.sol\":6276:6302  digest != challenge_digest */\n      not(0x0)\n      and\n        /* \"contracts/0xBitcoinExtended.sol\":6276:6282  digest */\n      dup4\n        /* \"contracts/0xBitcoinExtended.sol\":6276:6302  digest != challenge_digest */\n      not(0x0)\n      and\n      eq\n      iszero\n        /* \"contracts/0xBitcoinExtended.sol\":6272:6312  if (digest != challenge_digest) revert() */\n      iszero\n      tag_172\n      jumpi\n        /* \"contracts/0xBitcoinExtended.sol\":6304:6312  revert() */\n      0x0\n      dup1\n      revert\n        /* \"contracts/0xBitcoinExtended.sol\":6272:6312  if (digest != challenge_digest) revert() */\n    tag_172:\n        /* \"contracts/0xBitcoinExtended.sol\":6405:6417  miningTarget */\n      sload(0xb)\n        /* \"contracts/0xBitcoinExtended.sol\":6395:6401  digest */\n      dup4\n        /* \"contracts/0xBitcoinExtended.sol\":6387:6402  uint256(digest) */\n      0x1\n      swap1\n      div\n        /* \"contracts/0xBitcoinExtended.sol\":6387:6417  uint256(digest) > miningTarget */\n      gt\n        /* \"contracts/0xBitcoinExtended.sol\":6384:6427  if(uint256(digest) > miningTarget) revert() */\n      iszero\n      tag_173\n      jumpi\n        /* \"contracts/0xBitcoinExtended.sol\":6419:6427  revert() */\n      0x0\n      dup1\n      revert\n        /* \"contracts/0xBitcoinExtended.sol\":6384:6427  if(uint256(digest) > miningTarget) revert() */\n    tag_173:\n        /* \"contracts/0xBitcoinExtended.sol\":6518:6538  solutionForChallenge */\n      0x13\n        /* \"contracts/0xBitcoinExtended.sol\":6518:6555  solutionForChallenge[challengeNumber] */\n      0x0\n        /* \"contracts/0xBitcoinExtended.sol\":6539:6554  challengeNumber */\n      sload(0xc)\n        /* \"contracts/0xBitcoinExtended.sol\":6518:6555  solutionForChallenge[challengeNumber] */\n      not(0x0)\n      and\n      not(0x0)\n      and\n      dup2\n      mstore\n      0x20\n      add\n      swap1\n      dup2\n      mstore\n      0x20\n      add\n      0x0\n      keccak256\n      sload\n        /* \"contracts/0xBitcoinExtended.sol\":6499:6555  bytes32 solution = solutionForChallenge[challengeNumber] */\n      swap2\n      pop\n        /* \"contracts/0xBitcoinExtended.sol\":6610:6616  digest */\n      dup3\n        /* \"contracts/0xBitcoinExtended.sol\":6570:6590  solutionForChallenge */\n      0x13\n        /* \"contracts/0xBitcoinExtended.sol\":6570:6607  solutionForChallenge[challengeNumber] */\n      0x0\n        /* \"contracts/0xBitcoinExtended.sol\":6591:6606  challengeNumber */\n      sload(0xc)\n        /* \"contracts/0xBitcoinExtended.sol\":6570:6607  solutionForChallenge[challengeNumber] */\n      not(0x0)\n      and\n      not(0x0)\n      and\n      dup2\n      mstore\n      0x20\n      add\n      swap1\n      dup2\n      mstore\n      0x20\n      add\n      0x0\n      keccak256\n        /* \"contracts/0xBitcoinExtended.sol\":6570:6616  solutionForChallenge[challengeNumber] = digest */\n      dup2\n      not(0x0)\n      and\n      swap1\n      sstore\n      pop\n        /* \"contracts/0xBitcoinExtended.sol\":6646:6649  0x0 */\n      0x0\n        /* \"contracts/0xBitcoinExtended.sol\":6634:6649  solution != 0x0 */\n      0x1\n      mul\n        /* \"contracts/0xBitcoinExtended.sol\":6634:6642  solution */\n      dup3\n        /* \"contracts/0xBitcoinExtended.sol\":6634:6649  solution != 0x0 */\n      not(0x0)\n      and\n      eq\n      iszero\n        /* \"contracts/0xBitcoinExtended.sol\":6631:6659  if(solution != 0x0) revert() */\n      iszero\n      tag_174\n      jumpi\n        /* \"contracts/0xBitcoinExtended.sol\":6651:6659  revert() */\n      0x0\n      dup1\n      revert\n        /* \"contracts/0xBitcoinExtended.sol\":6631:6659  if(solution != 0x0) revert() */\n    tag_174:\n        /* \"contracts/0xBitcoinExtended.sol\":6743:6760  getMiningReward() */\n      tag_175\n        /* \"contracts/0xBitcoinExtended.sol\":6743:6758  getMiningReward */\n      tag_81\n        /* \"contracts/0xBitcoinExtended.sol\":6743:6760  getMiningReward() */\n      jump\t// in\n    tag_175:\n        /* \"contracts/0xBitcoinExtended.sol\":6722:6760  uint reward_amount = getMiningReward() */\n      swap1\n      pop\n        /* \"contracts/0xBitcoinExtended.sol\":6798:6837  balances[msg.sender].add(reward_amount) */\n      tag_176\n        /* \"contracts/0xBitcoinExtended.sol\":6823:6836  reward_amount */\n      dup2\n        /* \"contracts/0xBitcoinExtended.sol\":6798:6806  balances */\n      0x15\n        /* \"contracts/0xBitcoinExtended.sol\":6798:6818  balances[msg.sender] */\n      0x0\n        /* \"contracts/0xBitcoinExtended.sol\":6807:6817  msg.sender */\n      caller\n        /* \"contracts/0xBitcoinExtended.sol\":6798:6818  balances[msg.sender] */\n      0xffffffffffffffffffffffffffffffffffffffff\n      and\n      0xffffffffffffffffffffffffffffffffffffffff\n      and\n      dup2\n      mstore\n      0x20\n      add\n      swap1\n      dup2\n      mstore\n      0x20\n      add\n      0x0\n      keccak256\n      sload\n        /* \"contracts/0xBitcoinExtended.sol\":6798:6822  balances[msg.sender].add */\n      tag_177\n      swap1\n        /* \"contracts/0xBitcoinExtended.sol\":6798:6837  balances[msg.sender].add(reward_amount) */\n      swap2\n      swap1\n      0xffffffff\n      and\n      jump\t// in\n    tag_176:\n        /* \"contracts/0xBitcoinExtended.sol\":6775:6783  balances */\n      0x15\n        /* \"contracts/0xBitcoinExtended.sol\":6775:6795  balances[msg.sender] */\n      0x0\n        /* \"contracts/0xBitcoinExtended.sol\":6784:6794  msg.sender */\n      caller\n        /* \"contracts/0xBitcoinExtended.sol\":6775:6795  balances[msg.sender] */\n      0xffffffffffffffffffffffffffffffffffffffff\n      and\n      0xffffffffffffffffffffffffffffffffffffffff\n      and\n      dup2\n      mstore\n      0x20\n      add\n      swap1\n      dup2\n      mstore\n      0x20\n      add\n      0x0\n      keccak256\n        /* \"contracts/0xBitcoinExtended.sol\":6775:6837  balances[msg.sender] = balances[msg.sender].add(reward_amount) */\n      dup2\n      swap1\n      sstore\n      pop\n        /* \"contracts/0xBitcoinExtended.sol\":6867:6898  tokensMinted.add(reward_amount) */\n      tag_178\n        /* \"contracts/0xBitcoinExtended.sol\":6884:6897  reward_amount */\n      dup2\n        /* \"contracts/0xBitcoinExtended.sol\":6867:6879  tokensMinted */\n      sload(0x14)\n        /* \"contracts/0xBitcoinExtended.sol\":6867:6883  tokensMinted.add */\n      tag_177\n      swap1\n        /* \"contracts/0xBitcoinExtended.sol\":6867:6898  tokensMinted.add(reward_amount) */\n      swap2\n      swap1\n      0xffffffff\n      and\n      jump\t// in\n    tag_178:\n        /* \"contracts/0xBitcoinExtended.sol\":6852:6864  tokensMinted */\n      0x14\n        /* \"contracts/0xBitcoinExtended.sol\":6852:6898  tokensMinted = tokensMinted.add(reward_amount) */\n      dup2\n      swap1\n      sstore\n      pop\n        /* \"contracts/0xBitcoinExtended.sol\":6990:7005  maxSupplyForEra */\n      sload(0xe)\n        /* \"contracts/0xBitcoinExtended.sol\":6974:6986  tokensMinted */\n      sload(0x14)\n        /* \"contracts/0xBitcoinExtended.sol\":6974:7005  tokensMinted <= maxSupplyForEra */\n      gt\n      iszero\n        /* \"contracts/0xBitcoinExtended.sol\":6967:7006  assert(tokensMinted <= maxSupplyForEra) */\n      iszero\n      iszero\n      tag_179\n      jumpi\n      invalid\n    tag_179:\n        /* \"contracts/0xBitcoinExtended.sol\":7080:7090  msg.sender */\n      caller\n        /* \"contracts/0xBitcoinExtended.sol\":7065:7077  lastRewardTo */\n      0xf\n      0x0\n        /* \"contracts/0xBitcoinExtended.sol\":7065:7090  lastRewardTo = msg.sender */\n      0x100\n      exp\n      dup2\n      sload\n      dup2\n      0xffffffffffffffffffffffffffffffffffffffff\n      mul\n      not\n      and\n      swap1\n      dup4\n      0xffffffffffffffffffffffffffffffffffffffff\n      and\n      mul\n      or\n      swap1\n      sstore\n      pop\n        /* \"contracts/0xBitcoinExtended.sol\":7123:7136  reward_amount */\n      dup1\n        /* \"contracts/0xBitcoinExtended.sol\":7104:7120  lastRewardAmount */\n      0x10\n        /* \"contracts/0xBitcoinExtended.sol\":7104:7136  lastRewardAmount = reward_amount */\n      dup2\n      swap1\n      sstore\n      pop\n        /* \"contracts/0xBitcoinExtended.sol\":7177:7189  block.number */\n      number\n        /* \"contracts/0xBitcoinExtended.sol\":7150:7174  lastRewardEthBlockNumber */\n      0x11\n        /* \"contracts/0xBitcoinExtended.sol\":7150:7189  lastRewardEthBlockNumber = block.number */\n      dup2\n      swap1\n      sstore\n      pop\n        /* \"contracts/0xBitcoinExtended.sol\":7206:7228  _startNewMiningEpoch() */\n      tag_180\n        /* \"contracts/0xBitcoinExtended.sol\":7206:7226  _startNewMiningEpoch */\n      tag_181\n        /* \"contracts/0xBitcoinExtended.sol\":7206:7228  _startNewMiningEpoch() */\n      jump\t// in\n    tag_180:\n        /* \"contracts/0xBitcoinExtended.sol\":7250:7260  msg.sender */\n      caller\n        /* \"contracts/0xBitcoinExtended.sol\":7245:7306  Mint(msg.sender, reward_amount, epochCount, challengeNumber ) */\n      0xffffffffffffffffffffffffffffffffffffffff\n      and\n      0xcf6fbb9dcea7d07263ab4f5c3a92f53af33dffc421d9d121e1c74b307e68189d\n        /* \"contracts/0xBitcoinExtended.sol\":7262:7275  reward_amount */\n      dup3\n        /* \"contracts/0xBitcoinExtended.sol\":7277:7287  epochCount */\n      sload(0x7)\n        /* \"contracts/0xBitcoinExtended.sol\":7289:7304  challengeNumber */\n      sload(0xc)\n        /* \"contracts/0xBitcoinExtended.sol\":7245:7306  Mint(msg.sender, reward_amount, epochCount, challengeNumber ) */\n      mload(0x40)\n      dup1\n      dup5\n      dup2\n      mstore\n      0x20\n      add\n      dup4\n      dup2\n      mstore\n      0x20\n      add\n      dup3\n      not(0x0)\n      and\n      not(0x0)\n      and\n      dup2\n      mstore\n      0x20\n      add\n      swap4\n      pop\n      pop\n      pop\n      pop\n      mload(0x40)\n      dup1\n      swap2\n      sub\n      swap1\n      log2\n        /* \"contracts/0xBitcoinExtended.sol\":7327:7331  true */\n      0x1\n        /* \"contracts/0xBitcoinExtended.sol\":7320:7331  return true */\n      swap4\n      pop\n        /* \"contracts/0xBitcoinExtended.sol\":5878:7343  function mint(uint256 nonce, bytes32 challenge_digest) public returns (bool success) {... */\n      pop\n      pop\n      pop\n      swap3\n      swap2\n      pop\n      pop\n      jump\t// out\n        /* \"contracts/0xBitcoinExtended.sol\":12304:12420  function totalSupply() public constant returns (uint) {... */\n    tag_63:\n        /* \"contracts/0xBitcoinExtended.sol\":12352:12356  uint */\n      0x0\n        /* \"contracts/0xBitcoinExtended.sol\":12392:12400  balances */\n      0x15\n        /* \"contracts/0xBitcoinExtended.sol\":12392:12412  balances[address(0)] */\n      0x0\n        /* \"contracts/0xBitcoinExtended.sol\":12409:12410  0 */\n      dup1\n        /* \"contracts/0xBitcoinExtended.sol\":12392:12412  balances[address(0)] */\n      0xffffffffffffffffffffffffffffffffffffffff\n      and\n      0xffffffffffffffffffffffffffffffffffffffff\n      and\n      dup2\n      mstore\n      0x20\n      add\n      swap1\n      dup2\n      mstore\n      0x20\n      add\n      0x0\n      keccak256\n      sload\n        /* \"contracts/0xBitcoinExtended.sol\":12376:12388  _totalSupply */\n      sload(0x5)\n        /* \"contracts/0xBitcoinExtended.sol\":12376:12412  _totalSupply  - balances[address(0)] */\n      sub\n        /* \"contracts/0xBitcoinExtended.sol\":12369:12412  return _totalSupply  - balances[address(0)] */\n      swap1\n      pop\n        /* \"contracts/0xBitcoinExtended.sol\":12304:12420  function totalSupply() public constant returns (uint) {... */\n      swap1\n      jump\t// out\n        /* \"contracts/0xBitcoinExtended.sol\":14638:14976  function transferFrom(address from, address to, uint tokens) public returns (bool success) {... */\n    tag_66:\n        /* \"contracts/0xBitcoinExtended.sol\":14715:14727  bool success */\n      0x0\n        /* \"contracts/0xBitcoinExtended.sol\":14757:14783  balances[from].sub(tokens) */\n      tag_184\n        /* \"contracts/0xBitcoinExtended.sol\":14776:14782  tokens */\n      dup3\n        /* \"contracts/0xBitcoinExtended.sol\":14757:14765  balances */\n      0x15\n        /* \"contracts/0xBitcoinExtended.sol\":14757:14771  balances[from] */\n      0x0\n        /* \"contracts/0xBitcoinExtended.sol\":14766:14770  from */\n      dup8\n        /* \"contracts/0xBitcoinExtended.sol\":14757:14771  balances[from] */\n      0xffffffffffffffffffffffffffffffffffffffff\n      and\n      0xffffffffffffffffffffffffffffffffffffffff\n      and\n      dup2\n      mstore\n      0x20\n      add\n      swap1\n      dup2\n      mstore\n      0x20\n      add\n      0x0\n      keccak256\n      sload\n        /* \"contracts/0xBitcoinExtended.sol\":14757:14775  balances[from].sub */\n      tag_185\n      swap1\n        /* \"contracts/0xBitcoinExtended.sol\":14757:14783  balances[from].sub(tokens) */\n      swap2\n      swap1\n      0xffffffff\n      and\n      jump\t// in\n    tag_184:\n        /* \"contracts/0xBitcoinExtended.sol\":14740:14748  balances */\n      0x15\n        /* \"contracts/0xBitcoinExtended.sol\":14740:14754  balances[from] */\n      0x0\n        /* \"contracts/0xBitcoinExtended.sol\":14749:14753  from */\n      dup7\n        /* \"contracts/0xBitcoinExtended.sol\":14740:14754  balances[from] */\n      0xffffffffffffffffffffffffffffffffffffffff\n      and\n      0xffffffffffffffffffffffffffffffffffffffff\n      and\n      dup2\n      mstore\n      0x20\n      add\n      swap1\n      dup2\n      mstore\n      0x20\n      add\n      0x0\n      keccak256\n        /* \"contracts/0xBitcoinExtended.sol\":14740:14783  balances[from] = balances[from].sub(tokens) */\n      dup2\n      swap1\n      sstore\n      pop\n        /* \"contracts/0xBitcoinExtended.sol\":14822:14859  allowed[from][msg.sender].sub(tokens) */\n      tag_186\n        /* \"contracts/0xBitcoinExtended.sol\":14852:14858  tokens */\n      dup3\n        /* \"contracts/0xBitcoinExtended.sol\":14822:14829  allowed */\n      0x16\n        /* \"contracts/0xBitcoinExtended.sol\":14822:14835  allowed[from] */\n      0x0\n        /* \"contracts/0xBitcoinExtended.sol\":14830:14834  from */\n      dup8\n        /* \"contracts/0xBitcoinExtended.sol\":14822:14835  allowed[from] */\n      0xffffffffffffffffffffffffffffffffffffffff\n      and\n      0xffffffffffffffffffffffffffffffffffffffff\n      and\n      dup2\n      mstore\n      0x20\n      add\n      swap1\n      dup2\n      mstore\n      0x20\n      add\n      0x0\n      keccak256\n        /* \"contracts/0xBitcoinExtended.sol\":14822:14847  allowed[from][msg.sender] */\n      0x0\n        /* \"contracts/0xBitcoinExtended.sol\":14836:14846  msg.sender */\n      caller\n        /* \"contracts/0xBitcoinExtended.sol\":14822:14847  allowed[from][msg.sender] */\n      0xffffffffffffffffffffffffffffffffffffffff\n      and\n      0xffffffffffffffffffffffffffffffffffffffff\n      and\n      dup2\n      mstore\n      0x20\n      add\n      swap1\n      dup2\n      mstore\n      0x20\n      add\n      0x0\n      keccak256\n      sload\n        /* \"contracts/0xBitcoinExtended.sol\":14822:14851  allowed[from][msg.sender].sub */\n      tag_185\n      swap1\n        /* \"contracts/0xBitcoinExtended.sol\":14822:14859  allowed[from][msg.sender].sub(tokens) */\n      swap2\n      swap1\n      0xffffffff\n      and\n      jump\t// in\n    tag_186:\n        /* \"contracts/0xBitcoinExtended.sol\":14794:14801  allowed */\n      0x16\n        /* \"contracts/0xBitcoinExtended.sol\":14794:14807  allowed[from] */\n      0x0\n        /* \"contracts/0xBitcoinExtended.sol\":14802:14806  from */\n      dup7\n        /* \"contracts/0xBitcoinExtended.sol\":14794:14807  allowed[from] */\n      0xffffffffffffffffffffffffffffffffffffffff\n      and\n      0xffffffffffffffffffffffffffffffffffffffff\n      and\n      dup2\n      mstore\n      0x20\n      add\n      swap1\n      dup2\n      mstore\n      0x20\n      add\n      0x0\n      keccak256\n        /* \"contracts/0xBitcoinExtended.sol\":14794:14819  allowed[from][msg.sender] */\n      0x0\n        /* \"contracts/0xBitcoinExtended.sol\":14808:14818  msg.sender */\n      caller\n        /* \"contracts/0xBitcoinExtended.sol\":14794:14819  allowed[from][msg.sender] */\n      0xffffffffffffffffffffffffffffffffffffffff\n      and\n      0xffffffffffffffffffffffffffffffffffffffff\n      and\n      dup2\n      mstore\n      0x20\n      add\n      swap1\n      dup2\n      mstore\n      0x20\n      add\n      0x0\n      keccak256\n        /* \"contracts/0xBitcoinExtended.sol\":14794:14859  allowed[from][msg.sender] = allowed[from][msg.sender].sub(tokens) */\n      dup2\n      swap1\n      sstore\n      pop\n        /* \"contracts/0xBitcoinExtended.sol\":14885:14909  balances[to].add(tokens) */\n      tag_187\n        /* \"contracts/0xBitcoinExtended.sol\":14902:14908  tokens */\n      dup3\n        /* \"contracts/0xBitcoinExtended.sol\":14885:14893  balances */\n      0x15\n        /* \"contracts/0xBitcoinExtended.sol\":14885:14897  balances[to] */\n      0x0\n        /* \"contracts/0xBitcoinExtended.sol\":14894:14896  to */\n      dup7\n        /* \"contracts/0xBitcoinExtended.sol\":14885:14897  balances[to] */\n      0xffffffffffffffffffffffffffffffffffffffff\n      and\n      0xffffffffffffffffffffffffffffffffffffffff\n      and\n      dup2\n      mstore\n      0x20\n      add\n      swap1\n      dup2\n      mstore\n      0x20\n      add\n      0x0\n      keccak256\n      sload\n        /* \"contracts/0xBitcoinExtended.sol\":14885:14901  balances[to].add */\n      tag_177\n      swap1\n        /* \"contracts/0xBitcoinExtended.sol\":14885:14909  balances[to].add(tokens) */\n      swap2\n      swap1\n      0xffffffff\n      and\n      jump\t// in\n    tag_187:\n        /* \"contracts/0xBitcoinExtended.sol\":14870:14878  balances */\n      0x15\n        /* \"contracts/0xBitcoinExtended.sol\":14870:14882  balances[to] */\n      0x0\n        /* \"contracts/0xBitcoinExtended.sol\":14879:14881  to */\n      dup6\n        /* \"contracts/0xBitcoinExtended.sol\":14870:14882  balances[to] */\n      0xffffffffffffffffffffffffffffffffffffffff\n      and\n      0xffffffffffffffffffffffffffffffffffffffff\n      and\n      dup2\n      mstore\n      0x20\n      add\n      swap1\n      dup2\n      mstore\n      0x20\n      add\n      0x0\n      keccak256\n        /* \"contracts/0xBitcoinExtended.sol\":14870:14909  balances[to] = balances[to].add(tokens) */\n      dup2\n      swap1\n      sstore\n      pop\n        /* \"contracts/0xBitcoinExtended.sol\":14935:14937  to */\n      dup3\n        /* \"contracts/0xBitcoinExtended.sol\":14920:14946  Transfer(from, to, tokens) */\n      0xffffffffffffffffffffffffffffffffffffffff\n      and\n        /* \"contracts/0xBitcoinExtended.sol\":14929:14933  from */\n      dup5\n        /* \"contracts/0xBitcoinExtended.sol\":14920:14946  Transfer(from, to, tokens) */\n      0xffffffffffffffffffffffffffffffffffffffff\n      and\n      0xddf252ad1be2c89b69c2b068fc378daa952ba7f163c4a11628f55a4df523b3ef\n        /* \"contracts/0xBitcoinExtended.sol\":14939:14945  tokens */\n      dup5\n        /* \"contracts/0xBitcoinExtended.sol\":14920:14946  Transfer(from, to, tokens) */\n      mload(0x40)\n      dup1\n      dup3\n      dup2\n      mstore\n      0x20\n      add\n      swap2\n      pop\n      pop\n      mload(0x40)\n      dup1\n      swap2\n      sub\n      swap1\n      log3\n        /* \"contracts/0xBitcoinExtended.sol\":14964:14968  true */\n      0x1\n        /* \"contracts/0xBitcoinExtended.sol\":14957:14968  return true */\n      swap1\n      pop\n        /* \"contracts/0xBitcoinExtended.sol\":14638:14976  function transferFrom(address from, address to, uint tokens) public returns (bool success) {... */\n      swap4\n      swap3\n      pop\n      pop\n      pop\n      jump\t// out\n        /* \"contracts/0xBitcoinExtended.sol\":4559:4580  uint public rewardEra */\n    tag_69:\n      sload(0xd)\n      dup2\n      jump\t// out\n        /* \"contracts/0xBitcoinExtended.sol\":3975:3996  uint8 public decimals */\n    tag_72:\n      0x4\n      0x0\n      swap1\n      sload\n      swap1\n      0x100\n      exp\n      swap1\n      div\n      0xff\n      and\n      dup2\n      jump\t// out\n        /* \"contracts/0xBitcoinExtended.sol\":10995:11087  function getMiningTarget() public constant returns (uint) {... */\n    tag_75:\n        /* \"contracts/0xBitcoinExtended.sol\":11047:11051  uint */\n      0x0\n        /* \"contracts/0xBitcoinExtended.sol\":11069:11081  miningTarget */\n      sload(0xb)\n        /* \"contracts/0xBitcoinExtended.sol\":11062:11081  return miningTarget */\n      swap1\n      pop\n        /* \"contracts/0xBitcoinExtended.sol\":10995:11087  function getMiningTarget() public constant returns (uint) {... */\n      swap1\n      jump\t// out\n        /* \"contracts/0xBitcoinExtended.sol\":4003:4027  uint public _totalSupply */\n    tag_78:\n      sload(0x5)\n      dup2\n      jump\t// out\n        /* \"contracts/0xBitcoinExtended.sol\":11201:11458  function getMiningReward() public constant returns (uint) {... */\n    tag_81:\n        /* \"contracts/0xBitcoinExtended.sol\":11253:11257  uint */\n      0x0\n        /* \"contracts/0xBitcoinExtended.sol\":11403:11449  (50 * 10**uint(decimals) ).div( 2**rewardEra ) */\n      tag_190\n        /* \"contracts/0xBitcoinExtended.sol\":11438:11447  rewardEra */\n      sload(0xd)\n        /* \"contracts/0xBitcoinExtended.sol\":11435:11436  2 */\n      0x2\n        /* \"contracts/0xBitcoinExtended.sol\":11435:11447  2**rewardEra */\n      exp\n        /* \"contracts/0xBitcoinExtended.sol\":11418:11426  decimals */\n      0x4\n      0x0\n      swap1\n      sload\n      swap1\n      0x100\n      exp\n      swap1\n      div\n      0xff\n      and\n        /* \"contracts/0xBitcoinExtended.sol\":11413:11427  uint(decimals) */\n      0xff\n      and\n        /* \"contracts/0xBitcoinExtended.sol\":11409:11411  10 */\n      0xa\n        /* \"contracts/0xBitcoinExtended.sol\":11409:11427  10**uint(decimals) */\n      exp\n        /* \"contracts/0xBitcoinExtended.sol\":11404:11406  50 */\n      0x32\n        /* \"contracts/0xBitcoinExtended.sol\":11404:11427  50 * 10**uint(decimals) */\n      mul\n        /* \"contracts/0xBitcoinExtended.sol\":11403:11433  (50 * 10**uint(decimals) ).div */\n      tag_170\n      swap1\n        /* \"contracts/0xBitcoinExtended.sol\":11403:11449  (50 * 10**uint(decimals) ).div( 2**rewardEra ) */\n      swap2\n      swap1\n      0xffffffff\n      and\n      jump\t// in\n    tag_190:\n        /* \"contracts/0xBitcoinExtended.sol\":11396:11449  return (50 * 10**uint(decimals) ).div( 2**rewardEra ) */\n      swap1\n      pop\n        /* \"contracts/0xBitcoinExtended.sol\":11201:11458  function getMiningReward() public constant returns (uint) {... */\n      swap1\n      jump\t// out\n        /* \"contracts/0xBitcoinExtended.sol\":10678:10781  function getChallengeNumber() public constant returns (bytes32) {... */\n    tag_84:\n        /* \"contracts/0xBitcoinExtended.sol\":10733:10740  bytes32 */\n      0x0\n        /* \"contracts/0xBitcoinExtended.sol\":10759:10774  challengeNumber */\n      sload(0xc)\n        /* \"contracts/0xBitcoinExtended.sol\":10752:10774  return challengeNumber */\n      swap1\n      pop\n        /* \"contracts/0xBitcoinExtended.sol\":10678:10781  function getChallengeNumber() public constant returns (bytes32) {... */\n      swap1\n      jump\t// out\n        /* \"contracts/0xBitcoinExtended.sol\":4586:4613  uint public maxSupplyForEra */\n    tag_87:\n      sload(0xe)\n      dup2\n      jump\t// out\n        /* \"contracts/0xBitcoinExtended.sol\":17074:18449  function mintWithoutPoW( ) public returns (bool success) {... */\n    tag_90:\n        /* \"contracts/0xBitcoinExtended.sol\":17117:17129  bool success */\n      0x0\n        /* \"contracts/0xBitcoinExtended.sol\":17867:17885  uint reward_amount */\n      dup1\n        /* \"contracts/0xBitcoinExtended.sol\":17888:17905  getMiningReward() */\n      tag_193\n        /* \"contracts/0xBitcoinExtended.sol\":17888:17903  getMiningReward */\n      tag_81\n        /* \"contracts/0xBitcoinExtended.sol\":17888:17905  getMiningReward() */\n      jump\t// in\n    tag_193:\n        /* \"contracts/0xBitcoinExtended.sol\":17867:17905  uint reward_amount = getMiningReward() */\n      swap1\n      pop\n        /* \"contracts/0xBitcoinExtended.sol\":17939:17978  balances[msg.sender].add(reward_amount) */\n      tag_194\n        /* \"contracts/0xBitcoinExtended.sol\":17964:17977  reward_amount */\n      dup2\n        /* \"contracts/0xBitcoinExtended.sol\":17939:17947  balances */\n      0x15\n        /* \"contracts/0xBitcoinExtended.sol\":17939:17959  balances[msg.sender] */\n      0x0\n        /* \"contracts/0xBitcoinExtended.sol\":17948:17958  msg.sender */\n      caller\n        /* \"contracts/0xBitcoinExtended.sol\":17939:17959  balances[msg.sender] */\n      0xffffffffffffffffffffffffffffffffffffffff\n      and\n      0xffffffffffffffffffffffffffffffffffffffff\n      and\n      dup2\n      mstore\n      0x20\n      add\n      swap1\n      dup2\n      mstore\n      0x20\n      add\n      0x0\n      keccak256\n      sload\n        /* \"contracts/0xBitcoinExtended.sol\":17939:17963  balances[msg.sender].add */\n      tag_177\n      swap1\n        /* \"contracts/0xBitcoinExtended.sol\":17939:17978  balances[msg.sender].add(reward_amount) */\n      swap2\n      swap1\n      0xffffffff\n      and\n      jump\t// in\n    tag_194:\n        /* \"contracts/0xBitcoinExtended.sol\":17916:17924  balances */\n      0x15\n        /* \"contracts/0xBitcoinExtended.sol\":17916:17936  balances[msg.sender] */\n      0x0\n        /* \"contracts/0xBitcoinExtended.sol\":17925:17935  msg.sender */\n      caller\n        /* \"contracts/0xBitcoinExtended.sol\":17916:17936  balances[msg.sender] */\n      0xffffffffffffffffffffffffffffffffffffffff\n      and\n      0xffffffffffffffffffffffffffffffffffffffff\n      and\n      dup2\n      mstore\n      0x20\n      add\n      swap1\n      dup2\n      mstore\n      0x20\n      add\n      0x0\n      keccak256\n        /* \"contracts/0xBitcoinExtended.sol\":17916:17978  balances[msg.sender] = balances[msg.sender].add(reward_amount) */\n      dup2\n      swap1\n      sstore\n      pop\n        /* \"contracts/0xBitcoinExtended.sol\":18004:18035  tokensMinted.add(reward_amount) */\n      tag_195\n        /* \"contracts/0xBitcoinExtended.sol\":18021:18034  reward_amount */\n      dup2\n        /* \"contracts/0xBitcoinExtended.sol\":18004:18016  tokensMinted */\n      sload(0x14)\n        /* \"contracts/0xBitcoinExtended.sol\":18004:18020  tokensMinted.add */\n      tag_177\n      swap1\n        /* \"contracts/0xBitcoinExtended.sol\":18004:18035  tokensMinted.add(reward_amount) */\n      swap2\n      swap1\n      0xffffffff\n      and\n      jump\t// in\n    tag_195:\n        /* \"contracts/0xBitcoinExtended.sol\":17989:18001  tokensMinted */\n      0x14\n        /* \"contracts/0xBitcoinExtended.sol\":17989:18035  tokensMinted = tokensMinted.add(reward_amount) */\n      dup2\n      swap1\n      sstore\n      pop\n        /* \"contracts/0xBitcoinExtended.sol\":18119:18134  maxSupplyForEra */\n      sload(0xe)\n        /* \"contracts/0xBitcoinExtended.sol\":18103:18115  tokensMinted */\n      sload(0x14)\n        /* \"contracts/0xBitcoinExtended.sol\":18103:18134  tokensMinted <= maxSupplyForEra */\n      gt\n      iszero\n        /* \"contracts/0xBitcoinExtended.sol\":18096:18135  assert(tokensMinted <= maxSupplyForEra) */\n      iszero\n      iszero\n      tag_196\n      jumpi\n      invalid\n    tag_196:\n        /* \"contracts/0xBitcoinExtended.sol\":18201:18211  msg.sender */\n      caller\n        /* \"contracts/0xBitcoinExtended.sol\":18186:18198  lastRewardTo */\n      0xf\n      0x0\n        /* \"contracts/0xBitcoinExtended.sol\":18186:18211  lastRewardTo = msg.sender */\n      0x100\n      exp\n      dup2\n      sload\n      dup2\n      0xffffffffffffffffffffffffffffffffffffffff\n      mul\n      not\n      and\n      swap1\n      dup4\n      0xffffffffffffffffffffffffffffffffffffffff\n      and\n      mul\n      or\n      swap1\n      sstore\n      pop\n        /* \"contracts/0xBitcoinExtended.sol\":18240:18253  reward_amount */\n      dup1\n        /* \"contracts/0xBitcoinExtended.sol\":18221:18237  lastRewardAmount */\n      0x10\n        /* \"contracts/0xBitcoinExtended.sol\":18221:18253  lastRewardAmount = reward_amount */\n      dup2\n      swap1\n      sstore\n      pop\n        /* \"contracts/0xBitcoinExtended.sol\":18290:18302  block.number */\n      number\n        /* \"contracts/0xBitcoinExtended.sol\":18263:18287  lastRewardEthBlockNumber */\n      0x11\n        /* \"contracts/0xBitcoinExtended.sol\":18263:18302  lastRewardEthBlockNumber = block.number */\n      dup2\n      swap1\n      sstore\n      pop\n        /* \"contracts/0xBitcoinExtended.sol\":18318:18340  _startNewMiningEpoch() */\n      tag_197\n        /* \"contracts/0xBitcoinExtended.sol\":18318:18338  _startNewMiningEpoch */\n      tag_181\n        /* \"contracts/0xBitcoinExtended.sol\":18318:18340  _startNewMiningEpoch() */\n      jump\t// in\n    tag_197:\n        /* \"contracts/0xBitcoinExtended.sol\":18437:18441  true */\n      0x1\n        /* \"contracts/0xBitcoinExtended.sol\":18430:18441  return true */\n      swap2\n      pop\n        /* \"contracts/0xBitcoinExtended.sol\":17074:18449  function mintWithoutPoW( ) public returns (bool success) {... */\n      pop\n      swap1\n      jump\t// out\n        /* \"contracts/0xBitcoinExtended.sol\":16988:17067  function setTokensMinted(uint amt) public   {... */\n    tag_93:\n        /* \"contracts/0xBitcoinExtended.sol\":17057:17060  amt */\n      dup1\n        /* \"contracts/0xBitcoinExtended.sol\":17042:17054  tokensMinted */\n      0x14\n        /* \"contracts/0xBitcoinExtended.sol\":17042:17060  tokensMinted = amt */\n      dup2\n      swap1\n      sstore\n      pop\n        /* \"contracts/0xBitcoinExtended.sol\":16988:17067  function setTokensMinted(uint amt) public   {... */\n      pop\n      jump\t// out\n        /* \"contracts/0xBitcoinExtended.sol\":4812:4836  uint public tokensMinted */\n    tag_96:\n      sload(0x14)\n      dup2\n      jump\t// out\n        /* \"contracts/0xBitcoinExtended.sol\":4621:4648  address public lastRewardTo */\n    tag_99:\n      0xf\n      0x0\n      swap1\n      sload\n      swap1\n      0x100\n      exp\n      swap1\n      div\n      0xffffffffffffffffffffffffffffffffffffffff\n      and\n      dup2\n      jump\t// out\n        /* \"contracts/0xBitcoinExtended.sol\":12645:12769  function balanceOf(address tokenOwner) public constant returns (uint balance) {... */\n    tag_102:\n        /* \"contracts/0xBitcoinExtended.sol\":12709:12721  uint balance */\n      0x0\n        /* \"contracts/0xBitcoinExtended.sol\":12741:12749  balances */\n      0x15\n        /* \"contracts/0xBitcoinExtended.sol\":12741:12761  balances[tokenOwner] */\n      0x0\n        /* \"contracts/0xBitcoinExtended.sol\":12750:12760  tokenOwner */\n      dup4\n        /* \"contracts/0xBitcoinExtended.sol\":12741:12761  balances[tokenOwner] */\n      0xffffffffffffffffffffffffffffffffffffffff\n      and\n      0xffffffffffffffffffffffffffffffffffffffff\n      and\n      dup2\n      mstore\n      0x20\n      add\n      swap1\n      dup2\n      mstore\n      0x20\n      add\n      0x0\n      keccak256\n      sload\n        /* \"contracts/0xBitcoinExtended.sol\":12734:12761  return balances[tokenOwner] */\n      swap1\n      pop\n        /* \"contracts/0xBitcoinExtended.sol\":12645:12769  function balanceOf(address tokenOwner) public constant returns (uint balance) {... */\n      swap2\n      swap1\n      pop\n      jump\t// out\n        /* \"contracts/0xBitcoinExtended.sol\":3345:3536  function acceptOwnership() public {... */\n    tag_105:\n        /* \"contracts/0xBitcoinExtended.sol\":3412:3420  newOwner */\n      0x1\n      0x0\n      swap1\n      sload\n      swap1\n      0x100\n      exp\n      swap1\n      div\n      0xffffffffffffffffffffffffffffffffffffffff\n      and\n        /* \"contracts/0xBitcoinExtended.sol\":3398:3420  msg.sender == newOwner */\n      0xffffffffffffffffffffffffffffffffffffffff\n      and\n        /* \"contracts/0xBitcoinExtended.sol\":3398:3408  msg.sender */\n      caller\n        /* \"contracts/0xBitcoinExtended.sol\":3398:3420  msg.sender == newOwner */\n      0xffffffffffffffffffffffffffffffffffffffff\n      and\n      eq\n        /* \"contracts/0xBitcoinExtended.sol\":3390:3421  require(msg.sender == newOwner) */\n      iszero\n      iszero\n      tag_201\n      jumpi\n      0x0\n      dup1\n      revert\n    tag_201:\n        /* \"contracts/0xBitcoinExtended.sol\":3460:3468  newOwner */\n      0x1\n      0x0\n      swap1\n      sload\n      swap1\n      0x100\n      exp\n      swap1\n      div\n      0xffffffffffffffffffffffffffffffffffffffff\n      and\n        /* \"contracts/0xBitcoinExtended.sol\":3432:3469  OwnershipTransferred(owner, newOwner) */\n      0xffffffffffffffffffffffffffffffffffffffff\n      and\n        /* \"contracts/0xBitcoinExtended.sol\":3453:3458  owner */\n      0x0\n      dup1\n      swap1\n      sload\n      swap1\n      0x100\n      exp\n      swap1\n      div\n      0xffffffffffffffffffffffffffffffffffffffff\n      and\n        /* \"contracts/0xBitcoinExtended.sol\":3432:3469  OwnershipTransferred(owner, newOwner) */\n      0xffffffffffffffffffffffffffffffffffffffff\n      and\n      0x8be0079c531659141344cd1fd0a4f28419497f9722a3daafe3b4186f6b6457e0\n      mload(0x40)\n      mload(0x40)\n      dup1\n      swap2\n      sub\n      swap1\n      log3\n        /* \"contracts/0xBitcoinExtended.sol\":3488:3496  newOwner */\n      0x1\n      0x0\n      swap1\n      sload\n      swap1\n      0x100\n      exp\n      swap1\n      div\n      0xffffffffffffffffffffffffffffffffffffffff\n      and\n        /* \"contracts/0xBitcoinExtended.sol\":3480:3485  owner */\n      0x0\n      dup1\n        /* \"contracts/0xBitcoinExtended.sol\":3480:3496  owner = newOwner */\n      0x100\n      exp\n      dup2\n      sload\n      dup2\n      0xffffffffffffffffffffffffffffffffffffffff\n      mul\n      not\n      and\n      swap1\n      dup4\n      0xffffffffffffffffffffffffffffffffffffffff\n      and\n      mul\n      or\n      swap1\n      sstore\n      pop\n        /* \"contracts/0xBitcoinExtended.sol\":3526:3527  0 */\n      0x0\n        /* \"contracts/0xBitcoinExtended.sol\":3507:3515  newOwner */\n      0x1\n      0x0\n        /* \"contracts/0xBitcoinExtended.sol\":3507:3528  newOwner = address(0) */\n      0x100\n      exp\n      dup2\n      sload\n      dup2\n      0xffffffffffffffffffffffffffffffffffffffff\n      mul\n      not\n      and\n      swap1\n      dup4\n      0xffffffffffffffffffffffffffffffffffffffff\n      and\n      mul\n      or\n      swap1\n      sstore\n      pop\n        /* \"contracts/0xBitcoinExtended.sol\":3345:3536  function acceptOwnership() public {... */\n      jump\t// out\n        /* \"contracts/0xBitcoinExtended.sol\":11779:12113  function checkMintSolution(uint256 nonce, bytes32 challenge_digest, bytes32 challenge_number, uint testTarget) public view returns (bool success) {... */\n    tag_108:\n        /* \"contracts/0xBitcoinExtended.sol\":11911:11923  bool success */\n      0x0\n        /* \"contracts/0xBitcoinExtended.sol\":11938:11952  bytes32 digest */\n      dup1\n        /* \"contracts/0xBitcoinExtended.sol\":11965:11981  challenge_number */\n      dup4\n        /* \"contracts/0xBitcoinExtended.sol\":11982:11992  msg.sender */\n      caller\n        /* \"contracts/0xBitcoinExtended.sol\":11993:11998  nonce */\n      dup8\n        /* \"contracts/0xBitcoinExtended.sol\":11955:11999  keccak256(challenge_number,msg.sender,nonce) */\n      mload(0x40)\n      dup1\n      dup5\n      not(0x0)\n      and\n      not(0x0)\n      and\n      dup2\n      mstore\n      0x20\n      add\n      dup4\n      0xffffffffffffffffffffffffffffffffffffffff\n      and\n      0xffffffffffffffffffffffffffffffffffffffff\n      and\n      0x1000000000000000000000000\n      mul\n      dup2\n      mstore\n      0x14\n      add\n      dup3\n      dup2\n      mstore\n      0x20\n      add\n      swap4\n      pop\n      pop\n      pop\n      pop\n      mload(0x40)\n      dup1\n      swap2\n      sub\n      swap1\n      keccak256\n        /* \"contracts/0xBitcoinExtended.sol\":11938:11999  bytes32 digest = keccak256(challenge_number,msg.sender,nonce) */\n      swap1\n      pop\n        /* \"contracts/0xBitcoinExtended.sol\":12033:12043  testTarget */\n      dup3\n        /* \"contracts/0xBitcoinExtended.sol\":12023:12029  digest */\n      dup2\n        /* \"contracts/0xBitcoinExtended.sol\":12015:12030  uint256(digest) */\n      0x1\n      swap1\n      div\n        /* \"contracts/0xBitcoinExtended.sol\":12015:12043  uint256(digest) > testTarget */\n      gt\n        /* \"contracts/0xBitcoinExtended.sol\":12012:12053  if(uint256(digest) > testTarget) revert() */\n      iszero\n      tag_203\n      jumpi\n        /* \"contracts/0xBitcoinExtended.sol\":12045:12053  revert() */\n      0x0\n      dup1\n      revert\n        /* \"contracts/0xBitcoinExtended.sol\":12012:12053  if(uint256(digest) > testTarget) revert() */\n    tag_203:\n        /* \"contracts/0xBitcoinExtended.sol\":12084:12100  challenge_digest */\n      dup5\n        /* \"contracts/0xBitcoinExtended.sol\":12074:12100  digest == challenge_digest */\n      not(0x0)\n      and\n        /* \"contracts/0xBitcoinExtended.sol\":12074:12080  digest */\n      dup2\n        /* \"contracts/0xBitcoinExtended.sol\":12074:12100  digest == challenge_digest */\n      not(0x0)\n      and\n      eq\n        /* \"contracts/0xBitcoinExtended.sol\":12066:12101  return (digest == challenge_digest) */\n      swap2\n      pop\n        /* \"contracts/0xBitcoinExtended.sol\":11779:12113  function checkMintSolution(uint256 nonce, bytes32 challenge_digest, bytes32 challenge_number, uint testTarget) public view returns (bool success) {... */\n      pop\n      swap5\n      swap4\n      pop\n      pop\n      pop\n      pop\n      jump\t// out\n        /* \"contracts/0xBitcoinExtended.sol\":4087:4109  uint public epochCount */\n    tag_111:\n      sload(0x7)\n      dup2\n      jump\t// out\n        /* \"contracts/0xBitcoinExtended.sol\":4393:4430  uint public  _MAXIMUM_TARGET = 2**234 */\n    tag_114:\n      sload(0xa)\n      dup2\n      jump\t// out\n        /* \"contracts/0xBitcoinExtended.sol\":4438:4462  uint public miningTarget */\n    tag_117:\n      sload(0xb)\n      dup2\n      jump\t// out\n        /* \"contracts/0xBitcoinExtended.sol\":4469:4499  bytes32 public challengeNumber */\n    tag_120:\n      sload(0xc)\n      dup2\n      jump\t// out\n        /* \"contracts/0xBitcoinExtended.sol\":2948:2968  address public owner */\n    tag_123:\n      0x0\n      dup1\n      swap1\n      sload\n      swap1\n      0x100\n      exp\n      swap1\n      div\n      0xffffffffffffffffffffffffffffffffffffffff\n      and\n      dup2\n      jump\t// out\n        /* \"contracts/0xBitcoinExtended.sol\":3922:3942  string public symbol */\n    tag_126:\n      0x2\n      dup1\n      sload\n      0x1\n      dup2\n      0x1\n      and\n      iszero\n      0x100\n      mul\n      sub\n      and\n      0x2\n      swap1\n      div\n      dup1\n      0x1f\n      add\n      0x20\n      dup1\n      swap2\n      div\n      mul\n      0x20\n      add\n      mload(0x40)\n      swap1\n      dup2\n      add\n      0x40\n      mstore\n      dup1\n      swap3\n      swap2\n      swap1\n      dup2\n      dup2\n      mstore\n      0x20\n      add\n      dup3\n      dup1\n      sload\n      0x1\n      dup2\n      0x1\n      and\n      iszero\n      0x100\n      mul\n      sub\n      and\n      0x2\n      swap1\n      div\n      dup1\n      iszero\n      tag_204\n      jumpi\n      dup1\n      0x1f\n      lt\n      tag_205\n      jumpi\n      0x100\n      dup1\n      dup4\n      sload\n      div\n      mul\n      dup4\n      mstore\n      swap2\n      0x20\n      add\n      swap2\n      jump(tag_204)\n    tag_205:\n      dup3\n      add\n      swap2\n      swap1\n      0x0\n      mstore\n      keccak256(0x0, 0x20)\n      swap1\n    tag_206:\n      dup2\n      sload\n      dup2\n      mstore\n      swap1\n      0x1\n      add\n      swap1\n      0x20\n      add\n      dup1\n      dup4\n      gt\n      tag_206\n      jumpi\n      dup3\n      swap1\n      sub\n      0x1f\n      and\n      dup3\n      add\n      swap2\n    tag_204:\n      pop\n      pop\n      pop\n      pop\n      pop\n      dup2\n      jump\t// out\n        /* \"contracts/0xBitcoinExtended.sol\":11497:11734  function getMintDigest(uint256 nonce, bytes32 challenge_digest, bytes32 challenge_number) public view returns (bytes32 digesttest) {... */\n    tag_133:\n        /* \"contracts/0xBitcoinExtended.sol\":11608:11626  bytes32 digesttest */\n      0x0\n        /* \"contracts/0xBitcoinExtended.sol\":11639:11653  bytes32 digest */\n      dup1\n        /* \"contracts/0xBitcoinExtended.sol\":11666:11682  challenge_number */\n      dup3\n        /* \"contracts/0xBitcoinExtended.sol\":11683:11693  msg.sender */\n      caller\n        /* \"contracts/0xBitcoinExtended.sol\":11694:11699  nonce */\n      dup7\n        /* \"contracts/0xBitcoinExtended.sol\":11656:11700  keccak256(challenge_number,msg.sender,nonce) */\n      mload(0x40)\n      dup1\n      dup5\n      not(0x0)\n      and\n      not(0x0)\n      and\n      dup2\n      mstore\n      0x20\n      add\n      dup4\n      0xffffffffffffffffffffffffffffffffffffffff\n      and\n      0xffffffffffffffffffffffffffffffffffffffff\n      and\n      0x1000000000000000000000000\n      mul\n      dup2\n      mstore\n      0x14\n      add\n      dup3\n      dup2\n      mstore\n      0x20\n      add\n      swap4\n      pop\n      pop\n      pop\n      pop\n      mload(0x40)\n      dup1\n      swap2\n      sub\n      swap1\n      keccak256\n        /* \"contracts/0xBitcoinExtended.sol\":11639:11700  bytes32 digest = keccak256(challenge_number,msg.sender,nonce) */\n      swap1\n      pop\n        /* \"contracts/0xBitcoinExtended.sol\":11718:11724  digest */\n      dup1\n        /* \"contracts/0xBitcoinExtended.sol\":11711:11724  return digest */\n      swap2\n      pop\n        /* \"contracts/0xBitcoinExtended.sol\":11497:11734  function getMintDigest(uint256 nonce, bytes32 challenge_digest, bytes32 challenge_number) public view returns (bytes32 digesttest) {... */\n      pop\n      swap4\n      swap3\n      pop\n      pop\n      pop\n      jump\t// out\n        /* \"contracts/0xBitcoinExtended.sol\":13118:13380  function transfer(address to, uint tokens) public returns (bool success) {... */\n    tag_136:\n        /* \"contracts/0xBitcoinExtended.sol\":13177:13189  bool success */\n      0x0\n        /* \"contracts/0xBitcoinExtended.sol\":13225:13257  balances[msg.sender].sub(tokens) */\n      tag_209\n        /* \"contracts/0xBitcoinExtended.sol\":13250:13256  tokens */\n      dup3\n        /* \"contracts/0xBitcoinExtended.sol\":13225:13233  balances */\n      0x15\n        /* \"contracts/0xBitcoinExtended.sol\":13225:13245  balances[msg.sender] */\n      0x0\n        /* \"contracts/0xBitcoinExtended.sol\":13234:13244  msg.sender */\n      caller\n        /* \"contracts/0xBitcoinExtended.sol\":13225:13245  balances[msg.sender] */\n      0xffffffffffffffffffffffffffffffffffffffff\n      and\n      0xffffffffffffffffffffffffffffffffffffffff\n      and\n      dup2\n      mstore\n      0x20\n      add\n      swap1\n      dup2\n      mstore\n      0x20\n      add\n      0x0\n      keccak256\n      sload\n        /* \"contracts/0xBitcoinExtended.sol\":13225:13249  balances[msg.sender].sub */\n      tag_185\n      swap1\n        /* \"contracts/0xBitcoinExtended.sol\":13225:13257  balances[msg.sender].sub(tokens) */\n      swap2\n      swap1\n      0xffffffff\n      and\n      jump\t// in\n    tag_209:\n        /* \"contracts/0xBitcoinExtended.sol\":13202:13210  balances */\n      0x15\n        /* \"contracts/0xBitcoinExtended.sol\":13202:13222  balances[msg.sender] */\n      0x0\n        /* \"contracts/0xBitcoinExtended.sol\":13211:13221  msg.sender */\n      caller\n        /* \"contracts/0xBitcoinExtended.sol\":13202:13222  balances[msg.sender] */\n      0xffffffffffffffffffffffffffffffffffffffff\n      and\n      0xffffffffffffffffffffffffffffffffffffffff\n      and\n      dup2\n      mstore\n      0x20\n      add\n      swap1\n      dup2\n      mstore\n      0x20\n      add\n      0x0\n      keccak256\n        /* \"contracts/0xBitcoinExtended.sol\":13202:13257  balances[msg.sender] = balances[msg.sender].sub(tokens) */\n      dup2\n      swap1\n      sstore\n      pop\n        /* \"contracts/0xBitcoinExtended.sol\":13283:13307  balances[to].add(tokens) */\n      tag_210\n        /* \"contracts/0xBitcoinExtended.sol\":13300:13306  tokens */\n      dup3\n        /* \"contracts/0xBitcoinExtended.sol\":13283:13291  balances */\n      0x15\n        /* \"contracts/0xBitcoinExtended.sol\":13283:13295  balances[to] */\n      0x0\n        /* \"contracts/0xBitcoinExtended.sol\":13292:13294  to */\n      dup7\n        /* \"contracts/0xBitcoinExtended.sol\":13283:13295  balances[to] */\n      0xffffffffffffffffffffffffffffffffffffffff\n      and\n      0xffffffffffffffffffffffffffffffffffffffff\n      and\n      dup2\n      mstore\n      0x20\n      add\n      swap1\n      dup2\n      mstore\n      0x20\n      add\n      0x0\n      keccak256\n      sload\n        /* \"contracts/0xBitcoinExtended.sol\":13283:13299  balances[to].add */\n      tag_177\n      swap1\n        /* \"contracts/0xBitcoinExtended.sol\":13283:13307  balances[to].add(tokens) */\n      swap2\n      swap1\n      0xffffffff\n      and\n      jump\t// in\n    tag_210:\n        /* \"contracts/0xBitcoinExtended.sol\":13268:13276  balances */\n      0x15\n        /* \"contracts/0xBitcoinExtended.sol\":13268:13280  balances[to] */\n      0x0\n        /* \"contracts/0xBitcoinExtended.sol\":13277:13279  to */\n      dup6\n        /* \"contracts/0xBitcoinExtended.sol\":13268:13280  balances[to] */\n      0xffffffffffffffffffffffffffffffffffffffff\n      and\n      0xffffffffffffffffffffffffffffffffffffffff\n      and\n      dup2\n      mstore\n      0x20\n      add\n      swap1\n      dup2\n      mstore\n      0x20\n      add\n      0x0\n      keccak256\n        /* \"contracts/0xBitcoinExtended.sol\":13268:13307  balances[to] = balances[to].add(tokens) */\n      dup2\n      swap1\n      sstore\n      pop\n        /* \"contracts/0xBitcoinExtended.sol\":13339:13341  to */\n      dup3\n        /* \"contracts/0xBitcoinExtended.sol\":13318:13350  Transfer(msg.sender, to, tokens) */\n      0xffffffffffffffffffffffffffffffffffffffff\n      and\n        /* \"contracts/0xBitcoinExtended.sol\":13327:13337  msg.sender */\n      caller\n        /* \"contracts/0xBitcoinExtended.sol\":13318:13350  Transfer(msg.sender, to, tokens) */\n      0xffffffffffffffffffffffffffffffffffffffff\n      and\n      0xddf252ad1be2c89b69c2b068fc378daa952ba7f163c4a11628f55a4df523b3ef\n        /* \"contracts/0xBitcoinExtended.sol\":13343:13349  tokens */\n      dup5\n        /* \"contracts/0xBitcoinExtended.sol\":13318:13350  Transfer(msg.sender, to, tokens) */\n      mload(0x40)\n      dup1\n      dup3\n      dup2\n      mstore\n      0x20\n      add\n      swap2\n      pop\n      pop\n      mload(0x40)\n      dup1\n      swap2\n      sub\n      swap1\n      log3\n        /* \"contracts/0xBitcoinExtended.sol\":13368:13372  true */\n      0x1\n        /* \"contracts/0xBitcoinExtended.sol\":13361:13372  return true */\n      swap1\n      pop\n        /* \"contracts/0xBitcoinExtended.sol\":13118:13380  function transfer(address to, uint tokens) public returns (bool success) {... */\n      swap3\n      swap2\n      pop\n      pop\n      jump\t// out\n        /* \"contracts/0xBitcoinExtended.sol\":4143:4186  uint public _BLOCKS_PER_READJUSTMENT = 1024 */\n    tag_139:\n      sload(0x8)\n      dup2\n      jump\t// out\n        /* \"contracts/0xBitcoinExtended.sol\":4654:4682  uint public lastRewardAmount */\n    tag_142:\n      sload(0x10)\n      dup2\n      jump\t// out\n        /* \"contracts/0xBitcoinExtended.sol\":15779:16091  function approveAndCall(address spender, uint tokens, bytes data) public returns (bool success) {... */\n    tag_145:\n        /* \"contracts/0xBitcoinExtended.sol\":15861:15873  bool success */\n      0x0\n        /* \"contracts/0xBitcoinExtended.sol\":15917:15923  tokens */\n      dup3\n        /* \"contracts/0xBitcoinExtended.sol\":15886:15893  allowed */\n      0x16\n        /* \"contracts/0xBitcoinExtended.sol\":15886:15905  allowed[msg.sender] */\n      0x0\n        /* \"contracts/0xBitcoinExtended.sol\":15894:15904  msg.sender */\n      caller\n        /* \"contracts/0xBitcoinExtended.sol\":15886:15905  allowed[msg.sender] */\n      0xffffffffffffffffffffffffffffffffffffffff\n      and\n      0xffffffffffffffffffffffffffffffffffffffff\n      and\n      dup2\n      mstore\n      0x20\n      add\n      swap1\n      dup2\n      mstore\n      0x20\n      add\n      0x0\n      keccak256\n        /* \"contracts/0xBitcoinExtended.sol\":15886:15914  allowed[msg.sender][spender] */\n      0x0\n        /* \"contracts/0xBitcoinExtended.sol\":15906:15913  spender */\n      dup7\n        /* \"contracts/0xBitcoinExtended.sol\":15886:15914  allowed[msg.sender][spender] */\n      0xffffffffffffffffffffffffffffffffffffffff\n      and\n      0xffffffffffffffffffffffffffffffffffffffff\n      and\n      dup2\n      mstore\n      0x20\n      add\n      swap1\n      dup2\n      mstore\n      0x20\n      add\n      0x0\n      keccak256\n        /* \"contracts/0xBitcoinExtended.sol\":15886:15923  allowed[msg.sender][spender] = tokens */\n      dup2\n      swap1\n      sstore\n      pop\n        /* \"contracts/0xBitcoinExtended.sol\":15955:15962  spender */\n      dup4\n        /* \"contracts/0xBitcoinExtended.sol\":15934:15971  Approval(msg.sender, spender, tokens) */\n      0xffffffffffffffffffffffffffffffffffffffff\n      and\n        /* \"contracts/0xBitcoinExtended.sol\":15943:15953  msg.sender */\n      caller\n        /* \"contracts/0xBitcoinExtended.sol\":15934:15971  Approval(msg.sender, spender, tokens) */\n      0xffffffffffffffffffffffffffffffffffffffff\n      and\n      0x8c5be1e5ebec7d5bd14f71427d1e84f3dd0314c0f7b2291e5b200ac8c7c3b925\n        /* \"contracts/0xBitcoinExtended.sol\":15964:15970  tokens */\n      dup6\n        /* \"contracts/0xBitcoinExtended.sol\":15934:15971  Approval(msg.sender, spender, tokens) */\n      mload(0x40)\n      dup1\n      dup3\n      dup2\n      mstore\n      0x20\n      add\n      swap2\n      pop\n      pop\n      mload(0x40)\n      dup1\n      swap2\n      sub\n      swap1\n      log3\n        /* \"contracts/0xBitcoinExtended.sol\":16005:16012  spender */\n      dup4\n        /* \"contracts/0xBitcoinExtended.sol\":15982:16029  ApproveAndCallFallBack(spender).receiveApproval */\n      0xffffffffffffffffffffffffffffffffffffffff\n      and\n      0x8f4ffcb1\n        /* \"contracts/0xBitcoinExtended.sol\":16030:16040  msg.sender */\n      caller\n        /* \"contracts/0xBitcoinExtended.sol\":16042:16048  tokens */\n      dup6\n        /* \"contracts/0xBitcoinExtended.sol\":16050:16054  this */\n      address\n        /* \"contracts/0xBitcoinExtended.sol\":16056:16060  data */\n      dup7\n        /* \"contracts/0xBitcoinExtended.sol\":15982:16061  ApproveAndCallFallBack(spender).receiveApproval(msg.sender, tokens, this, data) */\n      mload(0x40)\n      dup6\n      0xffffffff\n      and\n      0x100000000000000000000000000000000000000000000000000000000\n      mul\n      dup2\n      mstore\n      0x4\n      add\n      dup1\n      dup6\n      0xffffffffffffffffffffffffffffffffffffffff\n      and\n      0xffffffffffffffffffffffffffffffffffffffff\n      and\n      dup2\n      mstore\n      0x20\n      add\n      dup5\n      dup2\n      mstore\n      0x20\n      add\n      dup4\n      0xffffffffffffffffffffffffffffffffffffffff\n      and\n      0xffffffffffffffffffffffffffffffffffffffff\n      and\n      dup2\n      mstore\n      0x20\n      add\n      dup1\n      0x20\n      add\n      dup3\n      dup2\n      sub\n      dup3\n      mstore\n      dup4\n      dup2\n      dup2\n      mload\n      dup2\n      mstore\n      0x20\n      add\n      swap2\n      pop\n      dup1\n      mload\n      swap1\n      0x20\n      add\n      swap1\n      dup1\n      dup4\n      dup4\n        /* \"--CODEGEN--\":23:24   */\n      0x0\n        /* \"--CODEGEN--\":8:108   */\n    tag_212:\n        /* \"--CODEGEN--\":33:36   */\n      dup4\n        /* \"--CODEGEN--\":30:31   */\n      dup2\n        /* \"--CODEGEN--\":27:29   */\n      lt\n        /* \"--CODEGEN--\":8:108   */\n      iszero\n      tag_213\n      jumpi\n        /* \"--CODEGEN--\":99:100   */\n      dup1\n        /* \"--CODEGEN--\":94:97   */\n      dup3\n        /* \"--CODEGEN--\":90:93   */\n      add\n        /* \"--CODEGEN--\":84:89   */\n      mload\n        /* \"--CODEGEN--\":80:81   */\n      dup2\n        /* \"--CODEGEN--\":75:78   */\n      dup5\n        /* \"--CODEGEN--\":71:74   */\n      add\n        /* \"--CODEGEN--\":64:70   */\n      mstore\n        /* \"--CODEGEN--\":52:54   */\n      0x20\n        /* \"--CODEGEN--\":49:50   */\n      dup2\n        /* \"--CODEGEN--\":45:48   */\n      add\n        /* \"--CODEGEN--\":40:55   */\n      swap1\n      pop\n        /* \"--CODEGEN--\":8:108   */\n      jump(tag_212)\n    tag_213:\n        /* \"--CODEGEN--\":12:26   */\n      pop\n        /* \"--CODEGEN--\":3:112   */\n      pop\n      pop\n      pop\n      swap1\n      pop\n      swap1\n      dup2\n      add\n      swap1\n      0x1f\n      and\n      dup1\n      iszero\n      tag_215\n      jumpi\n      dup1\n      dup3\n      sub\n      dup1\n      mload\n      0x1\n      dup4\n      0x20\n      sub\n      0x100\n      exp\n      sub\n      not\n      and\n      dup2\n      mstore\n      0x20\n      add\n      swap2\n      pop\n    tag_215:\n      pop\n      swap6\n      pop\n      pop\n      pop\n      pop\n      pop\n      pop\n      0x0\n      mload(0x40)\n      dup1\n      dup4\n      sub\n      dup2\n      0x0\n      dup8\n      dup1\n      extcodesize\n      iszero\n      iszero\n      tag_216\n      jumpi\n      0x0\n      dup1\n      revert\n    tag_216:\n      sub(gas, 0x2c6)\n      call\n      iszero\n      iszero\n      tag_217\n      jumpi\n      0x0\n      dup1\n      revert\n    tag_217:\n      pop\n      pop\n      pop\n        /* \"contracts/0xBitcoinExtended.sol\":16079:16083  true */\n      0x1\n        /* \"contracts/0xBitcoinExtended.sol\":16072:16083  return true */\n      swap1\n      pop\n        /* \"contracts/0xBitcoinExtended.sol\":15779:16091  function approveAndCall(address spender, uint tokens, bytes data) public returns (bool success) {... */\n      swap4\n      swap3\n      pop\n      pop\n      pop\n      jump\t// out\n        /* \"contracts/0xBitcoinExtended.sol\":4037:4078  uint public latestDifficultyPeriodStarted */\n    tag_148:\n      sload(0x6)\n      dup2\n      jump\t// out\n        /* \"contracts/0xBitcoinExtended.sol\":2975:2998  address public newOwner */\n    tag_151:\n      0x1\n      0x0\n      swap1\n      sload\n      swap1\n      0x100\n      exp\n      swap1\n      div\n      0xffffffffffffffffffffffffffffffffffffffff\n      and\n      dup2\n      jump\t// out\n        /* \"contracts/0xBitcoinExtended.sol\":16576:16760  function transferAnyERC20Token(address tokenAddress, uint tokens) public onlyOwner returns (bool success) {... */\n    tag_154:\n        /* \"contracts/0xBitcoinExtended.sol\":16668:16680  bool success */\n      0x0\n        /* \"contracts/0xBitcoinExtended.sol\":3204:3209  owner */\n      dup1\n      0x0\n      swap1\n      sload\n      swap1\n      0x100\n      exp\n      swap1\n      div\n      0xffffffffffffffffffffffffffffffffffffffff\n      and\n        /* \"contracts/0xBitcoinExtended.sol\":3190:3209  msg.sender == owner */\n      0xffffffffffffffffffffffffffffffffffffffff\n      and\n        /* \"contracts/0xBitcoinExtended.sol\":3190:3200  msg.sender */\n      caller\n        /* \"contracts/0xBitcoinExtended.sol\":3190:3209  msg.sender == owner */\n      0xffffffffffffffffffffffffffffffffffffffff\n      and\n      eq\n        /* \"contracts/0xBitcoinExtended.sol\":3182:3210  require(msg.sender == owner) */\n      iszero\n      iszero\n      tag_219\n      jumpi\n      0x0\n      dup1\n      revert\n    tag_219:\n        /* \"contracts/0xBitcoinExtended.sol\":16715:16727  tokenAddress */\n      dup3\n        /* \"contracts/0xBitcoinExtended.sol\":16700:16737  ERC20Interface(tokenAddress).transfer */\n      0xffffffffffffffffffffffffffffffffffffffff\n      and\n      0xa9059cbb\n        /* \"contracts/0xBitcoinExtended.sol\":16738:16743  owner */\n      0x0\n      dup1\n      swap1\n      sload\n      swap1\n      0x100\n      exp\n      swap1\n      div\n      0xffffffffffffffffffffffffffffffffffffffff\n      and\n        /* \"contracts/0xBitcoinExtended.sol\":16745:16751  tokens */\n      dup5\n        /* \"contracts/0xBitcoinExtended.sol\":16700:16752  ERC20Interface(tokenAddress).transfer(owner, tokens) */\n      mstore(add(0x20, mload(0x40)), 0x0)\n      mload(0x40)\n      dup4\n      0xffffffff\n      and\n      0x100000000000000000000000000000000000000000000000000000000\n      mul\n      dup2\n      mstore\n      0x4\n      add\n      dup1\n      dup4\n      0xffffffffffffffffffffffffffffffffffffffff\n      and\n      0xffffffffffffffffffffffffffffffffffffffff\n      and\n      dup2\n      mstore\n      0x20\n      add\n      dup3\n      dup2\n      mstore\n      0x20\n      add\n      swap3\n      pop\n      pop\n      pop\n      0x20\n      mload(0x40)\n      dup1\n      dup4\n      sub\n      dup2\n      0x0\n      dup8\n      dup1\n      extcodesize\n      iszero\n      iszero\n      tag_221\n      jumpi\n      0x0\n      dup1\n      revert\n    tag_221:\n      sub(gas, 0x2c6)\n      call\n      iszero\n      iszero\n      tag_222\n      jumpi\n      0x0\n      dup1\n      revert\n    tag_222:\n      pop\n      pop\n      pop\n      mload(0x40)\n      dup1\n      mload\n      swap1\n      pop\n        /* \"contracts/0xBitcoinExtended.sol\":16693:16752  return ERC20Interface(tokenAddress).transfer(owner, tokens) */\n      swap1\n      pop\n        /* \"contracts/0xBitcoinExtended.sol\":16576:16760  function transferAnyERC20Token(address tokenAddress, uint tokens) public onlyOwner returns (bool success) {... */\n      swap3\n      swap2\n      pop\n      pop\n      jump\t// out\n        /* \"contracts/0xBitcoinExtended.sol\":4216:4252  uint public  _MINIMUM_TARGET = 2**16 */\n    tag_157:\n      sload(0x9)\n      dup2\n      jump\t// out\n        /* \"contracts/0xBitcoinExtended.sol\":15262:15413  function allowance(address tokenOwner, address spender) public constant returns (uint remaining) {... */\n    tag_160:\n        /* \"contracts/0xBitcoinExtended.sol\":15343:15357  uint remaining */\n      0x0\n        /* \"contracts/0xBitcoinExtended.sol\":15377:15384  allowed */\n      0x16\n        /* \"contracts/0xBitcoinExtended.sol\":15377:15396  allowed[tokenOwner] */\n      0x0\n        /* \"contracts/0xBitcoinExtended.sol\":15385:15395  tokenOwner */\n      dup5\n        /* \"contracts/0xBitcoinExtended.sol\":15377:15396  allowed[tokenOwner] */\n      0xffffffffffffffffffffffffffffffffffffffff\n      and\n      0xffffffffffffffffffffffffffffffffffffffff\n      and\n      dup2\n      mstore\n      0x20\n      add\n      swap1\n      dup2\n      mstore\n      0x20\n      add\n      0x0\n      keccak256\n        /* \"contracts/0xBitcoinExtended.sol\":15377:15405  allowed[tokenOwner][spender] */\n      0x0\n        /* \"contracts/0xBitcoinExtended.sol\":15397:15404  spender */\n      dup4\n        /* \"contracts/0xBitcoinExtended.sol\":15377:15405  allowed[tokenOwner][spender] */\n      0xffffffffffffffffffffffffffffffffffffffff\n      and\n      0xffffffffffffffffffffffffffffffffffffffff\n      and\n      dup2\n      mstore\n      0x20\n      add\n      swap1\n      dup2\n      mstore\n      0x20\n      add\n      0x0\n      keccak256\n      sload\n        /* \"contracts/0xBitcoinExtended.sol\":15370:15405  return allowed[tokenOwner][spender] */\n      swap1\n      pop\n        /* \"contracts/0xBitcoinExtended.sol\":15262:15413  function allowance(address tokenOwner, address spender) public constant returns (uint remaining) {... */\n      swap3\n      swap2\n      pop\n      pop\n      jump\t// out\n        /* \"contracts/0xBitcoinExtended.sol\":3237:3339  function transferOwnership(address _newOwner) public onlyOwner {... */\n    tag_163:\n        /* \"contracts/0xBitcoinExtended.sol\":3204:3209  owner */\n      0x0\n      dup1\n      swap1\n      sload\n      swap1\n      0x100\n      exp\n      swap1\n      div\n      0xffffffffffffffffffffffffffffffffffffffff\n      and\n        /* \"contracts/0xBitcoinExtended.sol\":3190:3209  msg.sender == owner */\n      0xffffffffffffffffffffffffffffffffffffffff\n      and\n        /* \"contracts/0xBitcoinExtended.sol\":3190:3200  msg.sender */\n      caller\n        /* \"contracts/0xBitcoinExtended.sol\":3190:3209  msg.sender == owner */\n      0xffffffffffffffffffffffffffffffffffffffff\n      and\n      eq\n        /* \"contracts/0xBitcoinExtended.sol\":3182:3210  require(msg.sender == owner) */\n      iszero\n      iszero\n      tag_225\n      jumpi\n      0x0\n      dup1\n      revert\n    tag_225:\n        /* \"contracts/0xBitcoinExtended.sol\":3322:3331  _newOwner */\n      dup1\n        /* \"contracts/0xBitcoinExtended.sol\":3311:3319  newOwner */\n      0x1\n      0x0\n        /* \"contracts/0xBitcoinExtended.sol\":3311:3331  newOwner = _newOwner */\n      0x100\n      exp\n      dup2\n      sload\n      dup2\n      0xffffffffffffffffffffffffffffffffffffffff\n      mul\n      not\n      and\n      swap1\n      dup4\n      0xffffffffffffffffffffffffffffffffffffffff\n      and\n      mul\n      or\n      swap1\n      sstore\n      pop\n        /* \"contracts/0xBitcoinExtended.sol\":3237:3339  function transferOwnership(address _newOwner) public onlyOwner {... */\n      pop\n      jump\t// out\n        /* \"contracts/0xBitcoinExtended.sol\":1028:1141  function div(uint a, uint b) internal pure returns (uint c) {... */\n    tag_170:\n        /* \"contracts/0xBitcoinExtended.sol\":1080:1086  uint c */\n      0x0\n        /* \"contracts/0xBitcoinExtended.sol\":1111:1112  0 */\n      dup1\n        /* \"contracts/0xBitcoinExtended.sol\":1107:1108  b */\n      dup3\n        /* \"contracts/0xBitcoinExtended.sol\":1107:1112  b > 0 */\n      gt\n        /* \"contracts/0xBitcoinExtended.sol\":1099:1113  require(b > 0) */\n      iszero\n      iszero\n      tag_228\n      jumpi\n      0x0\n      dup1\n      revert\n    tag_228:\n        /* \"contracts/0xBitcoinExtended.sol\":1132:1133  b */\n      dup2\n        /* \"contracts/0xBitcoinExtended.sol\":1128:1129  a */\n      dup4\n        /* \"contracts/0xBitcoinExtended.sol\":1128:1133  a / b */\n      dup2\n      iszero\n      iszero\n      tag_229\n      jumpi\n      invalid\n    tag_229:\n      div\n        /* \"contracts/0xBitcoinExtended.sol\":1124:1133  c = a / b */\n      swap1\n      pop\n        /* \"contracts/0xBitcoinExtended.sol\":1028:1141  function div(uint a, uint b) internal pure returns (uint c) {... */\n      swap3\n      swap2\n      pop\n      pop\n      jump\t// out\n        /* \"contracts/0xBitcoinExtended.sol\":654:768  function add(uint a, uint b) internal pure returns (uint c) {... */\n    tag_177:\n        /* \"contracts/0xBitcoinExtended.sol\":706:712  uint c */\n      0x0\n        /* \"contracts/0xBitcoinExtended.sol\":733:734  b */\n      dup2\n        /* \"contracts/0xBitcoinExtended.sol\":729:730  a */\n      dup4\n        /* \"contracts/0xBitcoinExtended.sol\":729:734  a + b */\n      add\n        /* \"contracts/0xBitcoinExtended.sol\":725:734  c = a + b */\n      swap1\n      pop\n        /* \"contracts/0xBitcoinExtended.sol\":758:759  a */\n      dup3\n        /* \"contracts/0xBitcoinExtended.sol\":753:754  c */\n      dup2\n        /* \"contracts/0xBitcoinExtended.sol\":753:759  c >= a */\n      lt\n      iszero\n        /* \"contracts/0xBitcoinExtended.sol\":745:760  require(c >= a) */\n      iszero\n      iszero\n      tag_231\n      jumpi\n      0x0\n      dup1\n      revert\n    tag_231:\n        /* \"contracts/0xBitcoinExtended.sol\":654:768  function add(uint a, uint b) internal pure returns (uint c) {... */\n      swap3\n      swap2\n      pop\n      pop\n      jump\t// out\n        /* \"contracts/0xBitcoinExtended.sol\":7382:8533  function _startNewMiningEpoch() internal {... */\n    tag_181:\n        /* \"contracts/0xBitcoinExtended.sol\":7749:7764  maxSupplyForEra */\n      sload(0xe)\n        /* \"contracts/0xBitcoinExtended.sol\":7711:7746  tokensMinted.add(getMiningReward()) */\n      tag_233\n        /* \"contracts/0xBitcoinExtended.sol\":7728:7745  getMiningReward() */\n      tag_234\n        /* \"contracts/0xBitcoinExtended.sol\":7728:7743  getMiningReward */\n      tag_81\n        /* \"contracts/0xBitcoinExtended.sol\":7728:7745  getMiningReward() */\n      jump\t// in\n    tag_234:\n        /* \"contracts/0xBitcoinExtended.sol\":7711:7723  tokensMinted */\n      sload(0x14)\n        /* \"contracts/0xBitcoinExtended.sol\":7711:7727  tokensMinted.add */\n      tag_177\n      swap1\n        /* \"contracts/0xBitcoinExtended.sol\":7711:7746  tokensMinted.add(getMiningReward()) */\n      swap2\n      swap1\n      0xffffffff\n      and\n      jump\t// in\n    tag_233:\n        /* \"contracts/0xBitcoinExtended.sol\":7711:7764  tokensMinted.add(getMiningReward()) > maxSupplyForEra */\n      gt\n        /* \"contracts/0xBitcoinExtended.sol\":7711:7782  tokensMinted.add(getMiningReward()) > maxSupplyForEra && rewardEra < 39 */\n      dup1\n      iszero\n      tag_235\n      jumpi\n      pop\n        /* \"contracts/0xBitcoinExtended.sol\":7780:7782  39 */\n      0x27\n        /* \"contracts/0xBitcoinExtended.sol\":7768:7777  rewardEra */\n      sload(0xd)\n        /* \"contracts/0xBitcoinExtended.sol\":7768:7782  rewardEra < 39 */\n      lt\n        /* \"contracts/0xBitcoinExtended.sol\":7711:7782  tokensMinted.add(getMiningReward()) > maxSupplyForEra && rewardEra < 39 */\n    tag_235:\n        /* \"contracts/0xBitcoinExtended.sol\":7707:7834  if( tokensMinted.add(getMiningReward()) > maxSupplyForEra && rewardEra < 39)... */\n      iszero\n      tag_236\n      jumpi\n        /* \"contracts/0xBitcoinExtended.sol\":7824:7825  1 */\n      0x1\n        /* \"contracts/0xBitcoinExtended.sol\":7812:7821  rewardEra */\n      sload(0xd)\n        /* \"contracts/0xBitcoinExtended.sol\":7812:7825  rewardEra + 1 */\n      add\n        /* \"contracts/0xBitcoinExtended.sol\":7800:7809  rewardEra */\n      0xd\n        /* \"contracts/0xBitcoinExtended.sol\":7800:7825  rewardEra = rewardEra + 1 */\n      dup2\n      swap1\n      sstore\n      pop\n        /* \"contracts/0xBitcoinExtended.sol\":7707:7834  if( tokensMinted.add(getMiningReward()) > maxSupplyForEra && rewardEra < 39)... */\n    tag_236:\n        /* \"contracts/0xBitcoinExtended.sol\":8010:8047  _totalSupply.div( 2**(rewardEra + 1)) */\n      tag_237\n        /* \"contracts/0xBitcoinExtended.sol\":8044:8045  1 */\n      0x1\n        /* \"contracts/0xBitcoinExtended.sol\":8032:8041  rewardEra */\n      sload(0xd)\n        /* \"contracts/0xBitcoinExtended.sol\":8032:8045  rewardEra + 1 */\n      add\n        /* \"contracts/0xBitcoinExtended.sol\":8028:8029  2 */\n      0x2\n        /* \"contracts/0xBitcoinExtended.sol\":8028:8046  2**(rewardEra + 1) */\n      exp\n        /* \"contracts/0xBitcoinExtended.sol\":8010:8022  _totalSupply */\n      sload(0x5)\n        /* \"contracts/0xBitcoinExtended.sol\":8010:8026  _totalSupply.div */\n      tag_170\n      swap1\n        /* \"contracts/0xBitcoinExtended.sol\":8010:8047  _totalSupply.div( 2**(rewardEra + 1)) */\n      swap2\n      swap1\n      0xffffffff\n      and\n      jump\t// in\n    tag_237:\n        /* \"contracts/0xBitcoinExtended.sol\":7995:8007  _totalSupply */\n      sload(0x5)\n        /* \"contracts/0xBitcoinExtended.sol\":7995:8047  _totalSupply - _totalSupply.div( 2**(rewardEra + 1)) */\n      sub\n        /* \"contracts/0xBitcoinExtended.sol\":7977:7992  maxSupplyForEra */\n      0xe\n        /* \"contracts/0xBitcoinExtended.sol\":7977:8047  maxSupplyForEra = _totalSupply - _totalSupply.div( 2**(rewardEra + 1)) */\n      dup2\n      swap1\n      sstore\n      pop\n        /* \"contracts/0xBitcoinExtended.sol\":8069:8086  epochCount.add(1) */\n      tag_238\n        /* \"contracts/0xBitcoinExtended.sol\":8084:8085  1 */\n      0x1\n        /* \"contracts/0xBitcoinExtended.sol\":8069:8079  epochCount */\n      sload(0x7)\n        /* \"contracts/0xBitcoinExtended.sol\":8069:8083  epochCount.add */\n      tag_177\n      swap1\n        /* \"contracts/0xBitcoinExtended.sol\":8069:8086  epochCount.add(1) */\n      swap2\n      swap1\n      0xffffffff\n      and\n      jump\t// in\n    tag_238:\n        /* \"contracts/0xBitcoinExtended.sol\":8056:8066  epochCount */\n      0x7\n        /* \"contracts/0xBitcoinExtended.sol\":8056:8086  epochCount = epochCount.add(1) */\n      dup2\n      swap1\n      sstore\n      pop\n        /* \"contracts/0xBitcoinExtended.sol\":8213:8214  0 */\n      0x0\n        /* \"contracts/0xBitcoinExtended.sol\":8185:8209  _BLOCKS_PER_READJUSTMENT */\n      sload(0x8)\n        /* \"contracts/0xBitcoinExtended.sol\":8172:8182  epochCount */\n      sload(0x7)\n        /* \"contracts/0xBitcoinExtended.sol\":8172:8209  epochCount % _BLOCKS_PER_READJUSTMENT */\n      dup2\n      iszero\n      iszero\n      tag_239\n      jumpi\n      invalid\n    tag_239:\n      mod\n        /* \"contracts/0xBitcoinExtended.sol\":8172:8214  epochCount % _BLOCKS_PER_READJUSTMENT == 0 */\n      eq\n        /* \"contracts/0xBitcoinExtended.sol\":8169:8262  if(epochCount % _BLOCKS_PER_READJUSTMENT == 0)... */\n      iszero\n      tag_240\n      jumpi\n        /* \"contracts/0xBitcoinExtended.sol\":8232:8253  _reAdjustDifficulty() */\n      tag_241\n        /* \"contracts/0xBitcoinExtended.sol\":8232:8251  _reAdjustDifficulty */\n      tag_242\n        /* \"contracts/0xBitcoinExtended.sol\":8232:8253  _reAdjustDifficulty() */\n      jump\t// in\n    tag_241:\n        /* \"contracts/0xBitcoinExtended.sol\":8169:8262  if(epochCount % _BLOCKS_PER_READJUSTMENT == 0)... */\n    tag_240:\n        /* \"contracts/0xBitcoinExtended.sol\":8518:8519  1 */\n      0x1\n        /* \"contracts/0xBitcoinExtended.sol\":8503:8515  block.number */\n      number\n        /* \"contracts/0xBitcoinExtended.sol\":8503:8519  block.number - 1 */\n      sub\n        /* \"contracts/0xBitcoinExtended.sol\":8487:8520  block.blockhash(block.number - 1) */\n      blockhash\n        /* \"contracts/0xBitcoinExtended.sol\":8469:8484  challengeNumber */\n      0xc\n        /* \"contracts/0xBitcoinExtended.sol\":8469:8520  challengeNumber = block.blockhash(block.number - 1) */\n      dup2\n      not(0x0)\n      and\n      swap1\n      sstore\n      pop\n        /* \"contracts/0xBitcoinExtended.sol\":7382:8533  function _startNewMiningEpoch() internal {... */\n      jump\t// out\n        /* \"contracts/0xBitcoinExtended.sol\":774:888  function sub(uint a, uint b) internal pure returns (uint c) {... */\n    tag_185:\n        /* \"contracts/0xBitcoinExtended.sol\":826:832  uint c */\n      0x0\n        /* \"contracts/0xBitcoinExtended.sol\":858:859  a */\n      dup3\n        /* \"contracts/0xBitcoinExtended.sol\":853:854  b */\n      dup3\n        /* \"contracts/0xBitcoinExtended.sol\":853:859  b <= a */\n      gt\n      iszero\n        /* \"contracts/0xBitcoinExtended.sol\":845:860  require(b <= a) */\n      iszero\n      iszero\n      tag_244\n      jumpi\n      0x0\n      dup1\n      revert\n    tag_244:\n        /* \"contracts/0xBitcoinExtended.sol\":879:880  b */\n      dup2\n        /* \"contracts/0xBitcoinExtended.sol\":875:876  a */\n      dup4\n        /* \"contracts/0xBitcoinExtended.sol\":875:880  a - b */\n      sub\n        /* \"contracts/0xBitcoinExtended.sol\":871:880  c = a - b */\n      swap1\n      pop\n        /* \"contracts/0xBitcoinExtended.sol\":774:888  function sub(uint a, uint b) internal pure returns (uint c) {... */\n      swap3\n      swap2\n      pop\n      pop\n      jump\t// out\n        /* \"contracts/0xBitcoinExtended.sol\":8757:10586  function _reAdjustDifficulty() internal {... */\n    tag_242:\n        /* \"contracts/0xBitcoinExtended.sol\":8809:8848  uint ethBlocksSinceLastDifficultyPeriod */\n      0x0\n        /* \"contracts/0xBitcoinExtended.sol\":9066:9082  uint epochsMined */\n      dup1\n        /* \"contracts/0xBitcoinExtended.sol\":9126:9159  uint targetEthBlocksPerDiffPeriod */\n      0x0\n        /* \"contracts/0xBitcoinExtended.sol\":9392:9413  uint excess_block_pct */\n      dup1\n        /* \"contracts/0xBitcoinExtended.sol\":9510:9537  uint excess_block_pct_extra */\n      0x0\n        /* \"contracts/0xBitcoinExtended.sol\":9901:9924  uint shortage_block_pct */\n      dup1\n        /* \"contracts/0xBitcoinExtended.sol\":10021:10050  uint shortage_block_pct_extra */\n      0x0\n        /* \"contracts/0xBitcoinExtended.sol\":8866:8895  latestDifficultyPeriodStarted */\n      sload(0x6)\n        /* \"contracts/0xBitcoinExtended.sol\":8851:8863  block.number */\n      number\n        /* \"contracts/0xBitcoinExtended.sol\":8851:8895  block.number - latestDifficultyPeriodStarted */\n      sub\n        /* \"contracts/0xBitcoinExtended.sol\":8809:8895  uint ethBlocksSinceLastDifficultyPeriod = block.number - latestDifficultyPeriodStarted */\n      swap7\n      pop\n        /* \"contracts/0xBitcoinExtended.sol\":9085:9109  _BLOCKS_PER_READJUSTMENT */\n      sload(0x8)\n        /* \"contracts/0xBitcoinExtended.sol\":9066:9109  uint epochsMined = _BLOCKS_PER_READJUSTMENT */\n      swap6\n      pop\n        /* \"contracts/0xBitcoinExtended.sol\":9176:9178  60 */\n      0x3c\n        /* \"contracts/0xBitcoinExtended.sol\":9162:9173  epochsMined */\n      dup7\n        /* \"contracts/0xBitcoinExtended.sol\":9162:9178  epochsMined * 60 */\n      mul\n        /* \"contracts/0xBitcoinExtended.sol\":9126:9178  uint targetEthBlocksPerDiffPeriod = epochsMined * 60 */\n      swap5\n      pop\n        /* \"contracts/0xBitcoinExtended.sol\":9341:9369  targetEthBlocksPerDiffPeriod */\n      dup5\n        /* \"contracts/0xBitcoinExtended.sol\":9304:9338  ethBlocksSinceLastDifficultyPeriod */\n      dup8\n        /* \"contracts/0xBitcoinExtended.sol\":9304:9369  ethBlocksSinceLastDifficultyPeriod < targetEthBlocksPerDiffPeriod */\n      lt\n        /* \"contracts/0xBitcoinExtended.sol\":9300:10282  if( ethBlocksSinceLastDifficultyPeriod < targetEthBlocksPerDiffPeriod )... */\n      iszero\n      tag_246\n      jumpi\n        /* \"contracts/0xBitcoinExtended.sol\":9416:9497  (targetEthBlocksPerDiffPeriod.mul(100)).div( ethBlocksSinceLastDifficultyPeriod ) */\n      tag_247\n        /* \"contracts/0xBitcoinExtended.sol\":9461:9495  ethBlocksSinceLastDifficultyPeriod */\n      dup8\n        /* \"contracts/0xBitcoinExtended.sol\":9417:9454  targetEthBlocksPerDiffPeriod.mul(100) */\n      tag_248\n        /* \"contracts/0xBitcoinExtended.sol\":9450:9453  100 */\n      0x64\n        /* \"contracts/0xBitcoinExtended.sol\":9417:9445  targetEthBlocksPerDiffPeriod */\n      dup9\n        /* \"contracts/0xBitcoinExtended.sol\":9417:9449  targetEthBlocksPerDiffPeriod.mul */\n      tag_249\n      swap1\n        /* \"contracts/0xBitcoinExtended.sol\":9417:9454  targetEthBlocksPerDiffPeriod.mul(100) */\n      swap2\n      swap1\n      0xffffffff\n      and\n      jump\t// in\n    tag_248:\n        /* \"contracts/0xBitcoinExtended.sol\":9416:9459  (targetEthBlocksPerDiffPeriod.mul(100)).div */\n      tag_170\n      swap1\n        /* \"contracts/0xBitcoinExtended.sol\":9416:9497  (targetEthBlocksPerDiffPeriod.mul(100)).div( ethBlocksSinceLastDifficultyPeriod ) */\n      swap2\n      swap1\n      0xffffffff\n      and\n      jump\t// in\n    tag_247:\n        /* \"contracts/0xBitcoinExtended.sol\":9392:9497  uint excess_block_pct = (targetEthBlocksPerDiffPeriod.mul(100)).div( ethBlocksSinceLastDifficultyPeriod ) */\n      swap4\n      pop\n        /* \"contracts/0xBitcoinExtended.sol\":9540:9585  excess_block_pct.sub(100).limitLessThan(1000) */\n      tag_250\n        /* \"contracts/0xBitcoinExtended.sol\":9580:9584  1000 */\n      0x3e8\n        /* \"contracts/0xBitcoinExtended.sol\":9540:9565  excess_block_pct.sub(100) */\n      tag_251\n        /* \"contracts/0xBitcoinExtended.sol\":9561:9564  100 */\n      0x64\n        /* \"contracts/0xBitcoinExtended.sol\":9540:9556  excess_block_pct */\n      dup8\n        /* \"contracts/0xBitcoinExtended.sol\":9540:9560  excess_block_pct.sub */\n      tag_185\n      swap1\n        /* \"contracts/0xBitcoinExtended.sol\":9540:9565  excess_block_pct.sub(100) */\n      swap2\n      swap1\n      0xffffffff\n      and\n      jump\t// in\n    tag_251:\n        /* \"contracts/0xBitcoinExtended.sol\":9540:9579  excess_block_pct.sub(100).limitLessThan */\n      tag_252\n      swap1\n        /* \"contracts/0xBitcoinExtended.sol\":9540:9585  excess_block_pct.sub(100).limitLessThan(1000) */\n      swap2\n      swap1\n      0xffffffff\n      and\n      jump\t// in\n    tag_250:\n        /* \"contracts/0xBitcoinExtended.sol\":9510:9585  uint excess_block_pct_extra = excess_block_pct.sub(100).limitLessThan(1000) */\n      swap3\n      pop\n        /* \"contracts/0xBitcoinExtended.sol\":9788:9856  miningTarget.sub(miningTarget.div(2000).mul(excess_block_pct_extra)) */\n      tag_253\n        /* \"contracts/0xBitcoinExtended.sol\":9805:9855  miningTarget.div(2000).mul(excess_block_pct_extra) */\n      tag_254\n        /* \"contracts/0xBitcoinExtended.sol\":9832:9854  excess_block_pct_extra */\n      dup5\n        /* \"contracts/0xBitcoinExtended.sol\":9805:9827  miningTarget.div(2000) */\n      tag_255\n        /* \"contracts/0xBitcoinExtended.sol\":9822:9826  2000 */\n      0x7d0\n        /* \"contracts/0xBitcoinExtended.sol\":9805:9817  miningTarget */\n      sload(0xb)\n        /* \"contracts/0xBitcoinExtended.sol\":9805:9821  miningTarget.div */\n      tag_170\n      swap1\n        /* \"contracts/0xBitcoinExtended.sol\":9805:9827  miningTarget.div(2000) */\n      swap2\n      swap1\n      0xffffffff\n      and\n      jump\t// in\n    tag_255:\n        /* \"contracts/0xBitcoinExtended.sol\":9805:9831  miningTarget.div(2000).mul */\n      tag_249\n      swap1\n        /* \"contracts/0xBitcoinExtended.sol\":9805:9855  miningTarget.div(2000).mul(excess_block_pct_extra) */\n      swap2\n      swap1\n      0xffffffff\n      and\n      jump\t// in\n    tag_254:\n        /* \"contracts/0xBitcoinExtended.sol\":9788:9800  miningTarget */\n      sload(0xb)\n        /* \"contracts/0xBitcoinExtended.sol\":9788:9804  miningTarget.sub */\n      tag_185\n      swap1\n        /* \"contracts/0xBitcoinExtended.sol\":9788:9856  miningTarget.sub(miningTarget.div(2000).mul(excess_block_pct_extra)) */\n      swap2\n      swap1\n      0xffffffff\n      and\n      jump\t// in\n    tag_253:\n        /* \"contracts/0xBitcoinExtended.sol\":9773:9785  miningTarget */\n      0xb\n        /* \"contracts/0xBitcoinExtended.sol\":9773:9856  miningTarget = miningTarget.sub(miningTarget.div(2000).mul(excess_block_pct_extra)) */\n      dup2\n      swap1\n      sstore\n      pop\n        /* \"contracts/0xBitcoinExtended.sol\":9300:10282  if( ethBlocksSinceLastDifficultyPeriod < targetEthBlocksPerDiffPeriod )... */\n      jump(tag_256)\n    tag_246:\n        /* \"contracts/0xBitcoinExtended.sol\":9927:10008  (ethBlocksSinceLastDifficultyPeriod.mul(100)).div( targetEthBlocksPerDiffPeriod ) */\n      tag_257\n        /* \"contracts/0xBitcoinExtended.sol\":9978:10006  targetEthBlocksPerDiffPeriod */\n      dup6\n        /* \"contracts/0xBitcoinExtended.sol\":9928:9971  ethBlocksSinceLastDifficultyPeriod.mul(100) */\n      tag_258\n        /* \"contracts/0xBitcoinExtended.sol\":9967:9970  100 */\n      0x64\n        /* \"contracts/0xBitcoinExtended.sol\":9928:9962  ethBlocksSinceLastDifficultyPeriod */\n      dup11\n        /* \"contracts/0xBitcoinExtended.sol\":9928:9966  ethBlocksSinceLastDifficultyPeriod.mul */\n      tag_249\n      swap1\n        /* \"contracts/0xBitcoinExtended.sol\":9928:9971  ethBlocksSinceLastDifficultyPeriod.mul(100) */\n      swap2\n      swap1\n      0xffffffff\n      and\n      jump\t// in\n    tag_258:\n        /* \"contracts/0xBitcoinExtended.sol\":9927:9976  (ethBlocksSinceLastDifficultyPeriod.mul(100)).div */\n      tag_170\n      swap1\n        /* \"contracts/0xBitcoinExtended.sol\":9927:10008  (ethBlocksSinceLastDifficultyPeriod.mul(100)).div( targetEthBlocksPerDiffPeriod ) */\n      swap2\n      swap1\n      0xffffffff\n      and\n      jump\t// in\n    tag_257:\n        /* \"contracts/0xBitcoinExtended.sol\":9901:10008  uint shortage_block_pct = (ethBlocksSinceLastDifficultyPeriod.mul(100)).div( targetEthBlocksPerDiffPeriod ) */\n      swap2\n      pop\n        /* \"contracts/0xBitcoinExtended.sol\":10053:10100  shortage_block_pct.sub(100).limitLessThan(1000) */\n      tag_259\n        /* \"contracts/0xBitcoinExtended.sol\":10095:10099  1000 */\n      0x3e8\n        /* \"contracts/0xBitcoinExtended.sol\":10053:10080  shortage_block_pct.sub(100) */\n      tag_260\n        /* \"contracts/0xBitcoinExtended.sol\":10076:10079  100 */\n      0x64\n        /* \"contracts/0xBitcoinExtended.sol\":10053:10071  shortage_block_pct */\n      dup6\n        /* \"contracts/0xBitcoinExtended.sol\":10053:10075  shortage_block_pct.sub */\n      tag_185\n      swap1\n        /* \"contracts/0xBitcoinExtended.sol\":10053:10080  shortage_block_pct.sub(100) */\n      swap2\n      swap1\n      0xffffffff\n      and\n      jump\t// in\n    tag_260:\n        /* \"contracts/0xBitcoinExtended.sol\":10053:10094  shortage_block_pct.sub(100).limitLessThan */\n      tag_252\n      swap1\n        /* \"contracts/0xBitcoinExtended.sol\":10053:10100  shortage_block_pct.sub(100).limitLessThan(1000) */\n      swap2\n      swap1\n      0xffffffff\n      and\n      jump\t// in\n    tag_259:\n        /* \"contracts/0xBitcoinExtended.sol\":10021:10100  uint shortage_block_pct_extra = shortage_block_pct.sub(100).limitLessThan(1000) */\n      swap1\n      pop\n        /* \"contracts/0xBitcoinExtended.sol\":10183:10253  miningTarget.add(miningTarget.div(2000).mul(shortage_block_pct_extra)) */\n      tag_261\n        /* \"contracts/0xBitcoinExtended.sol\":10200:10252  miningTarget.div(2000).mul(shortage_block_pct_extra) */\n      tag_262\n        /* \"contracts/0xBitcoinExtended.sol\":10227:10251  shortage_block_pct_extra */\n      dup3\n        /* \"contracts/0xBitcoinExtended.sol\":10200:10222  miningTarget.div(2000) */\n      tag_263\n        /* \"contracts/0xBitcoinExtended.sol\":10217:10221  2000 */\n      0x7d0\n        /* \"contracts/0xBitcoinExtended.sol\":10200:10212  miningTarget */\n      sload(0xb)\n        /* \"contracts/0xBitcoinExtended.sol\":10200:10216  miningTarget.div */\n      tag_170\n      swap1\n        /* \"contracts/0xBitcoinExtended.sol\":10200:10222  miningTarget.div(2000) */\n      swap2\n      swap1\n      0xffffffff\n      and\n      jump\t// in\n    tag_263:\n        /* \"contracts/0xBitcoinExtended.sol\":10200:10226  miningTarget.div(2000).mul */\n      tag_249\n      swap1\n        /* \"contracts/0xBitcoinExtended.sol\":10200:10252  miningTarget.div(2000).mul(shortage_block_pct_extra) */\n      swap2\n      swap1\n      0xffffffff\n      and\n      jump\t// in\n    tag_262:\n        /* \"contracts/0xBitcoinExtended.sol\":10183:10195  miningTarget */\n      sload(0xb)\n        /* \"contracts/0xBitcoinExtended.sol\":10183:10199  miningTarget.add */\n      tag_177\n      swap1\n        /* \"contracts/0xBitcoinExtended.sol\":10183:10253  miningTarget.add(miningTarget.div(2000).mul(shortage_block_pct_extra)) */\n      swap2\n      swap1\n      0xffffffff\n      and\n      jump\t// in\n    tag_261:\n        /* \"contracts/0xBitcoinExtended.sol\":10168:10180  miningTarget */\n      0xb\n        /* \"contracts/0xBitcoinExtended.sol\":10168:10253  miningTarget = miningTarget.add(miningTarget.div(2000).mul(shortage_block_pct_extra)) */\n      dup2\n      swap1\n      sstore\n      pop\n        /* \"contracts/0xBitcoinExtended.sol\":9300:10282  if( ethBlocksSinceLastDifficultyPeriod < targetEthBlocksPerDiffPeriod )... */\n    tag_256:\n        /* \"contracts/0xBitcoinExtended.sol\":10326:10338  block.number */\n      number\n        /* \"contracts/0xBitcoinExtended.sol\":10294:10323  latestDifficultyPeriodStarted */\n      0x6\n        /* \"contracts/0xBitcoinExtended.sol\":10294:10338  latestDifficultyPeriodStarted = block.number */\n      dup2\n      swap1\n      sstore\n      pop\n        /* \"contracts/0xBitcoinExtended.sol\":10367:10382  _MINIMUM_TARGET */\n      sload(0x9)\n        /* \"contracts/0xBitcoinExtended.sol\":10352:10364  miningTarget */\n      sload(0xb)\n        /* \"contracts/0xBitcoinExtended.sol\":10352:10382  miningTarget < _MINIMUM_TARGET */\n      lt\n        /* \"contracts/0xBitcoinExtended.sol\":10349:10462  if(miningTarget < _MINIMUM_TARGET) //very difficult... */\n      iszero\n      tag_264\n      jumpi\n        /* \"contracts/0xBitcoinExtended.sol\":10436:10451  _MINIMUM_TARGET */\n      sload(0x9)\n        /* \"contracts/0xBitcoinExtended.sol\":10421:10433  miningTarget */\n      0xb\n        /* \"contracts/0xBitcoinExtended.sol\":10421:10451  miningTarget = _MINIMUM_TARGET */\n      dup2\n      swap1\n      sstore\n      pop\n        /* \"contracts/0xBitcoinExtended.sol\":10349:10462  if(miningTarget < _MINIMUM_TARGET) //very difficult... */\n    tag_264:\n        /* \"contracts/0xBitcoinExtended.sol\":10490:10505  _MAXIMUM_TARGET */\n      sload(0xa)\n        /* \"contracts/0xBitcoinExtended.sol\":10475:10487  miningTarget */\n      sload(0xb)\n        /* \"contracts/0xBitcoinExtended.sol\":10475:10505  miningTarget > _MAXIMUM_TARGET */\n      gt\n        /* \"contracts/0xBitcoinExtended.sol\":10472:10580  if(miningTarget > _MAXIMUM_TARGET) //very easy... */\n      iszero\n      tag_265\n      jumpi\n        /* \"contracts/0xBitcoinExtended.sol\":10554:10569  _MAXIMUM_TARGET */\n      sload(0xa)\n        /* \"contracts/0xBitcoinExtended.sol\":10539:10551  miningTarget */\n      0xb\n        /* \"contracts/0xBitcoinExtended.sol\":10539:10569  miningTarget = _MAXIMUM_TARGET */\n      dup2\n      swap1\n      sstore\n      pop\n        /* \"contracts/0xBitcoinExtended.sol\":10472:10580  if(miningTarget > _MAXIMUM_TARGET) //very easy... */\n    tag_265:\n        /* \"contracts/0xBitcoinExtended.sol\":8757:10586  function _reAdjustDifficulty() internal {... */\n      pop\n      pop\n      pop\n      pop\n      pop\n      pop\n      pop\n      jump\t// out\n        /* \"contracts/0xBitcoinExtended.sol\":894:1022  function mul(uint a, uint b) internal pure returns (uint c) {... */\n    tag_249:\n        /* \"contracts/0xBitcoinExtended.sol\":946:952  uint c */\n      0x0\n        /* \"contracts/0xBitcoinExtended.sol\":973:974  b */\n      dup2\n        /* \"contracts/0xBitcoinExtended.sol\":969:970  a */\n      dup4\n        /* \"contracts/0xBitcoinExtended.sol\":969:974  a * b */\n      mul\n        /* \"contracts/0xBitcoinExtended.sol\":965:974  c = a * b */\n      swap1\n      pop\n        /* \"contracts/0xBitcoinExtended.sol\":998:999  0 */\n      0x0\n        /* \"contracts/0xBitcoinExtended.sol\":993:994  a */\n      dup4\n        /* \"contracts/0xBitcoinExtended.sol\":993:999  a == 0 */\n      eq\n        /* \"contracts/0xBitcoinExtended.sol\":993:1013  a == 0 || c / a == b */\n      dup1\n      tag_267\n      jumpi\n      pop\n        /* \"contracts/0xBitcoinExtended.sol\":1012:1013  b */\n      dup2\n        /* \"contracts/0xBitcoinExtended.sol\":1007:1008  a */\n      dup4\n        /* \"contracts/0xBitcoinExtended.sol\":1003:1004  c */\n      dup3\n        /* \"contracts/0xBitcoinExtended.sol\":1003:1008  c / a */\n      dup2\n      iszero\n      iszero\n      tag_268\n      jumpi\n      invalid\n    tag_268:\n      div\n        /* \"contracts/0xBitcoinExtended.sol\":1003:1013  c / a == b */\n      eq\n        /* \"contracts/0xBitcoinExtended.sol\":993:1013  a == 0 || c / a == b */\n    tag_267:\n        /* \"contracts/0xBitcoinExtended.sol\":985:1014  require(a == 0 || c / a == b) */\n      iszero\n      iszero\n      tag_269\n      jumpi\n      0x0\n      dup1\n      revert\n    tag_269:\n        /* \"contracts/0xBitcoinExtended.sol\":894:1022  function mul(uint a, uint b) internal pure returns (uint c) {... */\n      swap3\n      swap2\n      pop\n      pop\n      jump\t// out\n        /* \"contracts/0xBitcoinExtended.sol\":1229:1355  function limitLessThan(uint a, uint b) internal pure returns (uint c) {... */\n    tag_252:\n        /* \"contracts/0xBitcoinExtended.sol\":1291:1297  uint c */\n      0x0\n        /* \"contracts/0xBitcoinExtended.sol\":1317:1318  b */\n      dup2\n        /* \"contracts/0xBitcoinExtended.sol\":1313:1314  a */\n      dup4\n        /* \"contracts/0xBitcoinExtended.sol\":1313:1318  a > b */\n      gt\n        /* \"contracts/0xBitcoinExtended.sol\":1310:1328  if(a > b) return b */\n      iszero\n      tag_271\n      jumpi\n        /* \"contracts/0xBitcoinExtended.sol\":1327:1328  b */\n      dup2\n        /* \"contracts/0xBitcoinExtended.sol\":1320:1328  return b */\n      swap1\n      pop\n      jump(tag_270)\n        /* \"contracts/0xBitcoinExtended.sol\":1310:1328  if(a > b) return b */\n    tag_271:\n        /* \"contracts/0xBitcoinExtended.sol\":1346:1347  a */\n      dup3\n        /* \"contracts/0xBitcoinExtended.sol\":1339:1347  return a */\n      swap1\n      pop\n        /* \"contracts/0xBitcoinExtended.sol\":1229:1355  function limitLessThan(uint a, uint b) internal pure returns (uint c) {... */\n    tag_270:\n      swap3\n      swap2\n      pop\n      pop\n      jump\t// out\n\n    auxdata: 0xa165627a7a72305820378a2814ff16d98526eee2390febba1110f7e47bbf0e39cb4231866e968ceb490029\n}\n",
        "bytecode": {
          "linkReferences": {},
          "object": "6060604052610400600855620100006009557d040000000000000000000000000000000000000000000000000000000000600a556000601260006101000a81548160ff02191690831515021790555034156200005a57600080fd5b336000806101000a81548173ffffffffffffffffffffffffffffffffffffffff021916908373ffffffffffffffffffffffffffffffffffffffff1602179055506000809054906101000a900473ffffffffffffffffffffffffffffffffffffffff1673ffffffffffffffffffffffffffffffffffffffff163373ffffffffffffffffffffffffffffffffffffffff16141515620000f657600080fd5b6040805190810160405280600581526020017f30784254430000000000000000000000000000000000000000000000000000008152506002908051906020019062000143929190620006f9565b506040805190810160405280600f81526020017f3078426974636f696e20546f6b656e00000000000000000000000000000000008152506003908051906020019062000191929190620006f9565b506008600460006101000a81548160ff021916908360ff160217905550600460009054906101000a900460ff1660ff16600a0a6301406f4002600581905550601260009054906101000a900460ff1615620001eb57600080fd5b6001601260006101000a81548160ff02191690831515021790555060006014819055506000600d819055506200023c6002600554620002766401000000000262001f05179091906401000000009004565b600e81905550600a54600b8190555043600681905550620002706200029c6401000000000262001f45176401000000009004565b620007a8565b600080821115156200028757600080fd5b81838115156200029357fe5b04905092915050565b600e54620002e1620002c1620003b164010000000002620012f6176401000000009004565b601454620003f86401000000000262001f29179091906401000000009004565b118015620002f157506027600d54105b1562000304576001600d5401600d819055505b620003316001600d540160020a600554620002766401000000000262001f05179091906401000000009004565b60055403600e81905550620003616001600754620003f86401000000000262001f29179091906401000000009004565b60078190555060006008546007548115156200037957fe5b061415620003a0576200039f620004156401000000000262002016176401000000009004565b5b6001430340600c8160001916905550565b6000620003f3600d5460020a600460009054906101000a900460ff1660ff16600a0a603202620002766401000000000262001f05179091906401000000009004565b905090565b600081830190508281101515156200040f57600080fd5b92915050565b6000806000806000806000600654430396506008549550603c860294508487101562000546576200048187620004646064886200068a64010000000002620021a7179091906401000000009004565b620002766401000000000262001f05179091906401000000009004565b9350620004cb6103e8620004ae606487620006be6401000000000262001ffa179091906401000000009004565b620006db64010000000002620021d8179091906401000000009004565b92506200053a6200051a84620004fd6107d0600b54620002766401000000000262001f05179091906401000000009004565b6200068a64010000000002620021a7179091906401000000009004565b600b54620006be6401000000000262001ffa179091906401000000009004565b600b819055506200064c565b6200058c856200056f60648a6200068a64010000000002620021a7179091906401000000009004565b620002766401000000000262001f05179091906401000000009004565b9150620005d66103e8620005b9606485620006be6401000000000262001ffa179091906401000000009004565b620006db64010000000002620021d8179091906401000000009004565b9050620006456200062582620006086107d0600b54620002766401000000000262001f05179091906401000000009004565b6200068a64010000000002620021a7179091906401000000009004565b600b54620003f86401000000000262001f29179091906401000000009004565b600b819055505b43600681905550600954600b5410156200066a57600954600b819055505b600a54600b5411156200068157600a54600b819055505b50505050505050565b600081830290506000831480620006ac5750818382811515620006a957fe5b04145b1515620006b857600080fd5b92915050565b6000828211151515620006d057600080fd5b818303905092915050565b600081831115620006ef57819050620006f3565b8290505b92915050565b828054600181600116156101000203166002900490600052602060002090601f016020900481019282601f106200073c57805160ff19168380011785556200076d565b828001600101855582156200076d579182015b828111156200076c5782518255916020019190600101906200074f565b5b5090506200077c919062000780565b5090565b620007a591905b80821115620007a157600081600090555060010162000787565b5090565b90565b61222080620007b86000396000f3006060604052600436106101d8576000357c0100000000000000000000000000000000000000000000000000000000900463ffffffff16806306fdde03146101dd578063095ea7b31461026b578063163aa00d146102c557806317da485f146102ee5780631801fbe51461031757806318160ddd1461035f57806323b872dd146103885780632d38bf7a14610401578063313ce5671461042a57806332e99708146104595780633eaaf86b14610482578063490203a7146104ab5780634ef37628146104d45780634fa972e1146105055780635515a1ea1461052e5780635ce7e0301461055b5780636de9f32b1461057e5780636fd396d6146105a757806370a08231146105fc57806379ba50971461064957806381269a561461065e578063829965cc146106bc57806387a2a9d6146106e55780638a769d351461070e5780638ae0368b146107375780638da5cb5b1461076857806395d89b41146107bd57806397566aa01461084b578063a9059cbb146108a4578063b5ade81b146108fe578063bafedcaa14610927578063cae9ca5114610950578063cb9ae707146109ed578063d4ee1d9014610a16578063dc39d06d14610a6b578063dc6e9cf914610ac5578063dd62ed3e14610aee578063f2fde38b14610b5a575b600080fd5b34156101e857600080fd5b6101f0610b93565b6040518080602001828103825283818151815260200191508051906020019080838360005b83811015610230578082015181840152602081019050610215565b50505050905090810190601f16801561025d5780820380516001836020036101000a031916815260200191505b509250505060405180910390f35b341561027657600080fd5b6102ab600480803573ffffffffffffffffffffffffffffffffffffffff16906020019091908035906020019091905050610c31565b604051808215151515815260200191505060405180910390f35b34156102d057600080fd5b6102d8610d23565b6040518082815260200191505060405180910390f35b34156102f957600080fd5b610301610d29565b6040518082815260200191505060405180910390f35b341561032257600080fd5b610345600480803590602001909190803560001916906020019091905050610d47565b604051808215151515815260200191505060405180910390f35b341561036a57600080fd5b610372610fd7565b6040518082815260200191505060405180910390f35b341561039357600080fd5b6103e7600480803573ffffffffffffffffffffffffffffffffffffffff1690602001909190803573ffffffffffffffffffffffffffffffffffffffff16906020019091908035906020019091905050611022565b604051808215151515815260200191505060405180910390f35b341561040c57600080fd5b6104146112cd565b6040518082815260200191505060405180910390f35b341561043557600080fd5b61043d6112d3565b604051808260ff1660ff16815260200191505060405180910390f35b341561046457600080fd5b61046c6112e6565b6040518082815260200191505060405180910390f35b341561048d57600080fd5b6104956112f0565b6040518082815260200191505060405180910390f35b34156104b657600080fd5b6104be6112f6565b6040518082815260200191505060405180910390f35b34156104df57600080fd5b6104e761132d565b60405180826000191660001916815260200191505060405180910390f35b341561051057600080fd5b610518611337565b6040518082815260200191505060405180910390f35b341561053957600080fd5b61054161133d565b604051808215151515815260200191505060405180910390f35b341561056657600080fd5b61057c6004808035906020019091905050611469565b005b341561058957600080fd5b610591611473565b6040518082815260200191505060405180910390f35b34156105b257600080fd5b6105ba611479565b604051808273ffffffffffffffffffffffffffffffffffffffff1673ffffffffffffffffffffffffffffffffffffffff16815260200191505060405180910390f35b341561060757600080fd5b610633600480803573ffffffffffffffffffffffffffffffffffffffff1690602001909190505061149f565b6040518082815260200191505060405180910390f35b341561065457600080fd5b61065c6114e8565b005b341561066957600080fd5b6106a260048080359060200190919080356000191690602001909190803560001916906020019091908035906020019091905050611687565b604051808215151515815260200191505060405180910390f35b34156106c757600080fd5b6106cf61171c565b6040518082815260200191505060405180910390f35b34156106f057600080fd5b6106f8611722565b6040518082815260200191505060405180910390f35b341561071957600080fd5b610721611728565b6040518082815260200191505060405180910390f35b341561074257600080fd5b61074a61172e565b60405180826000191660001916815260200191505060405180910390f35b341561077357600080fd5b61077b611734565b604051808273ffffffffffffffffffffffffffffffffffffffff1673ffffffffffffffffffffffffffffffffffffffff16815260200191505060405180910390f35b34156107c857600080fd5b6107d0611759565b6040518080602001828103825283818151815260200191508051906020019080838360005b838110156108105780820151818401526020810190506107f5565b50505050905090810190601f16801561083d5780820380516001836020036101000a031916815260200191505b509250505060405180910390f35b341561085657600080fd5b610886600480803590602001909190803560001916906020019091908035600019169060200190919050506117f7565b60405180826000191660001916815260200191505060405180910390f35b34156108af57600080fd5b6108e4600480803573ffffffffffffffffffffffffffffffffffffffff16906020019091908035906020019091905050611870565b604051808215151515815260200191505060405180910390f35b341561090957600080fd5b610911611a0b565b6040518082815260200191505060405180910390f35b341561093257600080fd5b61093a611a11565b6040518082815260200191505060405180910390f35b341561095b57600080fd5b6109d3600480803573ffffffffffffffffffffffffffffffffffffffff1690602001909190803590602001909190803590602001908201803590602001908080601f01602080910402602001604051908101604052809392919081815260200183838082843782019150505050505091905050611a17565b604051808215151515815260200191505060405180910390f35b34156109f857600080fd5b610a00611c61565b6040518082815260200191505060405180910390f35b3415610a2157600080fd5b610a29611c67565b604051808273ffffffffffffffffffffffffffffffffffffffff1673ffffffffffffffffffffffffffffffffffffffff16815260200191505060405180910390f35b3415610a7657600080fd5b610aab600480803573ffffffffffffffffffffffffffffffffffffffff16906020019091908035906020019091905050611c8d565b604051808215151515815260200191505060405180910390f35b3415610ad057600080fd5b610ad8611dd9565b6040518082815260200191505060405180910390f35b3415610af957600080fd5b610b44600480803573ffffffffffffffffffffffffffffffffffffffff1690602001909190803573ffffffffffffffffffffffffffffffffffffffff16906020019091905050611ddf565b6040518082815260200191505060405180910390f35b3415610b6557600080fd5b610b91600480803573ffffffffffffffffffffffffffffffffffffffff16906020019091905050611e66565b005b60038054600181600116156101000203166002900480601f016020809104026020016040519081016040528092919081815260200182805460018160011615610100020316600290048015610c295780601f10610bfe57610100808354040283529160200191610c29565b820191906000526020600020905b815481529060010190602001808311610c0c57829003601f168201915b505050505081565b600081601660003373ffffffffffffffffffffffffffffffffffffffff1673ffffffffffffffffffffffffffffffffffffffff16815260200190815260200160002060008573ffffffffffffffffffffffffffffffffffffffff1673ffffffffffffffffffffffffffffffffffffffff168152602001908152602001600020819055508273ffffffffffffffffffffffffffffffffffffffff163373ffffffffffffffffffffffffffffffffffffffff167f8c5be1e5ebec7d5bd14f71427d1e84f3dd0314c0f7b2291e5b200ac8c7c3b925846040518082815260200191505060405180910390a36001905092915050565b60115481565b6000610d42600b54600a54611f0590919063ffffffff16565b905090565b600080600080600c5433876040518084600019166000191681526020018373ffffffffffffffffffffffffffffffffffffffff1673ffffffffffffffffffffffffffffffffffffffff166c0100000000000000000000000002815260140182815260200193505050506040518091039020925084600019168360001916141515610dd057600080fd5b600b5483600190041115610de357600080fd5b60136000600c54600019166000191681526020019081526020016000205491508260136000600c5460001916600019168152602001908152602001600020816000191690555060006001028260001916141515610e3f57600080fd5b610e476112f6565b9050610e9b81601560003373ffffffffffffffffffffffffffffffffffffffff1673ffffffffffffffffffffffffffffffffffffffff16815260200190815260200160002054611f2990919063ffffffff16565b601560003373ffffffffffffffffffffffffffffffffffffffff1673ffffffffffffffffffffffffffffffffffffffff16815260200190815260200160002081905550610ef381601454611f2990919063ffffffff16565b601481905550600e5460145411151515610f0957fe5b33600f60006101000a81548173ffffffffffffffffffffffffffffffffffffffff021916908373ffffffffffffffffffffffffffffffffffffffff1602179055508060108190555043601181905550610f60611f45565b3373ffffffffffffffffffffffffffffffffffffffff167fcf6fbb9dcea7d07263ab4f5c3a92f53af33dffc421d9d121e1c74b307e68189d82600754600c54604051808481526020018381526020018260001916600019168152602001935050505060405180910390a26001935050505092915050565b6000601560008073ffffffffffffffffffffffffffffffffffffffff1673ffffffffffffffffffffffffffffffffffffffff1681526020019081526020016000205460055403905090565b600061107682601560008773ffffffffffffffffffffffffffffffffffffffff1673ffffffffffffffffffffffffffffffffffffffff16815260200190815260200160002054611ffa90919063ffffffff16565b601560008673ffffffffffffffffffffffffffffffffffffffff1673ffffffffffffffffffffffffffffffffffffffff1681526020019081526020016000208190555061114882601660008773ffffffffffffffffffffffffffffffffffffffff1673ffffffffffffffffffffffffffffffffffffffff16815260200190815260200160002060003373ffffffffffffffffffffffffffffffffffffffff1673ffffffffffffffffffffffffffffffffffffffff16815260200190815260200160002054611ffa90919063ffffffff16565b601660008673ffffffffffffffffffffffffffffffffffffffff1673ffffffffffffffffffffffffffffffffffffffff16815260200190815260200160002060003373ffffffffffffffffffffffffffffffffffffffff1673ffffffffffffffffffffffffffffffffffffffff1681526020019081526020016000208190555061121a82601560008673ffffffffffffffffffffffffffffffffffffffff1673ffffffffffffffffffffffffffffffffffffffff16815260200190815260200160002054611f2990919063ffffffff16565b601560008573ffffffffffffffffffffffffffffffffffffffff1673ffffffffffffffffffffffffffffffffffffffff168152602001908152602001600020819055508273ffffffffffffffffffffffffffffffffffffffff168473ffffffffffffffffffffffffffffffffffffffff167fddf252ad1be2c89b69c2b068fc378daa952ba7f163c4a11628f55a4df523b3ef846040518082815260200191505060405180910390a3600190509392505050565b600d5481565b600460009054906101000a900460ff1681565b6000600b54905090565b60055481565b6000611328600d5460020a600460009054906101000a900460ff1660ff16600a0a603202611f0590919063ffffffff16565b905090565b6000600c54905090565b600e5481565b6000806113486112f6565b905061139c81601560003373ffffffffffffffffffffffffffffffffffffffff1673ffffffffffffffffffffffffffffffffffffffff16815260200190815260200160002054611f2990919063ffffffff16565b601560003373ffffffffffffffffffffffffffffffffffffffff1673ffffffffffffffffffffffffffffffffffffffff168152602001908152602001600020819055506113f481601454611f2990919063ffffffff16565b601481905550600e546014541115151561140a57fe5b33600f60006101000a81548173ffffffffffffffffffffffffffffffffffffffff021916908373ffffffffffffffffffffffffffffffffffffffff1602179055508060108190555043601181905550611461611f45565b600191505090565b8060148190555050565b60145481565b600f60009054906101000a900473ffffffffffffffffffffffffffffffffffffffff1681565b6000601560008373ffffffffffffffffffffffffffffffffffffffff1673ffffffffffffffffffffffffffffffffffffffff168152602001908152602001600020549050919050565b600160009054906101000a900473ffffffffffffffffffffffffffffffffffffffff1673ffffffffffffffffffffffffffffffffffffffff163373ffffffffffffffffffffffffffffffffffffffff1614151561154457600080fd5b600160009054906101000a900473ffffffffffffffffffffffffffffffffffffffff1673ffffffffffffffffffffffffffffffffffffffff166000809054906101000a900473ffffffffffffffffffffffffffffffffffffffff1673ffffffffffffffffffffffffffffffffffffffff167f8be0079c531659141344cd1fd0a4f28419497f9722a3daafe3b4186f6b6457e060405160405180910390a3600160009054906101000a900473ffffffffffffffffffffffffffffffffffffffff166000806101000a81548173ffffffffffffffffffffffffffffffffffffffff021916908373ffffffffffffffffffffffffffffffffffffffff1602179055506000600160006101000a81548173ffffffffffffffffffffffffffffffffffffffff021916908373ffffffffffffffffffffffffffffffffffffffff160217905550565b6000808333876040518084600019166000191681526020018373ffffffffffffffffffffffffffffffffffffffff1673ffffffffffffffffffffffffffffffffffffffff166c01000000000000000000000000028152601401828152602001935050505060405180910390209050828160019004111561170657600080fd5b8460001916816000191614915050949350505050565b60075481565b600a5481565b600b5481565b600c5481565b6000809054906101000a900473ffffffffffffffffffffffffffffffffffffffff1681565b60028054600181600116156101000203166002900480601f0160208091040260200160405190810160405280929190818152602001828054600181600116156101000203166002900480156117ef5780601f106117c4576101008083540402835291602001916117ef565b820191906000526020600020905b8154815290600101906020018083116117d257829003601f168201915b505050505081565b6000808233866040518084600019166000191681526020018373ffffffffffffffffffffffffffffffffffffffff1673ffffffffffffffffffffffffffffffffffffffff166c01000000000000000000000000028152601401828152602001935050505060405180910390209050809150509392505050565b60006118c482601560003373ffffffffffffffffffffffffffffffffffffffff1673ffffffffffffffffffffffffffffffffffffffff16815260200190815260200160002054611ffa90919063ffffffff16565b601560003373ffffffffffffffffffffffffffffffffffffffff1673ffffffffffffffffffffffffffffffffffffffff1681526020019081526020016000208190555061195982601560008673ffffffffffffffffffffffffffffffffffffffff1673ffffffffffffffffffffffffffffffffffffffff16815260200190815260200160002054611f2990919063ffffffff16565b601560008573ffffffffffffffffffffffffffffffffffffffff1673ffffffffffffffffffffffffffffffffffffffff168152602001908152602001600020819055508273ffffffffffffffffffffffffffffffffffffffff163373ffffffffffffffffffffffffffffffffffffffff167fddf252ad1be2c89b69c2b068fc378daa952ba7f163c4a11628f55a4df523b3ef846040518082815260200191505060405180910390a36001905092915050565b60085481565b60105481565b600082601660003373ffffffffffffffffffffffffffffffffffffffff1673ffffffffffffffffffffffffffffffffffffffff16815260200190815260200160002060008673ffffffffffffffffffffffffffffffffffffffff1673ffffffffffffffffffffffffffffffffffffffff168152602001908152602001600020819055508373ffffffffffffffffffffffffffffffffffffffff163373ffffffffffffffffffffffffffffffffffffffff167f8c5be1e5ebec7d5bd14f71427d1e84f3dd0314c0f7b2291e5b200ac8c7c3b925856040518082815260200191505060405180910390a38373ffffffffffffffffffffffffffffffffffffffff16638f4ffcb1338530866040518563ffffffff167c0100000000000000000000000000000000000000000000000000000000028152600401808573ffffffffffffffffffffffffffffffffffffffff1673ffffffffffffffffffffffffffffffffffffffff1681526020018481526020018373ffffffffffffffffffffffffffffffffffffffff1673ffffffffffffffffffffffffffffffffffffffff16815260200180602001828103825283818151815260200191508051906020019080838360005b83811015611bf4578082015181840152602081019050611bd9565b50505050905090810190601f168015611c215780820380516001836020036101000a031916815260200191505b5095505050505050600060405180830381600087803b1515611c4257600080fd5b6102c65a03f11515611c5357600080fd5b505050600190509392505050565b60065481565b600160009054906101000a900473ffffffffffffffffffffffffffffffffffffffff1681565b60008060009054906101000a900473ffffffffffffffffffffffffffffffffffffffff1673ffffffffffffffffffffffffffffffffffffffff163373ffffffffffffffffffffffffffffffffffffffff16141515611cea57600080fd5b8273ffffffffffffffffffffffffffffffffffffffff1663a9059cbb6000809054906101000a900473ffffffffffffffffffffffffffffffffffffffff16846000604051602001526040518363ffffffff167c0100000000000000000000000000000000000000000000000000000000028152600401808373ffffffffffffffffffffffffffffffffffffffff1673ffffffffffffffffffffffffffffffffffffffff16815260200182815260200192505050602060405180830381600087803b1515611db657600080fd5b6102c65a03f11515611dc757600080fd5b50505060405180519050905092915050565b60095481565b6000601660008473ffffffffffffffffffffffffffffffffffffffff1673ffffffffffffffffffffffffffffffffffffffff16815260200190815260200160002060008373ffffffffffffffffffffffffffffffffffffffff1673ffffffffffffffffffffffffffffffffffffffff16815260200190815260200160002054905092915050565b6000809054906101000a900473ffffffffffffffffffffffffffffffffffffffff1673ffffffffffffffffffffffffffffffffffffffff163373ffffffffffffffffffffffffffffffffffffffff16141515611ec157600080fd5b80600160006101000a81548173ffffffffffffffffffffffffffffffffffffffff021916908373ffffffffffffffffffffffffffffffffffffffff16021790555050565b60008082111515611f1557600080fd5b8183811515611f2057fe5b04905092915050565b60008183019050828110151515611f3f57600080fd5b92915050565b600e54611f64611f536112f6565b601454611f2990919063ffffffff16565b118015611f7357506027600d54105b15611f85576001600d5401600d819055505b611fa26001600d540160020a600554611f0590919063ffffffff16565b60055403600e81905550611fc26001600754611f2990919063ffffffff16565b6007819055506000600854600754811515611fd957fe5b061415611fe957611fe8612016565b5b6001430340600c8160001916905550565b600082821115151561200b57600080fd5b818303905092915050565b6000806000806000806000600654430396506008549550603c86029450848710156120d557612061876120536064886121a790919063ffffffff16565b611f0590919063ffffffff16565b935061208b6103e861207d606487611ffa90919063ffffffff16565b6121d890919063ffffffff16565b92506120ca6120b9846120ab6107d0600b54611f0590919063ffffffff16565b6121a790919063ffffffff16565b600b54611ffa90919063ffffffff16565b600b8190555061216b565b6120fb856120ed60648a6121a790919063ffffffff16565b611f0590919063ffffffff16565b91506121256103e8612117606485611ffa90919063ffffffff16565b6121d890919063ffffffff16565b9050612164612153826121456107d0600b54611f0590919063ffffffff16565b6121a790919063ffffffff16565b600b54611f2990919063ffffffff16565b600b819055505b43600681905550600954600b54101561218857600954600b819055505b600a54600b54111561219e57600a54600b819055505b50505050505050565b6000818302905060008314806121c757508183828115156121c457fe5b04145b15156121d257600080fd5b92915050565b6000818311156121ea578190506121ee565b8290505b929150505600a165627a7a72305820378a2814ff16d98526eee2390febba1110f7e47bbf0e39cb4231866e968ceb490029",
          "opcodes": "PUSH1 0x60 PUSH1 0x40 MSTORE PUSH2 0x400 PUSH1 0x8 SSTORE PUSH3 0x10000 PUSH1 0x9 SSTORE PUSH30 0x40000000000000000000000000000000000000000000000000000000000 PUSH1 0xA SSTORE PUSH1 0x0 PUSH1 0x12 PUSH1 0x0 PUSH2 0x100 EXP DUP2 SLOAD DUP2 PUSH1 0xFF MUL NOT AND SWAP1 DUP4 ISZERO ISZERO MUL OR SWAP1 SSTORE POP CALLVALUE ISZERO PUSH3 0x5A JUMPI PUSH1 0x0 DUP1 REVERT JUMPDEST CALLER PUSH1 0x0 DUP1 PUSH2 0x100 EXP DUP2 SLOAD DUP2 PUSH20 0xFFFFFFFFFFFFFFFFFFFFFFFFFFFFFFFFFFFFFFFF MUL NOT AND SWAP1 DUP4 PUSH20 0xFFFFFFFFFFFFFFFFFFFFFFFFFFFFFFFFFFFFFFFF AND MUL OR SWAP1 SSTORE POP PUSH1 0x0 DUP1 SWAP1 SLOAD SWAP1 PUSH2 0x100 EXP SWAP1 DIV PUSH20 0xFFFFFFFFFFFFFFFFFFFFFFFFFFFFFFFFFFFFFFFF AND PUSH20 0xFFFFFFFFFFFFFFFFFFFFFFFFFFFFFFFFFFFFFFFF AND CALLER PUSH20 0xFFFFFFFFFFFFFFFFFFFFFFFFFFFFFFFFFFFFFFFF AND EQ ISZERO ISZERO PUSH3 0xF6 JUMPI PUSH1 0x0 DUP1 REVERT JUMPDEST PUSH1 0x40 DUP1 MLOAD SWAP1 DUP2 ADD PUSH1 0x40 MSTORE DUP1 PUSH1 0x5 DUP2 MSTORE PUSH1 0x20 ADD PUSH32 0x3078425443000000000000000000000000000000000000000000000000000000 DUP2 MSTORE POP PUSH1 0x2 SWAP1 DUP1 MLOAD SWAP1 PUSH1 0x20 ADD SWAP1 PUSH3 0x143 SWAP3 SWAP2 SWAP1 PUSH3 0x6F9 JUMP JUMPDEST POP PUSH1 0x40 DUP1 MLOAD SWAP1 DUP2 ADD PUSH1 0x40 MSTORE DUP1 PUSH1 0xF DUP2 MSTORE PUSH1 0x20 ADD PUSH32 0x3078426974636F696E20546F6B656E0000000000000000000000000000000000 DUP2 MSTORE POP PUSH1 0x3 SWAP1 DUP1 MLOAD SWAP1 PUSH1 0x20 ADD SWAP1 PUSH3 0x191 SWAP3 SWAP2 SWAP1 PUSH3 0x6F9 JUMP JUMPDEST POP PUSH1 0x8 PUSH1 0x4 PUSH1 0x0 PUSH2 0x100 EXP DUP2 SLOAD DUP2 PUSH1 0xFF MUL NOT AND SWAP1 DUP4 PUSH1 0xFF AND MUL OR SWAP1 SSTORE POP PUSH1 0x4 PUSH1 0x0 SWAP1 SLOAD SWAP1 PUSH2 0x100 EXP SWAP1 DIV PUSH1 0xFF AND PUSH1 0xFF AND PUSH1 0xA EXP PUSH4 0x1406F40 MUL PUSH1 0x5 DUP2 SWAP1 SSTORE POP PUSH1 0x12 PUSH1 0x0 SWAP1 SLOAD SWAP1 PUSH2 0x100 EXP SWAP1 DIV PUSH1 0xFF AND ISZERO PUSH3 0x1EB JUMPI PUSH1 0x0 DUP1 REVERT JUMPDEST PUSH1 0x1 PUSH1 0x12 PUSH1 0x0 PUSH2 0x100 EXP DUP2 SLOAD DUP2 PUSH1 0xFF MUL NOT AND SWAP1 DUP4 ISZERO ISZERO MUL OR SWAP1 SSTORE POP PUSH1 0x0 PUSH1 0x14 DUP2 SWAP1 SSTORE POP PUSH1 0x0 PUSH1 0xD DUP2 SWAP1 SSTORE POP PUSH3 0x23C PUSH1 0x2 PUSH1 0x5 SLOAD PUSH3 0x276 PUSH5 0x100000000 MUL PUSH3 0x1F05 OR SWAP1 SWAP2 SWAP1 PUSH5 0x100000000 SWAP1 DIV JUMP JUMPDEST PUSH1 0xE DUP2 SWAP1 SSTORE POP PUSH1 0xA SLOAD PUSH1 0xB DUP2 SWAP1 SSTORE POP NUMBER PUSH1 0x6 DUP2 SWAP1 SSTORE POP PUSH3 0x270 PUSH3 0x29C PUSH5 0x100000000 MUL PUSH3 0x1F45 OR PUSH5 0x100000000 SWAP1 DIV JUMP JUMPDEST PUSH3 0x7A8 JUMP JUMPDEST PUSH1 0x0 DUP1 DUP3 GT ISZERO ISZERO PUSH3 0x287 JUMPI PUSH1 0x0 DUP1 REVERT JUMPDEST DUP2 DUP4 DUP2 ISZERO ISZERO PUSH3 0x293 JUMPI INVALID JUMPDEST DIV SWAP1 POP SWAP3 SWAP2 POP POP JUMP JUMPDEST PUSH1 0xE SLOAD PUSH3 0x2E1 PUSH3 0x2C1 PUSH3 0x3B1 PUSH5 0x100000000 MUL PUSH3 0x12F6 OR PUSH5 0x100000000 SWAP1 DIV JUMP JUMPDEST PUSH1 0x14 SLOAD PUSH3 0x3F8 PUSH5 0x100000000 MUL PUSH3 0x1F29 OR SWAP1 SWAP2 SWAP1 PUSH5 0x100000000 SWAP1 DIV JUMP JUMPDEST GT DUP1 ISZERO PUSH3 0x2F1 JUMPI POP PUSH1 0x27 PUSH1 0xD SLOAD LT JUMPDEST ISZERO PUSH3 0x304 JUMPI PUSH1 0x1 PUSH1 0xD SLOAD ADD PUSH1 0xD DUP2 SWAP1 SSTORE POP JUMPDEST PUSH3 0x331 PUSH1 0x1 PUSH1 0xD SLOAD ADD PUSH1 0x2 EXP PUSH1 0x5 SLOAD PUSH3 0x276 PUSH5 0x100000000 MUL PUSH3 0x1F05 OR SWAP1 SWAP2 SWAP1 PUSH5 0x100000000 SWAP1 DIV JUMP JUMPDEST PUSH1 0x5 SLOAD SUB PUSH1 0xE DUP2 SWAP1 SSTORE POP PUSH3 0x361 PUSH1 0x1 PUSH1 0x7 SLOAD PUSH3 0x3F8 PUSH5 0x100000000 MUL PUSH3 0x1F29 OR SWAP1 SWAP2 SWAP1 PUSH5 0x100000000 SWAP1 DIV JUMP JUMPDEST PUSH1 0x7 DUP2 SWAP1 SSTORE POP PUSH1 0x0 PUSH1 0x8 SLOAD PUSH1 0x7 SLOAD DUP2 ISZERO ISZERO PUSH3 0x379 JUMPI INVALID JUMPDEST MOD EQ ISZERO PUSH3 0x3A0 JUMPI PUSH3 0x39F PUSH3 0x415 PUSH5 0x100000000 MUL PUSH3 0x2016 OR PUSH5 0x100000000 SWAP1 DIV JUMP JUMPDEST JUMPDEST PUSH1 0x1 NUMBER SUB BLOCKHASH PUSH1 0xC DUP2 PUSH1 0x0 NOT AND SWAP1 SSTORE POP JUMP JUMPDEST PUSH1 0x0 PUSH3 0x3F3 PUSH1 0xD SLOAD PUSH1 0x2 EXP PUSH1 0x4 PUSH1 0x0 SWAP1 SLOAD SWAP1 PUSH2 0x100 EXP SWAP1 DIV PUSH1 0xFF AND PUSH1 0xFF AND PUSH1 0xA EXP PUSH1 0x32 MUL PUSH3 0x276 PUSH5 0x100000000 MUL PUSH3 0x1F05 OR SWAP1 SWAP2 SWAP1 PUSH5 0x100000000 SWAP1 DIV JUMP JUMPDEST SWAP1 POP SWAP1 JUMP JUMPDEST PUSH1 0x0 DUP2 DUP4 ADD SWAP1 POP DUP3 DUP2 LT ISZERO ISZERO ISZERO PUSH3 0x40F JUMPI PUSH1 0x0 DUP1 REVERT JUMPDEST SWAP3 SWAP2 POP POP JUMP JUMPDEST PUSH1 0x0 DUP1 PUSH1 0x0 DUP1 PUSH1 0x0 DUP1 PUSH1 0x0 PUSH1 0x6 SLOAD NUMBER SUB SWAP7 POP PUSH1 0x8 SLOAD SWAP6 POP PUSH1 0x3C DUP7 MUL SWAP5 POP DUP5 DUP8 LT ISZERO PUSH3 0x546 JUMPI PUSH3 0x481 DUP8 PUSH3 0x464 PUSH1 0x64 DUP9 PUSH3 0x68A PUSH5 0x100000000 MUL PUSH3 0x21A7 OR SWAP1 SWAP2 SWAP1 PUSH5 0x100000000 SWAP1 DIV JUMP JUMPDEST PUSH3 0x276 PUSH5 0x100000000 MUL PUSH3 0x1F05 OR SWAP1 SWAP2 SWAP1 PUSH5 0x100000000 SWAP1 DIV JUMP JUMPDEST SWAP4 POP PUSH3 0x4CB PUSH2 0x3E8 PUSH3 0x4AE PUSH1 0x64 DUP8 PUSH3 0x6BE PUSH5 0x100000000 MUL PUSH3 0x1FFA OR SWAP1 SWAP2 SWAP1 PUSH5 0x100000000 SWAP1 DIV JUMP JUMPDEST PUSH3 0x6DB PUSH5 0x100000000 MUL PUSH3 0x21D8 OR SWAP1 SWAP2 SWAP1 PUSH5 0x100000000 SWAP1 DIV JUMP JUMPDEST SWAP3 POP PUSH3 0x53A PUSH3 0x51A DUP5 PUSH3 0x4FD PUSH2 0x7D0 PUSH1 0xB SLOAD PUSH3 0x276 PUSH5 0x100000000 MUL PUSH3 0x1F05 OR SWAP1 SWAP2 SWAP1 PUSH5 0x100000000 SWAP1 DIV JUMP JUMPDEST PUSH3 0x68A PUSH5 0x100000000 MUL PUSH3 0x21A7 OR SWAP1 SWAP2 SWAP1 PUSH5 0x100000000 SWAP1 DIV JUMP JUMPDEST PUSH1 0xB SLOAD PUSH3 0x6BE PUSH5 0x100000000 MUL PUSH3 0x1FFA OR SWAP1 SWAP2 SWAP1 PUSH5 0x100000000 SWAP1 DIV JUMP JUMPDEST PUSH1 0xB DUP2 SWAP1 SSTORE POP PUSH3 0x64C JUMP JUMPDEST PUSH3 0x58C DUP6 PUSH3 0x56F PUSH1 0x64 DUP11 PUSH3 0x68A PUSH5 0x100000000 MUL PUSH3 0x21A7 OR SWAP1 SWAP2 SWAP1 PUSH5 0x100000000 SWAP1 DIV JUMP JUMPDEST PUSH3 0x276 PUSH5 0x100000000 MUL PUSH3 0x1F05 OR SWAP1 SWAP2 SWAP1 PUSH5 0x100000000 SWAP1 DIV JUMP JUMPDEST SWAP2 POP PUSH3 0x5D6 PUSH2 0x3E8 PUSH3 0x5B9 PUSH1 0x64 DUP6 PUSH3 0x6BE PUSH5 0x100000000 MUL PUSH3 0x1FFA OR SWAP1 SWAP2 SWAP1 PUSH5 0x100000000 SWAP1 DIV JUMP JUMPDEST PUSH3 0x6DB PUSH5 0x100000000 MUL PUSH3 0x21D8 OR SWAP1 SWAP2 SWAP1 PUSH5 0x100000000 SWAP1 DIV JUMP JUMPDEST SWAP1 POP PUSH3 0x645 PUSH3 0x625 DUP3 PUSH3 0x608 PUSH2 0x7D0 PUSH1 0xB SLOAD PUSH3 0x276 PUSH5 0x100000000 MUL PUSH3 0x1F05 OR SWAP1 SWAP2 SWAP1 PUSH5 0x100000000 SWAP1 DIV JUMP JUMPDEST PUSH3 0x68A PUSH5 0x100000000 MUL PUSH3 0x21A7 OR SWAP1 SWAP2 SWAP1 PUSH5 0x100000000 SWAP1 DIV JUMP JUMPDEST PUSH1 0xB SLOAD PUSH3 0x3F8 PUSH5 0x100000000 MUL PUSH3 0x1F29 OR SWAP1 SWAP2 SWAP1 PUSH5 0x100000000 SWAP1 DIV JUMP JUMPDEST PUSH1 0xB DUP2 SWAP1 SSTORE POP JUMPDEST NUMBER PUSH1 0x6 DUP2 SWAP1 SSTORE POP PUSH1 0x9 SLOAD PUSH1 0xB SLOAD LT ISZERO PUSH3 0x66A JUMPI PUSH1 0x9 SLOAD PUSH1 0xB DUP2 SWAP1 SSTORE POP JUMPDEST PUSH1 0xA SLOAD PUSH1 0xB SLOAD GT ISZERO PUSH3 0x681 JUMPI PUSH1 0xA SLOAD PUSH1 0xB DUP2 SWAP1 SSTORE POP JUMPDEST POP POP POP POP POP POP POP JUMP JUMPDEST PUSH1 0x0 DUP2 DUP4 MUL SWAP1 POP PUSH1 0x0 DUP4 EQ DUP1 PUSH3 0x6AC JUMPI POP DUP2 DUP4 DUP3 DUP2 ISZERO ISZERO PUSH3 0x6A9 JUMPI INVALID JUMPDEST DIV EQ JUMPDEST ISZERO ISZERO PUSH3 0x6B8 JUMPI PUSH1 0x0 DUP1 REVERT JUMPDEST SWAP3 SWAP2 POP POP JUMP JUMPDEST PUSH1 0x0 DUP3 DUP3 GT ISZERO ISZERO ISZERO PUSH3 0x6D0 JUMPI PUSH1 0x0 DUP1 REVERT JUMPDEST DUP2 DUP4 SUB SWAP1 POP SWAP3 SWAP2 POP POP JUMP JUMPDEST PUSH1 0x0 DUP2 DUP4 GT ISZERO PUSH3 0x6EF JUMPI DUP2 SWAP1 POP PUSH3 0x6F3 JUMP JUMPDEST DUP3 SWAP1 POP JUMPDEST SWAP3 SWAP2 POP POP JUMP JUMPDEST DUP3 DUP1 SLOAD PUSH1 0x1 DUP2 PUSH1 0x1 AND ISZERO PUSH2 0x100 MUL SUB AND PUSH1 0x2 SWAP1 DIV SWAP1 PUSH1 0x0 MSTORE PUSH1 0x20 PUSH1 0x0 KECCAK256 SWAP1 PUSH1 0x1F ADD PUSH1 0x20 SWAP1 DIV DUP2 ADD SWAP3 DUP3 PUSH1 0x1F LT PUSH3 0x73C JUMPI DUP1 MLOAD PUSH1 0xFF NOT AND DUP4 DUP1 ADD OR DUP6 SSTORE PUSH3 0x76D JUMP JUMPDEST DUP3 DUP1 ADD PUSH1 0x1 ADD DUP6 SSTORE DUP3 ISZERO PUSH3 0x76D JUMPI SWAP2 DUP3 ADD JUMPDEST DUP3 DUP2 GT ISZERO PUSH3 0x76C JUMPI DUP3 MLOAD DUP3 SSTORE SWAP2 PUSH1 0x20 ADD SWAP2 SWAP1 PUSH1 0x1 ADD SWAP1 PUSH3 0x74F JUMP JUMPDEST JUMPDEST POP SWAP1 POP PUSH3 0x77C SWAP2 SWAP1 PUSH3 0x780 JUMP JUMPDEST POP SWAP1 JUMP JUMPDEST PUSH3 0x7A5 SWAP2 SWAP1 JUMPDEST DUP1 DUP3 GT ISZERO PUSH3 0x7A1 JUMPI PUSH1 0x0 DUP2 PUSH1 0x0 SWAP1 SSTORE POP PUSH1 0x1 ADD PUSH3 0x787 JUMP JUMPDEST POP SWAP1 JUMP JUMPDEST SWAP1 JUMP JUMPDEST PUSH2 0x2220 DUP1 PUSH3 0x7B8 PUSH1 0x0 CODECOPY PUSH1 0x0 RETURN STOP PUSH1 0x60 PUSH1 0x40 MSTORE PUSH1 0x4 CALLDATASIZE LT PUSH2 0x1D8 JUMPI PUSH1 0x0 CALLDATALOAD PUSH29 0x100000000000000000000000000000000000000000000000000000000 SWAP1 DIV PUSH4 0xFFFFFFFF AND DUP1 PUSH4 0x6FDDE03 EQ PUSH2 0x1DD JUMPI DUP1 PUSH4 0x95EA7B3 EQ PUSH2 0x26B JUMPI DUP1 PUSH4 0x163AA00D EQ PUSH2 0x2C5 JUMPI DUP1 PUSH4 0x17DA485F EQ PUSH2 0x2EE JUMPI DUP1 PUSH4 0x1801FBE5 EQ PUSH2 0x317 JUMPI DUP1 PUSH4 0x18160DDD EQ PUSH2 0x35F JUMPI DUP1 PUSH4 0x23B872DD EQ PUSH2 0x388 JUMPI DUP1 PUSH4 0x2D38BF7A EQ PUSH2 0x401 JUMPI DUP1 PUSH4 0x313CE567 EQ PUSH2 0x42A JUMPI DUP1 PUSH4 0x32E99708 EQ PUSH2 0x459 JUMPI DUP1 PUSH4 0x3EAAF86B EQ PUSH2 0x482 JUMPI DUP1 PUSH4 0x490203A7 EQ PUSH2 0x4AB JUMPI DUP1 PUSH4 0x4EF37628 EQ PUSH2 0x4D4 JUMPI DUP1 PUSH4 0x4FA972E1 EQ PUSH2 0x505 JUMPI DUP1 PUSH4 0x5515A1EA EQ PUSH2 0x52E JUMPI DUP1 PUSH4 0x5CE7E030 EQ PUSH2 0x55B JUMPI DUP1 PUSH4 0x6DE9F32B EQ PUSH2 0x57E JUMPI DUP1 PUSH4 0x6FD396D6 EQ PUSH2 0x5A7 JUMPI DUP1 PUSH4 0x70A08231 EQ PUSH2 0x5FC JUMPI DUP1 PUSH4 0x79BA5097 EQ PUSH2 0x649 JUMPI DUP1 PUSH4 0x81269A56 EQ PUSH2 0x65E JUMPI DUP1 PUSH4 0x829965CC EQ PUSH2 0x6BC JUMPI DUP1 PUSH4 0x87A2A9D6 EQ PUSH2 0x6E5 JUMPI DUP1 PUSH4 0x8A769D35 EQ PUSH2 0x70E JUMPI DUP1 PUSH4 0x8AE0368B EQ PUSH2 0x737 JUMPI DUP1 PUSH4 0x8DA5CB5B EQ PUSH2 0x768 JUMPI DUP1 PUSH4 0x95D89B41 EQ PUSH2 0x7BD JUMPI DUP1 PUSH4 0x97566AA0 EQ PUSH2 0x84B JUMPI DUP1 PUSH4 0xA9059CBB EQ PUSH2 0x8A4 JUMPI DUP1 PUSH4 0xB5ADE81B EQ PUSH2 0x8FE JUMPI DUP1 PUSH4 0xBAFEDCAA EQ PUSH2 0x927 JUMPI DUP1 PUSH4 0xCAE9CA51 EQ PUSH2 0x950 JUMPI DUP1 PUSH4 0xCB9AE707 EQ PUSH2 0x9ED JUMPI DUP1 PUSH4 0xD4EE1D90 EQ PUSH2 0xA16 JUMPI DUP1 PUSH4 0xDC39D06D EQ PUSH2 0xA6B JUMPI DUP1 PUSH4 0xDC6E9CF9 EQ PUSH2 0xAC5 JUMPI DUP1 PUSH4 0xDD62ED3E EQ PUSH2 0xAEE JUMPI DUP1 PUSH4 0xF2FDE38B EQ PUSH2 0xB5A JUMPI JUMPDEST PUSH1 0x0 DUP1 REVERT JUMPDEST CALLVALUE ISZERO PUSH2 0x1E8 JUMPI PUSH1 0x0 DUP1 REVERT JUMPDEST PUSH2 0x1F0 PUSH2 0xB93 JUMP JUMPDEST PUSH1 0x40 MLOAD DUP1 DUP1 PUSH1 0x20 ADD DUP3 DUP2 SUB DUP3 MSTORE DUP4 DUP2 DUP2 MLOAD DUP2 MSTORE PUSH1 0x20 ADD SWAP2 POP DUP1 MLOAD SWAP1 PUSH1 0x20 ADD SWAP1 DUP1 DUP4 DUP4 PUSH1 0x0 JUMPDEST DUP4 DUP2 LT ISZERO PUSH2 0x230 JUMPI DUP1 DUP3 ADD MLOAD DUP2 DUP5 ADD MSTORE PUSH1 0x20 DUP2 ADD SWAP1 POP PUSH2 0x215 JUMP JUMPDEST POP POP POP POP SWAP1 POP SWAP1 DUP2 ADD SWAP1 PUSH1 0x1F AND DUP1 ISZERO PUSH2 0x25D JUMPI DUP1 DUP3 SUB DUP1 MLOAD PUSH1 0x1 DUP4 PUSH1 0x20 SUB PUSH2 0x100 EXP SUB NOT AND DUP2 MSTORE PUSH1 0x20 ADD SWAP2 POP JUMPDEST POP SWAP3 POP POP POP PUSH1 0x40 MLOAD DUP1 SWAP2 SUB SWAP1 RETURN JUMPDEST CALLVALUE ISZERO PUSH2 0x276 JUMPI PUSH1 0x0 DUP1 REVERT JUMPDEST PUSH2 0x2AB PUSH1 0x4 DUP1 DUP1 CALLDATALOAD PUSH20 0xFFFFFFFFFFFFFFFFFFFFFFFFFFFFFFFFFFFFFFFF AND SWAP1 PUSH1 0x20 ADD SWAP1 SWAP2 SWAP1 DUP1 CALLDATALOAD SWAP1 PUSH1 0x20 ADD SWAP1 SWAP2 SWAP1 POP POP PUSH2 0xC31 JUMP JUMPDEST PUSH1 0x40 MLOAD DUP1 DUP3 ISZERO ISZERO ISZERO ISZERO DUP2 MSTORE PUSH1 0x20 ADD SWAP2 POP POP PUSH1 0x40 MLOAD DUP1 SWAP2 SUB SWAP1 RETURN JUMPDEST CALLVALUE ISZERO PUSH2 0x2D0 JUMPI PUSH1 0x0 DUP1 REVERT JUMPDEST PUSH2 0x2D8 PUSH2 0xD23 JUMP JUMPDEST PUSH1 0x40 MLOAD DUP1 DUP3 DUP2 MSTORE PUSH1 0x20 ADD SWAP2 POP POP PUSH1 0x40 MLOAD DUP1 SWAP2 SUB SWAP1 RETURN JUMPDEST CALLVALUE ISZERO PUSH2 0x2F9 JUMPI PUSH1 0x0 DUP1 REVERT JUMPDEST PUSH2 0x301 PUSH2 0xD29 JUMP JUMPDEST PUSH1 0x40 MLOAD DUP1 DUP3 DUP2 MSTORE PUSH1 0x20 ADD SWAP2 POP POP PUSH1 0x40 MLOAD DUP1 SWAP2 SUB SWAP1 RETURN JUMPDEST CALLVALUE ISZERO PUSH2 0x322 JUMPI PUSH1 0x0 DUP1 REVERT JUMPDEST PUSH2 0x345 PUSH1 0x4 DUP1 DUP1 CALLDATALOAD SWAP1 PUSH1 0x20 ADD SWAP1 SWAP2 SWAP1 DUP1 CALLDATALOAD PUSH1 0x0 NOT AND SWAP1 PUSH1 0x20 ADD SWAP1 SWAP2 SWAP1 POP POP PUSH2 0xD47 JUMP JUMPDEST PUSH1 0x40 MLOAD DUP1 DUP3 ISZERO ISZERO ISZERO ISZERO DUP2 MSTORE PUSH1 0x20 ADD SWAP2 POP POP PUSH1 0x40 MLOAD DUP1 SWAP2 SUB SWAP1 RETURN JUMPDEST CALLVALUE ISZERO PUSH2 0x36A JUMPI PUSH1 0x0 DUP1 REVERT JUMPDEST PUSH2 0x372 PUSH2 0xFD7 JUMP JUMPDEST PUSH1 0x40 MLOAD DUP1 DUP3 DUP2 MSTORE PUSH1 0x20 ADD SWAP2 POP POP PUSH1 0x40 MLOAD DUP1 SWAP2 SUB SWAP1 RETURN JUMPDEST CALLVALUE ISZERO PUSH2 0x393 JUMPI PUSH1 0x0 DUP1 REVERT JUMPDEST PUSH2 0x3E7 PUSH1 0x4 DUP1 DUP1 CALLDATALOAD PUSH20 0xFFFFFFFFFFFFFFFFFFFFFFFFFFFFFFFFFFFFFFFF AND SWAP1 PUSH1 0x20 ADD SWAP1 SWAP2 SWAP1 DUP1 CALLDATALOAD PUSH20 0xFFFFFFFFFFFFFFFFFFFFFFFFFFFFFFFFFFFFFFFF AND SWAP1 PUSH1 0x20 ADD SWAP1 SWAP2 SWAP1 DUP1 CALLDATALOAD SWAP1 PUSH1 0x20 ADD SWAP1 SWAP2 SWAP1 POP POP PUSH2 0x1022 JUMP JUMPDEST PUSH1 0x40 MLOAD DUP1 DUP3 ISZERO ISZERO ISZERO ISZERO DUP2 MSTORE PUSH1 0x20 ADD SWAP2 POP POP PUSH1 0x40 MLOAD DUP1 SWAP2 SUB SWAP1 RETURN JUMPDEST CALLVALUE ISZERO PUSH2 0x40C JUMPI PUSH1 0x0 DUP1 REVERT JUMPDEST PUSH2 0x414 PUSH2 0x12CD JUMP JUMPDEST PUSH1 0x40 MLOAD DUP1 DUP3 DUP2 MSTORE PUSH1 0x20 ADD SWAP2 POP POP PUSH1 0x40 MLOAD DUP1 SWAP2 SUB SWAP1 RETURN JUMPDEST CALLVALUE ISZERO PUSH2 0x435 JUMPI PUSH1 0x0 DUP1 REVERT JUMPDEST PUSH2 0x43D PUSH2 0x12D3 JUMP JUMPDEST PUSH1 0x40 MLOAD DUP1 DUP3 PUSH1 0xFF AND PUSH1 0xFF AND DUP2 MSTORE PUSH1 0x20 ADD SWAP2 POP POP PUSH1 0x40 MLOAD DUP1 SWAP2 SUB SWAP1 RETURN JUMPDEST CALLVALUE ISZERO PUSH2 0x464 JUMPI PUSH1 0x0 DUP1 REVERT JUMPDEST PUSH2 0x46C PUSH2 0x12E6 JUMP JUMPDEST PUSH1 0x40 MLOAD DUP1 DUP3 DUP2 MSTORE PUSH1 0x20 ADD SWAP2 POP POP PUSH1 0x40 MLOAD DUP1 SWAP2 SUB SWAP1 RETURN JUMPDEST CALLVALUE ISZERO PUSH2 0x48D JUMPI PUSH1 0x0 DUP1 REVERT JUMPDEST PUSH2 0x495 PUSH2 0x12F0 JUMP JUMPDEST PUSH1 0x40 MLOAD DUP1 DUP3 DUP2 MSTORE PUSH1 0x20 ADD SWAP2 POP POP PUSH1 0x40 MLOAD DUP1 SWAP2 SUB SWAP1 RETURN JUMPDEST CALLVALUE ISZERO PUSH2 0x4B6 JUMPI PUSH1 0x0 DUP1 REVERT JUMPDEST PUSH2 0x4BE PUSH2 0x12F6 JUMP JUMPDEST PUSH1 0x40 MLOAD DUP1 DUP3 DUP2 MSTORE PUSH1 0x20 ADD SWAP2 POP POP PUSH1 0x40 MLOAD DUP1 SWAP2 SUB SWAP1 RETURN JUMPDEST CALLVALUE ISZERO PUSH2 0x4DF JUMPI PUSH1 0x0 DUP1 REVERT JUMPDEST PUSH2 0x4E7 PUSH2 0x132D JUMP JUMPDEST PUSH1 0x40 MLOAD DUP1 DUP3 PUSH1 0x0 NOT AND PUSH1 0x0 NOT AND DUP2 MSTORE PUSH1 0x20 ADD SWAP2 POP POP PUSH1 0x40 MLOAD DUP1 SWAP2 SUB SWAP1 RETURN JUMPDEST CALLVALUE ISZERO PUSH2 0x510 JUMPI PUSH1 0x0 DUP1 REVERT JUMPDEST PUSH2 0x518 PUSH2 0x1337 JUMP JUMPDEST PUSH1 0x40 MLOAD DUP1 DUP3 DUP2 MSTORE PUSH1 0x20 ADD SWAP2 POP POP PUSH1 0x40 MLOAD DUP1 SWAP2 SUB SWAP1 RETURN JUMPDEST CALLVALUE ISZERO PUSH2 0x539 JUMPI PUSH1 0x0 DUP1 REVERT JUMPDEST PUSH2 0x541 PUSH2 0x133D JUMP JUMPDEST PUSH1 0x40 MLOAD DUP1 DUP3 ISZERO ISZERO ISZERO ISZERO DUP2 MSTORE PUSH1 0x20 ADD SWAP2 POP POP PUSH1 0x40 MLOAD DUP1 SWAP2 SUB SWAP1 RETURN JUMPDEST CALLVALUE ISZERO PUSH2 0x566 JUMPI PUSH1 0x0 DUP1 REVERT JUMPDEST PUSH2 0x57C PUSH1 0x4 DUP1 DUP1 CALLDATALOAD SWAP1 PUSH1 0x20 ADD SWAP1 SWAP2 SWAP1 POP POP PUSH2 0x1469 JUMP JUMPDEST STOP JUMPDEST CALLVALUE ISZERO PUSH2 0x589 JUMPI PUSH1 0x0 DUP1 REVERT JUMPDEST PUSH2 0x591 PUSH2 0x1473 JUMP JUMPDEST PUSH1 0x40 MLOAD DUP1 DUP3 DUP2 MSTORE PUSH1 0x20 ADD SWAP2 POP POP PUSH1 0x40 MLOAD DUP1 SWAP2 SUB SWAP1 RETURN JUMPDEST CALLVALUE ISZERO PUSH2 0x5B2 JUMPI PUSH1 0x0 DUP1 REVERT JUMPDEST PUSH2 0x5BA PUSH2 0x1479 JUMP JUMPDEST PUSH1 0x40 MLOAD DUP1 DUP3 PUSH20 0xFFFFFFFFFFFFFFFFFFFFFFFFFFFFFFFFFFFFFFFF AND PUSH20 0xFFFFFFFFFFFFFFFFFFFFFFFFFFFFFFFFFFFFFFFF AND DUP2 MSTORE PUSH1 0x20 ADD SWAP2 POP POP PUSH1 0x40 MLOAD DUP1 SWAP2 SUB SWAP1 RETURN JUMPDEST CALLVALUE ISZERO PUSH2 0x607 JUMPI PUSH1 0x0 DUP1 REVERT JUMPDEST PUSH2 0x633 PUSH1 0x4 DUP1 DUP1 CALLDATALOAD PUSH20 0xFFFFFFFFFFFFFFFFFFFFFFFFFFFFFFFFFFFFFFFF AND SWAP1 PUSH1 0x20 ADD SWAP1 SWAP2 SWAP1 POP POP PUSH2 0x149F JUMP JUMPDEST PUSH1 0x40 MLOAD DUP1 DUP3 DUP2 MSTORE PUSH1 0x20 ADD SWAP2 POP POP PUSH1 0x40 MLOAD DUP1 SWAP2 SUB SWAP1 RETURN JUMPDEST CALLVALUE ISZERO PUSH2 0x654 JUMPI PUSH1 0x0 DUP1 REVERT JUMPDEST PUSH2 0x65C PUSH2 0x14E8 JUMP JUMPDEST STOP JUMPDEST CALLVALUE ISZERO PUSH2 0x669 JUMPI PUSH1 0x0 DUP1 REVERT JUMPDEST PUSH2 0x6A2 PUSH1 0x4 DUP1 DUP1 CALLDATALOAD SWAP1 PUSH1 0x20 ADD SWAP1 SWAP2 SWAP1 DUP1 CALLDATALOAD PUSH1 0x0 NOT AND SWAP1 PUSH1 0x20 ADD SWAP1 SWAP2 SWAP1 DUP1 CALLDATALOAD PUSH1 0x0 NOT AND SWAP1 PUSH1 0x20 ADD SWAP1 SWAP2 SWAP1 DUP1 CALLDATALOAD SWAP1 PUSH1 0x20 ADD SWAP1 SWAP2 SWAP1 POP POP PUSH2 0x1687 JUMP JUMPDEST PUSH1 0x40 MLOAD DUP1 DUP3 ISZERO ISZERO ISZERO ISZERO DUP2 MSTORE PUSH1 0x20 ADD SWAP2 POP POP PUSH1 0x40 MLOAD DUP1 SWAP2 SUB SWAP1 RETURN JUMPDEST CALLVALUE ISZERO PUSH2 0x6C7 JUMPI PUSH1 0x0 DUP1 REVERT JUMPDEST PUSH2 0x6CF PUSH2 0x171C JUMP JUMPDEST PUSH1 0x40 MLOAD DUP1 DUP3 DUP2 MSTORE PUSH1 0x20 ADD SWAP2 POP POP PUSH1 0x40 MLOAD DUP1 SWAP2 SUB SWAP1 RETURN JUMPDEST CALLVALUE ISZERO PUSH2 0x6F0 JUMPI PUSH1 0x0 DUP1 REVERT JUMPDEST PUSH2 0x6F8 PUSH2 0x1722 JUMP JUMPDEST PUSH1 0x40 MLOAD DUP1 DUP3 DUP2 MSTORE PUSH1 0x20 ADD SWAP2 POP POP PUSH1 0x40 MLOAD DUP1 SWAP2 SUB SWAP1 RETURN JUMPDEST CALLVALUE ISZERO PUSH2 0x719 JUMPI PUSH1 0x0 DUP1 REVERT JUMPDEST PUSH2 0x721 PUSH2 0x1728 JUMP JUMPDEST PUSH1 0x40 MLOAD DUP1 DUP3 DUP2 MSTORE PUSH1 0x20 ADD SWAP2 POP POP PUSH1 0x40 MLOAD DUP1 SWAP2 SUB SWAP1 RETURN JUMPDEST CALLVALUE ISZERO PUSH2 0x742 JUMPI PUSH1 0x0 DUP1 REVERT JUMPDEST PUSH2 0x74A PUSH2 0x172E JUMP JUMPDEST PUSH1 0x40 MLOAD DUP1 DUP3 PUSH1 0x0 NOT AND PUSH1 0x0 NOT AND DUP2 MSTORE PUSH1 0x20 ADD SWAP2 POP POP PUSH1 0x40 MLOAD DUP1 SWAP2 SUB SWAP1 RETURN JUMPDEST CALLVALUE ISZERO PUSH2 0x773 JUMPI PUSH1 0x0 DUP1 REVERT JUMPDEST PUSH2 0x77B PUSH2 0x1734 JUMP JUMPDEST PUSH1 0x40 MLOAD DUP1 DUP3 PUSH20 0xFFFFFFFFFFFFFFFFFFFFFFFFFFFFFFFFFFFFFFFF AND PUSH20 0xFFFFFFFFFFFFFFFFFFFFFFFFFFFFFFFFFFFFFFFF AND DUP2 MSTORE PUSH1 0x20 ADD SWAP2 POP POP PUSH1 0x40 MLOAD DUP1 SWAP2 SUB SWAP1 RETURN JUMPDEST CALLVALUE ISZERO PUSH2 0x7C8 JUMPI PUSH1 0x0 DUP1 REVERT JUMPDEST PUSH2 0x7D0 PUSH2 0x1759 JUMP JUMPDEST PUSH1 0x40 MLOAD DUP1 DUP1 PUSH1 0x20 ADD DUP3 DUP2 SUB DUP3 MSTORE DUP4 DUP2 DUP2 MLOAD DUP2 MSTORE PUSH1 0x20 ADD SWAP2 POP DUP1 MLOAD SWAP1 PUSH1 0x20 ADD SWAP1 DUP1 DUP4 DUP4 PUSH1 0x0 JUMPDEST DUP4 DUP2 LT ISZERO PUSH2 0x810 JUMPI DUP1 DUP3 ADD MLOAD DUP2 DUP5 ADD MSTORE PUSH1 0x20 DUP2 ADD SWAP1 POP PUSH2 0x7F5 JUMP JUMPDEST POP POP POP POP SWAP1 POP SWAP1 DUP2 ADD SWAP1 PUSH1 0x1F AND DUP1 ISZERO PUSH2 0x83D JUMPI DUP1 DUP3 SUB DUP1 MLOAD PUSH1 0x1 DUP4 PUSH1 0x20 SUB PUSH2 0x100 EXP SUB NOT AND DUP2 MSTORE PUSH1 0x20 ADD SWAP2 POP JUMPDEST POP SWAP3 POP POP POP PUSH1 0x40 MLOAD DUP1 SWAP2 SUB SWAP1 RETURN JUMPDEST CALLVALUE ISZERO PUSH2 0x856 JUMPI PUSH1 0x0 DUP1 REVERT JUMPDEST PUSH2 0x886 PUSH1 0x4 DUP1 DUP1 CALLDATALOAD SWAP1 PUSH1 0x20 ADD SWAP1 SWAP2 SWAP1 DUP1 CALLDATALOAD PUSH1 0x0 NOT AND SWAP1 PUSH1 0x20 ADD SWAP1 SWAP2 SWAP1 DUP1 CALLDATALOAD PUSH1 0x0 NOT AND SWAP1 PUSH1 0x20 ADD SWAP1 SWAP2 SWAP1 POP POP PUSH2 0x17F7 JUMP JUMPDEST PUSH1 0x40 MLOAD DUP1 DUP3 PUSH1 0x0 NOT AND PUSH1 0x0 NOT AND DUP2 MSTORE PUSH1 0x20 ADD SWAP2 POP POP PUSH1 0x40 MLOAD DUP1 SWAP2 SUB SWAP1 RETURN JUMPDEST CALLVALUE ISZERO PUSH2 0x8AF JUMPI PUSH1 0x0 DUP1 REVERT JUMPDEST PUSH2 0x8E4 PUSH1 0x4 DUP1 DUP1 CALLDATALOAD PUSH20 0xFFFFFFFFFFFFFFFFFFFFFFFFFFFFFFFFFFFFFFFF AND SWAP1 PUSH1 0x20 ADD SWAP1 SWAP2 SWAP1 DUP1 CALLDATALOAD SWAP1 PUSH1 0x20 ADD SWAP1 SWAP2 SWAP1 POP POP PUSH2 0x1870 JUMP JUMPDEST PUSH1 0x40 MLOAD DUP1 DUP3 ISZERO ISZERO ISZERO ISZERO DUP2 MSTORE PUSH1 0x20 ADD SWAP2 POP POP PUSH1 0x40 MLOAD DUP1 SWAP2 SUB SWAP1 RETURN JUMPDEST CALLVALUE ISZERO PUSH2 0x909 JUMPI PUSH1 0x0 DUP1 REVERT JUMPDEST PUSH2 0x911 PUSH2 0x1A0B JUMP JUMPDEST PUSH1 0x40 MLOAD DUP1 DUP3 DUP2 MSTORE PUSH1 0x20 ADD SWAP2 POP POP PUSH1 0x40 MLOAD DUP1 SWAP2 SUB SWAP1 RETURN JUMPDEST CALLVALUE ISZERO PUSH2 0x932 JUMPI PUSH1 0x0 DUP1 REVERT JUMPDEST PUSH2 0x93A PUSH2 0x1A11 JUMP JUMPDEST PUSH1 0x40 MLOAD DUP1 DUP3 DUP2 MSTORE PUSH1 0x20 ADD SWAP2 POP POP PUSH1 0x40 MLOAD DUP1 SWAP2 SUB SWAP1 RETURN JUMPDEST CALLVALUE ISZERO PUSH2 0x95B JUMPI PUSH1 0x0 DUP1 REVERT JUMPDEST PUSH2 0x9D3 PUSH1 0x4 DUP1 DUP1 CALLDATALOAD PUSH20 0xFFFFFFFFFFFFFFFFFFFFFFFFFFFFFFFFFFFFFFFF AND SWAP1 PUSH1 0x20 ADD SWAP1 SWAP2 SWAP1 DUP1 CALLDATALOAD SWAP1 PUSH1 0x20 ADD SWAP1 SWAP2 SWAP1 DUP1 CALLDATALOAD SWAP1 PUSH1 0x20 ADD SWAP1 DUP3 ADD DUP1 CALLDATALOAD SWAP1 PUSH1 0x20 ADD SWAP1 DUP1 DUP1 PUSH1 0x1F ADD PUSH1 0x20 DUP1 SWAP2 DIV MUL PUSH1 0x20 ADD PUSH1 0x40 MLOAD SWAP1 DUP2 ADD PUSH1 0x40 MSTORE DUP1 SWAP4 SWAP3 SWAP2 SWAP1 DUP2 DUP2 MSTORE PUSH1 0x20 ADD DUP4 DUP4 DUP1 DUP3 DUP5 CALLDATACOPY DUP3 ADD SWAP2 POP POP POP POP POP POP SWAP2 SWAP1 POP POP PUSH2 0x1A17 JUMP JUMPDEST PUSH1 0x40 MLOAD DUP1 DUP3 ISZERO ISZERO ISZERO ISZERO DUP2 MSTORE PUSH1 0x20 ADD SWAP2 POP POP PUSH1 0x40 MLOAD DUP1 SWAP2 SUB SWAP1 RETURN JUMPDEST CALLVALUE ISZERO PUSH2 0x9F8 JUMPI PUSH1 0x0 DUP1 REVERT JUMPDEST PUSH2 0xA00 PUSH2 0x1C61 JUMP JUMPDEST PUSH1 0x40 MLOAD DUP1 DUP3 DUP2 MSTORE PUSH1 0x20 ADD SWAP2 POP POP PUSH1 0x40 MLOAD DUP1 SWAP2 SUB SWAP1 RETURN JUMPDEST CALLVALUE ISZERO PUSH2 0xA21 JUMPI PUSH1 0x0 DUP1 REVERT JUMPDEST PUSH2 0xA29 PUSH2 0x1C67 JUMP JUMPDEST PUSH1 0x40 MLOAD DUP1 DUP3 PUSH20 0xFFFFFFFFFFFFFFFFFFFFFFFFFFFFFFFFFFFFFFFF AND PUSH20 0xFFFFFFFFFFFFFFFFFFFFFFFFFFFFFFFFFFFFFFFF AND DUP2 MSTORE PUSH1 0x20 ADD SWAP2 POP POP PUSH1 0x40 MLOAD DUP1 SWAP2 SUB SWAP1 RETURN JUMPDEST CALLVALUE ISZERO PUSH2 0xA76 JUMPI PUSH1 0x0 DUP1 REVERT JUMPDEST PUSH2 0xAAB PUSH1 0x4 DUP1 DUP1 CALLDATALOAD PUSH20 0xFFFFFFFFFFFFFFFFFFFFFFFFFFFFFFFFFFFFFFFF AND SWAP1 PUSH1 0x20 ADD SWAP1 SWAP2 SWAP1 DUP1 CALLDATALOAD SWAP1 PUSH1 0x20 ADD SWAP1 SWAP2 SWAP1 POP POP PUSH2 0x1C8D JUMP JUMPDEST PUSH1 0x40 MLOAD DUP1 DUP3 ISZERO ISZERO ISZERO ISZERO DUP2 MSTORE PUSH1 0x20 ADD SWAP2 POP POP PUSH1 0x40 MLOAD DUP1 SWAP2 SUB SWAP1 RETURN JUMPDEST CALLVALUE ISZERO PUSH2 0xAD0 JUMPI PUSH1 0x0 DUP1 REVERT JUMPDEST PUSH2 0xAD8 PUSH2 0x1DD9 JUMP JUMPDEST PUSH1 0x40 MLOAD DUP1 DUP3 DUP2 MSTORE PUSH1 0x20 ADD SWAP2 POP POP PUSH1 0x40 MLOAD DUP1 SWAP2 SUB SWAP1 RETURN JUMPDEST CALLVALUE ISZERO PUSH2 0xAF9 JUMPI PUSH1 0x0 DUP1 REVERT JUMPDEST PUSH2 0xB44 PUSH1 0x4 DUP1 DUP1 CALLDATALOAD PUSH20 0xFFFFFFFFFFFFFFFFFFFFFFFFFFFFFFFFFFFFFFFF AND SWAP1 PUSH1 0x20 ADD SWAP1 SWAP2 SWAP1 DUP1 CALLDATALOAD PUSH20 0xFFFFFFFFFFFFFFFFFFFFFFFFFFFFFFFFFFFFFFFF AND SWAP1 PUSH1 0x20 ADD SWAP1 SWAP2 SWAP1 POP POP PUSH2 0x1DDF JUMP JUMPDEST PUSH1 0x40 MLOAD DUP1 DUP3 DUP2 MSTORE PUSH1 0x20 ADD SWAP2 POP POP PUSH1 0x40 MLOAD DUP1 SWAP2 SUB SWAP1 RETURN JUMPDEST CALLVALUE ISZERO PUSH2 0xB65 JUMPI PUSH1 0x0 DUP1 REVERT JUMPDEST PUSH2 0xB91 PUSH1 0x4 DUP1 DUP1 CALLDATALOAD PUSH20 0xFFFFFFFFFFFFFFFFFFFFFFFFFFFFFFFFFFFFFFFF AND SWAP1 PUSH1 0x20 ADD SWAP1 SWAP2 SWAP1 POP POP PUSH2 0x1E66 JUMP JUMPDEST STOP JUMPDEST PUSH1 0x3 DUP1 SLOAD PUSH1 0x1 DUP2 PUSH1 0x1 AND ISZERO PUSH2 0x100 MUL SUB AND PUSH1 0x2 SWAP1 DIV DUP1 PUSH1 0x1F ADD PUSH1 0x20 DUP1 SWAP2 DIV MUL PUSH1 0x20 ADD PUSH1 0x40 MLOAD SWAP1 DUP2 ADD PUSH1 0x40 MSTORE DUP1 SWAP3 SWAP2 SWAP1 DUP2 DUP2 MSTORE PUSH1 0x20 ADD DUP3 DUP1 SLOAD PUSH1 0x1 DUP2 PUSH1 0x1 AND ISZERO PUSH2 0x100 MUL SUB AND PUSH1 0x2 SWAP1 DIV DUP1 ISZERO PUSH2 0xC29 JUMPI DUP1 PUSH1 0x1F LT PUSH2 0xBFE JUMPI PUSH2 0x100 DUP1 DUP4 SLOAD DIV MUL DUP4 MSTORE SWAP2 PUSH1 0x20 ADD SWAP2 PUSH2 0xC29 JUMP JUMPDEST DUP3 ADD SWAP2 SWAP1 PUSH1 0x0 MSTORE PUSH1 0x20 PUSH1 0x0 KECCAK256 SWAP1 JUMPDEST DUP2 SLOAD DUP2 MSTORE SWAP1 PUSH1 0x1 ADD SWAP1 PUSH1 0x20 ADD DUP1 DUP4 GT PUSH2 0xC0C JUMPI DUP3 SWAP1 SUB PUSH1 0x1F AND DUP3 ADD SWAP2 JUMPDEST POP POP POP POP POP DUP2 JUMP JUMPDEST PUSH1 0x0 DUP2 PUSH1 0x16 PUSH1 0x0 CALLER PUSH20 0xFFFFFFFFFFFFFFFFFFFFFFFFFFFFFFFFFFFFFFFF AND PUSH20 0xFFFFFFFFFFFFFFFFFFFFFFFFFFFFFFFFFFFFFFFF AND DUP2 MSTORE PUSH1 0x20 ADD SWAP1 DUP2 MSTORE PUSH1 0x20 ADD PUSH1 0x0 KECCAK256 PUSH1 0x0 DUP6 PUSH20 0xFFFFFFFFFFFFFFFFFFFFFFFFFFFFFFFFFFFFFFFF AND PUSH20 0xFFFFFFFFFFFFFFFFFFFFFFFFFFFFFFFFFFFFFFFF AND DUP2 MSTORE PUSH1 0x20 ADD SWAP1 DUP2 MSTORE PUSH1 0x20 ADD PUSH1 0x0 KECCAK256 DUP2 SWAP1 SSTORE POP DUP3 PUSH20 0xFFFFFFFFFFFFFFFFFFFFFFFFFFFFFFFFFFFFFFFF AND CALLER PUSH20 0xFFFFFFFFFFFFFFFFFFFFFFFFFFFFFFFFFFFFFFFF AND PUSH32 0x8C5BE1E5EBEC7D5BD14F71427D1E84F3DD0314C0F7B2291E5B200AC8C7C3B925 DUP5 PUSH1 0x40 MLOAD DUP1 DUP3 DUP2 MSTORE PUSH1 0x20 ADD SWAP2 POP POP PUSH1 0x40 MLOAD DUP1 SWAP2 SUB SWAP1 LOG3 PUSH1 0x1 SWAP1 POP SWAP3 SWAP2 POP POP JUMP JUMPDEST PUSH1 0x11 SLOAD DUP2 JUMP JUMPDEST PUSH1 0x0 PUSH2 0xD42 PUSH1 0xB SLOAD PUSH1 0xA SLOAD PUSH2 0x1F05 SWAP1 SWAP2 SWAP1 PUSH4 0xFFFFFFFF AND JUMP JUMPDEST SWAP1 POP SWAP1 JUMP JUMPDEST PUSH1 0x0 DUP1 PUSH1 0x0 DUP1 PUSH1 0xC SLOAD CALLER DUP8 PUSH1 0x40 MLOAD DUP1 DUP5 PUSH1 0x0 NOT AND PUSH1 0x0 NOT AND DUP2 MSTORE PUSH1 0x20 ADD DUP4 PUSH20 0xFFFFFFFFFFFFFFFFFFFFFFFFFFFFFFFFFFFFFFFF AND PUSH20 0xFFFFFFFFFFFFFFFFFFFFFFFFFFFFFFFFFFFFFFFF AND PUSH13 0x1000000000000000000000000 MUL DUP2 MSTORE PUSH1 0x14 ADD DUP3 DUP2 MSTORE PUSH1 0x20 ADD SWAP4 POP POP POP POP PUSH1 0x40 MLOAD DUP1 SWAP2 SUB SWAP1 KECCAK256 SWAP3 POP DUP5 PUSH1 0x0 NOT AND DUP4 PUSH1 0x0 NOT AND EQ ISZERO ISZERO PUSH2 0xDD0 JUMPI PUSH1 0x0 DUP1 REVERT JUMPDEST PUSH1 0xB SLOAD DUP4 PUSH1 0x1 SWAP1 DIV GT ISZERO PUSH2 0xDE3 JUMPI PUSH1 0x0 DUP1 REVERT JUMPDEST PUSH1 0x13 PUSH1 0x0 PUSH1 0xC SLOAD PUSH1 0x0 NOT AND PUSH1 0x0 NOT AND DUP2 MSTORE PUSH1 0x20 ADD SWAP1 DUP2 MSTORE PUSH1 0x20 ADD PUSH1 0x0 KECCAK256 SLOAD SWAP2 POP DUP3 PUSH1 0x13 PUSH1 0x0 PUSH1 0xC SLOAD PUSH1 0x0 NOT AND PUSH1 0x0 NOT AND DUP2 MSTORE PUSH1 0x20 ADD SWAP1 DUP2 MSTORE PUSH1 0x20 ADD PUSH1 0x0 KECCAK256 DUP2 PUSH1 0x0 NOT AND SWAP1 SSTORE POP PUSH1 0x0 PUSH1 0x1 MUL DUP3 PUSH1 0x0 NOT AND EQ ISZERO ISZERO PUSH2 0xE3F JUMPI PUSH1 0x0 DUP1 REVERT JUMPDEST PUSH2 0xE47 PUSH2 0x12F6 JUMP JUMPDEST SWAP1 POP PUSH2 0xE9B DUP2 PUSH1 0x15 PUSH1 0x0 CALLER PUSH20 0xFFFFFFFFFFFFFFFFFFFFFFFFFFFFFFFFFFFFFFFF AND PUSH20 0xFFFFFFFFFFFFFFFFFFFFFFFFFFFFFFFFFFFFFFFF AND DUP2 MSTORE PUSH1 0x20 ADD SWAP1 DUP2 MSTORE PUSH1 0x20 ADD PUSH1 0x0 KECCAK256 SLOAD PUSH2 0x1F29 SWAP1 SWAP2 SWAP1 PUSH4 0xFFFFFFFF AND JUMP JUMPDEST PUSH1 0x15 PUSH1 0x0 CALLER PUSH20 0xFFFFFFFFFFFFFFFFFFFFFFFFFFFFFFFFFFFFFFFF AND PUSH20 0xFFFFFFFFFFFFFFFFFFFFFFFFFFFFFFFFFFFFFFFF AND DUP2 MSTORE PUSH1 0x20 ADD SWAP1 DUP2 MSTORE PUSH1 0x20 ADD PUSH1 0x0 KECCAK256 DUP2 SWAP1 SSTORE POP PUSH2 0xEF3 DUP2 PUSH1 0x14 SLOAD PUSH2 0x1F29 SWAP1 SWAP2 SWAP1 PUSH4 0xFFFFFFFF AND JUMP JUMPDEST PUSH1 0x14 DUP2 SWAP1 SSTORE POP PUSH1 0xE SLOAD PUSH1 0x14 SLOAD GT ISZERO ISZERO ISZERO PUSH2 0xF09 JUMPI INVALID JUMPDEST CALLER PUSH1 0xF PUSH1 0x0 PUSH2 0x100 EXP DUP2 SLOAD DUP2 PUSH20 0xFFFFFFFFFFFFFFFFFFFFFFFFFFFFFFFFFFFFFFFF MUL NOT AND SWAP1 DUP4 PUSH20 0xFFFFFFFFFFFFFFFFFFFFFFFFFFFFFFFFFFFFFFFF AND MUL OR SWAP1 SSTORE POP DUP1 PUSH1 0x10 DUP2 SWAP1 SSTORE POP NUMBER PUSH1 0x11 DUP2 SWAP1 SSTORE POP PUSH2 0xF60 PUSH2 0x1F45 JUMP JUMPDEST CALLER PUSH20 0xFFFFFFFFFFFFFFFFFFFFFFFFFFFFFFFFFFFFFFFF AND PUSH32 0xCF6FBB9DCEA7D07263AB4F5C3A92F53AF33DFFC421D9D121E1C74B307E68189D DUP3 PUSH1 0x7 SLOAD PUSH1 0xC SLOAD PUSH1 0x40 MLOAD DUP1 DUP5 DUP2 MSTORE PUSH1 0x20 ADD DUP4 DUP2 MSTORE PUSH1 0x20 ADD DUP3 PUSH1 0x0 NOT AND PUSH1 0x0 NOT AND DUP2 MSTORE PUSH1 0x20 ADD SWAP4 POP POP POP POP PUSH1 0x40 MLOAD DUP1 SWAP2 SUB SWAP1 LOG2 PUSH1 0x1 SWAP4 POP POP POP POP SWAP3 SWAP2 POP POP JUMP JUMPDEST PUSH1 0x0 PUSH1 0x15 PUSH1 0x0 DUP1 PUSH20 0xFFFFFFFFFFFFFFFFFFFFFFFFFFFFFFFFFFFFFFFF AND PUSH20 0xFFFFFFFFFFFFFFFFFFFFFFFFFFFFFFFFFFFFFFFF AND DUP2 MSTORE PUSH1 0x20 ADD SWAP1 DUP2 MSTORE PUSH1 0x20 ADD PUSH1 0x0 KECCAK256 SLOAD PUSH1 0x5 SLOAD SUB SWAP1 POP SWAP1 JUMP JUMPDEST PUSH1 0x0 PUSH2 0x1076 DUP3 PUSH1 0x15 PUSH1 0x0 DUP8 PUSH20 0xFFFFFFFFFFFFFFFFFFFFFFFFFFFFFFFFFFFFFFFF AND PUSH20 0xFFFFFFFFFFFFFFFFFFFFFFFFFFFFFFFFFFFFFFFF AND DUP2 MSTORE PUSH1 0x20 ADD SWAP1 DUP2 MSTORE PUSH1 0x20 ADD PUSH1 0x0 KECCAK256 SLOAD PUSH2 0x1FFA SWAP1 SWAP2 SWAP1 PUSH4 0xFFFFFFFF AND JUMP JUMPDEST PUSH1 0x15 PUSH1 0x0 DUP7 PUSH20 0xFFFFFFFFFFFFFFFFFFFFFFFFFFFFFFFFFFFFFFFF AND PUSH20 0xFFFFFFFFFFFFFFFFFFFFFFFFFFFFFFFFFFFFFFFF AND DUP2 MSTORE PUSH1 0x20 ADD SWAP1 DUP2 MSTORE PUSH1 0x20 ADD PUSH1 0x0 KECCAK256 DUP2 SWAP1 SSTORE POP PUSH2 0x1148 DUP3 PUSH1 0x16 PUSH1 0x0 DUP8 PUSH20 0xFFFFFFFFFFFFFFFFFFFFFFFFFFFFFFFFFFFFFFFF AND PUSH20 0xFFFFFFFFFFFFFFFFFFFFFFFFFFFFFFFFFFFFFFFF AND DUP2 MSTORE PUSH1 0x20 ADD SWAP1 DUP2 MSTORE PUSH1 0x20 ADD PUSH1 0x0 KECCAK256 PUSH1 0x0 CALLER PUSH20 0xFFFFFFFFFFFFFFFFFFFFFFFFFFFFFFFFFFFFFFFF AND PUSH20 0xFFFFFFFFFFFFFFFFFFFFFFFFFFFFFFFFFFFFFFFF AND DUP2 MSTORE PUSH1 0x20 ADD SWAP1 DUP2 MSTORE PUSH1 0x20 ADD PUSH1 0x0 KECCAK256 SLOAD PUSH2 0x1FFA SWAP1 SWAP2 SWAP1 PUSH4 0xFFFFFFFF AND JUMP JUMPDEST PUSH1 0x16 PUSH1 0x0 DUP7 PUSH20 0xFFFFFFFFFFFFFFFFFFFFFFFFFFFFFFFFFFFFFFFF AND PUSH20 0xFFFFFFFFFFFFFFFFFFFFFFFFFFFFFFFFFFFFFFFF AND DUP2 MSTORE PUSH1 0x20 ADD SWAP1 DUP2 MSTORE PUSH1 0x20 ADD PUSH1 0x0 KECCAK256 PUSH1 0x0 CALLER PUSH20 0xFFFFFFFFFFFFFFFFFFFFFFFFFFFFFFFFFFFFFFFF AND PUSH20 0xFFFFFFFFFFFFFFFFFFFFFFFFFFFFFFFFFFFFFFFF AND DUP2 MSTORE PUSH1 0x20 ADD SWAP1 DUP2 MSTORE PUSH1 0x20 ADD PUSH1 0x0 KECCAK256 DUP2 SWAP1 SSTORE POP PUSH2 0x121A DUP3 PUSH1 0x15 PUSH1 0x0 DUP7 PUSH20 0xFFFFFFFFFFFFFFFFFFFFFFFFFFFFFFFFFFFFFFFF AND PUSH20 0xFFFFFFFFFFFFFFFFFFFFFFFFFFFFFFFFFFFFFFFF AND DUP2 MSTORE PUSH1 0x20 ADD SWAP1 DUP2 MSTORE PUSH1 0x20 ADD PUSH1 0x0 KECCAK256 SLOAD PUSH2 0x1F29 SWAP1 SWAP2 SWAP1 PUSH4 0xFFFFFFFF AND JUMP JUMPDEST PUSH1 0x15 PUSH1 0x0 DUP6 PUSH20 0xFFFFFFFFFFFFFFFFFFFFFFFFFFFFFFFFFFFFFFFF AND PUSH20 0xFFFFFFFFFFFFFFFFFFFFFFFFFFFFFFFFFFFFFFFF AND DUP2 MSTORE PUSH1 0x20 ADD SWAP1 DUP2 MSTORE PUSH1 0x20 ADD PUSH1 0x0 KECCAK256 DUP2 SWAP1 SSTORE POP DUP3 PUSH20 0xFFFFFFFFFFFFFFFFFFFFFFFFFFFFFFFFFFFFFFFF AND DUP5 PUSH20 0xFFFFFFFFFFFFFFFFFFFFFFFFFFFFFFFFFFFFFFFF AND PUSH32 0xDDF252AD1BE2C89B69C2B068FC378DAA952BA7F163C4A11628F55A4DF523B3EF DUP5 PUSH1 0x40 MLOAD DUP1 DUP3 DUP2 MSTORE PUSH1 0x20 ADD SWAP2 POP POP PUSH1 0x40 MLOAD DUP1 SWAP2 SUB SWAP1 LOG3 PUSH1 0x1 SWAP1 POP SWAP4 SWAP3 POP POP POP JUMP JUMPDEST PUSH1 0xD SLOAD DUP2 JUMP JUMPDEST PUSH1 0x4 PUSH1 0x0 SWAP1 SLOAD SWAP1 PUSH2 0x100 EXP SWAP1 DIV PUSH1 0xFF AND DUP2 JUMP JUMPDEST PUSH1 0x0 PUSH1 0xB SLOAD SWAP1 POP SWAP1 JUMP JUMPDEST PUSH1 0x5 SLOAD DUP2 JUMP JUMPDEST PUSH1 0x0 PUSH2 0x1328 PUSH1 0xD SLOAD PUSH1 0x2 EXP PUSH1 0x4 PUSH1 0x0 SWAP1 SLOAD SWAP1 PUSH2 0x100 EXP SWAP1 DIV PUSH1 0xFF AND PUSH1 0xFF AND PUSH1 0xA EXP PUSH1 0x32 MUL PUSH2 0x1F05 SWAP1 SWAP2 SWAP1 PUSH4 0xFFFFFFFF AND JUMP JUMPDEST SWAP1 POP SWAP1 JUMP JUMPDEST PUSH1 0x0 PUSH1 0xC SLOAD SWAP1 POP SWAP1 JUMP JUMPDEST PUSH1 0xE SLOAD DUP2 JUMP JUMPDEST PUSH1 0x0 DUP1 PUSH2 0x1348 PUSH2 0x12F6 JUMP JUMPDEST SWAP1 POP PUSH2 0x139C DUP2 PUSH1 0x15 PUSH1 0x0 CALLER PUSH20 0xFFFFFFFFFFFFFFFFFFFFFFFFFFFFFFFFFFFFFFFF AND PUSH20 0xFFFFFFFFFFFFFFFFFFFFFFFFFFFFFFFFFFFFFFFF AND DUP2 MSTORE PUSH1 0x20 ADD SWAP1 DUP2 MSTORE PUSH1 0x20 ADD PUSH1 0x0 KECCAK256 SLOAD PUSH2 0x1F29 SWAP1 SWAP2 SWAP1 PUSH4 0xFFFFFFFF AND JUMP JUMPDEST PUSH1 0x15 PUSH1 0x0 CALLER PUSH20 0xFFFFFFFFFFFFFFFFFFFFFFFFFFFFFFFFFFFFFFFF AND PUSH20 0xFFFFFFFFFFFFFFFFFFFFFFFFFFFFFFFFFFFFFFFF AND DUP2 MSTORE PUSH1 0x20 ADD SWAP1 DUP2 MSTORE PUSH1 0x20 ADD PUSH1 0x0 KECCAK256 DUP2 SWAP1 SSTORE POP PUSH2 0x13F4 DUP2 PUSH1 0x14 SLOAD PUSH2 0x1F29 SWAP1 SWAP2 SWAP1 PUSH4 0xFFFFFFFF AND JUMP JUMPDEST PUSH1 0x14 DUP2 SWAP1 SSTORE POP PUSH1 0xE SLOAD PUSH1 0x14 SLOAD GT ISZERO ISZERO ISZERO PUSH2 0x140A JUMPI INVALID JUMPDEST CALLER PUSH1 0xF PUSH1 0x0 PUSH2 0x100 EXP DUP2 SLOAD DUP2 PUSH20 0xFFFFFFFFFFFFFFFFFFFFFFFFFFFFFFFFFFFFFFFF MUL NOT AND SWAP1 DUP4 PUSH20 0xFFFFFFFFFFFFFFFFFFFFFFFFFFFFFFFFFFFFFFFF AND MUL OR SWAP1 SSTORE POP DUP1 PUSH1 0x10 DUP2 SWAP1 SSTORE POP NUMBER PUSH1 0x11 DUP2 SWAP1 SSTORE POP PUSH2 0x1461 PUSH2 0x1F45 JUMP JUMPDEST PUSH1 0x1 SWAP2 POP POP SWAP1 JUMP JUMPDEST DUP1 PUSH1 0x14 DUP2 SWAP1 SSTORE POP POP JUMP JUMPDEST PUSH1 0x14 SLOAD DUP2 JUMP JUMPDEST PUSH1 0xF PUSH1 0x0 SWAP1 SLOAD SWAP1 PUSH2 0x100 EXP SWAP1 DIV PUSH20 0xFFFFFFFFFFFFFFFFFFFFFFFFFFFFFFFFFFFFFFFF AND DUP2 JUMP JUMPDEST PUSH1 0x0 PUSH1 0x15 PUSH1 0x0 DUP4 PUSH20 0xFFFFFFFFFFFFFFFFFFFFFFFFFFFFFFFFFFFFFFFF AND PUSH20 0xFFFFFFFFFFFFFFFFFFFFFFFFFFFFFFFFFFFFFFFF AND DUP2 MSTORE PUSH1 0x20 ADD SWAP1 DUP2 MSTORE PUSH1 0x20 ADD PUSH1 0x0 KECCAK256 SLOAD SWAP1 POP SWAP2 SWAP1 POP JUMP JUMPDEST PUSH1 0x1 PUSH1 0x0 SWAP1 SLOAD SWAP1 PUSH2 0x100 EXP SWAP1 DIV PUSH20 0xFFFFFFFFFFFFFFFFFFFFFFFFFFFFFFFFFFFFFFFF AND PUSH20 0xFFFFFFFFFFFFFFFFFFFFFFFFFFFFFFFFFFFFFFFF AND CALLER PUSH20 0xFFFFFFFFFFFFFFFFFFFFFFFFFFFFFFFFFFFFFFFF AND EQ ISZERO ISZERO PUSH2 0x1544 JUMPI PUSH1 0x0 DUP1 REVERT JUMPDEST PUSH1 0x1 PUSH1 0x0 SWAP1 SLOAD SWAP1 PUSH2 0x100 EXP SWAP1 DIV PUSH20 0xFFFFFFFFFFFFFFFFFFFFFFFFFFFFFFFFFFFFFFFF AND PUSH20 0xFFFFFFFFFFFFFFFFFFFFFFFFFFFFFFFFFFFFFFFF AND PUSH1 0x0 DUP1 SWAP1 SLOAD SWAP1 PUSH2 0x100 EXP SWAP1 DIV PUSH20 0xFFFFFFFFFFFFFFFFFFFFFFFFFFFFFFFFFFFFFFFF AND PUSH20 0xFFFFFFFFFFFFFFFFFFFFFFFFFFFFFFFFFFFFFFFF AND PUSH32 0x8BE0079C531659141344CD1FD0A4F28419497F9722A3DAAFE3B4186F6B6457E0 PUSH1 0x40 MLOAD PUSH1 0x40 MLOAD DUP1 SWAP2 SUB SWAP1 LOG3 PUSH1 0x1 PUSH1 0x0 SWAP1 SLOAD SWAP1 PUSH2 0x100 EXP SWAP1 DIV PUSH20 0xFFFFFFFFFFFFFFFFFFFFFFFFFFFFFFFFFFFFFFFF AND PUSH1 0x0 DUP1 PUSH2 0x100 EXP DUP2 SLOAD DUP2 PUSH20 0xFFFFFFFFFFFFFFFFFFFFFFFFFFFFFFFFFFFFFFFF MUL NOT AND SWAP1 DUP4 PUSH20 0xFFFFFFFFFFFFFFFFFFFFFFFFFFFFFFFFFFFFFFFF AND MUL OR SWAP1 SSTORE POP PUSH1 0x0 PUSH1 0x1 PUSH1 0x0 PUSH2 0x100 EXP DUP2 SLOAD DUP2 PUSH20 0xFFFFFFFFFFFFFFFFFFFFFFFFFFFFFFFFFFFFFFFF MUL NOT AND SWAP1 DUP4 PUSH20 0xFFFFFFFFFFFFFFFFFFFFFFFFFFFFFFFFFFFFFFFF AND MUL OR SWAP1 SSTORE POP JUMP JUMPDEST PUSH1 0x0 DUP1 DUP4 CALLER DUP8 PUSH1 0x40 MLOAD DUP1 DUP5 PUSH1 0x0 NOT AND PUSH1 0x0 NOT AND DUP2 MSTORE PUSH1 0x20 ADD DUP4 PUSH20 0xFFFFFFFFFFFFFFFFFFFFFFFFFFFFFFFFFFFFFFFF AND PUSH20 0xFFFFFFFFFFFFFFFFFFFFFFFFFFFFFFFFFFFFFFFF AND PUSH13 0x1000000000000000000000000 MUL DUP2 MSTORE PUSH1 0x14 ADD DUP3 DUP2 MSTORE PUSH1 0x20 ADD SWAP4 POP POP POP POP PUSH1 0x40 MLOAD DUP1 SWAP2 SUB SWAP1 KECCAK256 SWAP1 POP DUP3 DUP2 PUSH1 0x1 SWAP1 DIV GT ISZERO PUSH2 0x1706 JUMPI PUSH1 0x0 DUP1 REVERT JUMPDEST DUP5 PUSH1 0x0 NOT AND DUP2 PUSH1 0x0 NOT AND EQ SWAP2 POP POP SWAP5 SWAP4 POP POP POP POP JUMP JUMPDEST PUSH1 0x7 SLOAD DUP2 JUMP JUMPDEST PUSH1 0xA SLOAD DUP2 JUMP JUMPDEST PUSH1 0xB SLOAD DUP2 JUMP JUMPDEST PUSH1 0xC SLOAD DUP2 JUMP JUMPDEST PUSH1 0x0 DUP1 SWAP1 SLOAD SWAP1 PUSH2 0x100 EXP SWAP1 DIV PUSH20 0xFFFFFFFFFFFFFFFFFFFFFFFFFFFFFFFFFFFFFFFF AND DUP2 JUMP JUMPDEST PUSH1 0x2 DUP1 SLOAD PUSH1 0x1 DUP2 PUSH1 0x1 AND ISZERO PUSH2 0x100 MUL SUB AND PUSH1 0x2 SWAP1 DIV DUP1 PUSH1 0x1F ADD PUSH1 0x20 DUP1 SWAP2 DIV MUL PUSH1 0x20 ADD PUSH1 0x40 MLOAD SWAP1 DUP2 ADD PUSH1 0x40 MSTORE DUP1 SWAP3 SWAP2 SWAP1 DUP2 DUP2 MSTORE PUSH1 0x20 ADD DUP3 DUP1 SLOAD PUSH1 0x1 DUP2 PUSH1 0x1 AND ISZERO PUSH2 0x100 MUL SUB AND PUSH1 0x2 SWAP1 DIV DUP1 ISZERO PUSH2 0x17EF JUMPI DUP1 PUSH1 0x1F LT PUSH2 0x17C4 JUMPI PUSH2 0x100 DUP1 DUP4 SLOAD DIV MUL DUP4 MSTORE SWAP2 PUSH1 0x20 ADD SWAP2 PUSH2 0x17EF JUMP JUMPDEST DUP3 ADD SWAP2 SWAP1 PUSH1 0x0 MSTORE PUSH1 0x20 PUSH1 0x0 KECCAK256 SWAP1 JUMPDEST DUP2 SLOAD DUP2 MSTORE SWAP1 PUSH1 0x1 ADD SWAP1 PUSH1 0x20 ADD DUP1 DUP4 GT PUSH2 0x17D2 JUMPI DUP3 SWAP1 SUB PUSH1 0x1F AND DUP3 ADD SWAP2 JUMPDEST POP POP POP POP POP DUP2 JUMP JUMPDEST PUSH1 0x0 DUP1 DUP3 CALLER DUP7 PUSH1 0x40 MLOAD DUP1 DUP5 PUSH1 0x0 NOT AND PUSH1 0x0 NOT AND DUP2 MSTORE PUSH1 0x20 ADD DUP4 PUSH20 0xFFFFFFFFFFFFFFFFFFFFFFFFFFFFFFFFFFFFFFFF AND PUSH20 0xFFFFFFFFFFFFFFFFFFFFFFFFFFFFFFFFFFFFFFFF AND PUSH13 0x1000000000000000000000000 MUL DUP2 MSTORE PUSH1 0x14 ADD DUP3 DUP2 MSTORE PUSH1 0x20 ADD SWAP4 POP POP POP POP PUSH1 0x40 MLOAD DUP1 SWAP2 SUB SWAP1 KECCAK256 SWAP1 POP DUP1 SWAP2 POP POP SWAP4 SWAP3 POP POP POP JUMP JUMPDEST PUSH1 0x0 PUSH2 0x18C4 DUP3 PUSH1 0x15 PUSH1 0x0 CALLER PUSH20 0xFFFFFFFFFFFFFFFFFFFFFFFFFFFFFFFFFFFFFFFF AND PUSH20 0xFFFFFFFFFFFFFFFFFFFFFFFFFFFFFFFFFFFFFFFF AND DUP2 MSTORE PUSH1 0x20 ADD SWAP1 DUP2 MSTORE PUSH1 0x20 ADD PUSH1 0x0 KECCAK256 SLOAD PUSH2 0x1FFA SWAP1 SWAP2 SWAP1 PUSH4 0xFFFFFFFF AND JUMP JUMPDEST PUSH1 0x15 PUSH1 0x0 CALLER PUSH20 0xFFFFFFFFFFFFFFFFFFFFFFFFFFFFFFFFFFFFFFFF AND PUSH20 0xFFFFFFFFFFFFFFFFFFFFFFFFFFFFFFFFFFFFFFFF AND DUP2 MSTORE PUSH1 0x20 ADD SWAP1 DUP2 MSTORE PUSH1 0x20 ADD PUSH1 0x0 KECCAK256 DUP2 SWAP1 SSTORE POP PUSH2 0x1959 DUP3 PUSH1 0x15 PUSH1 0x0 DUP7 PUSH20 0xFFFFFFFFFFFFFFFFFFFFFFFFFFFFFFFFFFFFFFFF AND PUSH20 0xFFFFFFFFFFFFFFFFFFFFFFFFFFFFFFFFFFFFFFFF AND DUP2 MSTORE PUSH1 0x20 ADD SWAP1 DUP2 MSTORE PUSH1 0x20 ADD PUSH1 0x0 KECCAK256 SLOAD PUSH2 0x1F29 SWAP1 SWAP2 SWAP1 PUSH4 0xFFFFFFFF AND JUMP JUMPDEST PUSH1 0x15 PUSH1 0x0 DUP6 PUSH20 0xFFFFFFFFFFFFFFFFFFFFFFFFFFFFFFFFFFFFFFFF AND PUSH20 0xFFFFFFFFFFFFFFFFFFFFFFFFFFFFFFFFFFFFFFFF AND DUP2 MSTORE PUSH1 0x20 ADD SWAP1 DUP2 MSTORE PUSH1 0x20 ADD PUSH1 0x0 KECCAK256 DUP2 SWAP1 SSTORE POP DUP3 PUSH20 0xFFFFFFFFFFFFFFFFFFFFFFFFFFFFFFFFFFFFFFFF AND CALLER PUSH20 0xFFFFFFFFFFFFFFFFFFFFFFFFFFFFFFFFFFFFFFFF AND PUSH32 0xDDF252AD1BE2C89B69C2B068FC378DAA952BA7F163C4A11628F55A4DF523B3EF DUP5 PUSH1 0x40 MLOAD DUP1 DUP3 DUP2 MSTORE PUSH1 0x20 ADD SWAP2 POP POP PUSH1 0x40 MLOAD DUP1 SWAP2 SUB SWAP1 LOG3 PUSH1 0x1 SWAP1 POP SWAP3 SWAP2 POP POP JUMP JUMPDEST PUSH1 0x8 SLOAD DUP2 JUMP JUMPDEST PUSH1 0x10 SLOAD DUP2 JUMP JUMPDEST PUSH1 0x0 DUP3 PUSH1 0x16 PUSH1 0x0 CALLER PUSH20 0xFFFFFFFFFFFFFFFFFFFFFFFFFFFFFFFFFFFFFFFF AND PUSH20 0xFFFFFFFFFFFFFFFFFFFFFFFFFFFFFFFFFFFFFFFF AND DUP2 MSTORE PUSH1 0x20 ADD SWAP1 DUP2 MSTORE PUSH1 0x20 ADD PUSH1 0x0 KECCAK256 PUSH1 0x0 DUP7 PUSH20 0xFFFFFFFFFFFFFFFFFFFFFFFFFFFFFFFFFFFFFFFF AND PUSH20 0xFFFFFFFFFFFFFFFFFFFFFFFFFFFFFFFFFFFFFFFF AND DUP2 MSTORE PUSH1 0x20 ADD SWAP1 DUP2 MSTORE PUSH1 0x20 ADD PUSH1 0x0 KECCAK256 DUP2 SWAP1 SSTORE POP DUP4 PUSH20 0xFFFFFFFFFFFFFFFFFFFFFFFFFFFFFFFFFFFFFFFF AND CALLER PUSH20 0xFFFFFFFFFFFFFFFFFFFFFFFFFFFFFFFFFFFFFFFF AND PUSH32 0x8C5BE1E5EBEC7D5BD14F71427D1E84F3DD0314C0F7B2291E5B200AC8C7C3B925 DUP6 PUSH1 0x40 MLOAD DUP1 DUP3 DUP2 MSTORE PUSH1 0x20 ADD SWAP2 POP POP PUSH1 0x40 MLOAD DUP1 SWAP2 SUB SWAP1 LOG3 DUP4 PUSH20 0xFFFFFFFFFFFFFFFFFFFFFFFFFFFFFFFFFFFFFFFF AND PUSH4 0x8F4FFCB1 CALLER DUP6 ADDRESS DUP7 PUSH1 0x40 MLOAD DUP6 PUSH4 0xFFFFFFFF AND PUSH29 0x100000000000000000000000000000000000000000000000000000000 MUL DUP2 MSTORE PUSH1 0x4 ADD DUP1 DUP6 PUSH20 0xFFFFFFFFFFFFFFFFFFFFFFFFFFFFFFFFFFFFFFFF AND PUSH20 0xFFFFFFFFFFFFFFFFFFFFFFFFFFFFFFFFFFFFFFFF AND DUP2 MSTORE PUSH1 0x20 ADD DUP5 DUP2 MSTORE PUSH1 0x20 ADD DUP4 PUSH20 0xFFFFFFFFFFFFFFFFFFFFFFFFFFFFFFFFFFFFFFFF AND PUSH20 0xFFFFFFFFFFFFFFFFFFFFFFFFFFFFFFFFFFFFFFFF AND DUP2 MSTORE PUSH1 0x20 ADD DUP1 PUSH1 0x20 ADD DUP3 DUP2 SUB DUP3 MSTORE DUP4 DUP2 DUP2 MLOAD DUP2 MSTORE PUSH1 0x20 ADD SWAP2 POP DUP1 MLOAD SWAP1 PUSH1 0x20 ADD SWAP1 DUP1 DUP4 DUP4 PUSH1 0x0 JUMPDEST DUP4 DUP2 LT ISZERO PUSH2 0x1BF4 JUMPI DUP1 DUP3 ADD MLOAD DUP2 DUP5 ADD MSTORE PUSH1 0x20 DUP2 ADD SWAP1 POP PUSH2 0x1BD9 JUMP JUMPDEST POP POP POP POP SWAP1 POP SWAP1 DUP2 ADD SWAP1 PUSH1 0x1F AND DUP1 ISZERO PUSH2 0x1C21 JUMPI DUP1 DUP3 SUB DUP1 MLOAD PUSH1 0x1 DUP4 PUSH1 0x20 SUB PUSH2 0x100 EXP SUB NOT AND DUP2 MSTORE PUSH1 0x20 ADD SWAP2 POP JUMPDEST POP SWAP6 POP POP POP POP POP POP PUSH1 0x0 PUSH1 0x40 MLOAD DUP1 DUP4 SUB DUP2 PUSH1 0x0 DUP8 DUP1 EXTCODESIZE ISZERO ISZERO PUSH2 0x1C42 JUMPI PUSH1 0x0 DUP1 REVERT JUMPDEST PUSH2 0x2C6 GAS SUB CALL ISZERO ISZERO PUSH2 0x1C53 JUMPI PUSH1 0x0 DUP1 REVERT JUMPDEST POP POP POP PUSH1 0x1 SWAP1 POP SWAP4 SWAP3 POP POP POP JUMP JUMPDEST PUSH1 0x6 SLOAD DUP2 JUMP JUMPDEST PUSH1 0x1 PUSH1 0x0 SWAP1 SLOAD SWAP1 PUSH2 0x100 EXP SWAP1 DIV PUSH20 0xFFFFFFFFFFFFFFFFFFFFFFFFFFFFFFFFFFFFFFFF AND DUP2 JUMP JUMPDEST PUSH1 0x0 DUP1 PUSH1 0x0 SWAP1 SLOAD SWAP1 PUSH2 0x100 EXP SWAP1 DIV PUSH20 0xFFFFFFFFFFFFFFFFFFFFFFFFFFFFFFFFFFFFFFFF AND PUSH20 0xFFFFFFFFFFFFFFFFFFFFFFFFFFFFFFFFFFFFFFFF AND CALLER PUSH20 0xFFFFFFFFFFFFFFFFFFFFFFFFFFFFFFFFFFFFFFFF AND EQ ISZERO ISZERO PUSH2 0x1CEA JUMPI PUSH1 0x0 DUP1 REVERT JUMPDEST DUP3 PUSH20 0xFFFFFFFFFFFFFFFFFFFFFFFFFFFFFFFFFFFFFFFF AND PUSH4 0xA9059CBB PUSH1 0x0 DUP1 SWAP1 SLOAD SWAP1 PUSH2 0x100 EXP SWAP1 DIV PUSH20 0xFFFFFFFFFFFFFFFFFFFFFFFFFFFFFFFFFFFFFFFF AND DUP5 PUSH1 0x0 PUSH1 0x40 MLOAD PUSH1 0x20 ADD MSTORE PUSH1 0x40 MLOAD DUP4 PUSH4 0xFFFFFFFF AND PUSH29 0x100000000000000000000000000000000000000000000000000000000 MUL DUP2 MSTORE PUSH1 0x4 ADD DUP1 DUP4 PUSH20 0xFFFFFFFFFFFFFFFFFFFFFFFFFFFFFFFFFFFFFFFF AND PUSH20 0xFFFFFFFFFFFFFFFFFFFFFFFFFFFFFFFFFFFFFFFF AND DUP2 MSTORE PUSH1 0x20 ADD DUP3 DUP2 MSTORE PUSH1 0x20 ADD SWAP3 POP POP POP PUSH1 0x20 PUSH1 0x40 MLOAD DUP1 DUP4 SUB DUP2 PUSH1 0x0 DUP8 DUP1 EXTCODESIZE ISZERO ISZERO PUSH2 0x1DB6 JUMPI PUSH1 0x0 DUP1 REVERT JUMPDEST PUSH2 0x2C6 GAS SUB CALL ISZERO ISZERO PUSH2 0x1DC7 JUMPI PUSH1 0x0 DUP1 REVERT JUMPDEST POP POP POP PUSH1 0x40 MLOAD DUP1 MLOAD SWAP1 POP SWAP1 POP SWAP3 SWAP2 POP POP JUMP JUMPDEST PUSH1 0x9 SLOAD DUP2 JUMP JUMPDEST PUSH1 0x0 PUSH1 0x16 PUSH1 0x0 DUP5 PUSH20 0xFFFFFFFFFFFFFFFFFFFFFFFFFFFFFFFFFFFFFFFF AND PUSH20 0xFFFFFFFFFFFFFFFFFFFFFFFFFFFFFFFFFFFFFFFF AND DUP2 MSTORE PUSH1 0x20 ADD SWAP1 DUP2 MSTORE PUSH1 0x20 ADD PUSH1 0x0 KECCAK256 PUSH1 0x0 DUP4 PUSH20 0xFFFFFFFFFFFFFFFFFFFFFFFFFFFFFFFFFFFFFFFF AND PUSH20 0xFFFFFFFFFFFFFFFFFFFFFFFFFFFFFFFFFFFFFFFF AND DUP2 MSTORE PUSH1 0x20 ADD SWAP1 DUP2 MSTORE PUSH1 0x20 ADD PUSH1 0x0 KECCAK256 SLOAD SWAP1 POP SWAP3 SWAP2 POP POP JUMP JUMPDEST PUSH1 0x0 DUP1 SWAP1 SLOAD SWAP1 PUSH2 0x100 EXP SWAP1 DIV PUSH20 0xFFFFFFFFFFFFFFFFFFFFFFFFFFFFFFFFFFFFFFFF AND PUSH20 0xFFFFFFFFFFFFFFFFFFFFFFFFFFFFFFFFFFFFFFFF AND CALLER PUSH20 0xFFFFFFFFFFFFFFFFFFFFFFFFFFFFFFFFFFFFFFFF AND EQ ISZERO ISZERO PUSH2 0x1EC1 JUMPI PUSH1 0x0 DUP1 REVERT JUMPDEST DUP1 PUSH1 0x1 PUSH1 0x0 PUSH2 0x100 EXP DUP2 SLOAD DUP2 PUSH20 0xFFFFFFFFFFFFFFFFFFFFFFFFFFFFFFFFFFFFFFFF MUL NOT AND SWAP1 DUP4 PUSH20 0xFFFFFFFFFFFFFFFFFFFFFFFFFFFFFFFFFFFFFFFF AND MUL OR SWAP1 SSTORE POP POP JUMP JUMPDEST PUSH1 0x0 DUP1 DUP3 GT ISZERO ISZERO PUSH2 0x1F15 JUMPI PUSH1 0x0 DUP1 REVERT JUMPDEST DUP2 DUP4 DUP2 ISZERO ISZERO PUSH2 0x1F20 JUMPI INVALID JUMPDEST DIV SWAP1 POP SWAP3 SWAP2 POP POP JUMP JUMPDEST PUSH1 0x0 DUP2 DUP4 ADD SWAP1 POP DUP3 DUP2 LT ISZERO ISZERO ISZERO PUSH2 0x1F3F JUMPI PUSH1 0x0 DUP1 REVERT JUMPDEST SWAP3 SWAP2 POP POP JUMP JUMPDEST PUSH1 0xE SLOAD PUSH2 0x1F64 PUSH2 0x1F53 PUSH2 0x12F6 JUMP JUMPDEST PUSH1 0x14 SLOAD PUSH2 0x1F29 SWAP1 SWAP2 SWAP1 PUSH4 0xFFFFFFFF AND JUMP JUMPDEST GT DUP1 ISZERO PUSH2 0x1F73 JUMPI POP PUSH1 0x27 PUSH1 0xD SLOAD LT JUMPDEST ISZERO PUSH2 0x1F85 JUMPI PUSH1 0x1 PUSH1 0xD SLOAD ADD PUSH1 0xD DUP2 SWAP1 SSTORE POP JUMPDEST PUSH2 0x1FA2 PUSH1 0x1 PUSH1 0xD SLOAD ADD PUSH1 0x2 EXP PUSH1 0x5 SLOAD PUSH2 0x1F05 SWAP1 SWAP2 SWAP1 PUSH4 0xFFFFFFFF AND JUMP JUMPDEST PUSH1 0x5 SLOAD SUB PUSH1 0xE DUP2 SWAP1 SSTORE POP PUSH2 0x1FC2 PUSH1 0x1 PUSH1 0x7 SLOAD PUSH2 0x1F29 SWAP1 SWAP2 SWAP1 PUSH4 0xFFFFFFFF AND JUMP JUMPDEST PUSH1 0x7 DUP2 SWAP1 SSTORE POP PUSH1 0x0 PUSH1 0x8 SLOAD PUSH1 0x7 SLOAD DUP2 ISZERO ISZERO PUSH2 0x1FD9 JUMPI INVALID JUMPDEST MOD EQ ISZERO PUSH2 0x1FE9 JUMPI PUSH2 0x1FE8 PUSH2 0x2016 JUMP JUMPDEST JUMPDEST PUSH1 0x1 NUMBER SUB BLOCKHASH PUSH1 0xC DUP2 PUSH1 0x0 NOT AND SWAP1 SSTORE POP JUMP JUMPDEST PUSH1 0x0 DUP3 DUP3 GT ISZERO ISZERO ISZERO PUSH2 0x200B JUMPI PUSH1 0x0 DUP1 REVERT JUMPDEST DUP2 DUP4 SUB SWAP1 POP SWAP3 SWAP2 POP POP JUMP JUMPDEST PUSH1 0x0 DUP1 PUSH1 0x0 DUP1 PUSH1 0x0 DUP1 PUSH1 0x0 PUSH1 0x6 SLOAD NUMBER SUB SWAP7 POP PUSH1 0x8 SLOAD SWAP6 POP PUSH1 0x3C DUP7 MUL SWAP5 POP DUP5 DUP8 LT ISZERO PUSH2 0x20D5 JUMPI PUSH2 0x2061 DUP8 PUSH2 0x2053 PUSH1 0x64 DUP9 PUSH2 0x21A7 SWAP1 SWAP2 SWAP1 PUSH4 0xFFFFFFFF AND JUMP JUMPDEST PUSH2 0x1F05 SWAP1 SWAP2 SWAP1 PUSH4 0xFFFFFFFF AND JUMP JUMPDEST SWAP4 POP PUSH2 0x208B PUSH2 0x3E8 PUSH2 0x207D PUSH1 0x64 DUP8 PUSH2 0x1FFA SWAP1 SWAP2 SWAP1 PUSH4 0xFFFFFFFF AND JUMP JUMPDEST PUSH2 0x21D8 SWAP1 SWAP2 SWAP1 PUSH4 0xFFFFFFFF AND JUMP JUMPDEST SWAP3 POP PUSH2 0x20CA PUSH2 0x20B9 DUP5 PUSH2 0x20AB PUSH2 0x7D0 PUSH1 0xB SLOAD PUSH2 0x1F05 SWAP1 SWAP2 SWAP1 PUSH4 0xFFFFFFFF AND JUMP JUMPDEST PUSH2 0x21A7 SWAP1 SWAP2 SWAP1 PUSH4 0xFFFFFFFF AND JUMP JUMPDEST PUSH1 0xB SLOAD PUSH2 0x1FFA SWAP1 SWAP2 SWAP1 PUSH4 0xFFFFFFFF AND JUMP JUMPDEST PUSH1 0xB DUP2 SWAP1 SSTORE POP PUSH2 0x216B JUMP JUMPDEST PUSH2 0x20FB DUP6 PUSH2 0x20ED PUSH1 0x64 DUP11 PUSH2 0x21A7 SWAP1 SWAP2 SWAP1 PUSH4 0xFFFFFFFF AND JUMP JUMPDEST PUSH2 0x1F05 SWAP1 SWAP2 SWAP1 PUSH4 0xFFFFFFFF AND JUMP JUMPDEST SWAP2 POP PUSH2 0x2125 PUSH2 0x3E8 PUSH2 0x2117 PUSH1 0x64 DUP6 PUSH2 0x1FFA SWAP1 SWAP2 SWAP1 PUSH4 0xFFFFFFFF AND JUMP JUMPDEST PUSH2 0x21D8 SWAP1 SWAP2 SWAP1 PUSH4 0xFFFFFFFF AND JUMP JUMPDEST SWAP1 POP PUSH2 0x2164 PUSH2 0x2153 DUP3 PUSH2 0x2145 PUSH2 0x7D0 PUSH1 0xB SLOAD PUSH2 0x1F05 SWAP1 SWAP2 SWAP1 PUSH4 0xFFFFFFFF AND JUMP JUMPDEST PUSH2 0x21A7 SWAP1 SWAP2 SWAP1 PUSH4 0xFFFFFFFF AND JUMP JUMPDEST PUSH1 0xB SLOAD PUSH2 0x1F29 SWAP1 SWAP2 SWAP1 PUSH4 0xFFFFFFFF AND JUMP JUMPDEST PUSH1 0xB DUP2 SWAP1 SSTORE POP JUMPDEST NUMBER PUSH1 0x6 DUP2 SWAP1 SSTORE POP PUSH1 0x9 SLOAD PUSH1 0xB SLOAD LT ISZERO PUSH2 0x2188 JUMPI PUSH1 0x9 SLOAD PUSH1 0xB DUP2 SWAP1 SSTORE POP JUMPDEST PUSH1 0xA SLOAD PUSH1 0xB SLOAD GT ISZERO PUSH2 0x219E JUMPI PUSH1 0xA SLOAD PUSH1 0xB DUP2 SWAP1 SSTORE POP JUMPDEST POP POP POP POP POP POP POP JUMP JUMPDEST PUSH1 0x0 DUP2 DUP4 MUL SWAP1 POP PUSH1 0x0 DUP4 EQ DUP1 PUSH2 0x21C7 JUMPI POP DUP2 DUP4 DUP3 DUP2 ISZERO ISZERO PUSH2 0x21C4 JUMPI INVALID JUMPDEST DIV EQ JUMPDEST ISZERO ISZERO PUSH2 0x21D2 JUMPI PUSH1 0x0 DUP1 REVERT JUMPDEST SWAP3 SWAP2 POP POP JUMP JUMPDEST PUSH1 0x0 DUP2 DUP4 GT ISZERO PUSH2 0x21EA JUMPI DUP2 SWAP1 POP PUSH2 0x21EE JUMP JUMPDEST DUP3 SWAP1 POP JUMPDEST SWAP3 SWAP2 POP POP JUMP STOP LOG1 PUSH6 0x627A7A723058 KECCAK256 CALLDATACOPY DUP11 0x28 EQ SELFDESTRUCT AND 0xd9 DUP6 0x26 0xee 0xe2 CODECOPY 0xf 0xeb 0xba GT LT 0xf7 0xe4 PUSH28 0xBF0E39CB4231866E968CEB4900290000000000000000000000000000 "
        },
        "gasEstimates": {
          "creation": {
            "codeDepositCost": "1747200",
            "executionCost": "infinite",
            "totalCost": "infinite"
          },
          "external": {
            "": "905",
            "_BLOCKS_PER_READJUSTMENT()": "1024",
            "_MAXIMUM_TARGET()": "870",
            "_MINIMUM_TARGET()": "1156",
            "_totalSupply()": "606",
            "acceptOwnership()": "43609",
            "allowance(address,address)": "1443",
            "approve(address,uint256)": "22320",
            "approveAndCall(address,uint256,bytes)": "infinite",
            "balanceOf(address)": "925",
            "challengeNumber()": "932",
            "checkMintSolution(uint256,bytes32,bytes32,uint256)": "1035",
            "decimals()": "610",
            "epochCount()": "848",
            "getChallengeNumber()": "676",
            "getMiningDifficulty()": "infinite",
            "getMiningReward()": "infinite",
            "getMiningTarget()": "592",
            "getMintDigest(uint256,bytes32,bytes32)": "1108",
            "lastRewardAmount()": "1046",
            "lastRewardEthBlockNumber()": "430",
            "lastRewardTo()": "808",
            "latestDifficultyPeriodStarted()": "1090",
            "maxSupplyForEra()": "672",
            "miningTarget()": "892",
            "mint(uint256,bytes32)": "infinite",
            "mintWithoutPoW()": "infinite",
            "name()": "infinite",
            "newOwner()": "1160",
            "owner()": "984",
            "rewardEra()": "540",
            "setTokensMinted(uint256)": "20508",
            "symbol()": "infinite",
            "tokensMinted()": "738",
            "totalSupply()": "800",
            "transfer(address,uint256)": "infinite",
            "transferAnyERC20Token(address,uint256)": "infinite",
            "transferFrom(address,address,uint256)": "infinite",
            "transferOwnership(address)": "21527"
          },
          "internal": {
            "_reAdjustDifficulty()": "infinite",
            "_startNewMiningEpoch()": "infinite"
          }
        },
        "methodIdentifiers": {
          "_BLOCKS_PER_READJUSTMENT()": "b5ade81b",
          "_MAXIMUM_TARGET()": "87a2a9d6",
          "_MINIMUM_TARGET()": "dc6e9cf9",
          "_totalSupply()": "3eaaf86b",
          "acceptOwnership()": "79ba5097",
          "allowance(address,address)": "dd62ed3e",
          "approve(address,uint256)": "095ea7b3",
          "approveAndCall(address,uint256,bytes)": "cae9ca51",
          "balanceOf(address)": "70a08231",
          "challengeNumber()": "8ae0368b",
          "checkMintSolution(uint256,bytes32,bytes32,uint256)": "81269a56",
          "decimals()": "313ce567",
          "epochCount()": "829965cc",
          "getChallengeNumber()": "4ef37628",
          "getMiningDifficulty()": "17da485f",
          "getMiningReward()": "490203a7",
          "getMiningTarget()": "32e99708",
          "getMintDigest(uint256,bytes32,bytes32)": "97566aa0",
          "lastRewardAmount()": "bafedcaa",
          "lastRewardEthBlockNumber()": "163aa00d",
          "lastRewardTo()": "6fd396d6",
          "latestDifficultyPeriodStarted()": "cb9ae707",
          "maxSupplyForEra()": "4fa972e1",
          "miningTarget()": "8a769d35",
          "mint(uint256,bytes32)": "1801fbe5",
          "mintWithoutPoW()": "5515a1ea",
          "name()": "06fdde03",
          "newOwner()": "d4ee1d90",
          "owner()": "8da5cb5b",
          "rewardEra()": "2d38bf7a",
          "setTokensMinted(uint256)": "5ce7e030",
          "symbol()": "95d89b41",
          "tokensMinted()": "6de9f32b",
          "totalSupply()": "18160ddd",
          "transfer(address,uint256)": "a9059cbb",
          "transferAnyERC20Token(address,uint256)": "dc39d06d",
          "transferFrom(address,address,uint256)": "23b872dd",
          "transferOwnership(address)": "f2fde38b"
        }
      },
      "userdoc": {
        "methods": {}
      }
    }
  }
}